{
  "_format": "hh-sol-artifact-1",
  "contractName": "RewardManager",
  "sourceName": "contracts/RewardManager.sol",
  "abi": [
    {
      "inputs": [
        {
          "internalType": "address",
          "name": "_zvp",
          "type": "address"
        }
      ],
      "stateMutability": "nonpayable",
      "type": "constructor"
    },
    {
      "inputs": [],
      "name": "HandlesAlreadySavedForRequestID",
      "type": "error"
    },
    {
      "inputs": [],
      "name": "InvalidKMSSignatures",
      "type": "error"
    },
    {
      "inputs": [],
      "name": "NoHandleFoundForRequestID",
      "type": "error"
    },
    {
      "anonymous": false,
      "inputs": [
        {
          "indexed": true,
          "internalType": "uint256",
          "name": "campaignId",
          "type": "uint256"
        },
        {
          "indexed": false,
          "internalType": "string",
          "name": "name",
          "type": "string"
        },
        {
          "indexed": false,
          "internalType": "enum RewardManager.TaskType",
          "name": "taskType",
          "type": "uint8"
        }
      ],
      "name": "CampaignCreated",
      "type": "event"
    },
    {
      "anonymous": false,
      "inputs": [
        {
          "indexed": false,
          "internalType": "address",
          "name": "zvp",
          "type": "address"
        },
        {
          "indexed": false,
          "internalType": "address",
          "name": "ecosystem",
          "type": "address"
        },
        {
          "indexed": false,
          "internalType": "address",
          "name": "nft",
          "type": "address"
        },
        {
          "indexed": false,
          "internalType": "address",
          "name": "discord",
          "type": "address"
        }
      ],
      "name": "ContractsConfigured",
      "type": "event"
    },
    {
      "anonymous": false,
      "inputs": [
        {
          "indexed": true,
          "internalType": "address",
          "name": "user",
          "type": "address"
        },
        {
          "indexed": false,
          "internalType": "uint256",
          "name": "amount",
          "type": "uint256"
        },
        {
          "indexed": false,
          "internalType": "uint32",
          "name": "streak",
          "type": "uint32"
        },
        {
          "indexed": false,
          "internalType": "uint256",
          "name": "timestamp",
          "type": "uint256"
        }
      ],
      "name": "DailyLoginClaimed",
      "type": "event"
    },
    {
      "anonymous": false,
      "inputs": [
        {
          "indexed": true,
          "internalType": "uint256",
          "name": "requestId",
          "type": "uint256"
        },
        {
          "indexed": true,
          "internalType": "address",
          "name": "user",
          "type": "address"
        },
        {
          "indexed": false,
          "internalType": "enum RewardManager.DecryptType",
          "name": "dtype",
          "type": "uint8"
        }
      ],
      "name": "DataDecrypted",
      "type": "event"
    },
    {
      "anonymous": false,
      "inputs": [
        {
          "indexed": true,
          "internalType": "uint256",
          "name": "requestID",
          "type": "uint256"
        }
      ],
      "name": "DecryptionFulfilled",
      "type": "event"
    },
    {
      "anonymous": false,
      "inputs": [
        {
          "indexed": true,
          "internalType": "uint256",
          "name": "requestId",
          "type": "uint256"
        },
        {
          "indexed": true,
          "internalType": "address",
          "name": "user",
          "type": "address"
        },
        {
          "indexed": false,
          "internalType": "enum RewardManager.DecryptType",
          "name": "dtype",
          "type": "uint8"
        }
      ],
      "name": "DecryptionRequested",
      "type": "event"
    },
    {
      "anonymous": false,
      "inputs": [
        {
          "indexed": true,
          "internalType": "uint256",
          "name": "requestId",
          "type": "uint256"
        },
        {
          "indexed": true,
          "internalType": "address",
          "name": "user",
          "type": "address"
        },
        {
          "indexed": false,
          "internalType": "uint256",
          "name": "timestamp",
          "type": "uint256"
        }
      ],
      "name": "DecryptionTimeout",
      "type": "event"
    },
    {
      "anonymous": false,
      "inputs": [
        {
          "indexed": false,
          "internalType": "string",
          "name": "feature",
          "type": "string"
        },
        {
          "indexed": false,
          "internalType": "bool",
          "name": "isPaused",
          "type": "bool"
        }
      ],
      "name": "FeaturePaused",
      "type": "event"
    },
    {
      "anonymous": false,
      "inputs": [
        {
          "indexed": true,
          "internalType": "address",
          "name": "oldOwner",
          "type": "address"
        },
        {
          "indexed": true,
          "internalType": "address",
          "name": "newOwner",
          "type": "address"
        }
      ],
      "name": "OwnerTransferred",
      "type": "event"
    },
    {
      "anonymous": false,
      "inputs": [
        {
          "indexed": false,
          "internalType": "bool",
          "name": "isPaused",
          "type": "bool"
        }
      ],
      "name": "Paused",
      "type": "event"
    },
    {
      "anonymous": false,
      "inputs": [
        {
          "indexed": true,
          "internalType": "address",
          "name": "referrer",
          "type": "address"
        },
        {
          "indexed": true,
          "internalType": "address",
          "name": "referred",
          "type": "address"
        },
        {
          "indexed": false,
          "internalType": "uint256",
          "name": "timestamp",
          "type": "uint256"
        }
      ],
      "name": "ReferralLimitReached",
      "type": "event"
    },
    {
      "anonymous": false,
      "inputs": [
        {
          "indexed": true,
          "internalType": "address",
          "name": "referrer",
          "type": "address"
        },
        {
          "indexed": true,
          "internalType": "address",
          "name": "referred",
          "type": "address"
        },
        {
          "indexed": false,
          "internalType": "uint256",
          "name": "timestamp",
          "type": "uint256"
        }
      ],
      "name": "ReferralRegistered",
      "type": "event"
    },
    {
      "anonymous": false,
      "inputs": [
        {
          "indexed": true,
          "internalType": "address",
          "name": "user",
          "type": "address"
        },
        {
          "indexed": false,
          "internalType": "uint32",
          "name": "amount",
          "type": "uint32"
        },
        {
          "indexed": false,
          "internalType": "bool",
          "name": "isReferrer",
          "type": "bool"
        }
      ],
      "name": "ReferralRewardClaimed",
      "type": "event"
    },
    {
      "anonymous": false,
      "inputs": [
        {
          "indexed": true,
          "internalType": "uint256",
          "name": "campaignId",
          "type": "uint256"
        },
        {
          "indexed": true,
          "internalType": "address",
          "name": "user",
          "type": "address"
        },
        {
          "indexed": false,
          "internalType": "enum RewardManager.RewardType",
          "name": "rewardType",
          "type": "uint8"
        },
        {
          "indexed": false,
          "internalType": "uint256",
          "name": "amount",
          "type": "uint256"
        }
      ],
      "name": "RewardClaimed",
      "type": "event"
    },
    {
      "anonymous": false,
      "inputs": [
        {
          "indexed": true,
          "internalType": "uint256",
          "name": "campaignId",
          "type": "uint256"
        },
        {
          "indexed": true,
          "internalType": "address",
          "name": "user",
          "type": "address"
        },
        {
          "indexed": false,
          "internalType": "uint256",
          "name": "taskId",
          "type": "uint256"
        },
        {
          "indexed": false,
          "internalType": "uint256",
          "name": "reward",
          "type": "uint256"
        }
      ],
      "name": "TaskCompleted",
      "type": "event"
    },
    {
      "inputs": [],
      "name": "DECRYPTION_TIMEOUT",
      "outputs": [
        {
          "internalType": "uint256",
          "name": "",
          "type": "uint256"
        }
      ],
      "stateMutability": "view",
      "type": "function"
    },
    {
      "inputs": [],
      "name": "MAX_REFERRALS",
      "outputs": [
        {
          "internalType": "uint8",
          "name": "",
          "type": "uint8"
        }
      ],
      "stateMutability": "view",
      "type": "function"
    },
    {
      "inputs": [
        {
          "internalType": "uint256",
          "name": "requestId",
          "type": "uint256"
        },
        {
          "internalType": "bytes",
          "name": "cleartexts",
          "type": "bytes"
        },
        {
          "internalType": "bytes",
          "name": "decryptionProof",
          "type": "bytes"
        }
      ],
      "name": "_onDailyLoginDecrypted",
      "outputs": [],
      "stateMutability": "nonpayable",
      "type": "function"
    },
    {
      "inputs": [
        {
          "internalType": "uint256",
          "name": "requestId",
          "type": "uint256"
        },
        {
          "internalType": "bytes",
          "name": "cleartexts",
          "type": "bytes"
        },
        {
          "internalType": "bytes",
          "name": "decryptionProof",
          "type": "bytes"
        }
      ],
      "name": "_onReferralDecrypted",
      "outputs": [],
      "stateMutability": "nonpayable",
      "type": "function"
    },
    {
      "inputs": [
        {
          "internalType": "uint256",
          "name": "campaignId",
          "type": "uint256"
        },
        {
          "internalType": "enum RewardManager.RewardType",
          "name": "rewardType",
          "type": "uint8"
        },
        {
          "internalType": "uint256",
          "name": "amount",
          "type": "uint256"
        },
        {
          "internalType": "uint256",
          "name": "nftId",
          "type": "uint256"
        },
        {
          "internalType": "address",
          "name": "tokenAddress",
          "type": "address"
        },
        {
          "internalType": "bool",
          "name": "isSoulbound",
          "type": "bool"
        }
      ],
      "name": "addRewardToCampaign",
      "outputs": [],
      "stateMutability": "nonpayable",
      "type": "function"
    },
    {
      "inputs": [
        {
          "internalType": "uint256",
          "name": "campaignId",
          "type": "uint256"
        },
        {
          "internalType": "string",
          "name": "taskName",
          "type": "string"
        },
        {
          "internalType": "string",
          "name": "description",
          "type": "string"
        },
        {
          "internalType": "uint256",
          "name": "rewardAmount",
          "type": "uint256"
        },
        {
          "internalType": "bool",
          "name": "isRequired",
          "type": "bool"
        }
      ],
      "name": "addTaskToCampaign",
      "outputs": [],
      "stateMutability": "nonpayable",
      "type": "function"
    },
    {
      "inputs": [],
      "name": "campaignPaused",
      "outputs": [
        {
          "internalType": "bool",
          "name": "",
          "type": "bool"
        }
      ],
      "stateMutability": "view",
      "type": "function"
    },
    {
      "inputs": [
        {
          "internalType": "uint256",
          "name": "",
          "type": "uint256"
        }
      ],
      "name": "campaigns",
      "outputs": [
        {
          "internalType": "string",
          "name": "name",
          "type": "string"
        },
        {
          "internalType": "uint256",
          "name": "startTime",
          "type": "uint256"
        },
        {
          "internalType": "uint256",
          "name": "endTime",
          "type": "uint256"
        },
        {
          "internalType": "enum RewardManager.TaskType",
          "name": "taskType",
          "type": "uint8"
        },
        {
          "internalType": "uint256",
          "name": "requiredTaskCount",
          "type": "uint256"
        },
        {
          "internalType": "uint256",
          "name": "totalParticipants",
          "type": "uint256"
        },
        {
          "internalType": "bool",
          "name": "isActive",
          "type": "bool"
        }
      ],
      "stateMutability": "view",
      "type": "function"
    },
    {
      "inputs": [],
      "name": "claimDailyLogin",
      "outputs": [],
      "stateMutability": "nonpayable",
      "type": "function"
    },
    {
      "inputs": [
        {
          "internalType": "uint256",
          "name": "campaignId",
          "type": "uint256"
        }
      ],
      "name": "claimQuestReward",
      "outputs": [],
      "stateMutability": "nonpayable",
      "type": "function"
    },
    {
      "inputs": [],
      "name": "clearStuckDailyLoginDecryption",
      "outputs": [],
      "stateMutability": "nonpayable",
      "type": "function"
    },
    {
      "inputs": [],
      "name": "clearStuckReferralDecryption",
      "outputs": [],
      "stateMutability": "nonpayable",
      "type": "function"
    },
    {
      "inputs": [
        {
          "internalType": "uint256",
          "name": "campaignId",
          "type": "uint256"
        },
        {
          "internalType": "uint256",
          "name": "taskId",
          "type": "uint256"
        }
      ],
      "name": "completeTask",
      "outputs": [],
      "stateMutability": "nonpayable",
      "type": "function"
    },
    {
      "inputs": [
        {
          "internalType": "string",
          "name": "name",
          "type": "string"
        },
        {
          "internalType": "uint256",
          "name": "startTime",
          "type": "uint256"
        },
        {
          "internalType": "uint256",
          "name": "endTime",
          "type": "uint256"
        },
        {
          "internalType": "enum RewardManager.TaskType",
          "name": "taskType",
          "type": "uint8"
        },
        {
          "internalType": "uint256",
          "name": "requiredTaskCount",
          "type": "uint256"
        }
      ],
      "name": "createCampaign",
      "outputs": [
        {
          "internalType": "uint256",
          "name": "",
          "type": "uint256"
        }
      ],
      "stateMutability": "nonpayable",
      "type": "function"
    },
    {
      "inputs": [],
      "name": "dailyLoginPaused",
      "outputs": [
        {
          "internalType": "bool",
          "name": "",
          "type": "bool"
        }
      ],
      "stateMutability": "view",
      "type": "function"
    },
    {
      "inputs": [],
      "name": "dailyLoginReward",
      "outputs": [
        {
          "internalType": "uint256",
          "name": "",
          "type": "uint256"
        }
      ],
      "stateMutability": "view",
      "type": "function"
    },
    {
      "inputs": [],
      "name": "dailyLoginStreak",
      "outputs": [
        {
          "internalType": "uint256",
          "name": "",
          "type": "uint256"
        }
      ],
      "stateMutability": "view",
      "type": "function"
    },
    {
      "inputs": [],
      "name": "decReferredReward",
      "outputs": [
        {
          "internalType": "uint32",
          "name": "",
          "type": "uint32"
        }
      ],
      "stateMutability": "view",
      "type": "function"
    },
    {
      "inputs": [],
      "name": "decReferrerReward",
      "outputs": [
        {
          "internalType": "uint32",
          "name": "",
          "type": "uint32"
        }
      ],
      "stateMutability": "view",
      "type": "function"
    },
    {
      "inputs": [],
      "name": "discordRoleManager",
      "outputs": [
        {
          "internalType": "address",
          "name": "",
          "type": "address"
        }
      ],
      "stateMutability": "view",
      "type": "function"
    },
    {
      "inputs": [],
      "name": "ecosystemToken",
      "outputs": [
        {
          "internalType": "address",
          "name": "",
          "type": "address"
        }
      ],
      "stateMutability": "view",
      "type": "function"
    },
    {
      "inputs": [],
      "name": "encReferredReward",
      "outputs": [
        {
          "internalType": "euint32",
          "name": "",
          "type": "bytes32"
        }
      ],
      "stateMutability": "view",
      "type": "function"
    },
    {
      "inputs": [],
      "name": "encReferrerReward",
      "outputs": [
        {
          "internalType": "euint32",
          "name": "",
          "type": "bytes32"
        }
      ],
      "stateMutability": "view",
      "type": "function"
    },
    {
      "inputs": [
        {
          "internalType": "uint256",
          "name": "campaignId",
          "type": "uint256"
        }
      ],
      "name": "getCampaignInfo",
      "outputs": [
        {
          "internalType": "string",
          "name": "name",
          "type": "string"
        },
        {
          "internalType": "uint256",
          "name": "startTime",
          "type": "uint256"
        },
        {
          "internalType": "uint256",
          "name": "endTime",
          "type": "uint256"
        },
        {
          "internalType": "enum RewardManager.TaskType",
          "name": "taskType",
          "type": "uint8"
        },
        {
          "internalType": "uint256",
          "name": "requiredTaskCount",
          "type": "uint256"
        },
        {
          "internalType": "uint256",
          "name": "totalParticipants",
          "type": "uint256"
        },
        {
          "internalType": "uint256",
          "name": "taskCount",
          "type": "uint256"
        },
        {
          "internalType": "uint256",
          "name": "rewardCount",
          "type": "uint256"
        },
        {
          "internalType": "bool",
          "name": "isActive",
          "type": "bool"
        }
      ],
      "stateMutability": "view",
      "type": "function"
    },
    {
      "inputs": [
        {
          "internalType": "uint256",
          "name": "campaignId",
          "type": "uint256"
        },
        {
          "internalType": "uint256",
          "name": "rewardId",
          "type": "uint256"
        }
      ],
      "name": "getCampaignReward",
      "outputs": [
        {
          "internalType": "enum RewardManager.RewardType",
          "name": "rewardType",
          "type": "uint8"
        },
        {
          "internalType": "uint256",
          "name": "amount",
          "type": "uint256"
        },
        {
          "internalType": "uint256",
          "name": "nftId",
          "type": "uint256"
        },
        {
          "internalType": "address",
          "name": "tokenAddress",
          "type": "address"
        },
        {
          "internalType": "bool",
          "name": "isSoulbound",
          "type": "bool"
        }
      ],
      "stateMutability": "view",
      "type": "function"
    },
    {
      "inputs": [
        {
          "internalType": "uint256",
          "name": "campaignId",
          "type": "uint256"
        },
        {
          "internalType": "uint256",
          "name": "taskId",
          "type": "uint256"
        }
      ],
      "name": "getCampaignTask",
      "outputs": [
        {
          "internalType": "string",
          "name": "taskName",
          "type": "string"
        },
        {
          "internalType": "string",
          "name": "description",
          "type": "string"
        },
        {
          "internalType": "uint256",
          "name": "rewardAmount",
          "type": "uint256"
        },
        {
          "internalType": "bool",
          "name": "isRequired",
          "type": "bool"
        },
        {
          "internalType": "bool",
          "name": "isActive",
          "type": "bool"
        }
      ],
      "stateMutability": "view",
      "type": "function"
    },
    {
      "inputs": [
        {
          "internalType": "address",
          "name": "user",
          "type": "address"
        }
      ],
      "name": "getMyCampaigns",
      "outputs": [
        {
          "internalType": "uint256[]",
          "name": "",
          "type": "uint256[]"
        }
      ],
      "stateMutability": "view",
      "type": "function"
    },
    {
      "inputs": [
        {
          "internalType": "address",
          "name": "user",
          "type": "address"
        }
      ],
      "name": "getMyDailyLoginInfo",
      "outputs": [
        {
          "internalType": "uint256",
          "name": "lastClaimTime",
          "type": "uint256"
        },
        {
          "internalType": "uint32",
          "name": "streakCount",
          "type": "uint32"
        },
        {
          "internalType": "uint32",
          "name": "totalClaimed",
          "type": "uint32"
        },
        {
          "internalType": "bool",
          "name": "canClaim",
          "type": "bool"
        },
        {
          "internalType": "bool",
          "name": "decryptionPending",
          "type": "bool"
        },
        {
          "internalType": "uint256",
          "name": "pendingRequestId",
          "type": "uint256"
        }
      ],
      "stateMutability": "view",
      "type": "function"
    },
    {
      "inputs": [
        {
          "internalType": "address",
          "name": "user",
          "type": "address"
        }
      ],
      "name": "getMyReferralInfo",
      "outputs": [
        {
          "internalType": "address",
          "name": "referrer",
          "type": "address"
        },
        {
          "internalType": "uint32",
          "name": "referralCount",
          "type": "uint32"
        },
        {
          "internalType": "uint32",
          "name": "totalEarned",
          "type": "uint32"
        },
        {
          "internalType": "bool",
          "name": "hasUsedReferral",
          "type": "bool"
        },
        {
          "internalType": "bool",
          "name": "hasReachedLimit",
          "type": "bool"
        },
        {
          "internalType": "bool",
          "name": "decryptionPending",
          "type": "bool"
        },
        {
          "internalType": "uint256",
          "name": "pendingRequestId",
          "type": "uint256"
        }
      ],
      "stateMutability": "view",
      "type": "function"
    },
    {
      "inputs": [
        {
          "internalType": "uint256",
          "name": "campaignId",
          "type": "uint256"
        },
        {
          "internalType": "address",
          "name": "user",
          "type": "address"
        }
      ],
      "name": "getUserCampaignProgress",
      "outputs": [
        {
          "internalType": "uint256",
          "name": "completedTasks",
          "type": "uint256"
        },
        {
          "internalType": "uint256",
          "name": "totalTasks",
          "type": "uint256"
        },
        {
          "internalType": "uint256",
          "name": "completedRequired",
          "type": "uint256"
        },
        {
          "internalType": "uint256",
          "name": "totalRequired",
          "type": "uint256"
        },
        {
          "internalType": "bool",
          "name": "canClaim",
          "type": "bool"
        },
        {
          "internalType": "bool",
          "name": "hasClaimed",
          "type": "bool"
        }
      ],
      "stateMutability": "view",
      "type": "function"
    },
    {
      "inputs": [
        {
          "internalType": "uint256",
          "name": "campaignId",
          "type": "uint256"
        },
        {
          "internalType": "address",
          "name": "user",
          "type": "address"
        },
        {
          "internalType": "uint256",
          "name": "taskId",
          "type": "uint256"
        }
      ],
      "name": "getUserTaskStatus",
      "outputs": [
        {
          "internalType": "bool",
          "name": "completed",
          "type": "bool"
        }
      ],
      "stateMutability": "view",
      "type": "function"
    },
    {
      "inputs": [
        {
          "internalType": "address",
          "name": "user",
          "type": "address"
        },
        {
          "internalType": "enum RewardManager.DecryptType",
          "name": "dtype",
          "type": "uint8"
        }
      ],
      "name": "isDecryptionStuck",
      "outputs": [
        {
          "internalType": "bool",
          "name": "stuck",
          "type": "bool"
        },
        {
          "internalType": "uint256",
          "name": "timeRemaining",
          "type": "uint256"
        }
      ],
      "stateMutability": "view",
      "type": "function"
    },
    {
      "inputs": [],
      "name": "nextCampaignId",
      "outputs": [
        {
          "internalType": "uint256",
          "name": "",
          "type": "uint256"
        }
      ],
      "stateMutability": "view",
      "type": "function"
    },
    {
      "inputs": [],
      "name": "owner",
      "outputs": [
        {
          "internalType": "address",
          "name": "",
          "type": "address"
        }
      ],
      "stateMutability": "view",
      "type": "function"
    },
    {
      "inputs": [],
      "name": "paused",
      "outputs": [
        {
          "internalType": "bool",
          "name": "",
          "type": "bool"
        }
      ],
      "stateMutability": "view",
      "type": "function"
    },
    {
      "inputs": [],
      "name": "protocolId",
      "outputs": [
        {
          "internalType": "uint256",
          "name": "",
          "type": "uint256"
        }
      ],
      "stateMutability": "pure",
      "type": "function"
    },
    {
      "inputs": [],
      "name": "referralPaused",
      "outputs": [
        {
          "internalType": "bool",
          "name": "",
          "type": "bool"
        }
      ],
      "stateMutability": "view",
      "type": "function"
    },
    {
      "inputs": [
        {
          "internalType": "address",
          "name": "referrer",
          "type": "address"
        }
      ],
      "name": "registerReferral",
      "outputs": [],
      "stateMutability": "nonpayable",
      "type": "function"
    },
    {
      "inputs": [],
      "name": "requestMyDailyLoginDecryption",
      "outputs": [
        {
          "internalType": "uint256",
          "name": "requestId",
          "type": "uint256"
        }
      ],
      "stateMutability": "nonpayable",
      "type": "function"
    },
    {
      "inputs": [],
      "name": "requestMyReferralDecryption",
      "outputs": [
        {
          "internalType": "uint256",
          "name": "requestId",
          "type": "uint256"
        }
      ],
      "stateMutability": "nonpayable",
      "type": "function"
    },
    {
      "inputs": [],
      "name": "rewardNFT",
      "outputs": [
        {
          "internalType": "address",
          "name": "",
          "type": "address"
        }
      ],
      "stateMutability": "view",
      "type": "function"
    },
    {
      "inputs": [
        {
          "internalType": "address",
          "name": "_ecosystemToken",
          "type": "address"
        },
        {
          "internalType": "address",
          "name": "_rewardNFT",
          "type": "address"
        },
        {
          "internalType": "address",
          "name": "_discordRole",
          "type": "address"
        }
      ],
      "name": "setContracts",
      "outputs": [],
      "stateMutability": "nonpayable",
      "type": "function"
    },
    {
      "inputs": [
        {
          "internalType": "uint256",
          "name": "amount",
          "type": "uint256"
        }
      ],
      "name": "setDailyLoginReward",
      "outputs": [],
      "stateMutability": "nonpayable",
      "type": "function"
    },
    {
      "inputs": [
        {
          "internalType": "string",
          "name": "feature",
          "type": "string"
        },
        {
          "internalType": "bool",
          "name": "_paused",
          "type": "bool"
        }
      ],
      "name": "setFeaturePaused",
      "outputs": [],
      "stateMutability": "nonpayable",
      "type": "function"
    },
    {
      "inputs": [
        {
          "internalType": "bool",
          "name": "_paused",
          "type": "bool"
        }
      ],
      "name": "setPaused",
      "outputs": [],
      "stateMutability": "nonpayable",
      "type": "function"
    },
    {
      "inputs": [
        {
          "internalType": "uint32",
          "name": "referrerAmount",
          "type": "uint32"
        },
        {
          "internalType": "uint32",
          "name": "referredAmount",
          "type": "uint32"
        }
      ],
      "name": "setReferralRewards",
      "outputs": [],
      "stateMutability": "nonpayable",
      "type": "function"
    },
    {
      "inputs": [
        {
          "internalType": "address",
          "name": "newOwner",
          "type": "address"
        }
      ],
      "name": "transferOwnership",
      "outputs": [],
      "stateMutability": "nonpayable",
      "type": "function"
    },
    {
      "inputs": [
        {
          "internalType": "address",
          "name": "",
          "type": "address"
        },
        {
          "internalType": "uint256",
          "name": "",
          "type": "uint256"
        }
      ],
      "name": "userCampaigns",
      "outputs": [
        {
          "internalType": "uint256",
          "name": "",
          "type": "uint256"
        }
      ],
      "stateMutability": "view",
      "type": "function"
    },
    {
      "inputs": [
        {
          "internalType": "address",
          "name": "",
          "type": "address"
        }
      ],
      "name": "userDailyLogins",
      "outputs": [
        {
          "internalType": "uint256",
          "name": "lastClaimTime",
          "type": "uint256"
        },
        {
          "internalType": "euint32",
          "name": "encStreakCount",
          "type": "bytes32"
        },
        {
          "internalType": "uint32",
          "name": "decStreakCount",
          "type": "uint32"
        },
        {
          "internalType": "euint32",
          "name": "encTotalClaimed",
          "type": "bytes32"
        },
        {
          "internalType": "uint32",
          "name": "decTotalClaimed",
          "type": "uint32"
        },
        {
          "internalType": "bool",
          "name": "decryptionPending",
          "type": "bool"
        },
        {
          "internalType": "uint256",
          "name": "pendingRequestId",
          "type": "uint256"
        },
        {
          "internalType": "uint256",
          "name": "requestTime",
          "type": "uint256"
        }
      ],
      "stateMutability": "view",
      "type": "function"
    },
    {
      "inputs": [],
      "name": "verifySetup",
      "outputs": [
        {
          "internalType": "bool",
          "name": "zvpConfigured",
          "type": "bool"
        },
        {
          "internalType": "bool",
          "name": "ecosystemConfigured",
          "type": "bool"
        },
        {
          "internalType": "bool",
          "name": "nftConfigured",
          "type": "bool"
        },
        {
          "internalType": "bool",
          "name": "discordConfigured",
          "type": "bool"
        },
        {
          "internalType": "bool",
          "name": "allReady",
          "type": "bool"
        }
      ],
      "stateMutability": "view",
      "type": "function"
    },
    {
      "inputs": [],
      "name": "version",
      "outputs": [
        {
          "internalType": "string",
          "name": "",
          "type": "string"
        }
      ],
      "stateMutability": "pure",
      "type": "function"
    },
    {
      "inputs": [],
      "name": "zvpToken",
      "outputs": [
        {
          "internalType": "address",
          "name": "",
          "type": "address"
        }
      ],
      "stateMutability": "view",
      "type": "function"
    }
  ],
  "bytecode": "0x6080604090808252346200034a578062004866803803809162000023828562000381565b83396020928391810103126200034a57516001600160a01b0390818116908190036200034a57606091845162000059816200034f565b600093818580935282878201528288820152015284516200007a816200034f565b73687820221192c5b662b25367f70076a37bc79b6c80825273848b0066793bcc60346da1f49049357399b8d59586830181905273a02cda4ca3a71d7c46997716f4283aa851c28812888401819052731364cbbf2cdf5032c47d8226a6f6fbd2afcdacac60609094018490527f9e7b61f58c47dc699ac88507c4f5bb9f121c03808c5676a8078fe583e464970080546001600160a01b031990811690941790557f9e7b61f58c47dc699ac88507c4f5bb9f121c03808c5676a8078fe583e464970180548416831781557f9e7b61f58c47dc699ac88507c4f5bb9f121c03808c5676a8078fe583e4649702805485169092179091557f9e7b61f58c47dc699ac88507c4f5bb9f121c03808c5676a8078fe583e46497038054841690941790935560016005819055678ac7230489e8000060065562015180600755600a80546001600160401b03191664140000001e179055600b55939081156200031a57338187541617865560015416176001558551858160448188639cd07acb60e01b98898352601e6004840152600460248401525af19081156200031057918693918695938691620002cb575b50906044929160085554169187519586938492835260146004840152600460248401525af1928315620002bf57819362000285575b50505060095562000268600854620003a5565b5062000276600954620003a5565b505161443790816200042f8239f35b9091809350813d8311620002b7575b620002a0818362000381565b81010312620002b457505138808062000255565b80fd5b503d62000294565b508351903d90823e3d90fd5b929480929496508391503d831162000308575b620002ea818362000381565b810103126200030457518493869390929091604462000220565b8480fd5b503d620002de565b87513d87823e3d90fd5b875162461bcd60e51b81526004810188905260096024820152683d32b9379030b2323960b91b6044820152606490fd5b600080fd5b608081019081106001600160401b038211176200036b57604052565b634e487b7160e01b600052604160045260246000fd5b601f909101601f19168101906001600160401b038211908210176200036b57604052565b7f9e7b61f58c47dc699ac88507c4f5bb9f121c03808c5676a8078fe583e4649700546001600160a01b0316803b156200034a5760008091604460405180948193635ca4b5b160e11b83528760048401523060248401525af1801562000422576200040d575090565b6001600160401b0381116200036b5760405290565b6040513d6000823e3d90fdfe608080604052600436101561001357600080fd5b60009060e08235811c91826308a907c314613524575081630ef477fc146134fb5781630f158701146134a55781630fbe84451461347c578163108c8ae414613099578163108cf8861461302e5781631202757214612fed578163141961bc14612f5957816316c38b3c14612edf57816319ac74bd14612e89578163209ab7111461297a5781632f4faf6d14612587578163305f41f4146122e557816335926a821461218d57816339726aca146120a45781633e8018d81461201c578163440baa0714611f7b5781635224c42614611b805781635362928514611b5a57816354fd4d5014611ad9578163596548e114611a475781635b46d59314611a215781635c975abb146119fb5781636169fcdd1461184e57816364c90966146117a057816365b0d2951461178857816367fd608b146117625781636e30bc9e146117455781636efa024a146116a9578163724177121461142957816375b9ea1d14610d8f5781637903a75614610d7157816379972cb114610d595781637fe43d0314610d355781638da5cb5b14610d0e578163979eedce14610cf2578163a5c564cd14610c68578163ad43657314610c3f578163b3066d4914610b86578163b424d70f14610b60578163b5bca4a614610935578163c8ea4dd61461090c578163c959b355146108ee578163cc750b7914610837578163da1f12ab1461081a578163dc0fe10814610768578163dce7303714610710578163e38e2b821461066457508063f2fde38b146105ef578063f545abe9146105d1578063fcb1d4bb1461027f5763fe17c1431461025f57600080fd5b3461027c578060031936011261027c576020600854604051908152f35b80fd5b503461027c5760a036600319011261027c576001600160401b03906024358281116105cd576102b29036906004016137c5565b6044358381116105c9576102ca9036906004016137c5565b608435918215158093036105c4576102ec60018060a01b038554163314613a4d565b6004358452602091600c835260046040862061030e60ff6008830154166138e8565b01906040519261031d846135ea565b835283830190815260408301916064358352606084019586526080840194600191828752805490600160401b8210156104e3579061035f918482018155613a0c565b9590956105b057519081518a81116104e3578061037c8854613582565b93601f94858111610561575b508390858311600114610502578c926104f7575b5050600019600383901b1c191690841b1786555b82860193519081519a8b116104e3578a6103ca8654613582565b84811161049d575b505080928b11600114610438575098809281928a9b6003999a9b9461042d575b50501b9160001990871b1c19161790555b51600282015501915115159060ff61ff0084549251151560081b1692169061ffff19161717905580f35b0151925038806103f2565b909991601f1983169a858b52828b20928b905b8d8210610486575050836003999a9b9c1061046e575b505050811b019055610403565b015160001983891b60f8161c19169055388080610461565b80878596829496860151815501950193019061044b565b868c5284838d20918482850160051c840194106104da575b0160051c019085905b8281106104ce57508c91506103d2565b600081550185906104be565b925081926104b5565b634e487b7160e01b8a52604160045260248afd5b01519050388061039c565b898d52848d208794509190601f1984168e5b8782821061054b5750508411610532575b505050811b0186556103b0565b015160001960f88460031b161c19169055388080610525565b8385015186558a97909501949384019301610514565b909150888c52838c208580850160051c8201928686106105a7575b918891869594930160051c01915b828110610598575050610388565b6000815585945088910161058a565b9250819261057c565b634e487b7160e01b89526004899052602489fd5b600080fd5b8280fd5b5080fd5b503461027c578060031936011261027c576020600954604051908152f35b503461027c57602036600319011261027c57610609613556565b81546001600160a01b0380821692610622338514613a4d565b168092610630821515613bcc565b7f8934ce4adea8d9ce0d714d2c22b86790e41b7731c84b926fbbdc1d40ff6533c98580a36001600160a01b03191617815580f35b9050346105cd5760203660031901126105cd5760406106dd926004358152600c6020522060018101549060028101549260ff60058301541690600683015460078401546004850154916106f26003870154956106c760ff60088a01541698613641565b996040519b8c9b8c6101208091528d0190613709565b9960208c015260408b015260608a019061372e565b608088015260a087015260c086015284015215156101008301520390f35b823461027c578060031936011261027c57600154600254600354600454604080516001600160a01b0395861615158082529486161515602082015292851615159083015290921615156060830152608082015260a090f35b823461027c576003604061077b3661356c565b93908152600c602052200180548210156107e45760a09161079b91613a0c565b5060ff808254169160018101549060036002820154910154916107c16040518096613829565b60208501526040840152600180851b0381166060840152831c1615156080820152f35b60405162461bcd60e51b815260206004820152600e60248201526d1a5b9d985b1a59081c995dd85c9960921b6044820152606490fd5b823461027c578060031936011261027c5760206040516127118152f35b823461027c578060031936011261027c57338152600d602052604081206004810180549161086a60ff8460201c16613c52565b6006810154610e1081018091116108da57906108896005924211613c93565b015491604051428152836000805160206143e283398151915260203393a364ff0000000019169055815260106020526108d76040822060036000918281558260018201558260028201550155565b80f35b634e487b7160e01b85526011600452602485fd5b823461027c578060031936011261027c576020600754604051908152f35b823461027c578060031936011261027c576003546040516001600160a01b039091168152602090f35b823461027c57604036600319011261027c576004356001600160401b038082116105c957366023830112156105c95781600401359081116105c957602482019160248236920101116105c9576024358015158091036105c4576109a260018060a01b038554163314613a4d565b6109ad36838561377f565b602081519101207f0399593ac30d32d43bd44e908fed8fce48e4dd599607d34e4782eee853e8ca1b8114600014610a5157506004805460ff60a81b191660a883901b60ff60a81b161790557fd134502a3a2f681537af343f9b1d7f57ef30cb326d798b9982cbca6fe6bf34e39260609183905b604051948593604085528160408601528585013782820184018790526020830152601f01601f19168101030190a180f35b7ffe7a30932c603073539b5550117ca9b29d73e38ae68d5e096d811e6cb3eaa71f8103610abe57506004805460ff60b01b191660b083901b60ff60b01b161790557fd134502a3a2f681537af343f9b1d7f57ef30cb326d798b9982cbca6fe6bf34e3926060918390610a20565b7f40c398d6e1fb1e64fa89a0f2f232df777e9e84f3ef558102d564475b8a404c2f03610b29576004805460ff60b81b191660b883901b60ff60b81b161790557fd134502a3a2f681537af343f9b1d7f57ef30cb326d798b9982cbca6fe6bf34e3926060918390610a20565b60405162461bcd60e51b815260206004820152600f60248201526e756e6b6e6f776e206665617475726560881b6044820152606490fd5b823461027c578060031936011261027c576020600a5463ffffffff60405191831c168152f35b823461027c57606036600319011261027c57610ba0613556565b610ba8613540565b906001600160a01b03604435818116908190036105c4577fde9d4237e11098947a122bb1bbc8acd0001ca419c366c1ae6fab1f30cade336b9382608094610bf3828954163314613a4d565b169282816001600160601b0360a01b938685600254161760025516928381600354161760035560045416176004556001541692604051938452602084015260408301526060820152a180f35b823461027c578060031936011261027c576004546040516001600160a01b039091168152602090f35b823461027c57602036600319011261027c576001600160a01b039060409082610c8f613556565b168152600e60205220908154169060ff63ffffffff91600383600283015416600560048401549301549460405196875281602088015283166040870152838360201c16151560608701521015608085015260281c16151560a083015260c0820152f35b823461027c578060031936011261027c57602060405160038152f35b823461027c578060031936011261027c57546040516001600160a01b039091168152602090f35b823461027c578060031936011261027c57602063ffffffff600a5416604051908152f35b823461027c576108d7610d6b366137e3565b91613e71565b823461027c578060031936011261027c576020600b54604051908152f35b823461027c57602036600319011261027c57610dc260ff600454610db8828260a01c1615613836565b60b81c161561386b565b60043515158061141c575b610dd6906138a9565b6004358152600c602052610df360ff6008604084200154166138e8565b6004358152600c602052610e10600160408320015442101561392a565b6004358152600c602052610e2d6002604083200154421115613964565b610e3b600160055414613998565b60026005556004358152600c6020526040812060ff6005820154166002811015611408576001036113cc5733600052600e810160205260ff60406000205416611395576004810154829081600a8401815b8381106113345750508491855b8181106112fe575050036112b95760068201541161127457600e9033600052016020526040600020600160ff198254161790556004358152600c60205260408120815b600382015481101561126b57610ef58160038401613a0c565b509060ff825416600681101561121157801580611257575b15610fd45750600180549083015485916001600160a01b0316803b156105c9576040516340c10f1960e01b8152336004820152602481019290925282908290604490829084905af18015610fc957610fb1575b50506001915b8260ff825416910154610f7c6040518093613829565b602082015233907f7dbafd50f1a2a8e0853f65054eb024c174da1bb76b664ad997927d8fd98bcf7e604060043592a301610edc565b610fba906135bc565b610fc5578385610f60565b8380fd5b6040513d84823e3d90fd5b6001811480611243575b1561104f5750600254600183015485916001600160a01b0316803b156105c9576040516340c10f1960e01b8152336004820152602481019290925282908290604490829084905af18015610fc95761103b575b5050600191610f66565b611044906135bc565b610fc5578385611031565b6000600282148015611239575b80611225575b156110f757505083602060018060a01b0360035416606460ff600387015460a01c1660405194859384926334686fad60e21b84523360048501526004356024850152151560448401525af180156110ec576110c1575b50600191610f66565b602090813d83116110e5575b6110d78183613620565b81010312610fc557846110b8565b503d6110cd565b6040513d87823e3d90fd5b6112115760048114806111fd575b156111675750600454600283015485916001600160a01b031690813b156105c9578291606483926040519485938492631bcf65bf60e11b8452336004850152602484015260043560448401525af18015610fc95761103b575050600191610f66565b600514806111e7575b61117d575b600191610f66565b6003820154600183015485916001600160a01b0316803b156105c9576040516340c10f1960e01b8152336004820152602481019290925282908290604490829084905af18015610fc9576111d3575b5050611175565b6111dc906135bc565b610fc55783856111cc565b5060038201546001600160a01b03161515611170565b506004546001600160a01b03161515611105565b634e487b7160e01b85526021600452602485fd5b506003546001600160a01b03161515611062565b506003821461105c565b506002546001600160a01b03161515610fde565b506001546001600160a01b03161515610f0d565b82600160055580f35b60405162461bcd60e51b815260206004820152601a60248201527f6e6f7420656e6f756768207461736b7320636f6d706c657465640000000000006044820152606490fd5b60405162461bcd60e51b815260206004820152601c60248201527f7265717569726564207461736b73206e6f7420636f6d706c65746564000000006044820152606490fd5b60ff600361130f8360048a01613a0c565b50015416611320575b600101610e99565b9261132c600191613a28565b939050611318565b3360005281602052604060002081885260205260ff60408820541661135c575b600101610e8c565b9361136690613a28565b9360ff60036113788360048a01613a0c565b5001541615611354579161138d600191613a28565b929050611354565b60405162461bcd60e51b815260206004820152600f60248201526e185b1c9958591e4818db185a5b5959608a1b6044820152606490fd5b60405162461bcd60e51b81526020600482015260146024820152731b9bdd081b5d5b1d1a4b5d185cdac81c5d595cdd60621b6044820152606490fd5b634e487b7160e01b83526021600452602483fd5b50600b5460043510610dcd565b823461027c578060031936011261027c5760ff60045461144e828260a01c1615613836565b60a81c1661166f5760016114658160055414613998565b600260055580546001600160a01b03906114829082161515613b8b565b338352600d602052604083209081546007549161149f8383613c1c565b421061163e57859163ffffffff9384670de0b6b3a764000060065404169180156000146115bc57505061151a906115136114d76142ec565b8888019081556114e68361426b565b9260038901938455600289019063ffffffff19918b8382541617905560048a019182541617905554614001565b5054614001565b505b42845584541660065490803b156105c9576040516340c10f1960e01b8152336004820152602481019290925282908290604490829084905af18015610fc9576115a8575b505060026006549201541660405191825260208201524260408201527fd0a0fdf09c90bb6e6554c87f1c3ceeb52e236fd7b698fbde1ff40cf30dfd2ee560603392a260055580f35b6115b1906135bc565b610fc5578385611560565b908092939450871b918083046002149015171561162a57879392916115e091613c1c565b4211611619578585016115fc81546115f66142ec565b90613f43565b90555b61161260038601916115f683549161426b565b905561151c565b6116216142ec565b868601556115ff565b634e487b7160e01b88526011600452602488fd5b60405162461bcd60e51b8152602060048201526009602482015268746f6f206561726c7960b81b6044820152606490fd5b60405162461bcd60e51b815260206004820152601260248201527119185a5b1e481b1bd9da5b881c185d5cd95960721b6044820152606490fd5b823461027c576116df61171891600460406116c33661356c565b93908152600c60205220016116da815483106139d1565b613a0c565b50600281015460ff600383015461172661170460016116fd87613641565b9601613641565b60405196879660a0885260a0880190613709565b908682036020880152613709565b9260408501528181161515606085015260081c16151560808301520390f35b823461027c578060031936011261027c576020604051610e108152f35b823461027c578060031936011261027c57602060ff60045460b01c166040519015158152f35b823461027c576108d761179a366137e3565b91613d46565b823461027c576020806003193601126105cd576001600160a01b036117c3613556565b168252600f81526040822060405192838383549182815201908193835284832090835b81811061183a57505050846117fc910385613620565b60405193838594850191818652518092526040850193925b82811061182357505050500390f35b835185528695509381019392810192600101611814565b8254845292860192600192830192016117e6565b823461027c57604036600319011261027c57611868613540565b819082908384906004358652602093600c855260408720876004820195865490600a84019060018060a01b0316975b82841061195257505050508383149485611943575b8561190e575b60c09850856118f3575b90600e9160005201855260ff60406000205416946040519687528601526040850152606084015215156080830152151560a0820152f35b6000818152600e83018852604090205460ff161595506118bc565b945060ff60058201541697600289101561192f5750600160c09814946118b2565b634e487b7160e01b81526021600452602490fd5b600682015488101595506118ac565b9091929461195f90613a28565b9461196a8183613a0c565b5060ff8d8c8c83600380960154166119e1575b9160409184936000528881528260002090878352522054166119a7575b5050600101929190611897565b909b6119b290613a28565b9b6119bd8385613a0c565b500154166119cd575b8c8061199a565b956119d9600191613a28565b9690506119c6565b9b916040916119f08594613a28565b9d919350915061197d565b823461027c578060031936011261027c57602060ff60045460a01c166040519015158152f35b823461027c578060031936011261027c57602060ff60045460b81c166040519015158152f35b9050346105cd5760203660031901126105cd57610100916040906001600160a01b03611a71613556565b168152600d6020522080549160018201549160ff63ffffffff806002840154169060038401546004850154926006600587015496015497604051998a5260208a0152604089015260608801528116608087015260201c16151560a085015260c0840152820152f35b823461027c578060031936011261027c5760405160408101908082106001600160401b03831117611b4457611b40916040526014815273322e312e302d7369676e61747572652d6f6e6c7960601b6020820152604051918291602083526020830190613709565b0390f35b634e487b7160e01b600052604160045260246000fd5b823461027c578060031936011261027c57602060ff60045460a81c166040519015158152f35b823461027c578060031936011261027c57338152602090600e82526040812060048101805460ff8160281c16611ec8575b5060405192611bbf84613605565b6002845284840160403682376001906001850154611bdc87613c29565b526003850154611beb87613c36565b527f878245876662ba28a480c5ea71726db859fb50222b0a3d7cbbc21cfa336faf0080547f9e7b61f58c47dc699ac88507c4f5bb9f121c03808c5676a8078fe583e46497005490976001600160a01b03949293916000908616803b156105cd57818c604051928391637d6e912360e11b83526004830152818381611c72602482018a61438d565b03925af18015610fc957611eb9575b50857f9e7b61f58c47dc699ac88507c4f5bb9f121c03808c5676a8078fe583e46497025416803b156105cd57816040518092633263b83b60e01b82528d600483015260606024830152818381611cda606482018a61438d565b6379972cb160e01b604483015203925af18015610fc957908291611ea5575b508a90527f878245876662ba28a480c5ea71726db859fb50222b0a3d7cbbc21cfa336faf01808c526040822054611e93578a82528b52604081209151926001600160401b038411611e7f57600160401b8411611e7f578254848455808510611e57575b509181528a8120905b838110611e46575050505050611d7b8154613a28565b905560405191611d8a836135cf565b33835286830190808252604084019160028352606085019342855288835260108a52604083209551166001600160601b0360a01b86541617855551600185015560028401915190600582101561192f5750906003929160ff80198354169116179055519101558260058301556501000000000065ff00000000001982541617905560064291015560405160028152817f20e6a184f635c4a503e1565cb3c2e6cf90d38f1dd806fe5d66e82f0a4c866961843393a3604051908152f35b825182820155918b01918401611d65565b85858e868652852092830192015b828110611e73575050611d5c565b60008155018690611e65565b634e487b7160e01b82526041600452602482fd5b604051633f06d22b60e01b8152600490fd5b611eae906135bc565b61027c57808c611cf9565b611ec2906135bc565b8b611c81565b6006830154610e1081018091116108da57421115611f3657600583015490604051428152826000805160206143e2833981519152883393a365ff000000000019168255835260108452611f306040842060036000918281558260018201558260028201550155565b84611bb1565b60405162461bcd60e51b815260206004820152601a60248201527f64656372797074696f6e20616c72656164792070656e64696e670000000000006044820152606490fd5b823461027c578060031936011261027c57338152600e6020526040812060048101805491611fae60ff8460281c16613c52565b6006810154610e1081018091116108da5790611fcd6005924211613c93565b015491604051428152836000805160206143e283398151915260203393a365ff000000000019169055815260106020526108d76040822060036000918281558260018201558260028201550155565b823461027c57602036600319011261027c5760c0906040906001600160a01b03612044613556565b168152600d6020522080549060ff61205e60075484613c1c565b4210159163ffffffff9283600283015416936005600484015493015494604051968752602087015282166040860152606085015260201c161515608083015260a0820152f35b823461027c57604036600319011261027c5760043563ffffffff8082168092036105c457602435908116908181036105c4576120ea60018060a01b038554163314613a4d565b82151580612184575b1561214d57826121279161212f9467ffffffff00000000600a549260201b16916001600160401b0319161717600a5561426b565b60085561426b565b60095561213d600854614001565b50612149600954614001565b5080f35b60405162461bcd60e51b815260206004820152600f60248201526e696e76616c696420616d6f756e747360881b6044820152606490fd5b508115156120f3565b823461027c5760c036600319011261027c5760243560068110156105cd576084356001600160a01b0381811692918390036105c45760a435918215158093036105c4576121de828654163314613a4d565b6004358552600c6020526003604086206121fe60ff6008830154166138e8565b016040519161220c836135ea565b8252602082016044358152604083019160643583526060840196875260808401958652805490600160401b8210156122d1579061224e91600182018155613a0c565b9390936122bd575160068110156122a95790600393929160ff801985541691161783555160018301555160028201550192511682549160ff60a01b9051151560a01b16916affffffffffffffffffffff60a81b161717905580f35b634e487b7160e01b88526021600452602488fd5b634e487b7160e01b88526004889052602488fd5b634e487b7160e01b89526041600452602489fd5b823461027c5760a036600319011261027c576001600160401b036004358181116105c9576123179036906004016137c5565b9060243591604435916064359060028210156125835761234160018060a01b038754163314613a4d565b8385101561254f5782511561251d57600b549361235d85613a28565b600b55848752602095600c8752604088209285519081116122d1576123828454613582565b98601f8a116124d9575b879899508990601f831160011461244d5791807f0131f190b51c7e62c9f60b0c9a7e1bb90229be5fac1a9d8e8d49ba5ac87542459896949261242d98969491612442575b508160011b916000199060031b1c19161783555b6001830155600282015560016008600583019260ff19938481541660ff871617905560843560068201550191825416179055612437604051938493604085526040850190613709565b918884019061372e565b0390a2604051908152f35b90508601518c6123d0565b90601f1983168683528b8320925b8c8282106124c0575050927f0131f190b51c7e62c9f60b0c9a7e1bb90229be5fac1a9d8e8d49ba5ac8754245989694926001928261242d9a9896106124a7575b5050811b0183556123e4565b88015160001960f88460031b161c191690558c8061249b565b8a84015185558c9b50600190940193928301920161245b565b848152888120601f830160051c81019a8a8410612513575b601f0160051c01995b8a8110612507575061238c565b600081556001016124fa565b909a508a906124f1565b60405162461bcd60e51b815260206004820152600a602482015269656d707479206e616d6560b01b6044820152606490fd5b60405162461bcd60e51b815260206004820152600c60248201526b696e76616c69642074696d6560a01b6044820152606490fd5b8580fd5b823461027c578060031936011261027c57338152602090600d8252604081209081541561293f576004820191825460ff81861c166128be575b50604051926125ce84613605565b60028452848401604036823760019060018401546125eb87613c29565b5260038401546125fa87613c36565b527f878245876662ba28a480c5ea71726db859fb50222b0a3d7cbbc21cfa336faf0080547f9e7b61f58c47dc699ac88507c4f5bb9f121c03808c5676a8078fe583e46497005490976001600160a01b03949293916000908616803b156105cd57818c604051928391637d6e912360e11b83526004830152818381612681602482018a61438d565b03925af18015610fc9576128af575b50857f9e7b61f58c47dc699ac88507c4f5bb9f121c03808c5676a8078fe583e46497025416803b156105cd57816040518092633263b83b60e01b82528d6004830152606060248301528183816126e9606482018a61438d565b6365b0d29560e01b604483015203925af18015610fc95790829161289b575b508a90527f878245876662ba28a480c5ea71726db859fb50222b0a3d7cbbc21cfa336faf01808c526040822054611e93578a82528b52604081209151926001600160401b038411611e7f57600160401b8411611e7f578254848455808510612873575b509181528a8120905b83811061286257505050505061278a8154613a28565b905560405190612799826135cf565b3382528682018581526040830190868252606084019242845288885260108a52604088209451166001600160601b0360a01b855416178455516001840155600283019051600581101561284e57906003929160ff801983541691161790555191015583600583015564010000000064ff0000000019825416179055600642910155604051908152817f20e6a184f635c4a503e1565cb3c2e6cf90d38f1dd806fe5d66e82f0a4c866961843393a3604051908152f35b634e487b7160e01b87526021600452602487fd5b825182820155918b01918401612774565b85858e868652852092830192015b82811061288f57505061276b565b60008155018690612881565b6128a4906135bc565b61027c57808c612708565b6128b8906135bc565b8b612690565b6006820154610e10810180911161292b57421115611f3657600582015490604051428152826000805160206143e2833981519152883393a364ff00000000191684558252601084526129256040832060036000918281558260018201558260028201550155565b846125c0565b634e487b7160e01b84526011600452602484fd5b60405162461bcd60e51b81526004810184905260136024820152726e6f206461696c79206c6f67696e206461746160681b6044820152606490fd5b823461027c576020806003193601126105cd57612995613556565b9060ff6004546129aa828260a01c1615613836565b60b01c16612e53576001805490926001600160a01b0392916129cf9084161515613b8b565b828116926129de841515613bcc565b338414612e1e57338652600e835260ff6004604088200154841c16612dea57838652600e83526040862091338752604087209260078101933360005284865260ff60406000205416612db25780546001600160a01b0319168717815560048101805464ff0000000019166401000000001781553360009081529587526040909520805460ff19168917905560028201805463ffffffff96600394929091881685811015612d4d578b9190612cc35792612afb9286959492612b039793612aa26142ec565b828501556008548585015563ffffffff1991828254161790558a600a541660048401918254161790555b80548a16612c89576009548386015589600a548c1c1663ffffffff198254161790555b612afb8c820154614001565b500154614001565b50818654169183600a5416670de0b6b3a76400009384820291808304861490151715612c755790818a923b156105c9576040516340c10f1960e01b8082526001600160a01b03969096166004820152602481019290925282908290604490829084905af18015610fc957612c5d575b50508654169183600a54861c1681810291818304149015171561162a57908291889594933b156125835760405191825233600483015260248201529084908290604490829084905af18015612c5257612c3e575b506040938451428152817f90eab5d1df713df401d810f26aa9718d2b9e6894af1eb4890a332d3b185dc0e5853393a3600a54958551908388168252848201527fc8b5ffef15e776973cfb8e402515e7d0668883dd7f55c2969c65f67b151e32a1958691a260405194821c16845283015260403392a280f35b612c4884916135bc565b6105c95786612bc6565b6040513d86823e3d90fd5b612c66906135bc565b612c71578789612b72565b8780fd5b634e487b7160e01b8a52601160045260248afd5b828501612c9a815460095490613f43565b905589600a548c1c168a612cb2835492828416613c04565b169063ffffffff1916179055612aef565b908301612cd381546115f66142ec565b9055848301612ce6815460085490613f43565b90558054888116898114612d3957928c8796959293612b039894612afb968d63ffffffff19948592011691161790558a600a541660048401918c612d2e845493828516613c04565b169116179055612acc565b634e487b7160e01b8e52601160045260248efd5b5050505050505050509150604051428152817f90eab5d1df713df401d810f26aa9718d2b9e6894af1eb4890a332d3b185dc0e5843393a37fdbb94f9c3a74be2af16dc412aeb7ccb06035cf1115ca122a2808722bedacac88604051924284523393a380f35b60405162461bcd60e51b815260048101879052601060248201526f185b1c9958591e481c9959995c9c995960821b6044820152606490fd5b60405162461bcd60e51b815260048101849052600c60248201526b185b1c9958591e481d5cd95960a21b6044820152606490fd5b60405162461bcd60e51b815260048101849052600d60248201526c1cd95b19881c9959995c9c985b609a1b6044820152606490fd5b6064906040519062461bcd60e51b82526004820152600f60248201526e1c9959995c9c985b081c185d5cd959608a1b6044820152fd5b823461027c57604036600319011261027c57612ea3613556565b6001600160a01b03168152600f602052604081208054602435929083101561027c576020612ed18484613751565b90546040519160031b1c8152f35b823461027c57602036600319011261027c576004358015158091036105c45760207f0e2fb031ee032dc02d8011dc50b816eb450cf856abd8261680dac74f72165bd291612f3660018060a01b038554163314613a4d565b6004805460ff60a01b191660a083901b60ff60a01b16179055604051908152a180f35b823461027c57602036600319011261027c576040906004358152600c6020522090612f8382613641565b9160018101549060028101549060ff600582015416612fd860068301549160ff600860078601549501541694612fc360405199898b9a8b528a0190613709565b9660208901526040880152606087019061372e565b608085015260a0840152151560c08301520390f35b823461027c57604036600319011261027c57613007613556565b60243591600583101561027c5760406130208484613a92565b825191151582526020820152f35b823461027c57602036600319011261027c5760043561305760018060a01b038354163314613a4d565b80156130635760065580f35b60405162461bcd60e51b815260206004820152600e60248201526d1a5b9d985b1a5908185b5bdd5b9d60921b6044820152606490fd5b823461027c576130a83661356c565b600454916130c260ff84610db882809760a01c1615613836565b80151580613471575b6130d4906138a9565b808452602091600c83526130f0846008604088200154166138e8565b818552600c835260019361310c8560408820015442101561392a565b828652600c84526131266002604088200154421115613964565b6131338560055414613998565b6002600555828652600c8452604086206004810192613154845482106139d1565b8260036131618387613a0c565b50015460081c161561343a57600a820133895280875260408920828a5287528360408a20541661340157338952865260408820818952865260026131b58260408b209660ff19978b89825416179055613a0c565b50015493600d8301338a528088528460408b205416156000146133d2576131e163ffffffff871661426b565b338b52600b8501895260408b205587526040892088828254161790555b338952600b8301875261321460408a2054614001565b503389526009830187528760408a2091825486811615613372575b50505050906005916040519081528487820152857fefef8593ec020b84769ddb5cf4469accbbd22d882a354bee97694405126ca69460403393a3015416600281101561335e5715613284575b50505060055580f35b83546001600160a01b03168061329b575b5061327b565b670de0b6b3a764000080830290838204148315171561334a57908691813b156105c9576040516340c10f1960e01b8152336004820152602481019190915291908290604490829084905af1801561333f5761332c575b5060405192600084528301527f7dbafd50f1a2a8e0853f65054eb024c174da1bb76b664ad997927d8fd98bcf7e60403393a382808080613295565b613338909591956135bc565b93856132f1565b6040513d88823e3d90fd5b634e487b7160e01b87526011600452602487fd5b634e487b7160e01b86526021600452602486fd5b16179055600782016133848154613a28565b9055338852600f865260408820805490600160401b8210156104e357816133b3918a6005969594018155613751565b81549060031b9088821b91600019901b19161790559091878a8061322f565b50600b83018088526133f160408b20546115f663ffffffff891661426b565b90338b52885260408a20556131fe565b60405162461bcd60e51b8152600481018890526011602482015270185b1c9958591e4818dbdb5c1b195d1959607a1b6044820152606490fd5b60405162461bcd60e51b815260048101879052600f60248201526e7461736b206e6f742061637469766560881b6044820152606490fd5b50600b5481106130cb565b823461027c578060031936011261027c576002546040516001600160a01b039091168152602090f35b823461027c57606036600319011261027c5760ff60406020926134c6613540565b6004358252600c85528282206001600160a01b039091168252600a018452818120604435825284522054604051911615158152f35b823461027c578060031936011261027c576001546040516001600160a01b039091168152602090f35b8390346105cd57816003193601126105cd576020906006548152f35b602435906001600160a01b03821682036105c457565b600435906001600160a01b03821682036105c457565b60409060031901126105c4576004359060243590565b90600182811c921680156135b2575b602083101461359c57565b634e487b7160e01b600052602260045260246000fd5b91607f1691613591565b6001600160401b038111611b4457604052565b608081019081106001600160401b03821117611b4457604052565b60a081019081106001600160401b03821117611b4457604052565b606081019081106001600160401b03821117611b4457604052565b90601f801991011681019081106001600160401b03821117611b4457604052565b9060405191826000825461365481613582565b908184526020946001916001811690816000146136c45750600114613685575b50505061368392500383613620565b565b600090815285812095935091905b8183106136ac5750506136839350820101388080613674565b85548884018501529485019487945091830191613693565b9250505061368394925060ff191682840152151560051b820101388080613674565b60005b8381106136f95750506000910152565b81810151838201526020016136e9565b90602091613722815180928185528580860191016136e6565b601f01601f1916010190565b90600282101561373b5752565b634e487b7160e01b600052602160045260246000fd5b80548210156137695760005260206000200190600090565b634e487b7160e01b600052603260045260246000fd5b9291926001600160401b038211611b4457604051916137a8601f8201601f191660200184613620565b8294818452818301116105c4578281602093846000960137010152565b9080601f830112156105c4578160206137e09335910161377f565b90565b60606003198201126105c457600435916001600160401b036024358181116105c45783613812916004016137c5565b926044359182116105c4576137e0916004016137c5565b90600682101561373b5752565b1561383d57565b60405162461bcd60e51b81526020600482015260066024820152651c185d5cd95960d21b6044820152606490fd5b1561387257565b60405162461bcd60e51b815260206004820152600f60248201526e18d85b5c185a59db881c185d5cd959608a1b6044820152606490fd5b156138b057565b60405162461bcd60e51b815260206004820152601060248201526f34b73b30b634b21031b0b6b830b4b3b760811b6044820152606490fd5b156138ef57565b60405162461bcd60e51b815260206004820152601360248201527263616d706169676e206e6f742061637469766560681b6044820152606490fd5b1561393157565b60405162461bcd60e51b815260206004820152600b60248201526a1b9bdd081cdd185c9d195960aa1b6044820152606490fd5b1561396b57565b60405162461bcd60e51b8152602060048201526005602482015264195b99195960da1b6044820152606490fd5b1561399f57565b60405162461bcd60e51b815260206004820152600a6024820152697265656e7472616e637960b01b6044820152606490fd5b156139d857565b60405162461bcd60e51b815260206004820152600c60248201526b696e76616c6964207461736b60a01b6044820152606490fd5b80548210156137695760005260206000209060021b0190600090565b6000198114613a375760010190565b634e487b7160e01b600052601160045260246000fd5b15613a5457565b60405162461bcd60e51b81526020600482015260096024820152683737ba1037bbb732b960b91b6044820152606490fd5b91908203918211613a3757565b9060058110158061373b5781158015613b7e575b15613b1d5750509060009160018060a01b03168252600d6020526040822060ff600482015460201c1615613b18576006613ae291015442613a85565b91610e109283811015613b10578303928311613afc579190565b634e487b7160e01b81526011600452602490fd5b506001925090565b508190565b61373b5760028114908115613b73575b50613b3b5750600090600090565b6001600160a01b03166000908152600e60205260408120600481015491929160281c60ff1615613b18576006613ae291015442613a85565b600391501438613b2d565b5050600060018214613aa6565b15613b9257565b60405162461bcd60e51b8152602060048201526012602482015271169594081b9bdd0818dbdb999a59dd5c995960721b6044820152606490fd5b15613bd357565b60405162461bcd60e51b81526020600482015260096024820152683d32b9379030b2323960b91b6044820152606490fd5b91909163ffffffff80809416911601918211613a3757565b91908201809211613a3757565b8051156137695760200190565b8051600110156137695760400190565b600582101561373b5752565b15613c5957565b60405162461bcd60e51b81526020600482015260126024820152711b9bc81c195b991a5b99c81c995c5d595cdd60721b6044820152606490fd5b15613c9a57565b60405162461bcd60e51b81526020600482015260146024820152731d1a5b595bdd5d081b9bdd08195e18d95959195960621b6044820152606490fd5b15613cdd57565b60405162461bcd60e51b815260206004820152600f60248201526e1d5b9adb9bdddb881c995c5d595cdd608a1b6044820152606490fd5b519063ffffffff821682036105c457565b91908260409103126105c4576137e06020613d3f84613d14565b9301613d14565b91613d5290828461407b565b60008281526020916010835260409283832094613dc3855193613d74856135cf565b600360018060a01b0398898154168752600181015486880152613da060ff6002830154168a8901613c46565b01546060860152613db5888651161515613cd6565b838082518301019101613d25565b969093818151168652600d845286862094600486019081549060ff82881c1615613e645760058801548603613e64576136839a60026010990163ffffffff80931663ffffffff19825416179055169064ffffffffff19161790555116817f758b24fe0dc78ab44ea26fba0de5db8e23da7e39d5f02ce62a0ed5cf35f64f7e848851888152a38352522060036000918281558260018201558260028201550155565b5050505050505050505050565b91613e7d90828461407b565b60008281526020916010835260409283832094613e9f855193613d74856135cf565b969093818151168652600e845286862094600486019081549060ff8260281c1615613e645760058801548603613e64576136839a60026010990163ffffffff80931663ffffffff19825416179055169065ff00ffffffff19161790555116817f758b24fe0dc78ab44ea26fba0de5db8e23da7e39d5f02ce62a0ed5cf35f64f7e84885160028152a38352522060036000918281558260018201558260028201550155565b8015613ff3575b8115613fe3575b60018060a01b036000805160206143c28339815191525416916040519163022f65e760e31b835260048301526024820152602081606481600080968160448401525af1918215613fd7578092613fa657505090565b9091506020823d602011613fcf575b81613fc260209383613620565b8101031261027c57505190565b3d9150613fb5565b604051903d90823e3d90fd5b9050613fed61433d565b90613f51565b50613ffc61433d565b613f4a565b7f9e7b61f58c47dc699ac88507c4f5bb9f121c03808c5676a8078fe583e4649700546001600160a01b0316803b156105c45760008091604460405180948193635ca4b5b160e11b83528760048401523060248401525af1801561406f57614066575090565b6137e0906135bc565b6040513d6000823e3d90fd5b916000918383527f878245876662ba28a480c5ea71726db859fb50222b0a3d7cbbc21cfa336faf0191602091838352604093848620541561425a5786865283528385208451808286829454938481520190895286892092895b88828210614244575050506140eb92500382613620565b8151918285019283861161162a57860180931161334a579161418e876141a19361413c8989978151968161412889935180928d80870191016136e6565b8201908a8201520388810187520185613620565b6141b060018060a01b037f9e7b61f58c47dc699ac88507c4f5bb9f121c03808c5676a8078fe583e46497035416948a51988997889687956378542ead60e01b875260606004880152606487019061438d565b6003199384878303016024880152613709565b91848303016044850152613709565b03925af1918215614237578492614200575b5050156141f05750807f1af0453083661051f6e56e5c070792320652e612154bf9af8637bb1e7655b99d91a2565b5163cf6c44e960e01b8152600490fd5b90809250813d8311614230575b6142178183613620565b810103126105c9575180151581036105c95738806141c2565b503d61420d565b50505051903d90823e3d90fd5b85548452600195860195879550930192016140d4565b845163d66ca67560e01b8152600490fd5b6020600091604460018060a01b036000805160206143c28339815191525416916040519485938492639cd07acb60e01b84526004840152600460248401525af190811561406f576000916142bd575090565b90506020813d6020116142e4575b816142d860209383613620565b810103126105c4575190565b3d91506142cb565b6000602060018060a01b036000805160206143c28339815191525416604460405180948193639cd07acb60e01b835260016004840152600460248401525af190811561406f576000916142bd575090565b60018060a01b036000805160206143c28339815191525416604051639cd07acb60e01b815260208160448160008096816004840152600460248401525af1918215613fd7578092613fa657505090565b90815180825260208080930193019160005b8281106143ad575050505090565b83518552938101939281019260010161439f56fe9e7b61f58c47dc699ac88507c4f5bb9f121c03808c5676a8078fe583e46497011740fc6005b5e602a24c81e20a99d4ac36f03a6b4cc6646d6f05ca6389dd3653a26469706673582212208c8388a4a3c7a1bcb5f76c25c727bf2a37b35300e34cd5ba1da281d430a3a3ef64736f6c63430008180033",
  "linkReferences": {},
  "deployedLinkReferences": {}
}