{
  "_format": "hh-sol-artifact-1",
  "contractName": "ZappsToken",
  "sourceName": "contracts/ZappsToken.sol",
  "abi": [
    {
      "inputs": [
        {
          "internalType": "address",
          "name": "owner_",
          "type": "address"
        },
        {
          "internalType": "uint64",
          "name": "initialSupply",
          "type": "uint64"
        },
        {
          "internalType": "address",
          "name": "_feeCollector",
          "type": "address"
        }
      ],
      "stateMutability": "nonpayable",
      "type": "constructor"
    },
    {
      "inputs": [],
      "name": "CooldownActive",
      "type": "error"
    },
    {
      "inputs": [],
      "name": "CooldownTooLong",
      "type": "error"
    },
    {
      "inputs": [
        {
          "internalType": "uint256",
          "name": "requestId",
          "type": "uint256"
        }
      ],
      "name": "ERC7984InvalidGatewayRequest",
      "type": "error"
    },
    {
      "inputs": [
        {
          "internalType": "address",
          "name": "receiver",
          "type": "address"
        }
      ],
      "name": "ERC7984InvalidReceiver",
      "type": "error"
    },
    {
      "inputs": [
        {
          "internalType": "address",
          "name": "sender",
          "type": "address"
        }
      ],
      "name": "ERC7984InvalidSender",
      "type": "error"
    },
    {
      "inputs": [
        {
          "internalType": "address",
          "name": "caller",
          "type": "address"
        }
      ],
      "name": "ERC7984UnauthorizedCaller",
      "type": "error"
    },
    {
      "inputs": [
        {
          "internalType": "address",
          "name": "holder",
          "type": "address"
        },
        {
          "internalType": "address",
          "name": "spender",
          "type": "address"
        }
      ],
      "name": "ERC7984UnauthorizedSpender",
      "type": "error"
    },
    {
      "inputs": [
        {
          "internalType": "euint64",
          "name": "amount",
          "type": "bytes32"
        },
        {
          "internalType": "address",
          "name": "user",
          "type": "address"
        }
      ],
      "name": "ERC7984UnauthorizedUseOfEncryptedAmount",
      "type": "error"
    },
    {
      "inputs": [
        {
          "internalType": "address",
          "name": "holder",
          "type": "address"
        }
      ],
      "name": "ERC7984ZeroBalance",
      "type": "error"
    },
    {
      "inputs": [],
      "name": "FeeTooHigh",
      "type": "error"
    },
    {
      "inputs": [],
      "name": "InvalidAddress",
      "type": "error"
    },
    {
      "inputs": [],
      "name": "InvalidKMSSignatures",
      "type": "error"
    },
    {
      "inputs": [],
      "name": "NotAuthorizedBurner",
      "type": "error"
    },
    {
      "inputs": [],
      "name": "NotAuthorizedMinter",
      "type": "error"
    },
    {
      "inputs": [
        {
          "internalType": "address",
          "name": "owner",
          "type": "address"
        }
      ],
      "name": "OwnableInvalidOwner",
      "type": "error"
    },
    {
      "inputs": [
        {
          "internalType": "address",
          "name": "account",
          "type": "address"
        }
      ],
      "name": "OwnableUnauthorizedAccount",
      "type": "error"
    },
    {
      "inputs": [],
      "name": "ZamaProtocolUnsupported",
      "type": "error"
    },
    {
      "anonymous": false,
      "inputs": [
        {
          "indexed": true,
          "internalType": "euint64",
          "name": "encryptedAmount",
          "type": "bytes32"
        },
        {
          "indexed": true,
          "internalType": "address",
          "name": "requester",
          "type": "address"
        }
      ],
      "name": "AmountDiscloseRequested",
      "type": "event"
    },
    {
      "anonymous": false,
      "inputs": [
        {
          "indexed": true,
          "internalType": "euint64",
          "name": "encryptedAmount",
          "type": "bytes32"
        },
        {
          "indexed": false,
          "internalType": "uint64",
          "name": "amount",
          "type": "uint64"
        }
      ],
      "name": "AmountDisclosed",
      "type": "event"
    },
    {
      "anonymous": false,
      "inputs": [
        {
          "indexed": true,
          "internalType": "address",
          "name": "burner",
          "type": "address"
        },
        {
          "indexed": false,
          "internalType": "bool",
          "name": "status",
          "type": "bool"
        }
      ],
      "name": "BurnerAuthorized",
      "type": "event"
    },
    {
      "anonymous": false,
      "inputs": [
        {
          "indexed": true,
          "internalType": "address",
          "name": "from",
          "type": "address"
        },
        {
          "indexed": true,
          "internalType": "address",
          "name": "to",
          "type": "address"
        },
        {
          "indexed": true,
          "internalType": "euint64",
          "name": "amount",
          "type": "bytes32"
        }
      ],
      "name": "ConfidentialTransfer",
      "type": "event"
    },
    {
      "anonymous": false,
      "inputs": [
        {
          "indexed": true,
          "internalType": "address",
          "name": "from",
          "type": "address"
        }
      ],
      "name": "FeeCollected",
      "type": "event"
    },
    {
      "anonymous": false,
      "inputs": [
        {
          "indexed": true,
          "internalType": "address",
          "name": "minter",
          "type": "address"
        },
        {
          "indexed": false,
          "internalType": "bool",
          "name": "status",
          "type": "bool"
        }
      ],
      "name": "MinterAuthorized",
      "type": "event"
    },
    {
      "anonymous": false,
      "inputs": [
        {
          "indexed": true,
          "internalType": "address",
          "name": "holder",
          "type": "address"
        },
        {
          "indexed": true,
          "internalType": "address",
          "name": "operator",
          "type": "address"
        },
        {
          "indexed": false,
          "internalType": "uint48",
          "name": "until",
          "type": "uint48"
        }
      ],
      "name": "OperatorSet",
      "type": "event"
    },
    {
      "anonymous": false,
      "inputs": [
        {
          "indexed": true,
          "internalType": "address",
          "name": "previousOwner",
          "type": "address"
        },
        {
          "indexed": true,
          "internalType": "address",
          "name": "newOwner",
          "type": "address"
        }
      ],
      "name": "OwnershipTransferStarted",
      "type": "event"
    },
    {
      "anonymous": false,
      "inputs": [
        {
          "indexed": true,
          "internalType": "address",
          "name": "previousOwner",
          "type": "address"
        },
        {
          "indexed": true,
          "internalType": "address",
          "name": "newOwner",
          "type": "address"
        }
      ],
      "name": "OwnershipTransferred",
      "type": "event"
    },
    {
      "anonymous": false,
      "inputs": [
        {
          "indexed": false,
          "internalType": "bytes32[]",
          "name": "handlesList",
          "type": "bytes32[]"
        },
        {
          "indexed": false,
          "internalType": "bytes",
          "name": "abiEncodedCleartexts",
          "type": "bytes"
        }
      ],
      "name": "PublicDecryptionVerified",
      "type": "event"
    },
    {
      "anonymous": false,
      "inputs": [
        {
          "indexed": true,
          "internalType": "address",
          "name": "user",
          "type": "address"
        }
      ],
      "name": "TokensStaked",
      "type": "event"
    },
    {
      "anonymous": false,
      "inputs": [
        {
          "indexed": true,
          "internalType": "address",
          "name": "user",
          "type": "address"
        }
      ],
      "name": "TokensUnstaked",
      "type": "event"
    },
    {
      "inputs": [],
      "name": "TOTAL_SUPPLY_CAP",
      "outputs": [
        {
          "internalType": "uint256",
          "name": "",
          "type": "uint256"
        }
      ],
      "stateMutability": "view",
      "type": "function"
    },
    {
      "inputs": [],
      "name": "acceptOwnership",
      "outputs": [],
      "stateMutability": "nonpayable",
      "type": "function"
    },
    {
      "inputs": [
        {
          "internalType": "address",
          "name": "burner",
          "type": "address"
        },
        {
          "internalType": "bool",
          "name": "status",
          "type": "bool"
        }
      ],
      "name": "authorizeBurner",
      "outputs": [],
      "stateMutability": "nonpayable",
      "type": "function"
    },
    {
      "inputs": [
        {
          "internalType": "address",
          "name": "minter",
          "type": "address"
        },
        {
          "internalType": "bool",
          "name": "status",
          "type": "bool"
        }
      ],
      "name": "authorizeMinter",
      "outputs": [],
      "stateMutability": "nonpayable",
      "type": "function"
    },
    {
      "inputs": [
        {
          "internalType": "address",
          "name": "",
          "type": "address"
        }
      ],
      "name": "authorizedBurners",
      "outputs": [
        {
          "internalType": "bool",
          "name": "",
          "type": "bool"
        }
      ],
      "stateMutability": "view",
      "type": "function"
    },
    {
      "inputs": [
        {
          "internalType": "address",
          "name": "",
          "type": "address"
        }
      ],
      "name": "authorizedMinters",
      "outputs": [
        {
          "internalType": "bool",
          "name": "",
          "type": "bool"
        }
      ],
      "stateMutability": "view",
      "type": "function"
    },
    {
      "inputs": [
        {
          "internalType": "address[]",
          "name": "recipients",
          "type": "address[]"
        },
        {
          "internalType": "uint64[]",
          "name": "amounts",
          "type": "uint64[]"
        }
      ],
      "name": "batchMint",
      "outputs": [],
      "stateMutability": "nonpayable",
      "type": "function"
    },
    {
      "inputs": [
        {
          "internalType": "address",
          "name": "from",
          "type": "address"
        },
        {
          "internalType": "uint64",
          "name": "amount",
          "type": "uint64"
        }
      ],
      "name": "burn",
      "outputs": [],
      "stateMutability": "nonpayable",
      "type": "function"
    },
    {
      "inputs": [
        {
          "internalType": "address",
          "name": "account",
          "type": "address"
        }
      ],
      "name": "confidentialBalanceOf",
      "outputs": [
        {
          "internalType": "euint64",
          "name": "",
          "type": "bytes32"
        }
      ],
      "stateMutability": "view",
      "type": "function"
    },
    {
      "inputs": [
        {
          "internalType": "address",
          "name": "from",
          "type": "address"
        },
        {
          "internalType": "externalEuint64",
          "name": "encAmount",
          "type": "bytes32"
        },
        {
          "internalType": "bytes",
          "name": "inputProof",
          "type": "bytes"
        }
      ],
      "name": "confidentialBurn",
      "outputs": [
        {
          "internalType": "euint64",
          "name": "",
          "type": "bytes32"
        }
      ],
      "stateMutability": "nonpayable",
      "type": "function"
    },
    {
      "inputs": [
        {
          "internalType": "address",
          "name": "to",
          "type": "address"
        },
        {
          "internalType": "externalEuint64",
          "name": "encAmount",
          "type": "bytes32"
        },
        {
          "internalType": "bytes",
          "name": "inputProof",
          "type": "bytes"
        }
      ],
      "name": "confidentialMint",
      "outputs": [
        {
          "internalType": "euint64",
          "name": "",
          "type": "bytes32"
        }
      ],
      "stateMutability": "nonpayable",
      "type": "function"
    },
    {
      "inputs": [],
      "name": "confidentialProtocolId",
      "outputs": [
        {
          "internalType": "uint256",
          "name": "",
          "type": "uint256"
        }
      ],
      "stateMutability": "view",
      "type": "function"
    },
    {
      "inputs": [],
      "name": "confidentialTotalSupply",
      "outputs": [
        {
          "internalType": "euint64",
          "name": "",
          "type": "bytes32"
        }
      ],
      "stateMutability": "view",
      "type": "function"
    },
    {
      "inputs": [
        {
          "internalType": "address",
          "name": "to",
          "type": "address"
        },
        {
          "internalType": "externalEuint64",
          "name": "encAmount",
          "type": "bytes32"
        },
        {
          "internalType": "bytes",
          "name": "inputProof",
          "type": "bytes"
        }
      ],
      "name": "confidentialTransfer",
      "outputs": [
        {
          "internalType": "euint64",
          "name": "",
          "type": "bytes32"
        }
      ],
      "stateMutability": "nonpayable",
      "type": "function"
    },
    {
      "inputs": [
        {
          "internalType": "address",
          "name": "to",
          "type": "address"
        },
        {
          "internalType": "euint64",
          "name": "amount",
          "type": "bytes32"
        }
      ],
      "name": "confidentialTransfer",
      "outputs": [
        {
          "internalType": "euint64",
          "name": "",
          "type": "bytes32"
        }
      ],
      "stateMutability": "nonpayable",
      "type": "function"
    },
    {
      "inputs": [
        {
          "internalType": "address",
          "name": "to",
          "type": "address"
        },
        {
          "internalType": "euint64",
          "name": "amount",
          "type": "bytes32"
        },
        {
          "internalType": "bytes",
          "name": "data",
          "type": "bytes"
        }
      ],
      "name": "confidentialTransferAndCall",
      "outputs": [
        {
          "internalType": "euint64",
          "name": "transferred",
          "type": "bytes32"
        }
      ],
      "stateMutability": "nonpayable",
      "type": "function"
    },
    {
      "inputs": [
        {
          "internalType": "address",
          "name": "to",
          "type": "address"
        },
        {
          "internalType": "externalEuint64",
          "name": "encryptedAmount",
          "type": "bytes32"
        },
        {
          "internalType": "bytes",
          "name": "inputProof",
          "type": "bytes"
        },
        {
          "internalType": "bytes",
          "name": "data",
          "type": "bytes"
        }
      ],
      "name": "confidentialTransferAndCall",
      "outputs": [
        {
          "internalType": "euint64",
          "name": "transferred",
          "type": "bytes32"
        }
      ],
      "stateMutability": "nonpayable",
      "type": "function"
    },
    {
      "inputs": [
        {
          "internalType": "address",
          "name": "from",
          "type": "address"
        },
        {
          "internalType": "address",
          "name": "to",
          "type": "address"
        },
        {
          "internalType": "externalEuint64",
          "name": "encryptedAmount",
          "type": "bytes32"
        },
        {
          "internalType": "bytes",
          "name": "inputProof",
          "type": "bytes"
        }
      ],
      "name": "confidentialTransferFrom",
      "outputs": [
        {
          "internalType": "euint64",
          "name": "transferred",
          "type": "bytes32"
        }
      ],
      "stateMutability": "nonpayable",
      "type": "function"
    },
    {
      "inputs": [
        {
          "internalType": "address",
          "name": "from",
          "type": "address"
        },
        {
          "internalType": "address",
          "name": "to",
          "type": "address"
        },
        {
          "internalType": "euint64",
          "name": "amount",
          "type": "bytes32"
        }
      ],
      "name": "confidentialTransferFrom",
      "outputs": [
        {
          "internalType": "euint64",
          "name": "transferred",
          "type": "bytes32"
        }
      ],
      "stateMutability": "nonpayable",
      "type": "function"
    },
    {
      "inputs": [
        {
          "internalType": "address",
          "name": "from",
          "type": "address"
        },
        {
          "internalType": "address",
          "name": "to",
          "type": "address"
        },
        {
          "internalType": "externalEuint64",
          "name": "encryptedAmount",
          "type": "bytes32"
        },
        {
          "internalType": "bytes",
          "name": "inputProof",
          "type": "bytes"
        },
        {
          "internalType": "bytes",
          "name": "data",
          "type": "bytes"
        }
      ],
      "name": "confidentialTransferFromAndCall",
      "outputs": [
        {
          "internalType": "euint64",
          "name": "transferred",
          "type": "bytes32"
        }
      ],
      "stateMutability": "nonpayable",
      "type": "function"
    },
    {
      "inputs": [
        {
          "internalType": "address",
          "name": "from",
          "type": "address"
        },
        {
          "internalType": "address",
          "name": "to",
          "type": "address"
        },
        {
          "internalType": "euint64",
          "name": "amount",
          "type": "bytes32"
        },
        {
          "internalType": "bytes",
          "name": "data",
          "type": "bytes"
        }
      ],
      "name": "confidentialTransferFromAndCall",
      "outputs": [
        {
          "internalType": "euint64",
          "name": "transferred",
          "type": "bytes32"
        }
      ],
      "stateMutability": "nonpayable",
      "type": "function"
    },
    {
      "inputs": [],
      "name": "contractURI",
      "outputs": [
        {
          "internalType": "string",
          "name": "",
          "type": "string"
        }
      ],
      "stateMutability": "view",
      "type": "function"
    },
    {
      "inputs": [],
      "name": "decimals",
      "outputs": [
        {
          "internalType": "uint8",
          "name": "",
          "type": "uint8"
        }
      ],
      "stateMutability": "view",
      "type": "function"
    },
    {
      "inputs": [
        {
          "internalType": "euint64",
          "name": "encryptedAmount",
          "type": "bytes32"
        },
        {
          "internalType": "uint64",
          "name": "cleartextAmount",
          "type": "uint64"
        },
        {
          "internalType": "bytes",
          "name": "decryptionProof",
          "type": "bytes"
        }
      ],
      "name": "discloseEncryptedAmount",
      "outputs": [],
      "stateMutability": "nonpayable",
      "type": "function"
    },
    {
      "inputs": [],
      "name": "feeCollector",
      "outputs": [
        {
          "internalType": "address",
          "name": "",
          "type": "address"
        }
      ],
      "stateMutability": "view",
      "type": "function"
    },
    {
      "inputs": [
        {
          "internalType": "address",
          "name": "user",
          "type": "address"
        }
      ],
      "name": "getStakedBalance",
      "outputs": [
        {
          "internalType": "euint64",
          "name": "",
          "type": "bytes32"
        }
      ],
      "stateMutability": "view",
      "type": "function"
    },
    {
      "inputs": [],
      "name": "getTotalFeesCollected",
      "outputs": [
        {
          "internalType": "euint64",
          "name": "",
          "type": "bytes32"
        }
      ],
      "stateMutability": "view",
      "type": "function"
    },
    {
      "inputs": [
        {
          "internalType": "address",
          "name": "holder",
          "type": "address"
        },
        {
          "internalType": "address",
          "name": "spender",
          "type": "address"
        }
      ],
      "name": "isOperator",
      "outputs": [
        {
          "internalType": "bool",
          "name": "",
          "type": "bool"
        }
      ],
      "stateMutability": "view",
      "type": "function"
    },
    {
      "inputs": [
        {
          "internalType": "address",
          "name": "",
          "type": "address"
        }
      ],
      "name": "lastTransferTime",
      "outputs": [
        {
          "internalType": "uint256",
          "name": "",
          "type": "uint256"
        }
      ],
      "stateMutability": "view",
      "type": "function"
    },
    {
      "inputs": [
        {
          "internalType": "address",
          "name": "to",
          "type": "address"
        },
        {
          "internalType": "uint64",
          "name": "amount",
          "type": "uint64"
        }
      ],
      "name": "mint",
      "outputs": [],
      "stateMutability": "nonpayable",
      "type": "function"
    },
    {
      "inputs": [],
      "name": "name",
      "outputs": [
        {
          "internalType": "string",
          "name": "",
          "type": "string"
        }
      ],
      "stateMutability": "view",
      "type": "function"
    },
    {
      "inputs": [],
      "name": "owner",
      "outputs": [
        {
          "internalType": "address",
          "name": "",
          "type": "address"
        }
      ],
      "stateMutability": "view",
      "type": "function"
    },
    {
      "inputs": [],
      "name": "pendingOwner",
      "outputs": [
        {
          "internalType": "address",
          "name": "",
          "type": "address"
        }
      ],
      "stateMutability": "view",
      "type": "function"
    },
    {
      "inputs": [],
      "name": "renounceOwnership",
      "outputs": [],
      "stateMutability": "nonpayable",
      "type": "function"
    },
    {
      "inputs": [
        {
          "internalType": "euint64",
          "name": "encryptedAmount",
          "type": "bytes32"
        }
      ],
      "name": "requestDiscloseEncryptedAmount",
      "outputs": [],
      "stateMutability": "nonpayable",
      "type": "function"
    },
    {
      "inputs": [
        {
          "internalType": "address",
          "name": "newCollector",
          "type": "address"
        }
      ],
      "name": "setFeeCollector",
      "outputs": [],
      "stateMutability": "nonpayable",
      "type": "function"
    },
    {
      "inputs": [
        {
          "internalType": "address",
          "name": "operator",
          "type": "address"
        },
        {
          "internalType": "uint48",
          "name": "until",
          "type": "uint48"
        }
      ],
      "name": "setOperator",
      "outputs": [],
      "stateMutability": "nonpayable",
      "type": "function"
    },
    {
      "inputs": [
        {
          "internalType": "address",
          "name": "_stakingContract",
          "type": "address"
        }
      ],
      "name": "setStakingContract",
      "outputs": [],
      "stateMutability": "nonpayable",
      "type": "function"
    },
    {
      "inputs": [
        {
          "internalType": "uint256",
          "name": "newCooldown",
          "type": "uint256"
        }
      ],
      "name": "setTransferCooldown",
      "outputs": [],
      "stateMutability": "nonpayable",
      "type": "function"
    },
    {
      "inputs": [
        {
          "internalType": "uint256",
          "name": "feeBasisPoints",
          "type": "uint256"
        }
      ],
      "name": "setTransferFee",
      "outputs": [],
      "stateMutability": "nonpayable",
      "type": "function"
    },
    {
      "inputs": [
        {
          "internalType": "externalEuint64",
          "name": "encAmount",
          "type": "bytes32"
        },
        {
          "internalType": "bytes",
          "name": "inputProof",
          "type": "bytes"
        }
      ],
      "name": "stake",
      "outputs": [],
      "stateMutability": "nonpayable",
      "type": "function"
    },
    {
      "inputs": [],
      "name": "stakingContract",
      "outputs": [
        {
          "internalType": "address",
          "name": "",
          "type": "address"
        }
      ],
      "stateMutability": "view",
      "type": "function"
    },
    {
      "inputs": [
        {
          "internalType": "bytes4",
          "name": "interfaceId",
          "type": "bytes4"
        }
      ],
      "name": "supportsInterface",
      "outputs": [
        {
          "internalType": "bool",
          "name": "",
          "type": "bool"
        }
      ],
      "stateMutability": "view",
      "type": "function"
    },
    {
      "inputs": [],
      "name": "symbol",
      "outputs": [
        {
          "internalType": "string",
          "name": "",
          "type": "string"
        }
      ],
      "stateMutability": "view",
      "type": "function"
    },
    {
      "inputs": [],
      "name": "transferCooldown",
      "outputs": [
        {
          "internalType": "uint256",
          "name": "",
          "type": "uint256"
        }
      ],
      "stateMutability": "view",
      "type": "function"
    },
    {
      "inputs": [],
      "name": "transferFeeBasisPoints",
      "outputs": [
        {
          "internalType": "uint256",
          "name": "",
          "type": "uint256"
        }
      ],
      "stateMutability": "view",
      "type": "function"
    },
    {
      "inputs": [
        {
          "internalType": "address",
          "name": "newOwner",
          "type": "address"
        }
      ],
      "name": "transferOwnership",
      "outputs": [],
      "stateMutability": "nonpayable",
      "type": "function"
    },
    {
      "inputs": [
        {
          "internalType": "externalEuint64",
          "name": "encAmount",
          "type": "bytes32"
        },
        {
          "internalType": "bytes",
          "name": "inputProof",
          "type": "bytes"
        }
      ],
      "name": "unstake",
      "outputs": [],
      "stateMutability": "nonpayable",
      "type": "function"
    }
  ],
  "bytecode": "0x608080604052346108e75760608161367e803803809161001f8285610907565b8339810103126108e7576100328161092a565b60208201516001600160401b03811692908390036108e7576040610056910161092a565b60405192610065604085610907565b60128452712d30b83839902b37ba34b733902837bbb2b960711b6020850152604051610092604082610907565b600381526205a56560ec1b6020820152604051946100b1604087610907565b601a86527f68747470733a2f2f7a617070732e66756e2f6d6574616461746100000000000060208701526100e361093e565b50466001036107f9576100f461093e565b50604051610101816108ec565b6000815260006020820152600060408201525b80517f9e7b61f58c47dc699ac88507c4f5bb9f121c03808c5676a8078fe583e464970080546001600160a01b03199081166001600160a01b0393841617909155602083015160008051602061365e833981519152805483169184169190911790556040909201517f9e7b61f58c47dc699ac88507c4f5bb9f121c03808c5676a8078fe583e4649702805490931691161790558051906001600160401b0382116106095760035490600182811c921680156107ef575b60208310146105e95781601f84931161077f575b50602090601f83116001146107175760009261070c575b50508160011b916000199060031b1c1916176003555b8051906001600160401b0382116106095760045490600182811c92168015610702575b60208310146105e95781601f849311610692575b50602090601f831160011461062a5760009261061f575b50508160011b916000199060031b1c1916176004555b83516001600160401b03811161060957600554600181811c911680156105ff575b60208210146105e957601f81116105a0575b50602094601f82116001146105395794819293949560009261052e575b50508160011b916000199060031b1c1916176005555b6001600160a01b03831691821561051857600780546001600160a01b0319908116909155600680549182168517905583906001600160a01b03167f8be0079c531659141344cd1fd0a4f28419497f9722a3daafe3b4186f6b6457e0600080a3600160085560006009556001600160a01b0316801561050757600a80546001600160a01b0319169190911790556000828152600c60205260409020805460ff19166001179055806103a4575b61039561038a61095d565b806010553090610a44565b6040516129879081610cd78239f35b60008051602061365e83398151915254604051639cd07acb60e01b8152600481019290925260056024830152600091906020908290604490829086906001600160a01b03165af19182156104fb5780926104bf575b505061042e81610470925061041081600254610ad2565b61041d9291923082610a44565b60025561042861095d565b91610bad565b9282600052600060205261044784604060002054610c4f565b6104513082610a44565b61045b8282610a44565b83600052600060205260406000205583610a44565b61047a3083610a44565b60007f67500e8d0ed826d2194f514dd0d8124f35648ab6e3fb5e6ed867134cffe661e98180a46104b760025460018060a01b036006541690610a44565b38808061037f565b9091506020823d6020116104f3575b816104db60209383610907565b810103126104f057505161042e6104706103f9565b80fd5b3d91506104ce565b604051903d90823e3d90fd5b63e6c4247b60e01b60005260046000fd5b631e4fbdf760e01b600052600060045260246000fd5b0151905038806102be565b601f198216956005600052806000209160005b8881106105885750836001959697981061056f575b505050811b016005556102d4565b015160001960f88460031b161c19169055388080610561565b9192602060018192868501518155019401920161054c565b60056000526020600020601f830160051c810191602084106105df575b601f0160051c01905b8181106105d357506102a1565b600081556001016105c6565b90915081906105bd565b634e487b7160e01b600052602260045260246000fd5b90607f169061028f565b634e487b7160e01b600052604160045260246000fd5b015190503880610258565b600460009081528281209350601f198516905b81811061067a5750908460019594939210610661575b505050811b0160045561026e565b015160001960f88460031b161c19169055388080610653565b9293602060018192878601518155019501930161063d565b60046000529091507f8a35acfbc15ff81a39ae7d344fd709f28e8600b4aa8c65c6b64bfe7fe36bd19b601f840160051c810191602085106106f8575b90601f859493920160051c01905b8181106106e95750610241565b600081558493506001016106dc565b90915081906106ce565b91607f169161022d565b0151905038806101f4565b600360009081528281209350601f198516905b818110610767575090846001959493921061074e575b505050811b0160035561020a565b015160001960f88460031b161c19169055388080610740565b9293602060018192878601518155019501930161072a565b60036000529091507fc2575a0e9e593c00f959f8c92f12db2869c3395a3b0502d05e2516446f71f85b601f840160051c810191602085106107e5575b90601f859493920160051c01905b8181106107d657506101dd565b600081558493506001016107c9565b90915081906107bb565b91607f16916101c9565b4662aa36a7036108685761080b61093e565b50604051610818816108ec565b73f0ffdc93b7e186bc2f8cb3daa75d86d1930a433d81527392c920834ec8941d2c77d188936e1f7a6f49c127602082015273be0e383937d564d7ff0bc3b46c51f0bf8d5c311a6040820152610114565b46617a69036108d65761087961093e565b50604051610886816108ec565b7350157cffd6bbfa2dece204a89ec419c23ef5755d815273e3a9105a3a932253a70f126eb1e3b589c643dd24602082015273901f8942346f7ab3a01f6d7613119bca447bb0306040820152610114565b6373cac13b60e01b60005260046000fd5b600080fd5b606081019081106001600160401b0382111761060957604052565b601f909101601f19168101906001600160401b0382119082101761060957604052565b51906001600160a01b03821682036108e757565b6040519061094b826108ec565b60006040838281528260208201520152565b60008051602061365e83398151915254604051639cd07acb60e01b8152600060048201819052600560248301529091602091839160449183916001600160a01b03165af19081156109e2576000916109b3575090565b90506020813d6020116109da575b816109ce60209383610907565b810103126108e7575190565b3d91506109c1565b6040513d6000823e3d90fd5b60008051602061365e83398151915254604051639cd07acb60e01b8152600481019290925260006024830181905260209183916044918391906001600160a01b03165af19081156109e2576000916109b3575090565b7f9e7b61f58c47dc699ac88507c4f5bb9f121c03808c5676a8078fe583e4649700546000926001600160a01b0390911691823b15610ace579060448492836040519586948593635ca4b5b160e11b8552600485015260018060a01b031660248401525af18015610ac357610ab6575050565b81610ac091610907565b50565b6040513d84823e3d90fd5b8380fd5b91908215610b9d57610ae49083610c4f565b9182600084819515610b8b575b602090606460018060a01b0360008051602061365e8339815191525416916040519485938492631391547f60e01b845260048401528860248401528160448401525af19485156104fb578095610b52575b505090610b4f9184610bad565b90565b909194506020823d602011610b83575b81610b6f60209383610907565b810103126104f057505192610b4f38610b42565b3d9150610b62565b506020610b9661095d565b9050610af1565b9150610ba960016109ee565b9190565b91908215610c3d575b8015610c2f575b8115610c19575b606460209293600060018060a01b0360008051602061365e83398151915254166040519687958694637702dcff60e01b86526004860152602485015260448401525af19081156109e2576000916109b3575090565b602091506064610c2761095d565b925050610bc4565b50610c3861095d565b610bbd565b9150610c4960006109ee565b91610bb6565b908115610cc6575b8015610cb4575b602090606460018060a01b0360008051602061365e8339815191525416936000604051958694859363022f65e760e31b8552600485015260248401528160448401525af19081156109e2576000916109b3575090565b506020610cbf61095d565b9050610c5e565b9050610cd061095d565b90610c5756fe608080604052600436101561001357600080fd5b600090813560e01c90816301ffc9a7146117a35750806306fdde03146116e65780630d2d8a31146116ad57806313691c761461165157806317ba9e8f1461154e578063183767da146115305780631b4d3d0d146114c65780632893c5b0146114425780632fb74e62146113c8578063313ce567146113ac578063344ff1011461137457806334c45743146112665780633a02a42d1461122d578063468765081461120f57806348931352146111e8578063537d3c5014611189578063540952271461116b5780635bebed7e1461113357806368f1629314611115578063691ca86e146110b0578063715018a61461104957806379ba509714610fc15780637d6a1d4a14610f865780638927b03014610f6b5780638da5cb5b14610f425780638f02bb5b14610f0757806395d89b4114610e4a5780639dd373b914610e05578063a0c6b1ed14610dab578063a42dce8014610d50578063aa2fe91b14610d11578063b1af281e14610b2f578063b6363cf214610af8578063c415b95c14610acf578063c7b8a75e14610a3f578063d0f4116f146109d2578063d4febb961461093f578063d80618061461084b578063de64211914610797578063e064b9bb14610727578063e30c3978146106fe578063e8a3d485146105ed578063eb3155b514610515578063ec0cdf62146104d6578063ed0deef41461042f578063ee99205c14610406578063f2fde38b146103985763fb2e29dc1461023157600080fd5b34610395576040366003190112610395576004356001600160401b03811161039357610261903690600401611951565b6024356001600160401b03811161038f57610280903690600401611951565b919091338552600c60205260ff6040862054161561038057808203610349576064821161031257845b8281106102b4578580f35b6102bf818386611cf4565b356001600160401b03811680910361030e576102da90612262565b906102e6818588611cf4565b356001600160a01b038116810361030a576001926103039161202a565b50016102a9565b8780fd5b8680fd5b60405162461bcd60e51b815260206004820152600f60248201526e426174636820746f6f206c6172676560881b6044820152606490fd5b60405162461bcd60e51b815260206004820152600f60248201526e098cadccee8d040dad2e6dac2e8c6d608b1b6044820152606490fd5b63019a5d1d60e71b8552600485fd5b8380fd5b505b80fd5b5034610395576020366003190112610395576103b2611839565b6103ba6121d4565b600780546001600160a01b0319166001600160a01b039283169081179091556006549091167f38d16b8cac22d99fc7c124b9cd0de2d3fa1faef420bfe791d8c362d765e227008380a380f35b5034610395578060031936011261039557600b546040516001600160a01b039091168152602090f35b503461039557610480610457610451610447366118ad565b92919236916119d3565b90611e47565b338352600f60205261046d81604085205461214d565b338452600f60205260408420553361202a565b50338152600f602052610498604082205430906124c9565b338152600f6020526104ae3360408320546124c9565b337f64f303eafc1b59b12b19c5226fec0e4a42d34821b08d5f7cdef3bdbeccdad1178280a280f35b50346103955760203660031901126103955760209060ff906040906001600160a01b03610501611839565b168152600d84522054166040519015158152f35b50346103955760603660031901126103955761056b610532611839565b61053a611854565b60443591610552338461054d338261271c565b611c59565b61056633826105613382611ca4565b611c2b565b61211a565b600080516020612932833981519152546001600160a01b0316803b156105e957604051630f8e573b60e21b8152600481018390523360248201529083908290604490829084905af180156105de576105c9575b602082604051908152f35b6105d4838092611981565b61039357816105be565b6040513d85823e3d90fd5b8280fd5b50346103955780600319360112610395576040519080600554908160011c916001811680156106f4575b6020841081146106e0578386529081156106b9575060011461065c575b6106588461064481860382611981565b6040519182916020835260208301906117f8565b0390f35b600581527f036b6384b5eca791c62761152d0c79bb0604c104a5fb6f4eb0703f3154bb3db0939250905b80821061069f5750909150810160200161064482610634565b919260018160209254838588010152019101909291610686565b60ff191660208087019190915292151560051b850190920192506106449150839050610634565b634e487b7160e01b83526022600452602483fd5b92607f1692610617565b50346103955780600319360112610395576007546040516001600160a01b039091168152602090f35b503461039557608036600319011261039557610741611839565b610749611854565b90606435916001600160401b03831161038f5761079161078961077361056b953690600401611880565b61078233876105613382611ca4565b36916119d3565b604435611e47565b9161211a565b5034610395576080366003190112610395576107b1611839565b6044356001600160401b0381116105e9576107d0903690600401611880565b606435926001600160401b038411610847576108396108419261082b61081f61081861081061080661056b9a3690600401611880565b99909536916119d3565b602435611e47565b853361211a565b9586928386333361253e565b6108336122b4565b90612662565b903390612357565b9061214d565b8480fd5b50346103955760203660031901126103955760043561086f338261054d338261271c565b81604080519061087f8183611981565b60018252601f1981013660208401378361089883611c81565b52600080516020612932833981519152546001600160a01b0316803b1561038f578151637d6e912360e11b81526020600482015292849184918290849082906108e590602483019061222e565b03925af19081156109365750610921575b505033907f189c3bfae2e5ce7726b29d57bb6ed0f1a7ebcd153a863ff5ecb6cd998064c98c8380a380f35b8161092b91611981565b6103935781386108f6565b513d84823e3d90fd5b503461039557604036600319011261039557610959611839565b6024359065ffffffffffff82168092036105e957338084526001602090815260408086206001600160a01b0394909416600081815294835293819020805465ffffffffffff19168617905551938452919290917f921a218a75d18e8ec5704851e6b234a85725b21a2521ce889622c35dedc1fa1291a380f35b50346103955760207f9041c22ed79d1c19c69cc22fd9e38c93da4f2dd8cd32580594e232a8a18541cb610a0436611922565b9290610a0e6121d4565b6001600160a01b0316808552600c825260408520805460ff191660ff86151516179055925b6040519015158152a280f35b503461039557608036600319011261039557610a59611839565b610a61611854565b604435606435916001600160401b0383116108475761056b93610ac96108419361082b610a95610abd973690600401611880565b979092610aa7338261054d338261271c565b610ab633876105613382611ca4565b868661211a565b9687928387873361253e565b91612357565b5034610395578060031936011261039557600a546040516001600160a01b039091168152602090f35b5034610395576040366003190112610395576020610b25610b17611839565b610b1f611854565b90611ca4565b6040519015158152f35b503461039557606036600319011261039557600435610b4c61186a565b6044356001600160401b03811161038f57610b6b903690600401611880565b9190604091856020610c3a610bbe865195610b868888611981565b60018752601f198801368589013789610b9e88611c81565b526001600160401b03885196169889858801528487526107828988611981565b7f9e7b61f58c47dc699ac88507c4f5bb9f121c03808c5676a8078fe583e46497025487516378542ead60e01b8152606060048201529485936001600160a01b039092169284928391610c28610c16606485018d61222e565b8481036003190160248601528b6117f8565b838103600319016044850152906117f8565b03925af1908115610d07578791610cd8575b5015610cc957917fc6366bab028b8d033cb362cfd1f2f3457ef4e92fc738b6788b90d5a7846367a0610cb17f83bbbc07896439e5d950a6cead04cbc676180af7a61cecf43f5296475057f5719593610cbe60209685519384938785528785019061222e565b90838203898501526117f8565b0390a151908152a280f35b63cf6c44e960e01b8652600486fd5b610cfa915060203d602011610d00575b610cf28183611981565b810190612704565b38610c4c565b503d610ce8565b84513d89823e3d90fd5b50346103955760203660031901126103955760209060ff906040906001600160a01b03610d3c611839565b168152600c84522054166040519015158152f35b503461039557602036600319011261039557610d6a611839565b610d726121d4565b6001600160a01b03168015610d9c576bffffffffffffffffffffffff60a01b600a541617600a5580f35b63e6c4247b60e01b8252600482fd5b503461039557610dba366118e0565b90919293338152600d60205260ff60408220541615610df6576020610dee86610de88761045136888a6119d3565b90611d21565b604051908152f35b6360eeb7e160e11b8152600490fd5b503461039557602036600319011261039557610e1f611839565b610e276121d4565b60018060a01b03166bffffffffffffffffffffffff60a01b600b541617600b5580f35b50346103955780600319360112610395576040519080600454908160011c91600181168015610efd575b6020841081146106e0578386529081156106b95750600114610ea0576106588461064481860382611981565b600481527f8a35acfbc15ff81a39ae7d344fd709f28e8600b4aa8c65c6b64bfe7fe36bd19b939250905b808210610ee35750909150810160200161064482610634565b919260018160209254838588010152019101909291610eca565b92607f1692610e74565b503461039557602036600319011261039557600435610f246121d4565b6103e88111610f335760095580f35b63cd4e616760e01b8252600482fd5b50346103955780600319360112610395576006546040516001600160a01b039091168152602090f35b50346103955780600319360112610395576020610dee6121fd565b503461039557602036600319011261039557600435610fa36121d4565b610e108111610fb25760085580f35b63f31366db60e01b8252600482fd5b5034610395578060031936011261039557600754336001600160a01b039091160361103657600780546001600160a01b0319908116909155600680543392811683179091556001600160a01b03167f8be0079c531659141344cd1fd0a4f28419497f9722a3daafe3b4186f6b6457e08380a380f35b63118cdaa760e01b815233600452602490fd5b50346103955780600319360112610395576110626121d4565b600780546001600160a01b031990811690915560068054918216905581906001600160a01b03167f8be0079c531659141344cd1fd0a4f28419497f9722a3daafe3b4186f6b6457e08280a380f35b50346103955760207f820feb1c986b7f5bafd6bfc94f2a065587da0b565ed6fd3a4bcc0a2e71d7a5246110e236611922565b92906110ec6121d4565b6001600160a01b0316808552600d825260408520805460ff191660ff8615151617905592610a33565b50346103955780600319360112610395576020600854604051908152f35b5034610395576040366003190112610395576020610dee611152611839565b60243590611165338361054d338261271c565b3361211a565b50346103955780600319360112610395576020600254604051908152f35b5034610395576060366003190112610395576111a3611839565b6044356024356001600160401b03821161038f5761056b926108396108419261082b6111d661081f963690600401611880565b969092610818338261054d338261271c565b503461039557806003193601126103955760206040516b033b2e3c9fd0803ce80000008152f35b50346103955780600319360112610395576020601054604051908152f35b5034610395576020366003190112610395576020906040906001600160a01b03611255611839565b168152600f83522054604051908152f35b50346103955760a036600319011261039557611280611839565b611288611854565b6064356001600160401b03811161038f576112a7903690600401611880565b9091608435936001600160401b03851161137057610ac96108419361082b610abd610ab66107896112df6112f19b3690600401611880565b9a9095610782338a6105613382611ca4565b600080516020612932833981519152546001600160a01b031691823b1561039557604051630f8e573b60e21b8152600481018390523360248201529281908490604490829084905af192831561136357602093611353575b5050604051908152f35b8161135d91611981565b38611349565b50604051903d90823e3d90fd5b8580fd5b5034610395576020366003190112610395576020906040906001600160a01b0361139c611839565b1681528083522054604051908152f35b5034610395578060031936011261039557602060405160068152f35b5034610395576113d7366118e0565b9392919091338452600e6020526040842054600854810180911161142e57421061141f57916020949161140993611a0a565b90338152600e8352604042912055604051908152f35b63aa9a98df60e01b8452600484fd5b634e487b7160e01b85526011600452602485fd5b50346103955760403660031901126103955761145c611839565b61146461186a565b338352600c60205260ff604084205416156114b7576001600160a01b038216156114a8579061149e6001600160401b036114a49316612262565b9061202a565b5080f35b63e6c4247b60e01b8352600483fd5b63019a5d1d60e71b8352600483fd5b5034610395576114d5366118e0565b90919293338152600c60205260ff60408220541615611521576001600160a01b03851615611512576020610dee8661149e8761045136888a6119d3565b63e6c4247b60e01b8152600490fd5b63019a5d1d60e71b8152600490fd5b50346103955780600319360112610395576020600954604051908152f35b50346103955761155d366118ad565b600b549092906001600160a01b03161561161657610451611583926115a69436916119d3565b61158d8133611d21565b50338352600f6020526040832054801561160857611f57565b338252600f6020526040822055338152600f6020526115ca604082205430906124c9565b338152600f6020526115e03360408320546124c9565b337fb8b625864ac602298acb21023676394b6708d718ccb5da81ce6dc40617e8600c8280a280f35b506116116122b4565b611f57565b60405162461bcd60e51b815260206004820152601360248201527214dd185ada5b99c81b9bdd08195b98589b1959606a1b6044820152606490fd5b50346103955760403660031901126103955761166b611839565b61167361186a565b338352600d60205260ff6040842054161561169e5790610de86001600160401b036114a49316612262565b6360eeb7e160e11b8352600483fd5b5034610395576020366003190112610395576020906040906001600160a01b036116d5611839565b168152600e83522054604051908152f35b50346103955780600319360112610395576040519080600354908160011c91600181168015611799575b6020841081146106e0578386529081156106b9575060011461173c576106588461064481860382611981565b600381527fc2575a0e9e593c00f959f8c92f12db2869c3395a3b0502d05e2516446f71f85b939250905b80821061177f5750909150810160200161064482610634565b919260018160209254838588010152019101909291611766565b92607f1692611710565b9050346103935760203660031901126103935760043563ffffffff60e01b81168091036105e957602092506312563ca960e21b81149081156117e7575b5015158152f35b6301ffc9a760e01b149050386117e0565b919082519283825260005b848110611824575050826000602080949584010152601f8019910116010190565b80602080928401015182828601015201611803565b600435906001600160a01b038216820361184f57565b600080fd5b602435906001600160a01b038216820361184f57565b602435906001600160401b038216820361184f57565b9181601f8401121561184f578235916001600160401b03831161184f576020838186019501011161184f57565b90604060031983011261184f5760043591602435906001600160401b03821161184f576118dc91600401611880565b9091565b606060031982011261184f576004356001600160a01b038116810361184f579160243591604435906001600160401b03821161184f576118dc91600401611880565b604090600319011261184f576004356001600160a01b038116810361184f5790602435801515810361184f5790565b9181601f8401121561184f578235916001600160401b03831161184f576020808501948460051b01011161184f57565b90601f801991011681019081106001600160401b038211176119a257604052565b634e487b7160e01b600052604160045260246000fd5b6001600160401b0381116119a257601f01601f191660200190565b9291926119df826119b8565b916119ed6040519384611981565b82948184528183011161184f578281602093846000960137010152565b9392611a1b926104519136916119d3565b60095490929015611c1f57611a3a6001600160401b0360095416612262565b83908415611c0f575b8015611bfd575b602090606460018060a01b0360008051602061291283398151915254169360006040519586948593630afe14ad60e31b8552600485015260248401528160448401525af1908115611bac57600091611bca575b50600091908015611bb8575b60008051602061291283398151915254604051635a53accb60e01b815260048101929092526127106024830152600160f81b6044830152909260209184916064918391906001600160a01b03165af1918215611bac57600092611b74575b50611b45611b3a611b1c84611b71969761214d565b93611b318160018060a01b03600a541661202a565b50601054611f57565b8060105530906124c9565b337fe80a04a4f16675fc364660b90ae20b25e43956e2848c30e10469a5821a6be784600080a23361211a565b90565b93916020853d602011611ba4575b81611b8f60209383611981565b81010312610395575092519092611b45611b07565b3d9150611b82565b6040513d6000823e3d90fd5b506020611bc36122b4565b9050611aa9565b906020823d602011611bf5575b81611be460209383611981565b810103126103955750516000611a9d565b3d9150611bd7565b506020611c086122b4565b9050611a4a565b9050611c196122b4565b90611a43565b91611b7191923361211a565b15611c34575050565b630f3e596760e31b60009081526001600160a01b039182166004529116602452604490fd5b15611c62575050565b6367cfe80560e01b60005260045260018060a01b031660245260446000fd5b805115611c8e5760200190565b634e487b7160e01b600052603260045260246000fd5b6001600160a01b03828116911690811491908215611cc157505090565b909150600052600160205260406000209060018060a01b031660005260205265ffffffffffff6040600020541642111590565b9190811015611c8e5760051b0190565b15611d0b57565b63ee457ebf60e01b600052600060045260246000fd5b906001600160a01b0382168015801592909190611d3d84611d04565b60009215611deb5780611d55611d7492600254612863565b919091611d6230826124c9565b6002555b611d6e6122b4565b91612662565b938493611d838560025461214d565b611d8d30826124c9565b600255611ddb575b50611da030846124c9565b7f67500e8d0ed826d2194f514dd0d8124f35648ab6e3fb5e6ed867134cffe661e98280a4611b7160025460018060a01b0360065416906124c9565b611de590846124c9565b38611d95565b8183528260205260408320548015611e335790611e0b81611d749361278b565b919091611e1830826124c9565b611e2288826124c9565b848652856020526040862055611d66565b6317fe473760e21b84526004839052602484fd5b6020611e999260009260018060a01b036000805160206129128339815191525416908460405180978195829463045fc19560e11b845260048401523360248401526080604484015260848301906117f8565b6005606483015203925af1918215611363578192611f23575b50600080516020612932833981519152546001600160a01b0316803b1561039357604051630f8e573b60e21b8152600481018490523360248201529082908290604490829084905af18015611f1857611f0a57505090565b81611f1491611981565b5090565b6040513d84823e3d90fd5b9091506020813d602011611f4f575b81611f3f60209383611981565b8101031261039357519038611eb2565b3d9150611f32565b908115611ffd575b8015611feb575b602090606460018060a01b036000805160206129128339815191525416936000604051958694859363022f65e760e31b8552600485015260248401528160448401525af1908115611bac57600091611fbc575090565b90506020813d602011611fe3575b81611fd760209383611981565b8101031261184f575190565b3d9150611fca565b506020611ff66122b4565b9050611f66565b90506120076122b4565b90611f5f565b1561201457565b638d51880160e01b600052600060045260246000fd5b6001600160a01b038116801580159390926120448561200d565b61206360009261205681600254612863565b909190611d6230826124c9565b948594156120e0576120778560025461214d565b61208130826124c9565b6002555b6120d0575b5061209530846124c9565b7f67500e8d0ed826d2194f514dd0d8124f35648ab6e3fb5e6ed867134cffe661e98180a4611b7160025460018060a01b0360065416906124c9565b6120da90846124c9565b3861208a565b838352826020526120f5856040852054611f57565b6120ff30826124c9565b61210983826124c9565b848452836020526040842055612085565b611b719291906121346001600160a01b0382161515611d04565b6121486001600160a01b038316151561200d565b612357565b9081156121c4575b80156121b2575b602090606460018060a01b03600080516020612912833981519152541693600060405195869485936303056db360e31b8552600485015260248401528160448401525af1908115611bac57600091611fbc575090565b5060206121bd6122b4565b905061215c565b90506121ce6122b4565b90612155565b6006546001600160a01b031633036121e857565b63118cdaa760e01b6000523360045260246000fd5b4660010361220a57600190565b4662aa36a70361221a5761271190565b617a69461461222857600090565b60001990565b906020808351928381520192019060005b81811061224c5750505090565b825184526020938401939092019160010161223f565b60008051602061291283398151915254604051639cd07acb60e01b815260048101929092526001600160a01b0316816044816000602094600560248401525af1908115611bac57600091611fbc575090565b60008051602061291283398151915254604051639cd07acb60e01b815260006004820152906001600160a01b0316816044816000602094600560248401525af1908115611bac57600091611fbc575090565b60008051602061291283398151915254604051639cd07acb60e01b815260048101929092526001600160a01b03168160448160006020948160248401525af1908115611bac57600091611fbc575090565b90916001600160a01b0382168015929160008415612468575080611d5561238092600254612863565b9384936001600160a01b038216938415918215612428576123a38760025461214d565b6123ad30826124c9565b6002555b15612418575b5015612408575b506123c930846124c9565b7f67500e8d0ed826d2194f514dd0d8124f35648ab6e3fb5e6ed867134cffe661e9600080a49061240660025460018060a01b0360065416906124c9565b565b61241290846124c9565b386123be565b61242290866124c9565b386123b7565b85600052600060205261244087604060002054611f57565b61244a30826124c9565b61245485826124c9565b8660005260006020526040600020556123b1565b8281528060205260408120549081156124b557509061248a816123809361278b565b91909161249730826124c9565b6124a186826124c9565b846000526000602052604060002055611d66565b6317fe473760e21b81526004849052602490fd5b60008051602061293283398151915254600092916001600160a01b0390911690813b1561038f57604051635ca4b5b160e11b815260048101919091526001600160a01b0392909216602483015282908290604490829084905af18015611f1857612531575050565b8161253b91611981565b50565b939594929390929091803b15612651576040516346083bfd60e01b81526001600160a01b0393841660048201529383166024850152604484019490945260806064840152608483018190529216939091602091839160a4918391908190838501376000838284010152601f801991011681010301816000875af16000918161261d575b5061261957823d15612612573d6125d7816119b8565b906125e56040519283611981565b81523d6000602083013e5b8051908161260d5782638d51880160e01b60005260045260246000fd5b602001fd5b60606125f0565b9150565b9091506020813d602011612649575b8161263960209383611981565b8101031261184f575190386125c1565b3d915061262c565b50505050509050611b716001612306565b919082156126f2575b80156126e4575b81156126ce575b606460209293600060018060a01b0360008051602061291283398151915254166040519687958694637702dcff60e01b86526004860152602485015260448401525af1908115611bac57600091611fbc575090565b6020915060646126dc6122b4565b925050612679565b506126ed6122b4565b612672565b91506126fe6000612306565b9161266b565b9081602091031261184f5751801515810361184f5790565b600080516020612932833981519152546040516382027b6d60e01b815260048101929092526001600160a01b039283166024830152909160209183916044918391165afa908115611bac57600091612772575090565b611b71915060203d602011610d0057610cf28183611981565b91909180156127b257806127ac6127a585611b719461288a565b948261214d565b84612662565b821561285357506000805160206129128339815191525460405163f77f3f1d60e01b81526004810193909352600060248401819052600160f81b604485015260209184916064918391906001600160a01b03165af1918215611bac5760009261281f575b50611b716122b4565b9091506020813d60201161284b575b8161283b60209383611981565b8101031261184f57519038612816565b3d915061282e565b915061285f6001612306565b9190565b9190821561285357612878611b719184611f57565b92612883818561288a565b9384612662565b908115612901575b80156128ef575b602090606460018060a01b0360008051602061291283398151915254169360006040519586948593631391547f60e01b8552600485015260248401528160448401525af1908115611bac57600091611fbc575090565b5060206128fa6122b4565b9050612899565b905061290b6122b4565b9061289256fe9e7b61f58c47dc699ac88507c4f5bb9f121c03808c5676a8078fe583e46497019e7b61f58c47dc699ac88507c4f5bb9f121c03808c5676a8078fe583e4649700a2646970667358221220dd5895b7a742709a4860faa4c7bfa728be36787bc9613344d4f086dfe4db69c664736f6c634300081b00339e7b61f58c47dc699ac88507c4f5bb9f121c03808c5676a8078fe583e4649701",
  "linkReferences": {},
  "deployedLinkReferences": {}
}