{
  "_format": "hh-sol-artifact-1",
  "contractName": "ZappsVoting",
  "sourceName": "contracts/ZappsVoting.sol",
  "abi": [
    {
      "inputs": [
        {
          "internalType": "address",
          "name": "_zappsToken",
          "type": "address"
        },
        {
          "internalType": "uint64",
          "name": "_votePrice",
          "type": "uint64"
        }
      ],
      "stateMutability": "nonpayable",
      "type": "constructor"
    },
    {
      "inputs": [],
      "name": "CountDecreased",
      "type": "error"
    },
    {
      "inputs": [],
      "name": "InvalidKMSSignatures",
      "type": "error"
    },
    {
      "inputs": [],
      "name": "InvalidOwner",
      "type": "error"
    },
    {
      "inputs": [],
      "name": "InvalidPrice",
      "type": "error"
    },
    {
      "inputs": [],
      "name": "InvalidProof",
      "type": "error"
    },
    {
      "inputs": [],
      "name": "InvalidToken",
      "type": "error"
    },
    {
      "inputs": [],
      "name": "IsPaused",
      "type": "error"
    },
    {
      "inputs": [],
      "name": "NotOwner",
      "type": "error"
    },
    {
      "inputs": [],
      "name": "SumBelowMin",
      "type": "error"
    },
    {
      "inputs": [],
      "name": "SumExceedsMax",
      "type": "error"
    },
    {
      "inputs": [],
      "name": "TargetNotExists",
      "type": "error"
    },
    {
      "inputs": [],
      "name": "VoteLimitReached",
      "type": "error"
    },
    {
      "inputs": [],
      "name": "ZamaProtocolUnsupported",
      "type": "error"
    },
    {
      "anonymous": false,
      "inputs": [
        {
          "indexed": true,
          "internalType": "bytes32",
          "name": "targetId",
          "type": "bytes32"
        },
        {
          "indexed": false,
          "internalType": "uint32",
          "name": "sum",
          "type": "uint32"
        },
        {
          "indexed": false,
          "internalType": "uint32",
          "name": "count",
          "type": "uint32"
        },
        {
          "indexed": false,
          "internalType": "uint256",
          "name": "average",
          "type": "uint256"
        },
        {
          "indexed": false,
          "internalType": "uint256",
          "name": "timestamp",
          "type": "uint256"
        }
      ],
      "name": "AverageUpdated",
      "type": "event"
    },
    {
      "anonymous": false,
      "inputs": [
        {
          "indexed": true,
          "internalType": "bytes32",
          "name": "targetId",
          "type": "bytes32"
        },
        {
          "indexed": false,
          "internalType": "euint32",
          "name": "encSum",
          "type": "bytes32"
        },
        {
          "indexed": false,
          "internalType": "euint32",
          "name": "encCount",
          "type": "bytes32"
        }
      ],
      "name": "DecryptionDataReady",
      "type": "event"
    },
    {
      "anonymous": false,
      "inputs": [
        {
          "indexed": true,
          "internalType": "address",
          "name": "oldOwner",
          "type": "address"
        },
        {
          "indexed": true,
          "internalType": "address",
          "name": "newOwner",
          "type": "address"
        }
      ],
      "name": "OwnerTransferred",
      "type": "event"
    },
    {
      "anonymous": false,
      "inputs": [
        {
          "indexed": false,
          "internalType": "bool",
          "name": "isPaused",
          "type": "bool"
        }
      ],
      "name": "Paused",
      "type": "event"
    },
    {
      "anonymous": false,
      "inputs": [
        {
          "indexed": false,
          "internalType": "bytes32[]",
          "name": "handlesList",
          "type": "bytes32[]"
        },
        {
          "indexed": false,
          "internalType": "bytes",
          "name": "abiEncodedCleartexts",
          "type": "bytes"
        }
      ],
      "name": "PublicDecryptionVerified",
      "type": "event"
    },
    {
      "anonymous": false,
      "inputs": [
        {
          "indexed": true,
          "internalType": "bytes32",
          "name": "targetId",
          "type": "bytes32"
        },
        {
          "indexed": false,
          "internalType": "enum ZappsVoting.TargetType",
          "name": "targetType",
          "type": "uint8"
        },
        {
          "indexed": false,
          "internalType": "uint256",
          "name": "timestamp",
          "type": "uint256"
        }
      ],
      "name": "TargetInitialized",
      "type": "event"
    },
    {
      "anonymous": false,
      "inputs": [
        {
          "indexed": false,
          "internalType": "uint64",
          "name": "newPrice",
          "type": "uint64"
        }
      ],
      "name": "VotePriceChanged",
      "type": "event"
    },
    {
      "anonymous": false,
      "inputs": [
        {
          "indexed": true,
          "internalType": "bytes32",
          "name": "targetId",
          "type": "bytes32"
        },
        {
          "indexed": true,
          "internalType": "address",
          "name": "voter",
          "type": "address"
        },
        {
          "indexed": false,
          "internalType": "uint8",
          "name": "voteNumber",
          "type": "uint8"
        },
        {
          "indexed": false,
          "internalType": "uint256",
          "name": "timestamp",
          "type": "uint256"
        }
      ],
      "name": "VoteSubmitted",
      "type": "event"
    },
    {
      "inputs": [],
      "name": "MAX_RATING",
      "outputs": [
        {
          "internalType": "uint8",
          "name": "",
          "type": "uint8"
        }
      ],
      "stateMutability": "view",
      "type": "function"
    },
    {
      "inputs": [],
      "name": "MAX_VOTES_PER_TARGET",
      "outputs": [
        {
          "internalType": "uint8",
          "name": "",
          "type": "uint8"
        }
      ],
      "stateMutability": "view",
      "type": "function"
    },
    {
      "inputs": [],
      "name": "MIN_RATING",
      "outputs": [
        {
          "internalType": "uint8",
          "name": "",
          "type": "uint8"
        }
      ],
      "stateMutability": "view",
      "type": "function"
    },
    {
      "inputs": [],
      "name": "confidentialProtocolId",
      "outputs": [
        {
          "internalType": "uint256",
          "name": "",
          "type": "uint256"
        }
      ],
      "stateMutability": "view",
      "type": "function"
    },
    {
      "inputs": [
        {
          "internalType": "bytes32",
          "name": "targetId",
          "type": "bytes32"
        }
      ],
      "name": "getAverageRating",
      "outputs": [
        {
          "internalType": "uint256",
          "name": "",
          "type": "uint256"
        }
      ],
      "stateMutability": "view",
      "type": "function"
    },
    {
      "inputs": [
        {
          "internalType": "bytes32",
          "name": "targetId",
          "type": "bytes32"
        }
      ],
      "name": "getEncryptedData",
      "outputs": [
        {
          "internalType": "euint32",
          "name": "",
          "type": "bytes32"
        },
        {
          "internalType": "euint32",
          "name": "",
          "type": "bytes32"
        }
      ],
      "stateMutability": "view",
      "type": "function"
    },
    {
      "inputs": [
        {
          "internalType": "bytes32",
          "name": "targetId",
          "type": "bytes32"
        }
      ],
      "name": "getTargetData",
      "outputs": [
        {
          "internalType": "enum ZappsVoting.TargetType",
          "name": "targetType",
          "type": "uint8"
        },
        {
          "internalType": "uint32",
          "name": "sum",
          "type": "uint32"
        },
        {
          "internalType": "uint32",
          "name": "count",
          "type": "uint32"
        },
        {
          "internalType": "uint256",
          "name": "average",
          "type": "uint256"
        },
        {
          "internalType": "uint256",
          "name": "totalVotes",
          "type": "uint256"
        },
        {
          "internalType": "uint256",
          "name": "uniqueVoters",
          "type": "uint256"
        },
        {
          "internalType": "uint256",
          "name": "lastUpdate",
          "type": "uint256"
        }
      ],
      "stateMutability": "view",
      "type": "function"
    },
    {
      "inputs": [
        {
          "internalType": "bytes32",
          "name": "targetId",
          "type": "bytes32"
        }
      ],
      "name": "getTargetVoters",
      "outputs": [
        {
          "internalType": "address[]",
          "name": "",
          "type": "address[]"
        }
      ],
      "stateMutability": "view",
      "type": "function"
    },
    {
      "inputs": [
        {
          "internalType": "bytes32",
          "name": "targetId",
          "type": "bytes32"
        },
        {
          "internalType": "address",
          "name": "user",
          "type": "address"
        },
        {
          "internalType": "uint8",
          "name": "index",
          "type": "uint8"
        }
      ],
      "name": "getUserEncryptedRating",
      "outputs": [
        {
          "internalType": "euint8",
          "name": "",
          "type": "bytes32"
        }
      ],
      "stateMutability": "view",
      "type": "function"
    },
    {
      "inputs": [
        {
          "internalType": "bytes32",
          "name": "targetId",
          "type": "bytes32"
        },
        {
          "internalType": "address",
          "name": "user",
          "type": "address"
        }
      ],
      "name": "getUserVoteInfo",
      "outputs": [
        {
          "internalType": "uint8",
          "name": "voteCount",
          "type": "uint8"
        },
        {
          "internalType": "uint256[]",
          "name": "timestamps",
          "type": "uint256[]"
        },
        {
          "internalType": "bool",
          "name": "canVote",
          "type": "bool"
        }
      ],
      "stateMutability": "view",
      "type": "function"
    },
    {
      "inputs": [],
      "name": "owner",
      "outputs": [
        {
          "internalType": "address",
          "name": "",
          "type": "address"
        }
      ],
      "stateMutability": "view",
      "type": "function"
    },
    {
      "inputs": [],
      "name": "paused",
      "outputs": [
        {
          "internalType": "bool",
          "name": "",
          "type": "bool"
        }
      ],
      "stateMutability": "view",
      "type": "function"
    },
    {
      "inputs": [
        {
          "internalType": "bytes32",
          "name": "targetId",
          "type": "bytes32"
        }
      ],
      "name": "requestDecryptionData",
      "outputs": [],
      "stateMutability": "nonpayable",
      "type": "function"
    },
    {
      "inputs": [
        {
          "internalType": "bool",
          "name": "_paused",
          "type": "bool"
        }
      ],
      "name": "setPaused",
      "outputs": [],
      "stateMutability": "nonpayable",
      "type": "function"
    },
    {
      "inputs": [
        {
          "internalType": "uint64",
          "name": "newPrice",
          "type": "uint64"
        }
      ],
      "name": "setVotePrice",
      "outputs": [],
      "stateMutability": "nonpayable",
      "type": "function"
    },
    {
      "inputs": [
        {
          "internalType": "address",
          "name": "_reputation",
          "type": "address"
        }
      ],
      "name": "setZappsReputation",
      "outputs": [],
      "stateMutability": "nonpayable",
      "type": "function"
    },
    {
      "inputs": [
        {
          "internalType": "bytes32",
          "name": "",
          "type": "bytes32"
        }
      ],
      "name": "targets",
      "outputs": [
        {
          "internalType": "enum ZappsVoting.TargetType",
          "name": "targetType",
          "type": "uint8"
        },
        {
          "internalType": "euint32",
          "name": "encSum",
          "type": "bytes32"
        },
        {
          "internalType": "euint32",
          "name": "encCount",
          "type": "bytes32"
        },
        {
          "internalType": "uint32",
          "name": "decSum",
          "type": "uint32"
        },
        {
          "internalType": "uint32",
          "name": "decCount",
          "type": "uint32"
        },
        {
          "internalType": "uint256",
          "name": "lastDecryptTime",
          "type": "uint256"
        },
        {
          "internalType": "bool",
          "name": "exists",
          "type": "bool"
        },
        {
          "internalType": "uint256",
          "name": "createdAt",
          "type": "uint256"
        },
        {
          "internalType": "uint256",
          "name": "totalVotes",
          "type": "uint256"
        },
        {
          "internalType": "uint256",
          "name": "lastVoteTime",
          "type": "uint256"
        }
      ],
      "stateMutability": "view",
      "type": "function"
    },
    {
      "inputs": [
        {
          "internalType": "address",
          "name": "newOwner",
          "type": "address"
        }
      ],
      "name": "transferOwnership",
      "outputs": [],
      "stateMutability": "nonpayable",
      "type": "function"
    },
    {
      "inputs": [
        {
          "internalType": "bytes32",
          "name": "targetId",
          "type": "bytes32"
        },
        {
          "internalType": "bytes",
          "name": "abiEncodedValues",
          "type": "bytes"
        },
        {
          "internalType": "bytes",
          "name": "decryptionProof",
          "type": "bytes"
        }
      ],
      "name": "verifyAndStoreDecryption",
      "outputs": [],
      "stateMutability": "nonpayable",
      "type": "function"
    },
    {
      "inputs": [
        {
          "internalType": "bytes32",
          "name": "targetId",
          "type": "bytes32"
        },
        {
          "internalType": "enum ZappsVoting.TargetType",
          "name": "targetType",
          "type": "uint8"
        },
        {
          "internalType": "externalEuint8",
          "name": "encRating",
          "type": "bytes32"
        },
        {
          "internalType": "bytes",
          "name": "proof",
          "type": "bytes"
        }
      ],
      "name": "vote",
      "outputs": [],
      "stateMutability": "nonpayable",
      "type": "function"
    },
    {
      "inputs": [],
      "name": "votePrice",
      "outputs": [
        {
          "internalType": "uint64",
          "name": "",
          "type": "uint64"
        }
      ],
      "stateMutability": "view",
      "type": "function"
    },
    {
      "inputs": [],
      "name": "zappsReputation",
      "outputs": [
        {
          "internalType": "address",
          "name": "",
          "type": "address"
        }
      ],
      "stateMutability": "view",
      "type": "function"
    },
    {
      "inputs": [],
      "name": "zappsToken",
      "outputs": [
        {
          "internalType": "address",
          "name": "",
          "type": "address"
        }
      ],
      "stateMutability": "view",
      "type": "function"
    }
  ],
  "bytecode": "0x6080604052346102b357604051601f6121b938819003918201601f19168301916001600160401b038311848410176102b85780849260409485528339810103126102b35780516001600160a01b03811691908290036102b35760200151906001600160401b0382168083036102b3576100766102ed565b50466001036101cd576100876102ed565b506100906102ce565b6000815260006020820152600060408201525b80517f9e7b61f58c47dc699ac88507c4f5bb9f121c03808c5676a8078fe583e464970080546001600160a01b03199081166001600160a01b039384161790915560208301517f9e7b61f58c47dc699ac88507c4f5bb9f121c03808c5676a8078fe583e4649701805483169184169190911790556040909201517f9e7b61f58c47dc699ac88507c4f5bb9f121c03808c5676a8078fe583e46497028054909316911617905581156101bc57156101ac57600080546001600160a01b031990811633179091556001805490911691909117905560028054600160a01b600160e01b03191660a09290921b600160a01b600160e01b0316919091179055604051611eae908161030b8239f35b62bfc92160e01b60005260046000fd5b63c1ab6dc160e01b60005260046000fd5b4662aa36a703610238576101df6102ed565b506101e86102ce565b73f0ffdc93b7e186bc2f8cb3daa75d86d1930a433d81527392c920834ec8941d2c77d188936e1f7a6f49c127602082015273be0e383937d564d7ff0bc3b46c51f0bf8d5c311a60408201526100a3565b46617a69036102a2576102496102ed565b506102526102ce565b7350157cffd6bbfa2dece204a89ec419c23ef5755d815273e3a9105a3a932253a70f126eb1e3b589c643dd24602082015273901f8942346f7ab3a01f6d7613119bca447bb03060408201526100a3565b6373cac13b60e01b60005260046000fd5b600080fd5b634e487b7160e01b600052604160045260246000fd5b60405190606082016001600160401b038111838210176102b857604052565b6102f56102ce565b9060008252600060208301526000604083015256fe608080604052600436101561001357600080fd5b600090813560e01c90816316c38b3c146118705750806316ca8943146116b65780631a671408146113335780632c23f064146112625780633459704c1461123957806353031040146112005780635c975abb146111da5780635ec28810146111b157806365379c2f146110fb578063721ec36c14611000578063860c851a14610fd55780638927b03014610fb25780638c809cc614610f965780638da5cb5b14610f6f57806394e113ea14610f5357806394e183af14610ef6578063a14353fb14610e44578063b095793314610de5578063b73673f714610d41578063bb0e4ea214610d25578063df4a96301461028e578063f289a180146101b35763f2fde38b1461011e57600080fd5b346101b05760203660031901126101b057610137611993565b81546001600160a01b03811691338390036101a1576001600160a01b03169182156101925782907f8934ce4adea8d9ce0d714d2c22b86790e41b7731c84b926fbbdc1d40ff6533c98580a36001600160a01b03191617815580f35b6349e27cff60e01b8452600484fd5b6330cd747160e01b8452600484fd5b80fd5b50346101b05760403660031901126101b0576101cd6119a9565b60043582526004602052604082209060018060a01b0316600052602052604060002090600160ff6002840154169201604051918260208354918281520190819383526020832090835b818110610278575050508361022c9103846118e9565b60405192606084019085855260606020860152518091526080840192915b81811061026257505050600382931060408301520390f35b825184526020938401939092019160010161024a565b8254845260209093019260019283019201610216565b50346101b05760803660031901126101b05760243590600382101560043581610d215760643567ffffffffffffffff8111610d1d5736602382011215610d1d5780600401359067ffffffffffffffff8211610d19573660248383010111610d195760ff60025460e01c16610d0a57828552600360205260ff60056040872001541615610c6e575b8285526004602052604080862060009060018060a01b033316825260205220906002820192600360ff8554161015610c5f5760018060a01b036001541667ffffffffffffffff60025460a01c16813b15610c5b5788916044839260405194859384926309b48e3b60e11b845233600485015260248401525af18015610af2579088939291610c40575b506103b3602092610402926024369201611921565b600080516020611e398339815191525460405163045fc19560e11b81526044803560048301523360248301526080908201529485936001600160a01b0390921692849283916084830190611a8d565b6002606483015203925af1908115610c35578691610c03575b50600080516020611e59833981519152546001600160a01b0316803b15610bff57604051630f8e573b60e21b8152600481018390523360248201529087908290604490829084905af18015610aac57908791610be6575b5050600080516020611e3983398151915254604051639cd07acb60e01b815260016004820152906001600160a01b0316816044818a602094600260248401525af1908115610aac578791610bb4575b50600080516020611e3983398151915254604051639cd07acb60e01b81526005600482015292906001600160a01b0316836044818b602094600260248401525af1928315610af2578893610b80575b508181928215610b70575b8115610b5e575b602090606460018060a01b03600080516020611e398339815191525416958c6040519788948593637210768160e01b8552600485015260248401528160448401525af18015610b53578990610b1f575b61057c9350611bf5565b9081818115610b0f575b8215610afd575b602090606460018060a01b03600080516020611e398339815191525416938b60405195869485936385362ee760e01b8552600485015260248401528160448401525af1908115610af2579088949392918591610ab7575b50906105f09291611bf5565b600080516020611e39833981519152546040516307227b9160e21b8152600480820184905260248201529360209185916044918391906001600160a01b03165af1928315610aac578793610a78575b508487526003602052604087209261065c60018501918254611b33565b8155600284018054600080516020611e3983398151915254604051639cd07acb60e01b8152600160048201529391906001600160a01b0316846044818e602094600460248401525af1938415610a57578b94610a1a575b50906106c7846106d7936106df9650611b33565b8355426008880155543090611dc3565b309054611dc3565b6106e93382611dc3565b8154600160401b811015610a06579061072461070d83600180969501855584611a75565b819391549060031b91821b91600019901b19161790565b905501805490600160401b8210156109de578161074991600161076394018155611a75565b919091429083549060031b91821b91600019901b19161790565b9055815460ff811660ff81146109f257600160ff9101169060ff191617825582855260066020526040852060018060a01b03331660005260205260ff6040600020541615610967575b600701805460001981146109535790600160ff93920190555416906040519182524260208301527f8db9a94704ef31813567d727415fe4082e72a15b1315c4613dfe66e59801fff560403393a36002546001600160a01b0316908161080f578280f35b61093f57819280156000146108e2575060405161082d6040826118e9565b60088152670564f54455f4150560c41b6020820152905b803b156108de5760405163973dde9160e01b815233600482015260806024820152918391839182908490829061087e906084830190611a8d565b600a60448301527f7cbb12e82a6d63ff16fe43977f43e3e2b247ecd4e62c0e340da8800a48c67346606483015203925af180156108d3576108be57808280f35b816108c8916118e9565b6101b0578038808280f35b6040513d84823e3d90fd5b5050fd5b600103610913576040516108f76040826118e9565b60088152671593d51157d2d3d360c21b60208201525b90610844565b6040516109216040826118e9565b600c81526b1593d51157d0d3d39511539560a21b602082015261090d565b634e487b7160e01b82526021600452602482fd5b634e487b7160e01b86526011600452602486fd5b828552600560205260408520805490600160401b8210156109de578161099591600160079594018155611a75565b81546001600160a01b0360039290921b91821b1916339182901b1790915584875260066020908152604080892060009384529091529020805460ff1916600117905590506107ac565b634e487b7160e01b87526041600452602487fd5b634e487b7160e01b87526011600452602487fd5b634e487b7160e01b88526041600452602488fd5b9350906020843d602011610a4f575b81610a36602093836118e9565b81010312610a4a57925192906106c76106b3565b600080fd5b3d9150610a29565b6040513d8d823e3d90fd5b634e487b7160e01b600052602160045260246000fd5b9092506020813d602011610aa4575b81610a94602093836118e9565b81010312610a4a5751913861063f565b3d9150610a87565b6040513d89823e3d90fd5b92919450506020823d602011610aea575b81610ad5602093836118e9565b81010312610a4a5790518793906105f06105e4565b3d9150610ac8565b6040513d8a823e3d90fd5b506020610b08611d71565b905061058d565b9050610b19611d71565b90610586565b506020833d602011610b4b575b81610b39602093836118e9565b81010312610a4a5761057c9251610572565b3d9150610b2c565b6040513d8b823e3d90fd5b506020610b69611d71565b9050610522565b9250610b7a611d71565b9261051b565b9092506020813d602011610bac575b81610b9c602093836118e9565b81010312610a4a57519138610510565b3d9150610b8f565b90506020813d602011610bde575b81610bcf602093836118e9565b81010312610a4a5751386104c1565b3d9150610bc2565b81610bf0916118e9565b610bfb578538610472565b8580fd5b8680fd5b90506020813d602011610c2d575b81610c1e602093836118e9565b81010312610a4a57513861041b565b3d9150610c11565b6040513d88823e3d90fd5b83610c4e91949293946118e9565b610bff579086913861039e565b8880fd5b63eccb541560e01b8752600487fd5b925081845260036020526040842092610cce859460ff1981541660ff89161781556106d7610c9a611d1f565b60018301908155610ca9611d1f565b926002810193845560058101600160ff19825416179055600642910155543090611dc3565b827f7d024626d4dd9b9accab1ef0d37469aced6f6d71a50c143d9957122b3820ee6260408051610cfe818b611986565b426020820152a2610315565b631309a56360e01b8552600485fd5b8480fd5b8380fd5b8280fd5b50346101b057806003193601126101b057602060405160018152f35b50346101b05760203660031901126101b057604061014091600435815260036020522060ff8154169060018101549060028101546003820154600483015463ffffffff60ff600586015416926006860154946008600788015497015497610dab604051809b611986565b60208a01526040890152818116606089015260201c16608087015260a0860152151560c085015260e0840152610100830152610120820152f35b50346101b05760203660031901126101b057600435808252600360205260ff60056040842001541615610e3557604082819281526003602052206002600182015491015482519182526020820152f35b63eeb87bcf60e01b8252600482fd5b50346101b05760603660031901126101b057610e5e6119a9565b906044359160ff8316918284036101b05760409060043581526004602052209060018060a01b031660005260205260406000209060ff6002830154161115610ebb57602091610eac91611a75565b90549060031b1c604051908152f35b60405162461bcd60e51b8152602060048201526013602482015272496e646578206f7574206f6620626f756e647360681b6044820152606490fd5b50346101b05760203660031901126101b057610f10611993565b81546001600160a01b03163303610f445760018060a01b03166bffffffffffffffffffffffff60a01b600254161760025580f35b6330cd747160e01b8252600482fd5b50346101b057806003193601126101b057602060405160058152f35b50346101b057806003193601126101b057546040516001600160a01b039091168152602090f35b50346101b057806003193601126101b057602060405160038152f35b50346101b057806003193601126101b0576020610fcd611b02565b604051908152f35b50346101b057806003193601126101b057602067ffffffffffffffff60025460a01c16604051908152f35b50346101b05760203660031901126101b05760043590818152600360205260ff600560408320015416156110ec5781815260036020526040812060038101549063ffffffff8260201c16938415156000146110e25763ffffffff8316946064860295808704606414901517156110ce5761107c8160e0976119f3565b905b63ffffffff6004604060ff87541698600788015496815260056020522054950154956110ad6040518099611986565b16602087015260408601526060850152608084015260a083015260c0820152f35b634e487b7160e01b85526011600452602485fd5b60e094849061107e565b63eeb87bcf60e01b8152600490fd5b50346101b05760203660031901126101b05760043567ffffffffffffffff811690818103610d215782546001600160a01b031633036111a2578115611194576002805467ffffffffffffffff60a01b191660a09290921b67ffffffffffffffff60a01b169190911790556040519081527f314d5d61620c0c321e682554e9f1dc239a443b8a86febebf858f2b5c9394f15d90602090a180f35b62bfc92160e01b8352600483fd5b6330cd747160e01b8352600483fd5b50346101b057806003193601126101b0576001546040516001600160a01b039091168152602090f35b50346101b057806003193601126101b057602060ff60025460e01c166040519015158152f35b50346101b05760203660031901126101b05760043590818152600360205260ff600560408320015416156110ec576020610fcd83611a13565b50346101b057806003193601126101b0576002546040516001600160a01b039091168152602090f35b50346101b05760203660031901126101b057600435808252600360205260ff60056040842001541615610e35578152600560205260408120604051908160208254918281520190819285526020852090855b81811061131457505050826112ca9103836118e9565b604051928392602084019060208552518091526040840192915b8181106112f2575050500390f35b82516001600160a01b03168452859450602093840193909201916001016112e4565b82546001600160a01b03168452602090930192600192830192016112b4565b50346101b05760603660031901126101b05760043560243567ffffffffffffffff8111610d2157611368903690600401611968565b60443567ffffffffffffffff8111610d1d57611388903690600401611968565b828452600360205260ff600560408620015416156116a757828452600360205260408420606091604051906113bd84836118e9565b60028252601f19840136602084013760018301546113da836119bf565b526002830154825160011015611693576114708892602092604086015260018060a01b037f9e7b61f58c47dc699ac88507c4f5bb9f121c03808c5676a8078fe583e46497025416906040519485809481936378542ead60e01b83528b600484015261145e8d61144c606486018d611ace565b85810360031901602487015290611a8d565b83810360031901604485015290611a8d565b03925af1908115610aac578791611658575b5015611649576114c47fc6366bab028b8d033cb362cfd1f2f3457ef4e92fc738b6788b90d5a7846367a0916114d2604051928392604084526040840190611ace565b828103602084015287611a8d565b0390a1604083805181010312610d19576114fa60406114f3602086016119e2565b94016119e2565b600382019182549263ffffffff83169363ffffffff8160201c16851061163a57600585029663ffffffff88169788036116265763ffffffff169687116116175784151593848061160e575b6115ff5767ffffffff00000000889160201b169167ffffffffffffffff1916171790556004429101556000146115d25760648302838104606414841517156109535791816115b77faebb06f13d9eff214b2826d68087c6e3da1314f669e1d6c1d24219b7fcf3d5f095936080956119f3565b905b604051938452602084015260408301524290820152a280f35b916080917faebb06f13d9eff214b2826d68087c6e3da1314f669e1d6c1d24219b7fcf3d5f09386906115b9565b63d819a05d60e01b8a5260048afd5b50858810611545565b63ddae0aff60e01b8952600489fd5b634e487b7160e01b8a52601160045260248afd5b636a3f235f60e01b8952600489fd5b63cf6c44e960e01b8652600486fd5b90506020813d60201161168b575b81611673602093836118e9565b81010312610bff57518015158103610bff5738611482565b3d9150611666565b634e487b7160e01b88526032600452602488fd5b63eeb87bcf60e01b8452600484fd5b50346101b05760203660031901126101b057600435808252600360205260ff60056040842001541615610e35578082526003602052604082206001810190815460409185835161170685826118e9565b60018152601f1985019384366020840137611720826119bf565b52600080516020611e59833981519152546001600160a01b031690813b15610d2157829161176b918751948580948193637d6e912360e11b8352602060048401526024830190611ace565b03925af1801561186657611853575b50600286910191825484519161179086846118e9565b600183523660208401376117a3826119bf565b52600080516020611e59833981519152546001600160a01b0316803b15610d21578451637d6e912360e11b81526020600482015291839183918290849082906117f0906024830190611ace565b03925af1801561184957611834575b50507f6036f100e6d2ecbc3cea5adb1672d463850762c557161dd6e5c48ef91aa18cf09254905482519182526020820152a280f35b8161183e916118e9565b610d195784386117ff565b84513d84823e3d90fd5b95611860816002986118e9565b9561177a565b84513d89823e3d90fd5b9050346118e55760203660031901126118e557600435801515809103610d215782546001600160a01b031633036111a2576002805460ff60e01b191660e083901b60ff60e01b1617905581527f0e2fb031ee032dc02d8011dc50b816eb450cf856abd8261680dac74f72165bd290602090a180f35b5080fd5b90601f8019910116810190811067ffffffffffffffff82111761190b57604052565b634e487b7160e01b600052604160045260246000fd5b92919267ffffffffffffffff821161190b576040519161194b601f8201601f1916602001846118e9565b829481845281830111610a4a578281602093846000960137010152565b9080601f83011215610a4a5781602061198393359101611921565b90565b906003821015610a625752565b600435906001600160a01b0382168203610a4a57565b602435906001600160a01b0382168203610a4a57565b8051156119cc5760200190565b634e487b7160e01b600052603260045260246000fd5b519063ffffffff82168203610a4a57565b81156119fd570490565b634e487b7160e01b600052601260045260246000fd5b600052600360205260036040600020015463ffffffff8160201c16908115611a6e5763ffffffff1690606482029180830460641490151715611a5857611983916119f3565b634e487b7160e01b600052601160045260246000fd5b5050600090565b80548210156119cc5760005260206000200190600090565b919082519283825260005b848110611ab9575050826000602080949584010152601f8019910116010190565b80602080928401015182828601015201611a98565b906020808351928381520192019060005b818110611aec5750505090565b8251845260209384019390920191600101611adf565b46600103611b0f57600190565b4662aa36a703611b1f5761271190565b617a694614611b2d57600090565b60001990565b908115611be5575b8015611bd3575b602090606460018060a01b03600080516020611e398339815191525416936000604051958694859363022f65e760e31b8552600485015260248401528160448401525af1908115611bc757600091611b98575090565b90506020813d602011611bbf575b81611bb3602093836118e9565b81010312610a4a575190565b3d9150611ba6565b6040513d6000823e3d90fd5b506020611bde611d1f565b9050611b42565b9050611bef611d1f565b90611b3b565b91908215611c85575b8015611c77575b8115611c61575b606460209293600060018060a01b03600080516020611e3983398151915254166040519687958694637702dcff60e01b86526004860152602485015260448401525af1908115611bc757600091611b98575090565b602091506064611c6f611d71565b925050611c0c565b50611c80611d71565b611c05565b600080516020611e3983398151915254604051639cd07acb60e01b8152600060048201819052929450906001600160a01b031681604481856020948160248401525af1918215611d13578092611cde575b505091611bfe565b9091506020823d602011611d0b575b81611cfa602093836118e9565b810103126101b05750513880611cd6565b3d9150611ced565b604051903d90823e3d90fd5b600080516020611e3983398151915254604051639cd07acb60e01b815260006004820152906001600160a01b0316816044816000602094600460248401525af1908115611bc757600091611b98575090565b600080516020611e3983398151915254604051639cd07acb60e01b815260006004820152906001600160a01b0316816044816000602094600260248401525af1908115611bc757600091611b98575090565b600080516020611e5983398151915254600092916001600160a01b0390911690813b15610d1d57604051635ca4b5b160e11b815260048101919091526001600160a01b0392909216602483015282908290604490829084905af180156108d357611e2b575050565b81611e35916118e9565b5056fe9e7b61f58c47dc699ac88507c4f5bb9f121c03808c5676a8078fe583e46497019e7b61f58c47dc699ac88507c4f5bb9f121c03808c5676a8078fe583e4649700a264697066735822122082524827e7d1be01eb62a8a51297ca7aad9057418d79a606e26ebb752032c54964736f6c634300081b0033",
  "linkReferences": {},
  "deployedLinkReferences": {}
}