{
  "_format": "hh-sol-artifact-1",
  "contractName": "ZappsGovernance",
  "sourceName": "contracts/ZappsGovernance.sol",
  "abi": [
    {
      "inputs": [
        {
          "internalType": "address",
          "name": "_zappsToken",
          "type": "address"
        }
      ],
      "stateMutability": "nonpayable",
      "type": "constructor"
    },
    {
      "inputs": [],
      "name": "AlreadyExecuted",
      "type": "error"
    },
    {
      "inputs": [],
      "name": "AlreadyVoted",
      "type": "error"
    },
    {
      "inputs": [],
      "name": "ExecutionFailed",
      "type": "error"
    },
    {
      "inputs": [],
      "name": "ExecutionTooEarly",
      "type": "error"
    },
    {
      "inputs": [],
      "name": "InvalidKMSSignatures",
      "type": "error"
    },
    {
      "inputs": [],
      "name": "InvalidOwner",
      "type": "error"
    },
    {
      "inputs": [],
      "name": "InvalidProof",
      "type": "error"
    },
    {
      "inputs": [],
      "name": "InvalidProposalState",
      "type": "error"
    },
    {
      "inputs": [],
      "name": "InvalidSupport",
      "type": "error"
    },
    {
      "inputs": [],
      "name": "InvalidToken",
      "type": "error"
    },
    {
      "inputs": [],
      "name": "NotOwner",
      "type": "error"
    },
    {
      "inputs": [],
      "name": "NotProposer",
      "type": "error"
    },
    {
      "inputs": [],
      "name": "ProposalNotFound",
      "type": "error"
    },
    {
      "inputs": [],
      "name": "ResultsAlreadyRevealed",
      "type": "error"
    },
    {
      "inputs": [],
      "name": "VotingEnded",
      "type": "error"
    },
    {
      "inputs": [],
      "name": "VotingNotStarted",
      "type": "error"
    },
    {
      "inputs": [],
      "name": "ZamaProtocolUnsupported",
      "type": "error"
    },
    {
      "anonymous": false,
      "inputs": [
        {
          "indexed": true,
          "internalType": "uint256",
          "name": "proposalId",
          "type": "uint256"
        },
        {
          "indexed": false,
          "internalType": "euint64",
          "name": "encFor",
          "type": "bytes32"
        },
        {
          "indexed": false,
          "internalType": "euint64",
          "name": "encAgainst",
          "type": "bytes32"
        },
        {
          "indexed": false,
          "internalType": "euint64",
          "name": "encAbstain",
          "type": "bytes32"
        }
      ],
      "name": "DecryptionDataReady",
      "type": "event"
    },
    {
      "anonymous": false,
      "inputs": [
        {
          "indexed": true,
          "internalType": "uint256",
          "name": "proposalId",
          "type": "uint256"
        }
      ],
      "name": "ProposalCancelled",
      "type": "event"
    },
    {
      "anonymous": false,
      "inputs": [
        {
          "indexed": true,
          "internalType": "uint256",
          "name": "proposalId",
          "type": "uint256"
        },
        {
          "indexed": true,
          "internalType": "address",
          "name": "proposer",
          "type": "address"
        },
        {
          "indexed": false,
          "internalType": "string",
          "name": "title",
          "type": "string"
        },
        {
          "indexed": false,
          "internalType": "uint256",
          "name": "startTime",
          "type": "uint256"
        },
        {
          "indexed": false,
          "internalType": "uint256",
          "name": "endTime",
          "type": "uint256"
        }
      ],
      "name": "ProposalCreated",
      "type": "event"
    },
    {
      "anonymous": false,
      "inputs": [
        {
          "indexed": true,
          "internalType": "uint256",
          "name": "proposalId",
          "type": "uint256"
        }
      ],
      "name": "ProposalExecuted",
      "type": "event"
    },
    {
      "anonymous": false,
      "inputs": [
        {
          "indexed": false,
          "internalType": "bytes32[]",
          "name": "handlesList",
          "type": "bytes32[]"
        },
        {
          "indexed": false,
          "internalType": "bytes",
          "name": "abiEncodedCleartexts",
          "type": "bytes"
        }
      ],
      "name": "PublicDecryptionVerified",
      "type": "event"
    },
    {
      "anonymous": false,
      "inputs": [
        {
          "indexed": true,
          "internalType": "uint256",
          "name": "proposalId",
          "type": "uint256"
        },
        {
          "indexed": false,
          "internalType": "uint64",
          "name": "forVotes",
          "type": "uint64"
        },
        {
          "indexed": false,
          "internalType": "uint64",
          "name": "againstVotes",
          "type": "uint64"
        },
        {
          "indexed": false,
          "internalType": "uint64",
          "name": "abstainVotes",
          "type": "uint64"
        }
      ],
      "name": "ResultsRevealed",
      "type": "event"
    },
    {
      "anonymous": false,
      "inputs": [
        {
          "indexed": true,
          "internalType": "uint256",
          "name": "proposalId",
          "type": "uint256"
        },
        {
          "indexed": true,
          "internalType": "address",
          "name": "voter",
          "type": "address"
        },
        {
          "indexed": false,
          "internalType": "uint8",
          "name": "support",
          "type": "uint8"
        }
      ],
      "name": "VoteCast",
      "type": "event"
    },
    {
      "inputs": [],
      "name": "EXECUTION_DELAY",
      "outputs": [
        {
          "internalType": "uint256",
          "name": "",
          "type": "uint256"
        }
      ],
      "stateMutability": "view",
      "type": "function"
    },
    {
      "inputs": [],
      "name": "MIN_REPUTATION_TO_PROPOSE",
      "outputs": [
        {
          "internalType": "uint16",
          "name": "",
          "type": "uint16"
        }
      ],
      "stateMutability": "view",
      "type": "function"
    },
    {
      "inputs": [],
      "name": "MIN_TOKENS_TO_VOTE",
      "outputs": [
        {
          "internalType": "uint256",
          "name": "",
          "type": "uint256"
        }
      ],
      "stateMutability": "view",
      "type": "function"
    },
    {
      "inputs": [],
      "name": "VOTING_DELAY",
      "outputs": [
        {
          "internalType": "uint256",
          "name": "",
          "type": "uint256"
        }
      ],
      "stateMutability": "view",
      "type": "function"
    },
    {
      "inputs": [],
      "name": "VOTING_PERIOD",
      "outputs": [
        {
          "internalType": "uint256",
          "name": "",
          "type": "uint256"
        }
      ],
      "stateMutability": "view",
      "type": "function"
    },
    {
      "inputs": [
        {
          "internalType": "uint256",
          "name": "proposalId",
          "type": "uint256"
        }
      ],
      "name": "cancel",
      "outputs": [],
      "stateMutability": "nonpayable",
      "type": "function"
    },
    {
      "inputs": [
        {
          "internalType": "uint256",
          "name": "proposalId",
          "type": "uint256"
        },
        {
          "internalType": "uint8",
          "name": "support",
          "type": "uint8"
        },
        {
          "internalType": "externalEuint64",
          "name": "encVotingPower",
          "type": "bytes32"
        },
        {
          "internalType": "bytes",
          "name": "inputProof",
          "type": "bytes"
        }
      ],
      "name": "castVote",
      "outputs": [],
      "stateMutability": "nonpayable",
      "type": "function"
    },
    {
      "inputs": [],
      "name": "confidentialProtocolId",
      "outputs": [
        {
          "internalType": "uint256",
          "name": "",
          "type": "uint256"
        }
      ],
      "stateMutability": "view",
      "type": "function"
    },
    {
      "inputs": [
        {
          "internalType": "uint256",
          "name": "proposalId",
          "type": "uint256"
        }
      ],
      "name": "execute",
      "outputs": [],
      "stateMutability": "nonpayable",
      "type": "function"
    },
    {
      "inputs": [],
      "name": "getActiveProposals",
      "outputs": [
        {
          "internalType": "uint256[]",
          "name": "",
          "type": "uint256[]"
        }
      ],
      "stateMutability": "view",
      "type": "function"
    },
    {
      "inputs": [
        {
          "internalType": "uint256",
          "name": "proposalId",
          "type": "uint256"
        }
      ],
      "name": "getEncryptedVotes",
      "outputs": [
        {
          "internalType": "euint64",
          "name": "",
          "type": "bytes32"
        },
        {
          "internalType": "euint64",
          "name": "",
          "type": "bytes32"
        },
        {
          "internalType": "euint64",
          "name": "",
          "type": "bytes32"
        }
      ],
      "stateMutability": "view",
      "type": "function"
    },
    {
      "inputs": [
        {
          "internalType": "uint256",
          "name": "proposalId",
          "type": "uint256"
        }
      ],
      "name": "getProposal",
      "outputs": [
        {
          "internalType": "address",
          "name": "proposer",
          "type": "address"
        },
        {
          "internalType": "string",
          "name": "title",
          "type": "string"
        },
        {
          "internalType": "uint256",
          "name": "startTime",
          "type": "uint256"
        },
        {
          "internalType": "uint256",
          "name": "endTime",
          "type": "uint256"
        },
        {
          "internalType": "uint32",
          "name": "voterCount",
          "type": "uint32"
        },
        {
          "internalType": "bool",
          "name": "executed",
          "type": "bool"
        },
        {
          "internalType": "bool",
          "name": "cancelled",
          "type": "bool"
        },
        {
          "internalType": "bool",
          "name": "resultsRevealed",
          "type": "bool"
        },
        {
          "internalType": "uint64",
          "name": "forVotes",
          "type": "uint64"
        },
        {
          "internalType": "uint64",
          "name": "againstVotes",
          "type": "uint64"
        },
        {
          "internalType": "uint64",
          "name": "abstainVotes",
          "type": "uint64"
        }
      ],
      "stateMutability": "view",
      "type": "function"
    },
    {
      "inputs": [
        {
          "internalType": "uint256",
          "name": "proposalId",
          "type": "uint256"
        },
        {
          "internalType": "address",
          "name": "voter",
          "type": "address"
        }
      ],
      "name": "getReceipt",
      "outputs": [
        {
          "internalType": "bool",
          "name": "hasVoted",
          "type": "bool"
        },
        {
          "internalType": "uint8",
          "name": "support",
          "type": "uint8"
        },
        {
          "internalType": "euint64",
          "name": "encWeight",
          "type": "bytes32"
        }
      ],
      "stateMutability": "view",
      "type": "function"
    },
    {
      "inputs": [
        {
          "internalType": "address",
          "name": "user",
          "type": "address"
        }
      ],
      "name": "getUserProposals",
      "outputs": [
        {
          "internalType": "uint256[]",
          "name": "",
          "type": "uint256[]"
        }
      ],
      "stateMutability": "view",
      "type": "function"
    },
    {
      "inputs": [
        {
          "internalType": "address",
          "name": "user",
          "type": "address"
        }
      ],
      "name": "getUserVotes",
      "outputs": [
        {
          "internalType": "uint256[]",
          "name": "",
          "type": "uint256[]"
        }
      ],
      "stateMutability": "view",
      "type": "function"
    },
    {
      "inputs": [],
      "name": "owner",
      "outputs": [
        {
          "internalType": "address",
          "name": "",
          "type": "address"
        }
      ],
      "stateMutability": "view",
      "type": "function"
    },
    {
      "inputs": [],
      "name": "proposalCount",
      "outputs": [
        {
          "internalType": "uint256",
          "name": "",
          "type": "uint256"
        }
      ],
      "stateMutability": "view",
      "type": "function"
    },
    {
      "inputs": [
        {
          "internalType": "uint256",
          "name": "",
          "type": "uint256"
        }
      ],
      "name": "proposals",
      "outputs": [
        {
          "internalType": "uint256",
          "name": "id",
          "type": "uint256"
        },
        {
          "internalType": "address",
          "name": "proposer",
          "type": "address"
        },
        {
          "internalType": "string",
          "name": "title",
          "type": "string"
        },
        {
          "internalType": "string",
          "name": "description",
          "type": "string"
        },
        {
          "internalType": "bytes32",
          "name": "contentHash",
          "type": "bytes32"
        },
        {
          "internalType": "uint256",
          "name": "startTime",
          "type": "uint256"
        },
        {
          "internalType": "uint256",
          "name": "endTime",
          "type": "uint256"
        },
        {
          "internalType": "uint256",
          "name": "executionTime",
          "type": "uint256"
        },
        {
          "internalType": "euint64",
          "name": "encForVotes",
          "type": "bytes32"
        },
        {
          "internalType": "euint64",
          "name": "encAgainstVotes",
          "type": "bytes32"
        },
        {
          "internalType": "euint64",
          "name": "encAbstainVotes",
          "type": "bytes32"
        },
        {
          "internalType": "uint64",
          "name": "decForVotes",
          "type": "uint64"
        },
        {
          "internalType": "uint64",
          "name": "decAgainstVotes",
          "type": "uint64"
        },
        {
          "internalType": "uint64",
          "name": "decAbstainVotes",
          "type": "uint64"
        },
        {
          "internalType": "uint32",
          "name": "voterCount",
          "type": "uint32"
        },
        {
          "internalType": "bool",
          "name": "executed",
          "type": "bool"
        },
        {
          "internalType": "bool",
          "name": "cancelled",
          "type": "bool"
        },
        {
          "internalType": "bool",
          "name": "resultsRevealed",
          "type": "bool"
        }
      ],
      "stateMutability": "view",
      "type": "function"
    },
    {
      "inputs": [
        {
          "internalType": "string",
          "name": "title",
          "type": "string"
        },
        {
          "internalType": "string",
          "name": "description",
          "type": "string"
        },
        {
          "internalType": "address[]",
          "name": "targets",
          "type": "address[]"
        },
        {
          "internalType": "uint256[]",
          "name": "values",
          "type": "uint256[]"
        },
        {
          "internalType": "bytes[]",
          "name": "calldatas",
          "type": "bytes[]"
        }
      ],
      "name": "propose",
      "outputs": [
        {
          "internalType": "uint256",
          "name": "proposalId",
          "type": "uint256"
        }
      ],
      "stateMutability": "nonpayable",
      "type": "function"
    },
    {
      "inputs": [
        {
          "internalType": "uint256",
          "name": "proposalId",
          "type": "uint256"
        }
      ],
      "name": "requestResultsDecryption",
      "outputs": [],
      "stateMutability": "nonpayable",
      "type": "function"
    },
    {
      "inputs": [
        {
          "internalType": "address",
          "name": "_reputation",
          "type": "address"
        }
      ],
      "name": "setZappsReputation",
      "outputs": [],
      "stateMutability": "nonpayable",
      "type": "function"
    },
    {
      "inputs": [
        {
          "internalType": "uint256",
          "name": "proposalId",
          "type": "uint256"
        }
      ],
      "name": "state",
      "outputs": [
        {
          "internalType": "enum ZappsGovernance.ProposalState",
          "name": "",
          "type": "uint8"
        }
      ],
      "stateMutability": "view",
      "type": "function"
    },
    {
      "inputs": [
        {
          "internalType": "address",
          "name": "newOwner",
          "type": "address"
        }
      ],
      "name": "transferOwnership",
      "outputs": [],
      "stateMutability": "nonpayable",
      "type": "function"
    },
    {
      "inputs": [
        {
          "internalType": "uint256",
          "name": "proposalId",
          "type": "uint256"
        },
        {
          "internalType": "bytes",
          "name": "abiEncodedValues",
          "type": "bytes"
        },
        {
          "internalType": "bytes",
          "name": "decryptionProof",
          "type": "bytes"
        }
      ],
      "name": "verifyAndStoreResults",
      "outputs": [],
      "stateMutability": "nonpayable",
      "type": "function"
    },
    {
      "inputs": [],
      "name": "zappsReputation",
      "outputs": [
        {
          "internalType": "address",
          "name": "",
          "type": "address"
        }
      ],
      "stateMutability": "view",
      "type": "function"
    },
    {
      "inputs": [],
      "name": "zappsToken",
      "outputs": [
        {
          "internalType": "address",
          "name": "",
          "type": "address"
        }
      ],
      "stateMutability": "view",
      "type": "function"
    },
    {
      "stateMutability": "payable",
      "type": "receive"
    }
  ],
  "bytecode": "0x60806040523461025e57604051601f61271238819003918201601f19168301916001600160401b038311848410176102635780849260209460405283398101031261025e57516001600160a01b0381169081900361025e5761005f610298565b504660010361017857610070610298565b50610079610279565b6000815260006020820152600060408201525b80517f9e7b61f58c47dc699ac88507c4f5bb9f121c03808c5676a8078fe583e464970080546001600160a01b03199081166001600160a01b039384161790915560208301517f9e7b61f58c47dc699ac88507c4f5bb9f121c03808c5676a8078fe583e4649701805483169184169190911790556040909201517f9e7b61f58c47dc699ac88507c4f5bb9f121c03808c5676a8078fe583e464970280549093169116179055801561016757600080546001600160a01b031990811633179091556001805490911691909117905560405161245c90816102b68239f35b63c1ab6dc160e01b60005260046000fd5b4662aa36a7036101e35761018a610298565b50610193610279565b73f0ffdc93b7e186bc2f8cb3daa75d86d1930a433d81527392c920834ec8941d2c77d188936e1f7a6f49c127602082015273be0e383937d564d7ff0bc3b46c51f0bf8d5c311a604082015261008c565b46617a690361024d576101f4610298565b506101fd610279565b7350157cffd6bbfa2dece204a89ec419c23ef5755d815273e3a9105a3a932253a70f126eb1e3b589c643dd24602082015273901f8942346f7ab3a01f6d7613119bca447bb030604082015261008c565b6373cac13b60e01b60005260046000fd5b600080fd5b634e487b7160e01b600052604160045260246000fd5b60405190606082016001600160401b0381118382101761026357604052565b6102a0610279565b9060008252600060208301526000604083015256fe6080604052600436101561001b575b361561001957600080fd5b005b6000803560e01c8063013cf08b14611c1d57806308097b3c146118145780630f010058146117c55780633459704c1461179c57806337f135d71461177e5780633e4f49e61461174c57806340e58ee5146116a057806341cc61d01461141c5780635584c4f9146112e95780635ec28810146112c057806371fb583614610a9357806378ef113814610a215780638927b030146109fe5780638da5cb5b146109d757806394e183af1461097a578063950c7822146108f8578063b1610d7e146108da578063b8d037da1461057d578063ba58eecc14610560578063c7f758a814610489578063d3d2286914610465578063d6159fe514610447578063da35c66414610429578063e23a9a52146103bb578063f2fde38b146103505763fe0d94c114610145575061000e565b3461034d57602036600319011261034d57600435908181526004602052604081209182541561033e57600b8301805460ff8160f01c16156103205760ff8160e01c1661032f5760ff8160e81c16610320576001600160401b038160401c166001600160401b038216111561032057600785015442106103115760ff60e01b1916600160e01b17905591600e810190600d810190600c01835b81548110156102e8576101f08183611fdd565b905460039190911b1c6001600160a01b03168561020d8386611fdd565b90549060031b1c9161021f8488611fdd565b509260405190839480549061023382611d65565b91600181169081156102d1575060011461029a575b505081849503925af13d15610295573d61026181611f6d565b9061026f6040519283611d9f565b81528660203d92013e5b15610286576001016101dd565b632b3f6d1160e21b8552600485fd5b610279565b90955084526020842084905b8682106102ba575050818495810195610248565b8054828501528b95506020909101906001016102a6565b60ff19168552505080151502820194508184610248565b84867f712ae1383f79ac853f8d882153778e0260ef8f03b504e2866e0593e04d2b291f8280a280f35b637b8e04ab60e11b8452600484fd5b63b437280360e01b8452600484fd5b630dc1019760e01b8452600484fd5b63635e873760e01b8252600482fd5b80fd5b503461034d57602036600319011261034d5761036a611f57565b8154906001600160a01b03821633036103ac576001600160a01b031690811561039d576001600160a01b03191617815580f35b6349e27cff60e01b8352600483fd5b6330cd747160e01b8352600483fd5b503461034d57604036600319011261034d57602435906001600160a01b038216820361034d5760409060043581526005602052209060018060a01b0316600052602052606060406000206001815491015460ff604051928181161515845260081c1660208301526040820152f35b503461034d578060031936011261034d576020600354604051908152f35b503461034d578060031936011261034d576020604051620151808152f35b503461034d578060031936011261034d57602060405168056bc75e2d631000008152f35b503461034d57602036600319011261034d57604090600435815260046020522060018060a01b0360018201541660058201546001600160401b036006840154936104da6002600b8301549201611dd6565b946104f960405196879687526101606020880152610160870190611e7a565b936040860152606085015263ffffffff8160c01c16608085015260ff8160e01c16151560a085015260ff8160e81c16151560c085015260ff8160f01c16151560e0850152818116610100850152818160401c1661012085015260801c166101408301520390f35b503461034d578060031936011261034d5760206040516101f48152f35b503461034d57606036600319011261034d576004356024356001600160401b0381116108d6576105b1903690600401611fbf565b6044356001600160401b0381116108d2576105d0903690600401611fbf565b90828452600460205260408420908154156108c357600b82019160ff835460f01c166108b4576040516080946106068683611d9f565b60038252601f198601366020840137600883015461062383612150565b5260098301548251600110156108a0576040830152600a8301548251600210156108a0576106cd8992602092606086015260018060a01b037f9e7b61f58c47dc699ac88507c4f5bb9f121c03808c5676a8078fe583e46497025416906040519485809481936378542ead60e01b8352606060048401526106bb6106a9606485018c61235d565b8481036003190160248601528d611e7a565b83810360031901604485015290611e7a565b03925af1908115610895578891610856575b5015610847576107217fc6366bab028b8d033cb362cfd1f2f3457ef4e92fc738b6788b90d5a7846367a09161072f60405192839260408452604084019061235d565b828103602084015286611e7a565b0390a16060828051810103126108435761074b602083016121dc565b926001600160401b0361076c6060610765604087016121dc565b95016121dc565b9416948154906001600160401b038516946fffffffffffffffff0000000000000000600160f01b938960ff60f01b19916001600160401b0360c01b1617169160401b161790866001600160401b0360801b911b1617179055818411610810575b50916001600160401b036060927f95b0a6109d12d792b751cb33126cc29625f34839accd8cf83229cdf1b48c52a0946040519384526020840152166040820152a280f35b6202a30042019081421161082f57600701556001600160401b036107cc565b634e487b7160e01b87526011600452602487fd5b8580fd5b63cf6c44e960e01b8752600487fd5b90506020813d60201161088d575b8161087160209383611d9f565b810103126108895751801515810361088957386106df565b8780fd5b3d9150610864565b6040513d8a823e3d90fd5b634e487b7160e01b89526032600452602489fd5b630e46590b60e31b8652600486fd5b63635e873760e01b8552600485fd5b8380fd5b8280fd5b503461034d578060031936011261034d57602060405162093a808152f35b503461034d57602036600319011261034d576001600160a01b0361091a611f57565b168152600760205260408120604051918260208354918281520192825260208220915b818110610964576109608561095481870382611d9f565b60405191829182611eed565b0390f35b825484526020909301926001928301920161093d565b503461034d57602036600319011261034d57610994611f57565b81546001600160a01b031633036109c85760018060a01b03166bffffffffffffffffffffffff60a01b600254161760025580f35b6330cd747160e01b8252600482fd5b503461034d578060031936011261034d57546040516001600160a01b039091168152602090f35b503461034d578060031936011261034d576020610a1961232c565b604051908152f35b503461034d57602036600319011261034d576001600160a01b03610a43611f57565b168152600660205260408120604051918260208354918281520192825260208220915b818110610a7d576109608561095481870382611d9f565b8254845260209093019260019283019201610a66565b503461034d5760a036600319011261034d576004356001600160401b038111610eef57610ac4903690600401611ebb565b6024356001600160401b0381116108d257610ae3903690600401611ebb565b92906044356001600160401b03811161084357610b04903690600401611f27565b90916064356001600160401b03811161088957610b25903690600401611f27565b906084356001600160401b0381116112bc57610b45903690600401611f27565b929091818614806112b3575b1561127c57851561124657610b6760035461212a565b998a6003558a8c52600460205260408c20958b875560018701336bffffffffffffffffffffffff60a01b825416179055600287016001600160401b038c116110f357610bbd8c610bb78354611d65565b83612174565b8d8c81601f82116001146111dd57610bea9290826111d2575b508160011b916000199060031b1c19161790565b90555b6001600160401b0382116111be57908a8d8b93610c1a84610c1160038d0154611d65565b60038d01612174565b8982601f861160011461113a5783926020926003610c5389808096610c819b9a9161112f57508160011b916000199060031b1c19161790565b9101555b604051968588968588019a8b3786019184830186815237010190815203601f198101835282611d9f565b51902060048601556201518042019687421161111b576005860196888855620a8c0042018099116111075760068701988955600c8701916001600160401b0382116110f357600160401b82116110f357610ce0828454818655856121b9565b918d5260208d20918d905b8282106110ca5750505050600d8501906001600160401b0383116110b657600160401b83116110b657610d23838354818555846121b9565b908b5260208b208b5b8381106110a25750505050600e830191600160401b811161108e578254818455808210611014575b50818996949795938b5260208b20928b91601e1981360301915b848410610efe57505050505050610de57f6c98a8c940418b35614f0cd02412d5c9606faff474cbb6cdd6640ba5d1a9f06b9495610ddd610dac6122c4565b60088301908155610ddd610dbe6122c4565b9160098501928355600a610dd06122c4565b9501948555543090612391565b309054612391565b3388526006602052610dfa8560408a2061200b565b5490549085604051936060855281606086015260808501378760808785010152602083015260408201526080813395601f80199101168101030190a36002546001600160a01b031680610e53575b602082604051908152f35b8083913b15610eef57819060c46040518094819363973dde9160e01b8352336004840152608060248401526012608484015271474f5645524e414e43455f50524f504f534560701b60a4840152603260448401527f35a7846a2a701fff6f9d61a46ebff5da578c5dcee8bdf361c569f9ea4ee6477160648401525af18015610ef35715610e4857610ee5838092611d9f565b610eef5781610e48565b5080fd5b6040513d85823e3d90fd5b80919293949596989a97995035838112156110105782018d8135916001600160401b038311610eef578236036020820113610eef57610f4783610f418b54611d65565b8b612174565b81601f8411600114610fa2578360019592946020948796610f7d9492610f95575b50508160011b916000199060031b1c19161790565b89555b019601930191908b9896999795949394610d6e565b8692500101353880610f68565b91601f1984168a845260208420935b818110610ff65750936020936001969387969383889510610fda575b505050811b018955610f80565b01850135600019600384901b60f8161c19169055388080610fcd565b919360206001819282888801013581550195019201610fb1565b8d80fd5b838b528160208c2091820191015b81811061102f5750610d54565b808c61103d60019354611d65565b8061104b575b505001611022565b601f811184146110625750508c81555b8c38611043565b83601f6020848661107d965220920160051c8201910161215d565b808d528c602081208183555561105b565b634e487b7160e01b8a52604160045260248afd5b600190602084359401938184015501610d2c565b634e487b7160e01b8c52604160045260248cfd5b8035916001600160a01b03831683036110ef5760206001920192818601550190610ceb565b8f80fd5b634e487b7160e01b8e52604160045260248efd5b634e487b7160e01b8d52601160045260248dfd5b634e487b7160e01b8c52601160045260248cfd5b905085013538610bd6565b9060030183526020832090835b601f19871681106111965750610c81949392602092879283601f1981161061117c575b5050600182811b0160038e0155610c57565b820135600019600385901b60f8161c19169055388061116a565b9350935081949550600160209291858493013581550193019101928f91928e938e9695611147565b634e487b7160e01b8d52604160045260248dfd5b90508d013538610bd6565b908d601f198216908585526020852094905b8282106112275750501061120d575b505060018c811b019055610bed565b8c013560001960038f901b60f8161c1916905538806111fe565b60209293508495839295600192013581550194019201908f918f6111ef565b60405162461bcd60e51b815260206004820152600e60248201526d115b5c1d1e481c1c9bdc1bdcd85b60921b6044820152606490fd5b60405162461bcd60e51b815260206004820152600f60248201526e098cadccee8d040dad2e6dac2e8c6d608b1b6044820152606490fd5b50838214610b51565b8980fd5b503461034d578060031936011261034d576001546040516001600160a01b039091168152602090f35b503461034d578060031936011261034d57806001600354905b818111156113cb575061131482612139565b916113226040519384611d9f565b808352611331601f1991612139565b013660208401378260015b8281111561135257604051806109608682611eed565b61135b81612040565b60088110156113b75760011461137a575b6113759061212a565b61133c565b9383518110156113a35761139b818660206113759460051b8801015261212a565b94905061136c565b634e487b7160e01b82526032600452602482fd5b634e487b7160e01b83526021600452602483fd5b6113d481612040565b6008811015611408576001146113f3575b6113ee9061212a565b611302565b916114006113ee9161212a565b9290506113e5565b634e487b7160e01b85526021600452602485fd5b503461034d57602036600319011261034d576004358082526004602052604082208054156116915760068101544211156116825760088101908154906040928584516114688682611d9f565b60018152601f198601948536602084013761148282612150565b52600080516020612407833981519152546001600160a01b0316803b156108d6578651637d6e912360e11b81526020600482015291839183918290849082906114cf90602483019061235d565b03925af180156116445761166d575b50600983019283548651906114f38883611d9f565b600182528636602084013761150782612150565b52600080516020612407833981519152546001600160a01b0316803b156108d2578751637d6e912360e11b815260206004820152918491839182908490829061155490602483019061235d565b03925af180156116635790839161164e575b5050600a0193845486519161157b8884611d9f565b6001835236602084013761158e82612150565b52600080516020612407833981519152546001600160a01b0316803b156108d6578651637d6e912360e11b81526020600482015291839183918290849082906115db90602483019061235d565b03925af180156116445761162f575b505054905491549251908152602081019190915260408101919091527f6aa3b37ddc090e9542c99a985a74545e1a166f70d0f89d325c43873185dfa57490606090a280f35b8161163991611d9f565b6108435785386115ea565b86513d84823e3d90fd5b8161165891611d9f565b610eef578138611566565b87513d85823e3d90fd5b8161167791611d9f565b6108435785386114de565b633fd0090160e11b8352600483fd5b63635e873760e01b8352600483fd5b503461034d57602036600319011261034d576004358082526004602052604082208054156116915760018101546001600160a01b031633141580611738575b61172957600b01805460ff8160e01c1661032f5760ff60e81b1916600160e81b1790557f416e669c63d9a3a5e36ee7cc7e2104b8db28ccd286aa18966e98fa230c73b08c8280a280f35b637d1b73b960e01b8352600483fd5b5082546001600160a01b03163314156116df565b503461034d57602036600319011261034d57611769600435612040565b6040519060088110156113b757602092508152f35b503461034d578060031936011261034d5760206040516202a3008152f35b503461034d578060031936011261034d576002546040516001600160a01b039091168152602090f35b503461034d57602036600319011261034d5760409060043581526004602052206008810154610960600a6009840154930154604051938493846040919493926060820195825260208201520152565b503461034d57608036600319011261034d576004356024359060ff8216918281036108d2576064356001600160401b038111611c1957611858903690600401611ebb565b909183865260046020526040862092835415611c0a5760058401544210611bfb5760068401544211611bec5760028611611bdd57848752600560209081526040808920338a529091528720805490939060ff16611bce576119246118c3899594936020933691611f88565b7f9e7b61f58c47dc699ac88507c4f5bb9f121c03808c5676a8078fe583e46497015460405163045fc19560e11b81526044803560048301523360248301526080908201529687936001600160a01b0390921692849283916084830190611e7a565b6005606483015203925af1928315611bc3578793611b8b575b50600080516020612407833981519152546001600160a01b0316803b1561088957604051630f8e573b60e21b8152600481018590523360248201529088908290604490829084905af1801561089557611b63575b50916119e660016119ee9381600b97968a15600014611b33576119c6600989016119bc8882546121f0565b8091553090612391565b61ff0083549160081b169061ffff19161717815501918083553090612391565b339054612391565b01805463ffffffff8160c01c1663ffffffff8114611b1f57600163ffffffff60c01b910160c01b169063ffffffff60c01b19161790553383526007602052611a39816040852061200b565b6040519182527feba4866100b822f0f391e610e7edfab790b9e8766c0012733c26b2f1858e8dd760203393a360025481906001600160a01b031680611a7b5750f35b803b15611b1c5781809160c46040518094819363973dde9160e01b835233600484015260806024840152600f60848401526e474f5645524e414e43455f564f544560881b60a4840152601e60448401527f35a7846a2a701fff6f9d61a46ebff5da578c5dcee8bdf361c569f9ea4ee6477160648401525af18015611b1157611b005750f35b81611b0a91611d9f565b61034d5780f35b6040513d84823e3d90fd5b50fd5b634e487b7160e01b86526011600452602486fd5b8a8203611b5157611b4c600889016119bc8882546121f0565b6119c6565b611b4c600a89016119bc8882546121f0565b60016119ee93818a611b7d600b9998969c6119e696611d9f565b9a9496975050935050611991565b9092506020813d602011611bbb575b81611ba760209383611d9f565b81010312611bb75751913861193d565b8680fd5b3d9150611b9a565b6040513d89823e3d90fd5b637c9a1cf960e01b8852600488fd5b63838f27f560e01b8752600487fd5b637a19ed0560e01b8752600487fd5b633fd0090160e11b8752600487fd5b63635e873760e01b8752600487fd5b8480fd5b503461034d57602036600319011261034d5760048035825260205260409020805460018201546001600160a01b031691611c5960028201611dd6565b611c6560038301611dd6565b9160048101549260058201546006830154600784015490600885015492600986015494600a87015496600b0154976040519b8c9b8c5260208c015260408b0161024090526102408b01611cb791611e7a565b8a810360608c0152611cc891611e7a565b9760808a015260a089015260c088015260e08701526101008601526101208501526101408401526001600160401b0381166101608401528060401c6001600160401b03166101808401528060801c6001600160401b03166101a08401528060c01c63ffffffff166101c08401528060e01c60ff1615156101e08401528060e81c60ff16151561020084015260f01c60ff1615156102208301520390f35b90600182811c92168015611d95575b6020831014611d7f57565b634e487b7160e01b600052602260045260246000fd5b91607f1691611d74565b90601f801991011681019081106001600160401b03821117611dc057604052565b634e487b7160e01b600052604160045260246000fd5b9060405191826000825492611dea84611d65565b8084529360018116908115611e585750600114611e11575b50611e0f92500383611d9f565b565b90506000929192526020600020906000915b818310611e3c575050906020611e0f9282010138611e02565b6020919350806001915483858901015201910190918492611e23565b905060209250611e0f94915060ff191682840152151560051b82010138611e02565b919082519283825260005b848110611ea6575050826000602080949584010152601f8019910116010190565b80602080928401015182828601015201611e85565b9181601f84011215611ee8578235916001600160401b038311611ee85760208381860195010111611ee857565b600080fd5b602060408183019282815284518094520192019060005b818110611f115750505090565b8251845260209384019390920191600101611f04565b9181601f84011215611ee8578235916001600160401b038311611ee8576020808501948460051b010111611ee857565b600435906001600160a01b0382168203611ee857565b6001600160401b038111611dc057601f01601f191660200190565b929192611f9482611f6d565b91611fa26040519384611d9f565b829481845281830111611ee8578281602093846000960137010152565b9080601f83011215611ee857816020611fda93359101611f88565b90565b8054821015611ff55760005260206000200190600090565b634e487b7160e01b600052603260045260246000fd5b8054600160401b811015611dc05761202891600182018155611fdd565b819291549060031b91821b91600019901b1916179055565b6000526004602052604060002080541561211957600b81015460ff8160e81c166121125760ff8160e01c1661210b57600582015442106121045760068201544211156120fd5760ff8160f01c16156120fd576001600160401b03808260401c16911611156120f75760070154806120b75750600290565b8042106120f1576212750081018091116120db5742116120d657600390565b600790565b634e487b7160e01b600052601160045260246000fd5b50600490565b50600290565b5050600190565b5050600090565b5050600590565b5050600690565b63635e873760e01b60005260046000fd5b60001981146120db5760010190565b6001600160401b038111611dc05760051b60200190565b805115611ff55760200190565b818110612168575050565b6000815560010161215d565b9190601f811161218357505050565b611e0f926000526020600020906020601f840160051c830193106121af575b601f0160051c019061215d565b90915081906121a2565b918181106121c657505050565b611e0f926000526020600020918201910161215d565b51906001600160401b0382168203611ee857565b9081156122b4575b80156122a2575b602090606460018060a01b037f9e7b61f58c47dc699ac88507c4f5bb9f121c03808c5676a8078fe583e46497015416936000604051958694859363022f65e760e31b8552600485015260248401528160448401525af190811561229657600091612267575090565b90506020813d60201161228e575b8161228260209383611d9f565b81010312611ee8575190565b3d9150612275565b6040513d6000823e3d90fd5b5060206122ad6122c4565b90506121ff565b90506122be6122c4565b906121f8565b7f9e7b61f58c47dc699ac88507c4f5bb9f121c03808c5676a8078fe583e464970154604051639cd07acb60e01b8152600060048201819052600560248301529091602091839160449183916001600160a01b03165af190811561229657600091612267575090565b4660010361233957600190565b4662aa36a7036123495761271190565b617a69461461235757600090565b60001990565b906020808351928381520192019060005b81811061237b5750505090565b825184526020938401939092019160010161236e565b60008051602061240783398151915254600092916001600160a01b0390911690813b156108d257604051635ca4b5b160e11b815260048101919091526001600160a01b0392909216602483015282908290604490829084905af18015611b11576123f9575050565b8161240391611d9f565b5056fe9e7b61f58c47dc699ac88507c4f5bb9f121c03808c5676a8078fe583e4649700a26469706673582212208faea75d987fb9082b14bee8e97b8601a5db70699483fa82798f61646cc1d70964736f6c634300081b0033",
  "linkReferences": {},
  "deployedLinkReferences": {}
}