{
  "_format": "hh-sol-artifact-1",
  "contractName": "ZappsRewards",
  "sourceName": "contracts/ZappsRewards.sol",
  "abi": [
    {
      "inputs": [
        {
          "internalType": "address",
          "name": "_zappsToken",
          "type": "address"
        }
      ],
      "stateMutability": "nonpayable",
      "type": "constructor"
    },
    {
      "inputs": [],
      "name": "AchievementAlreadyUnlocked",
      "type": "error"
    },
    {
      "inputs": [],
      "name": "AlreadyClaimed",
      "type": "error"
    },
    {
      "inputs": [],
      "name": "AlreadyReferred",
      "type": "error"
    },
    {
      "inputs": [],
      "name": "AlreadyUsedReferral",
      "type": "error"
    },
    {
      "inputs": [],
      "name": "CannotSelfRefer",
      "type": "error"
    },
    {
      "inputs": [],
      "name": "InvalidAmount",
      "type": "error"
    },
    {
      "inputs": [],
      "name": "InvalidOwner",
      "type": "error"
    },
    {
      "inputs": [],
      "name": "InvalidReferrer",
      "type": "error"
    },
    {
      "inputs": [],
      "name": "InvalidToken",
      "type": "error"
    },
    {
      "inputs": [],
      "name": "NotOwner",
      "type": "error"
    },
    {
      "inputs": [],
      "name": "QuestAlreadyCompleted",
      "type": "error"
    },
    {
      "inputs": [],
      "name": "QuestExpired",
      "type": "error"
    },
    {
      "inputs": [],
      "name": "QuestMaxCompletions",
      "type": "error"
    },
    {
      "inputs": [],
      "name": "QuestNotActive",
      "type": "error"
    },
    {
      "inputs": [],
      "name": "ZamaProtocolUnsupported",
      "type": "error"
    },
    {
      "anonymous": false,
      "inputs": [
        {
          "indexed": true,
          "internalType": "bytes32",
          "name": "achievementId",
          "type": "bytes32"
        },
        {
          "indexed": false,
          "internalType": "string",
          "name": "name",
          "type": "string"
        }
      ],
      "name": "AchievementCreated",
      "type": "event"
    },
    {
      "anonymous": false,
      "inputs": [
        {
          "indexed": true,
          "internalType": "address",
          "name": "user",
          "type": "address"
        },
        {
          "indexed": true,
          "internalType": "bytes32",
          "name": "achievementId",
          "type": "bytes32"
        }
      ],
      "name": "AchievementUnlocked",
      "type": "event"
    },
    {
      "anonymous": false,
      "inputs": [
        {
          "indexed": true,
          "internalType": "address",
          "name": "creator",
          "type": "address"
        },
        {
          "indexed": false,
          "internalType": "uint64",
          "name": "amount",
          "type": "uint64"
        }
      ],
      "name": "ContentRewarded",
      "type": "event"
    },
    {
      "anonymous": false,
      "inputs": [
        {
          "indexed": true,
          "internalType": "address",
          "name": "user",
          "type": "address"
        },
        {
          "indexed": false,
          "internalType": "uint64",
          "name": "reward",
          "type": "uint64"
        }
      ],
      "name": "DailyRewardClaimed",
      "type": "event"
    },
    {
      "anonymous": false,
      "inputs": [
        {
          "indexed": true,
          "internalType": "address",
          "name": "oldOwner",
          "type": "address"
        },
        {
          "indexed": true,
          "internalType": "address",
          "name": "newOwner",
          "type": "address"
        }
      ],
      "name": "OwnerTransferred",
      "type": "event"
    },
    {
      "anonymous": false,
      "inputs": [
        {
          "indexed": true,
          "internalType": "address",
          "name": "user",
          "type": "address"
        },
        {
          "indexed": true,
          "internalType": "bytes32",
          "name": "questId",
          "type": "bytes32"
        }
      ],
      "name": "QuestCompleted",
      "type": "event"
    },
    {
      "anonymous": false,
      "inputs": [
        {
          "indexed": true,
          "internalType": "bytes32",
          "name": "questId",
          "type": "bytes32"
        },
        {
          "indexed": false,
          "internalType": "string",
          "name": "name",
          "type": "string"
        }
      ],
      "name": "QuestCreated",
      "type": "event"
    },
    {
      "anonymous": false,
      "inputs": [
        {
          "indexed": true,
          "internalType": "address",
          "name": "referrer",
          "type": "address"
        },
        {
          "indexed": true,
          "internalType": "address",
          "name": "referred",
          "type": "address"
        }
      ],
      "name": "ReferralRegistered",
      "type": "event"
    },
    {
      "anonymous": false,
      "inputs": [
        {
          "indexed": true,
          "internalType": "address",
          "name": "user",
          "type": "address"
        },
        {
          "indexed": false,
          "internalType": "bool",
          "name": "isReferrer",
          "type": "bool"
        }
      ],
      "name": "ReferralRewardClaimed",
      "type": "event"
    },
    {
      "inputs": [],
      "name": "DAILY_STREAK_WINDOW",
      "outputs": [
        {
          "internalType": "uint256",
          "name": "",
          "type": "uint256"
        }
      ],
      "stateMutability": "view",
      "type": "function"
    },
    {
      "inputs": [],
      "name": "MAX_REFERRALS",
      "outputs": [
        {
          "internalType": "uint32",
          "name": "",
          "type": "uint32"
        }
      ],
      "stateMutability": "view",
      "type": "function"
    },
    {
      "inputs": [
        {
          "internalType": "bytes32",
          "name": "",
          "type": "bytes32"
        }
      ],
      "name": "achievements",
      "outputs": [
        {
          "internalType": "string",
          "name": "name",
          "type": "string"
        },
        {
          "internalType": "uint64",
          "name": "rewardAmount",
          "type": "uint64"
        },
        {
          "internalType": "uint16",
          "name": "reputationBonus",
          "type": "uint16"
        },
        {
          "internalType": "bool",
          "name": "isSecret",
          "type": "bool"
        }
      ],
      "stateMutability": "view",
      "type": "function"
    },
    {
      "inputs": [],
      "name": "claimDailyReward",
      "outputs": [
        {
          "internalType": "uint64",
          "name": "reward",
          "type": "uint64"
        }
      ],
      "stateMutability": "nonpayable",
      "type": "function"
    },
    {
      "inputs": [
        {
          "internalType": "address",
          "name": "user",
          "type": "address"
        },
        {
          "internalType": "bytes32",
          "name": "questId",
          "type": "bytes32"
        }
      ],
      "name": "completeQuest",
      "outputs": [
        {
          "internalType": "uint64",
          "name": "",
          "type": "uint64"
        }
      ],
      "stateMutability": "nonpayable",
      "type": "function"
    },
    {
      "inputs": [],
      "name": "confidentialProtocolId",
      "outputs": [
        {
          "internalType": "uint256",
          "name": "",
          "type": "uint256"
        }
      ],
      "stateMutability": "view",
      "type": "function"
    },
    {
      "inputs": [
        {
          "internalType": "bytes32",
          "name": "achievementId",
          "type": "bytes32"
        },
        {
          "internalType": "string",
          "name": "name",
          "type": "string"
        },
        {
          "internalType": "uint64",
          "name": "rewardAmount",
          "type": "uint64"
        },
        {
          "internalType": "uint16",
          "name": "reputationBonus",
          "type": "uint16"
        },
        {
          "internalType": "bool",
          "name": "isSecret",
          "type": "bool"
        }
      ],
      "name": "createAchievement",
      "outputs": [],
      "stateMutability": "nonpayable",
      "type": "function"
    },
    {
      "inputs": [
        {
          "internalType": "bytes32",
          "name": "questId",
          "type": "bytes32"
        },
        {
          "internalType": "string",
          "name": "name",
          "type": "string"
        },
        {
          "internalType": "string",
          "name": "description",
          "type": "string"
        },
        {
          "internalType": "uint64",
          "name": "rewardAmount",
          "type": "uint64"
        },
        {
          "internalType": "uint16",
          "name": "reputationPoints",
          "type": "uint16"
        },
        {
          "internalType": "uint256",
          "name": "duration",
          "type": "uint256"
        },
        {
          "internalType": "uint256",
          "name": "maxCompletions",
          "type": "uint256"
        }
      ],
      "name": "createQuest",
      "outputs": [],
      "stateMutability": "nonpayable",
      "type": "function"
    },
    {
      "inputs": [],
      "name": "dailyReward",
      "outputs": [
        {
          "internalType": "uint64",
          "name": "",
          "type": "uint64"
        }
      ],
      "stateMutability": "view",
      "type": "function"
    },
    {
      "inputs": [
        {
          "internalType": "bytes32",
          "name": "questId",
          "type": "bytes32"
        }
      ],
      "name": "deactivateQuest",
      "outputs": [],
      "stateMutability": "nonpayable",
      "type": "function"
    },
    {
      "inputs": [
        {
          "internalType": "address",
          "name": "user",
          "type": "address"
        }
      ],
      "name": "getDailyLoginInfo",
      "outputs": [
        {
          "internalType": "uint256",
          "name": "lastLogin",
          "type": "uint256"
        },
        {
          "internalType": "address",
          "name": "referrer",
          "type": "address"
        },
        {
          "internalType": "bool",
          "name": "canClaim",
          "type": "bool"
        }
      ],
      "stateMutability": "view",
      "type": "function"
    },
    {
      "inputs": [
        {
          "internalType": "address",
          "name": "user",
          "type": "address"
        }
      ],
      "name": "getEncryptedContentEarned",
      "outputs": [
        {
          "internalType": "euint64",
          "name": "",
          "type": "bytes32"
        }
      ],
      "stateMutability": "view",
      "type": "function"
    },
    {
      "inputs": [
        {
          "internalType": "address",
          "name": "user",
          "type": "address"
        }
      ],
      "name": "getEncryptedDailyEarned",
      "outputs": [
        {
          "internalType": "euint64",
          "name": "",
          "type": "bytes32"
        }
      ],
      "stateMutability": "view",
      "type": "function"
    },
    {
      "inputs": [
        {
          "internalType": "address",
          "name": "user",
          "type": "address"
        }
      ],
      "name": "getEncryptedEarnings",
      "outputs": [
        {
          "internalType": "euint64",
          "name": "",
          "type": "bytes32"
        }
      ],
      "stateMutability": "view",
      "type": "function"
    },
    {
      "inputs": [
        {
          "internalType": "address",
          "name": "user",
          "type": "address"
        }
      ],
      "name": "getEncryptedLoginStreak",
      "outputs": [
        {
          "internalType": "euint32",
          "name": "",
          "type": "bytes32"
        }
      ],
      "stateMutability": "view",
      "type": "function"
    },
    {
      "inputs": [
        {
          "internalType": "address",
          "name": "user",
          "type": "address"
        }
      ],
      "name": "getEncryptedQuestEarned",
      "outputs": [
        {
          "internalType": "euint64",
          "name": "",
          "type": "bytes32"
        }
      ],
      "stateMutability": "view",
      "type": "function"
    },
    {
      "inputs": [
        {
          "internalType": "address",
          "name": "user",
          "type": "address"
        }
      ],
      "name": "getEncryptedReferralCount",
      "outputs": [
        {
          "internalType": "euint32",
          "name": "",
          "type": "bytes32"
        }
      ],
      "stateMutability": "view",
      "type": "function"
    },
    {
      "inputs": [
        {
          "internalType": "address",
          "name": "user",
          "type": "address"
        }
      ],
      "name": "getEncryptedReferralEarned",
      "outputs": [
        {
          "internalType": "euint64",
          "name": "",
          "type": "bytes32"
        }
      ],
      "stateMutability": "view",
      "type": "function"
    },
    {
      "inputs": [
        {
          "internalType": "bytes32",
          "name": "questId",
          "type": "bytes32"
        }
      ],
      "name": "getQuestInfo",
      "outputs": [
        {
          "internalType": "string",
          "name": "name",
          "type": "string"
        },
        {
          "internalType": "uint64",
          "name": "rewardAmount",
          "type": "uint64"
        },
        {
          "internalType": "uint256",
          "name": "endTime",
          "type": "uint256"
        },
        {
          "internalType": "bool",
          "name": "isActive",
          "type": "bool"
        },
        {
          "internalType": "uint256",
          "name": "completions",
          "type": "uint256"
        },
        {
          "internalType": "uint256",
          "name": "maxCompletions",
          "type": "uint256"
        }
      ],
      "stateMutability": "view",
      "type": "function"
    },
    {
      "inputs": [
        {
          "internalType": "address",
          "name": "user",
          "type": "address"
        },
        {
          "internalType": "bytes32",
          "name": "questId",
          "type": "bytes32"
        }
      ],
      "name": "hasCompletedQuest",
      "outputs": [
        {
          "internalType": "bool",
          "name": "",
          "type": "bool"
        }
      ],
      "stateMutability": "view",
      "type": "function"
    },
    {
      "inputs": [
        {
          "internalType": "address",
          "name": "user",
          "type": "address"
        },
        {
          "internalType": "bytes32",
          "name": "achievementId",
          "type": "bytes32"
        }
      ],
      "name": "hasUnlockedAchievement",
      "outputs": [
        {
          "internalType": "bool",
          "name": "",
          "type": "bool"
        }
      ],
      "stateMutability": "view",
      "type": "function"
    },
    {
      "inputs": [],
      "name": "owner",
      "outputs": [
        {
          "internalType": "address",
          "name": "",
          "type": "address"
        }
      ],
      "stateMutability": "view",
      "type": "function"
    },
    {
      "inputs": [
        {
          "internalType": "bytes32",
          "name": "",
          "type": "bytes32"
        }
      ],
      "name": "quests",
      "outputs": [
        {
          "internalType": "string",
          "name": "name",
          "type": "string"
        },
        {
          "internalType": "string",
          "name": "description",
          "type": "string"
        },
        {
          "internalType": "uint64",
          "name": "rewardAmount",
          "type": "uint64"
        },
        {
          "internalType": "uint16",
          "name": "reputationPoints",
          "type": "uint16"
        },
        {
          "internalType": "uint256",
          "name": "startTime",
          "type": "uint256"
        },
        {
          "internalType": "uint256",
          "name": "endTime",
          "type": "uint256"
        },
        {
          "internalType": "bool",
          "name": "isActive",
          "type": "bool"
        },
        {
          "internalType": "uint256",
          "name": "maxCompletions",
          "type": "uint256"
        },
        {
          "internalType": "uint256",
          "name": "currentCompletions",
          "type": "uint256"
        }
      ],
      "stateMutability": "view",
      "type": "function"
    },
    {
      "inputs": [],
      "name": "referredReward",
      "outputs": [
        {
          "internalType": "uint64",
          "name": "",
          "type": "uint64"
        }
      ],
      "stateMutability": "view",
      "type": "function"
    },
    {
      "inputs": [],
      "name": "referrerReward",
      "outputs": [
        {
          "internalType": "uint64",
          "name": "",
          "type": "uint64"
        }
      ],
      "stateMutability": "view",
      "type": "function"
    },
    {
      "inputs": [
        {
          "internalType": "address",
          "name": "referrer",
          "type": "address"
        }
      ],
      "name": "registerReferral",
      "outputs": [],
      "stateMutability": "nonpayable",
      "type": "function"
    },
    {
      "inputs": [
        {
          "internalType": "address",
          "name": "creator",
          "type": "address"
        },
        {
          "internalType": "uint64",
          "name": "amount",
          "type": "uint64"
        }
      ],
      "name": "rewardContent",
      "outputs": [],
      "stateMutability": "nonpayable",
      "type": "function"
    },
    {
      "inputs": [
        {
          "internalType": "uint64",
          "name": "amount",
          "type": "uint64"
        }
      ],
      "name": "setDailyReward",
      "outputs": [],
      "stateMutability": "nonpayable",
      "type": "function"
    },
    {
      "inputs": [
        {
          "internalType": "uint64",
          "name": "_referrerReward",
          "type": "uint64"
        },
        {
          "internalType": "uint64",
          "name": "_referredReward",
          "type": "uint64"
        }
      ],
      "name": "setReferralRewards",
      "outputs": [],
      "stateMutability": "nonpayable",
      "type": "function"
    },
    {
      "inputs": [
        {
          "internalType": "uint64",
          "name": "multiplier",
          "type": "uint64"
        }
      ],
      "name": "setStreakBonusMultiplier",
      "outputs": [],
      "stateMutability": "nonpayable",
      "type": "function"
    },
    {
      "inputs": [
        {
          "internalType": "address",
          "name": "_reputation",
          "type": "address"
        }
      ],
      "name": "setZappsReputation",
      "outputs": [],
      "stateMutability": "nonpayable",
      "type": "function"
    },
    {
      "inputs": [],
      "name": "streakBonusMultiplier",
      "outputs": [
        {
          "internalType": "uint64",
          "name": "",
          "type": "uint64"
        }
      ],
      "stateMutability": "view",
      "type": "function"
    },
    {
      "inputs": [
        {
          "internalType": "address",
          "name": "newOwner",
          "type": "address"
        }
      ],
      "name": "transferOwnership",
      "outputs": [],
      "stateMutability": "nonpayable",
      "type": "function"
    },
    {
      "inputs": [
        {
          "internalType": "address",
          "name": "user",
          "type": "address"
        },
        {
          "internalType": "bytes32",
          "name": "achievementId",
          "type": "bytes32"
        }
      ],
      "name": "unlockAchievement",
      "outputs": [
        {
          "internalType": "uint64",
          "name": "",
          "type": "uint64"
        }
      ],
      "stateMutability": "nonpayable",
      "type": "function"
    },
    {
      "inputs": [],
      "name": "zappsReputation",
      "outputs": [
        {
          "internalType": "address",
          "name": "",
          "type": "address"
        }
      ],
      "stateMutability": "view",
      "type": "function"
    },
    {
      "inputs": [],
      "name": "zappsToken",
      "outputs": [
        {
          "internalType": "address",
          "name": "",
          "type": "address"
        }
      ],
      "stateMutability": "view",
      "type": "function"
    }
  ],
  "bytecode": "0x6080806040523461038757600090602081612741803803809161002282856103bd565b83398101031261038357516001600160a01b03811690819003610383576100476103e0565b5046600103610297576100586103e0565b506040516100658161038c565b8281528260208201528260408201525b80517f9e7b61f58c47dc699ac88507c4f5bb9f121c03808c5676a8078fe583e464970080546001600160a01b03199081166001600160a01b03938416179091556020830151600080516020612721833981519152805483169184169190911790556040909201517f9e7b61f58c47dc699ac88507c4f5bb9f121c03808c5676a8078fe583e46497028054909316911617905560028054600160a01b600160e01b0319166201312d60a71b17905560038054700a0000000001312d000000000001c9c3806001600160c01b03199190911617905580156102885781546001600160a01b0319908116331783556001805490911691909117905560008051602061272183398151915254604051639cd07acb60e01b8152600481018390526005602482015282916020908290604490829086906001600160a01b03165af1908115610244578291610253575b50600a8190557f9e7b61f58c47dc699ac88507c4f5bb9f121c03808c5676a8078fe583e4649700546001600160a01b0316803b1561024f57604483926040519485938492635ca4b5b160e11b845260048401523060248401525af1801561024457610234575b60405161232190816104008239f35b8161023e916103bd565b38610225565b6040513d84823e3d90fd5b5050fd5b90506020813d602011610280575b8161026e602093836103bd565b8101031261027d5751386101bf565b50fd5b3d9150610261565b63c1ab6dc160e01b8252600482fd5b4662aa36a703610306576102a96103e0565b506040516102b68161038c565b73f0ffdc93b7e186bc2f8cb3daa75d86d1930a433d81527392c920834ec8941d2c77d188936e1f7a6f49c127602082015273be0e383937d564d7ff0bc3b46c51f0bf8d5c311a6040820152610075565b46617a6903610374576103176103e0565b506040516103248161038c565b7350157cffd6bbfa2dece204a89ec419c23ef5755d815273e3a9105a3a932253a70f126eb1e3b589c643dd24602082015273901f8942346f7ab3a01f6d7613119bca447bb0306040820152610075565b6373cac13b60e01b8252600482fd5b5080fd5b600080fd5b606081019081106001600160401b038211176103a757604052565b634e487b7160e01b600052604160045260246000fd5b601f909101601f19168101906001600160401b038211908210176103a757604052565b604051906103ed8261038c565b6000604083828152826020820152015256fe608080604052600436101561001357600080fd5b600090813560e01c90816302a5ab2514611c0e575080630763f34e14611be757806308b96e7114611b8e578063209ab711146119025780632fa55b591461186a5780633459704c146118415780633b87c69d1461181657806342ec9938146117c8578063487bf905146116ea5780635784e3ea146116855780635ec288101461165c5780636b03af84146115da57806376e025d7146115af5780637ee40c87146113c4578063826508f4146113a657806383f8b7e21461112a57806384ba7a0c146111005780638927b030146110dd5780638d7c379b146110945780638da5cb5b1461106d57806394e183af1461101f578063979eedce146110035780639c1a289314610fd95780639de2dc2c14610f9d578063a5cfc1b014610d88578063a978156614610a83578063ba61651114610a3a578063bdabd90b146106a7578063c69615391461067c578063c964ad4514610652578063da3ab3b3146105a2578063ec5f34fe1461051c578063ed62cd6a146104f1578063ee7c4abf146104b4578063f2fde38b146104215763f8e67810146101ad57600080fd5b3461041e5760a036600319011261041e57600435906024356001600160401b03811161041c576101e1903690600401611dc4565b60443593916001600160401b0385168503610418576064359461ffff86168603610414576084358015158091036104105785546001600160a01b0316330361040157848652600960205260408620966001600160401b0385116103ed576102488854611cd0565b601f81116103a8575b508697601f861160011461031657906001600160401b0360016102dc93888b9c7f6be2d0552cb5b5733061e76fb1be6e833aa0cc7b0e65e013675314d18c8cc3019b9c9161030b575b5060001960038b901b1c191689831b1781555b0194166001600160401b0319855416178455839061ffff60401b82549160401b169061ffff60401b1916179055565b815460ff60501b191660509190911b60ff60501b16179055604051918291610305919083611df1565b0390a280f35b90508801353861029a565b80885260208820601f198716895b81811061039057506102dc93926001600160401b03927f6be2d0552cb5b5733061e76fb1be6e833aa0cc7b0e65e013675314d18c8cc3019a9b9c8a60019410610376575b50508189811b0181556102ad565b89013560001960038c901b60f8161c191690553880610368565b878c0135835560209b8c019b60019093019201610324565b88885260208820601f870160051c810191602088106103e3575b601f0160051c01905b8181106103d85750610251565b8881556001016103cb565b90915081906103c2565b634e487b7160e01b87526041600452602487fd5b6330cd747160e01b8652600486fd5b8580fd5b8480fd5b8380fd5b505b80fd5b503461041e57602036600319011261041e5761043b611c48565b81546001600160a01b03811691338390036104a5576001600160a01b03169182156104965782907f8934ce4adea8d9ce0d714d2c22b86790e41b7731c84b926fbbdc1d40ff6533c98580a36001600160a01b03191617815580f35b6349e27cff60e01b8452600484fd5b6330cd747160e01b8452600484fd5b503461041e57602036600319011261041e576020906008906040906001600160a01b036104df611c48565b16815260048452200154604051908152f35b503461041e57602036600319011261041e576020906003906040906001600160a01b036104df611c48565b503461041e57602036600319011261041e57610536611c63565b81546001600160a01b03163303610593576001600160401b03811615610584576002805467ffffffffffffffff60a01b191660a09290921b67ffffffffffffffff60a01b1691909117905580f35b63162908e360e11b8252600482fd5b6330cd747160e01b8252600482fd5b503461041e57604036600319011261041e576105bc611c63565b6105c4611c79565b82549091906001600160a01b03163303610643576001600160401b031680158015610632575b610623576fffffffffffffffff00000000000000006003549260401b16916fffffffffffffffffffffffffffffffff1916171760035580f35b63162908e360e11b8352600483fd5b506001600160401b038216156105ea565b6330cd747160e01b8352600483fd5b503461041e578060031936011261041e5760206001600160401b0360025460a01c16604051908152f35b503461041e57602036600319011261041e576020906001906040906001600160a01b036104df611c48565b503461041e5760e036600319011261041e57600435906024356001600160401b03811161041c576106dc903690600401611dc4565b6044939193356001600160401b038111610418576106fe903690600401611dc4565b94906064356001600160401b0381168103610410576084359161ffff83168303610a365786546001600160a01b03163303610a2757858752600860205260408720976001600160401b038611610a13576107588954611cd0565b601f81116109ce575b508588601f821160011461096b578991610960575b508660011b906000198860031b1c19161789555b60018901916001600160401b03821161094c576107a78354611cd0565b601f8111610907575b508890601f831160011461089d5761081c95949392918a9183610892575b50508160011b916000199060031b1c19161790555b6001600160401b036002890191166001600160401b03198254161781559061ffff60401b82549160401b169061ffff60401b1916179055565b42600386015560a43542019485421161087e577faee8b8a5f9f92775aee03eff2f33c7c47bc536291090b52e365174d2cbde2a28939495600482015560058101600160ff19825416179055600660c43591015561030560405192839283611df1565b634e487b7160e01b85526011600452602485fd5b0135905038806107ce565b838a5260208a2091601f1984168b5b8181106108ef575091600193918561081c9998979694106108d5575b505050811b0190556107e3565b0135600019600384901b60f8161c191690553880806108c8565b919360206001819287870135815501950192016108ac565b838a5260208a20601f840160051c81019160208510610942575b601f0160051c01905b81811061093757506107b0565b8a815560010161092a565b9091508190610921565b634e487b7160e01b89526041600452602489fd5b905085013538610776565b8a8a5260208a20915087601f1981168b5b8181106109b3575010610999575b5050600186811b01895561078a565b860135600019600389901b60f8161c19169055388061098a565b8984013585556001909401936020938401938b93500161097c565b89895260208920601f880160051c81019160208910610a09575b601f0160051c01905b8181106109fe5750610761565b8981556001016109f1565b90915081906109e8565b634e487b7160e01b88526041600452602488fd5b6330cd747160e01b8752600487fd5b8680fd5b503461041e57604036600319011261041e5760209060ff906040906001600160a01b03610a65611c48565b16815260078452818120602435825284522054166040519015158152f35b503461041e57604036600319011261041e57610a9d611c48565b8154909190602435906001600160a01b031633036105935780825260086020526040822060ff60058201541615610d795760048101544211610d6a576001600160a01b03841680845260066020908152604080862085875290915284205460ff16610d5b5760068201548015159081610d4c575b50610d3d57610b1f85611e19565b80845260066020526040842083855260205260408420600160ff198254161790556007820180546000198114610d2957600101905560028201946001600160401b038654168286526004602052610bb560408720926006610b7f84612139565b94610ba68360048301610ba0610b968a83546122a2565b8083553090612223565b54612223565b01610ba0610b968683546122a2565b6001546001600160a01b031690813b15610a365786916044839260405194859384926302893c5b60e41b845289600485015260248401525af18015610d1e57908691610d09575b5050610c0d610c1891600a546122a2565b80600a553090612223565b60405192817f0aebb4999ac39e28d89685af5562756429126a644071d899fe8cd19cdf3fc3578680a36002546001600160a01b03169182610c69575b60206001600160401b03875416604051908152f35b61ffff865460401c1691833b156104105785858094610ca6839795839563973dde9160e01b85526004850152608060248501526084840190611d0a565b9060448301527f6dd88e0a32c18c14d5a81f049d6fd353acc17f8290c55d8a716d975def4edf1e606483015203925af18015610cfe57610ce9575b808080610c54565b610cf4828092611d8d565b61041e5780610ce1565b6040513d84823e3d90fd5b81610d1391611d8d565b610414578438610bfc565b6040513d88823e3d90fd5b634e487b7160e01b86526011600452602486fd5b632081a35f60e21b8452600484fd5b90506007830154101538610b11565b63b969af7f60e01b8452600484fd5b637bcc439b60e01b8352600483fd5b630bb6646b60e01b8352600483fd5b503461041e57604036600319011261041e57610da2611c48565b8154909190602435906001600160a01b031633036105935780825260096020526040822060018060a01b03841680845260076020526040842083855260205260ff604085205416610f8e57610df685611e19565b80845260076020526040842083855260205260408420600160ff1982541617905560018201946001600160401b038654168286526004602052610e5260408720926006610e4284612139565b9401610ba0610b968683546122a2565b6001546001600160a01b031690813b15610a365786916044839260405194859384926302893c5b60e41b845289600485015260248401525af18015610d1e57908691610f79575b5050610c0d610eaa91600a546122a2565b60405192817f8b1ad8f42d596da172aaf2517323750dd2bbc65505ec8c68ab255338205da9de8680a36002546001600160a01b03169182610efa5760206001600160401b03875416604051908152f35b61ffff865460401c1691833b156104105785858094610f37839795839563973dde9160e01b85526004850152608060248501526084840190611d0a565b9060448301527fc47de63095ff2dfb741fc7da9fcbfa5d1e747a2a07dbb51baae83eb111831a7d606483015203925af18015610cfe57610ce957808080610c54565b81610f8391611d8d565b610414578438610e99565b636038d77760e11b8452600484fd5b503461041e57602036600319011261041e576020906004906040906001600160a01b03610fc8611c48565b168152828452200154604051908152f35b503461041e578060031936011261041e5760206001600160401b0360035460801c16604051908152f35b503461041e578060031936011261041e57602060405160648152f35b503461041e57602036600319011261041e57611039611c48565b81546001600160a01b031633036105935760018060a01b03166bffffffffffffffffffffffff60a01b600254161760025580f35b503461041e578060031936011261041e57546040516001600160a01b039091168152602090f35b503461041e57604036600319011261041e5760209060ff906040906001600160a01b036110bf611c48565b16815260068452818120602435825284522054166040519015158152f35b503461041e578060031936011261041e5760206110f8611fd1565b604051908152f35b503461041e578060031936011261041e5760206001600160401b0360035460401c16604051908152f35b503461041e578060031936011261041e5761114433611e19565b33815260046020526040812080546201518081018082116113925742106113835780151580611357575b6111a9915061117b612002565b90156113525761118f906001840154611ed1565b6111a160018401918083553090612223565b339054612223565b6001600160401b0360025460a01c16904290553382526004602052604082206111fb60066111d684612139565b926111ec600282016111a1610b968783546122a2565b016111a1610b968483546122a2565b60015483906001600160a01b0316803b1561041c578180916044604051809481936302893c5b60e41b83523360048401528960248401525af18015610cfe57611339575b5050610c0d61125091600a546122a2565b6040518181527fb02eb6d502c62c5be7ccb77cc29fb07e5fa2a03a13fd969b4de339eb583eea2a60203392a26002546001600160a01b031680611299575b602082604051908152f35b8083913b1561041c57819060c46040518094819363973dde9160e01b835233600484015260806024840152600b60848401526a2220a4a62cafa627a3a4a760a91b60a4840152600560448401527f0d79ee7f615075d721853c1c7091a871a0028d16e2edfebd8754835e623cfe8060648401525af1801561132e571561128e57611324838092611d8d565b61041c578161128e565b6040513d85823e3d90fd5b8161134391611d8d565b61134e57823861123f565b8280fd5b61118f565b50420342811161136f576202a3006111a9911061116e565b634e487b7160e01b83526011600452602483fd5b630c8d9eab60e31b8352600483fd5b634e487b7160e01b84526011600452602484fd5b503461041e578060031936011261041e576020604051620151808152f35b503461041e57604036600319011261041e576113de611c48565b906113e7611c79565b81549092906001600160a01b0316330361059357819261140682611e19565b6001600160a01b038216808452600460205260408420909290916001600160401b03169061145090600661143984612139565b94610ba68360058301610ba0610b968a83546122a2565b6001546001600160a01b031691823b15610414578480936044604051809681936302893c5b60e41b83528960048401528760248401525af180156115a45784938691611584575b50507ff558b91f9fba68e74571a1b98a9ba8a3eb21dd8819a90da41558da6ca67acd56916114cc610c0d602093600a546122a2565b604051908152a26002546001600160a01b031690816114e9575050f35b813b1561158057829160c48392604051948593849263973dde9160e01b8452600484015260806024840152600f60848401526e434f4e54454e545f5155414c49545960881b60a4840152603260448401527f3c2519c4487d47714872f92cf90a50c25f5deaec2789dc2a497b1272df611db660648401525af18015610cfe5761156f5750f35b8161157991611d8d565b61041e5780f35b5050fd5b819294509061159291611d8d565b61159f5782918438611497565b505050fd5b6040513d87823e3d90fd5b503461041e57602036600319011261041e576020906006906040906001600160a01b036104df611c48565b503461041e57602036600319011261041e576040611630916004358152600960205220600160405191611618836116118184611d0a565b0384611d8d565b015460ff604051938493608085526080850190611c8f565b916001600160401b038116602085015261ffff8160401c16604085015260501c16151560608301520390f35b503461041e578060031936011261041e576001546040516001600160a01b039091168152602090f35b503461041e57602036600319011261041e576001600160a01b036116a7611c48565b168152600460205260408120805490620151808201908183116113925760609350600760018060a01b039101541660405192835260208301524210156040820152f35b503461041e57602036600319011261041e576040611781916004358152600860205220604051906117268261171f8184611d0a565b0383611d8d565b6040516117418161173a8160018601611d0a565b0382611d8d565b6002820154916003810154600482015460ff6005840154169161ffff61178f60076006870154960154966040519a8b9a6101208c526101208c0190611c8f565b908a820360208c0152611c8f565b966001600160401b03811660408a015260401c166060880152608087015260a0860152151560c085015260e08401526101008301520390f35b503461041e57602036600319011261041e5780546001600160a01b03163303611807576004358152600860205260408120600501805460ff1916905580f35b6330cd747160e01b8152600490fd5b503461041e57602036600319011261041e576020906002906040906001600160a01b036104df611c48565b503461041e578060031936011261041e576002546040516001600160a01b039091168152602090f35b503461041e57602036600319011261041e576118c760406118e29260043581526008602052206001600160401b0360028201541690600481015460ff6005830154166007830154916118ce60068501549460405197888092611d0a565b0387611d8d565b60405196879660c0885260c0880190611c8f565b946020870152604086015215156060850152608084015260a08301520390f35b503461041e57602036600319011261041e5761191c611c48565b906001600160a01b038216338114611b7f578015611b705761193d33611e19565b61194683611e19565b3382526004602052604082208183526004602052600760408420910160018060a01b03815416611b615782845260056020908152604080862033875290915284205460ff16611b5257936119f3816008611a05948798876bffffffffffffffffffffffff60a01b82541617905586885260056020526040882060018060a01b033316895260205260408820600160ff1982541617905501610ba0610b9682546119ed612002565b90611ed1565b6001600160401b036003541690611f09565b611a1d6001600160401b0360035460401c1633611f09565b807f55991d934bbb8ea16f78e06d671a4985cd51e4892ce8d6eaeb956915d35110bd602060405133847f5f1ca2fcc108b751843a763e60d2201f593516109d7dbb1b700468f2d4190bb78880a360018152a26040518281527f55991d934bbb8ea16f78e06d671a4985cd51e4892ce8d6eaeb956915d35110bd60203392a26002546001600160a01b03169081611ab1575050f35b813b1561158057829160c48392604051958693849263973dde9160e01b8452600484015260806024840152601060848401526f524546455252414c5f5355434345535360801b60a4840152601460448401527fa6868df2b95a6bb3d688b4c87210fb729f6a950470444f71c4fc4e38fea8d6f360648401525af18015611b4557611b39579050f35b611b4291611d8d565b80f35b50604051903d90823e3d90fd5b637aabdfe360e01b8452600484fd5b634c084ca560e01b8452600484fd5b630c22084560e31b8252600482fd5b6368d7fd4960e11b8252600482fd5b503461041e57602036600319011261041e57611ba8611c63565b81546001600160a01b03163303610593576003805467ffffffffffffffff60801b191660809290921b67ffffffffffffffff60801b1691909117905580f35b503461041e578060031936011261041e5760206001600160401b0360035416604051908152f35b90503461041c57602036600319011261041c576020916005906040906001600160a01b03611c3a611c48565b168152600485522001548152f35b600435906001600160a01b0382168203611c5e57565b600080fd5b600435906001600160401b0382168203611c5e57565b602435906001600160401b0382168203611c5e57565b919082519283825260005b848110611cbb575050826000602080949584010152601f8019910116010190565b80602080928401015182828601015201611c9a565b90600182811c92168015611d00575b6020831014611cea57565b634e487b7160e01b600052602260045260246000fd5b91607f1691611cdf565b60009291815491611d1a83611cd0565b8083529260018116908115611d705750600114611d3657505050565b60009081526020812093945091925b838310611d56575060209250010190565b600181602092949394548385870101520191019190611d45565b915050602093945060ff929192191683830152151560051b010190565b90601f801991011681019081106001600160401b03821117611dae57604052565b634e487b7160e01b600052604160045260246000fd5b9181601f84011215611c5e578235916001600160401b038311611c5e5760208381860195010111611c5e57565b90918060409360208452816020850152848401376000828201840152601f01601f1916010190565b60018060a01b0381166000526004602052604060002090600982019160ff83541615611e4457505050565b610ba082611ecf94611e5461208e565b9060018501918255611e646120e3565b6002860155611e716120e3565b6003860155611e7e6120e3565b6004860155611e8b6120e3565b6005860155611e986120e3565b94600681019586556008611eaa61208e565b910155600160ff19825416179055611ec481543090612223565b610ba0308554612223565b565b90611ee8918015611efb575b8115611eeb5761218f565b90565b9050611ef561208e565b9061218f565b50611f0461208e565b611edd565b6001600160a01b0381166000818152600460205260408120909390926001600160401b0390911690611f6a90611f3e83612139565b95506006600095611f5b8360038301610ba0610b968c83546122a2565b01610ba0610b968883546122a2565b6001546001600160a01b031691823b156104185790604484928360405195869485936302893c5b60e41b8552600485015260248401525af18015610cfe5791611ecf9391610c0d93611fc1575b5050600a546122a2565b81611fcb91611d8d565b38611fb7565b46600103611fde57600190565b4662aa36a703611fee5761271190565b617a694614611ffc57600090565b60001990565b600060206000805160206122cc83398151915254604460405180948193639cd07acb60e01b8352600160048401526004602484015260018060a01b03165af190811561208257600091612053575090565b90506020813d60201161207a575b8161206e60209383611d8d565b81010312611c5e575190565b3d9150612061565b6040513d6000823e3d90fd5b6000805160206122cc83398151915254604051639cd07acb60e01b81526000600480830182905260248301529091602091839160449183916001600160a01b03165af190811561208257600091612053575090565b6000805160206122cc83398151915254604051639cd07acb60e01b8152600060048201819052600560248301529091602091839160449183916001600160a01b03165af190811561208257600091612053575090565b6000805160206122cc83398151915254604051639cd07acb60e01b8152600481019290925260056024830152602090829060449082906000906001600160a01b03165af190811561208257600091612053575090565b6020600092606460018060a01b036000805160206122cc83398151915254169385604051958694859363022f65e760e31b8552600485015260248401528160448401525af19182156122175780926121e657505090565b9091506020823d60201161220f575b8161220260209383611d8d565b8101031261041e57505190565b3d91506121f5565b604051903d90823e3d90fd5b7f9e7b61f58c47dc699ac88507c4f5bb9f121c03808c5676a8078fe583e4649700546000926001600160a01b0390911691823b15610418579060448492836040519586948593635ca4b5b160e11b8552600485015260018060a01b031660248401525af18015610cfe57612295575050565b8161229f91611d8d565b50565b90611ee89180156122bd575b8161218f579050611ef56120e3565b506122c66120e3565b6122ae56fe9e7b61f58c47dc699ac88507c4f5bb9f121c03808c5676a8078fe583e4649701a26469706673582212207167dd89883f79fff44e54b5680f66d1e6065855d56e3088043d3aa488d7e4ba64736f6c634300081b00339e7b61f58c47dc699ac88507c4f5bb9f121c03808c5676a8078fe583e4649701",
  "linkReferences": {},
  "deployedLinkReferences": {}
}