{
  "_format": "hh-sol-artifact-1",
  "contractName": "ZappsSocial",
  "sourceName": "contracts/ZappsSocial.sol",
  "abi": [
    {
      "inputs": [],
      "stateMutability": "nonpayable",
      "type": "constructor"
    },
    {
      "inputs": [],
      "name": "AlreadyDownvoted",
      "type": "error"
    },
    {
      "inputs": [],
      "name": "AlreadyFollowing",
      "type": "error"
    },
    {
      "inputs": [],
      "name": "AlreadyUpvoted",
      "type": "error"
    },
    {
      "inputs": [],
      "name": "InvalidOwner",
      "type": "error"
    },
    {
      "inputs": [],
      "name": "InvalidTarget",
      "type": "error"
    },
    {
      "inputs": [],
      "name": "NotFollowing",
      "type": "error"
    },
    {
      "inputs": [],
      "name": "NotOwner",
      "type": "error"
    },
    {
      "inputs": [],
      "name": "PostExists",
      "type": "error"
    },
    {
      "inputs": [],
      "name": "PostNotExists",
      "type": "error"
    },
    {
      "inputs": [],
      "name": "ZamaProtocolUnsupported",
      "type": "error"
    },
    {
      "anonymous": false,
      "inputs": [
        {
          "indexed": true,
          "internalType": "address",
          "name": "follower",
          "type": "address"
        },
        {
          "indexed": true,
          "internalType": "address",
          "name": "following",
          "type": "address"
        },
        {
          "indexed": false,
          "internalType": "enum ZappsSocial.FollowMode",
          "name": "mode",
          "type": "uint8"
        }
      ],
      "name": "Followed",
      "type": "event"
    },
    {
      "anonymous": false,
      "inputs": [
        {
          "indexed": true,
          "internalType": "address",
          "name": "oldOwner",
          "type": "address"
        },
        {
          "indexed": true,
          "internalType": "address",
          "name": "newOwner",
          "type": "address"
        }
      ],
      "name": "OwnerTransferred",
      "type": "event"
    },
    {
      "anonymous": false,
      "inputs": [
        {
          "indexed": true,
          "internalType": "bytes32",
          "name": "postId",
          "type": "bytes32"
        },
        {
          "indexed": true,
          "internalType": "address",
          "name": "author",
          "type": "address"
        },
        {
          "indexed": false,
          "internalType": "enum ZappsSocial.PrivacyMode",
          "name": "mode",
          "type": "uint8"
        },
        {
          "indexed": false,
          "internalType": "uint256",
          "name": "timestamp",
          "type": "uint256"
        }
      ],
      "name": "PostCreated",
      "type": "event"
    },
    {
      "anonymous": false,
      "inputs": [
        {
          "indexed": true,
          "internalType": "bytes32",
          "name": "postId",
          "type": "bytes32"
        },
        {
          "indexed": true,
          "internalType": "address",
          "name": "voter",
          "type": "address"
        },
        {
          "indexed": false,
          "internalType": "bool",
          "name": "isUpvote",
          "type": "bool"
        }
      ],
      "name": "PostVoted",
      "type": "event"
    },
    {
      "anonymous": false,
      "inputs": [
        {
          "indexed": true,
          "internalType": "address",
          "name": "follower",
          "type": "address"
        },
        {
          "indexed": true,
          "internalType": "address",
          "name": "following",
          "type": "address"
        }
      ],
      "name": "Unfollowed",
      "type": "event"
    },
    {
      "inputs": [
        {
          "internalType": "uint256",
          "name": "",
          "type": "uint256"
        }
      ],
      "name": "allPosts",
      "outputs": [
        {
          "internalType": "bytes32",
          "name": "",
          "type": "bytes32"
        }
      ],
      "stateMutability": "view",
      "type": "function"
    },
    {
      "inputs": [
        {
          "internalType": "address",
          "name": "follower",
          "type": "address"
        },
        {
          "internalType": "address",
          "name": "target",
          "type": "address"
        }
      ],
      "name": "checkIsFollowing",
      "outputs": [
        {
          "internalType": "bool",
          "name": "",
          "type": "bool"
        }
      ],
      "stateMutability": "view",
      "type": "function"
    },
    {
      "inputs": [],
      "name": "confidentialProtocolId",
      "outputs": [
        {
          "internalType": "uint256",
          "name": "",
          "type": "uint256"
        }
      ],
      "stateMutability": "view",
      "type": "function"
    },
    {
      "inputs": [
        {
          "internalType": "string",
          "name": "content",
          "type": "string"
        },
        {
          "internalType": "enum ZappsSocial.PrivacyMode",
          "name": "privacyMode",
          "type": "uint8"
        },
        {
          "internalType": "uint16",
          "name": "minReputationRequired",
          "type": "uint16"
        }
      ],
      "name": "createPost",
      "outputs": [
        {
          "internalType": "bytes32",
          "name": "postId",
          "type": "bytes32"
        }
      ],
      "stateMutability": "nonpayable",
      "type": "function"
    },
    {
      "inputs": [
        {
          "internalType": "bytes32",
          "name": "postId",
          "type": "bytes32"
        }
      ],
      "name": "downvote",
      "outputs": [],
      "stateMutability": "nonpayable",
      "type": "function"
    },
    {
      "inputs": [
        {
          "internalType": "address",
          "name": "target",
          "type": "address"
        },
        {
          "internalType": "enum ZappsSocial.FollowMode",
          "name": "mode",
          "type": "uint8"
        }
      ],
      "name": "follow",
      "outputs": [],
      "stateMutability": "nonpayable",
      "type": "function"
    },
    {
      "inputs": [
        {
          "internalType": "address",
          "name": "user",
          "type": "address"
        }
      ],
      "name": "getEncryptedFollowerCount",
      "outputs": [
        {
          "internalType": "euint32",
          "name": "",
          "type": "bytes32"
        }
      ],
      "stateMutability": "view",
      "type": "function"
    },
    {
      "inputs": [
        {
          "internalType": "address",
          "name": "user",
          "type": "address"
        }
      ],
      "name": "getEncryptedFollowingCount",
      "outputs": [
        {
          "internalType": "euint32",
          "name": "",
          "type": "bytes32"
        }
      ],
      "stateMutability": "view",
      "type": "function"
    },
    {
      "inputs": [
        {
          "internalType": "bytes32",
          "name": "postId",
          "type": "bytes32"
        }
      ],
      "name": "getEncryptedVoteCounts",
      "outputs": [
        {
          "internalType": "euint32",
          "name": "",
          "type": "bytes32"
        },
        {
          "internalType": "euint32",
          "name": "",
          "type": "bytes32"
        }
      ],
      "stateMutability": "view",
      "type": "function"
    },
    {
      "inputs": [
        {
          "internalType": "address",
          "name": "follower",
          "type": "address"
        },
        {
          "internalType": "address",
          "name": "target",
          "type": "address"
        }
      ],
      "name": "getFollowMode",
      "outputs": [
        {
          "internalType": "enum ZappsSocial.FollowMode",
          "name": "",
          "type": "uint8"
        }
      ],
      "stateMutability": "view",
      "type": "function"
    },
    {
      "inputs": [
        {
          "internalType": "bytes32",
          "name": "postId",
          "type": "bytes32"
        }
      ],
      "name": "getPost",
      "outputs": [
        {
          "internalType": "address",
          "name": "author",
          "type": "address"
        },
        {
          "internalType": "bytes32",
          "name": "contentHash",
          "type": "bytes32"
        },
        {
          "internalType": "uint256",
          "name": "timestamp",
          "type": "uint256"
        },
        {
          "internalType": "enum ZappsSocial.PrivacyMode",
          "name": "privacyMode",
          "type": "uint8"
        },
        {
          "internalType": "uint32",
          "name": "upvotes",
          "type": "uint32"
        },
        {
          "internalType": "uint32",
          "name": "downvotes",
          "type": "uint32"
        },
        {
          "internalType": "bool",
          "name": "hasUserUpvoted",
          "type": "bool"
        },
        {
          "internalType": "bool",
          "name": "hasUserDownvoted",
          "type": "bool"
        }
      ],
      "stateMutability": "view",
      "type": "function"
    },
    {
      "inputs": [
        {
          "internalType": "address",
          "name": "user",
          "type": "address"
        }
      ],
      "name": "getPublicSocialCounts",
      "outputs": [
        {
          "internalType": "uint32",
          "name": "followers",
          "type": "uint32"
        },
        {
          "internalType": "uint32",
          "name": "following",
          "type": "uint32"
        }
      ],
      "stateMutability": "view",
      "type": "function"
    },
    {
      "inputs": [
        {
          "internalType": "uint256",
          "name": "count",
          "type": "uint256"
        }
      ],
      "name": "getRecentPosts",
      "outputs": [
        {
          "internalType": "bytes32[]",
          "name": "",
          "type": "bytes32[]"
        }
      ],
      "stateMutability": "view",
      "type": "function"
    },
    {
      "inputs": [],
      "name": "getTotalPosts",
      "outputs": [
        {
          "internalType": "uint256",
          "name": "",
          "type": "uint256"
        }
      ],
      "stateMutability": "view",
      "type": "function"
    },
    {
      "inputs": [
        {
          "internalType": "bytes32",
          "name": "",
          "type": "bytes32"
        },
        {
          "internalType": "address",
          "name": "",
          "type": "address"
        }
      ],
      "name": "hasDownvoted",
      "outputs": [
        {
          "internalType": "bool",
          "name": "",
          "type": "bool"
        }
      ],
      "stateMutability": "view",
      "type": "function"
    },
    {
      "inputs": [
        {
          "internalType": "bytes32",
          "name": "",
          "type": "bytes32"
        },
        {
          "internalType": "address",
          "name": "",
          "type": "address"
        }
      ],
      "name": "hasUpvoted",
      "outputs": [
        {
          "internalType": "bool",
          "name": "",
          "type": "bool"
        }
      ],
      "stateMutability": "view",
      "type": "function"
    },
    {
      "inputs": [],
      "name": "owner",
      "outputs": [
        {
          "internalType": "address",
          "name": "",
          "type": "address"
        }
      ],
      "stateMutability": "view",
      "type": "function"
    },
    {
      "inputs": [
        {
          "internalType": "bytes32",
          "name": "",
          "type": "bytes32"
        }
      ],
      "name": "posts",
      "outputs": [
        {
          "internalType": "address",
          "name": "author",
          "type": "address"
        },
        {
          "internalType": "bytes32",
          "name": "contentHash",
          "type": "bytes32"
        },
        {
          "internalType": "uint256",
          "name": "timestamp",
          "type": "uint256"
        },
        {
          "internalType": "enum ZappsSocial.PrivacyMode",
          "name": "privacyMode",
          "type": "uint8"
        },
        {
          "internalType": "uint16",
          "name": "minReputationRequired",
          "type": "uint16"
        },
        {
          "internalType": "euint32",
          "name": "encUpvotes",
          "type": "bytes32"
        },
        {
          "internalType": "euint32",
          "name": "encDownvotes",
          "type": "bytes32"
        },
        {
          "internalType": "uint32",
          "name": "pubUpvotes",
          "type": "uint32"
        },
        {
          "internalType": "uint32",
          "name": "pubDownvotes",
          "type": "uint32"
        },
        {
          "internalType": "bool",
          "name": "exists",
          "type": "bool"
        }
      ],
      "stateMutability": "view",
      "type": "function"
    },
    {
      "inputs": [
        {
          "internalType": "address",
          "name": "_reputation",
          "type": "address"
        }
      ],
      "name": "setZappsReputation",
      "outputs": [],
      "stateMutability": "nonpayable",
      "type": "function"
    },
    {
      "inputs": [
        {
          "internalType": "address",
          "name": "newOwner",
          "type": "address"
        }
      ],
      "name": "transferOwnership",
      "outputs": [],
      "stateMutability": "nonpayable",
      "type": "function"
    },
    {
      "inputs": [
        {
          "internalType": "address",
          "name": "target",
          "type": "address"
        }
      ],
      "name": "unfollow",
      "outputs": [],
      "stateMutability": "nonpayable",
      "type": "function"
    },
    {
      "inputs": [
        {
          "internalType": "bytes32",
          "name": "postId",
          "type": "bytes32"
        }
      ],
      "name": "upvote",
      "outputs": [],
      "stateMutability": "nonpayable",
      "type": "function"
    },
    {
      "inputs": [],
      "name": "zappsReputation",
      "outputs": [
        {
          "internalType": "address",
          "name": "",
          "type": "address"
        }
      ],
      "stateMutability": "view",
      "type": "function"
    }
  ],
  "bytecode": "0x6080604052346101e25761001161021c565b50466001036100fc5761002261021c565b5061002b6101e7565b6000815260006020820152600060408201525b80517f9e7b61f58c47dc699ac88507c4f5bb9f121c03808c5676a8078fe583e464970080546001600160a01b03199081166001600160a01b039384161790915560208301517f9e7b61f58c47dc699ac88507c4f5bb9f121c03808c5676a8078fe583e4649701805483169184169190911790556040928301517f9e7b61f58c47dc699ac88507c4f5bb9f121c03808c5676a8078fe583e4649702805483169190931617909155600080549091163317905551611841908161023a8239f35b4662aa36a7036101675761010e61021c565b506101176101e7565b73f0ffdc93b7e186bc2f8cb3daa75d86d1930a433d81527392c920834ec8941d2c77d188936e1f7a6f49c127602082015273be0e383937d564d7ff0bc3b46c51f0bf8d5c311a604082015261003e565b46617a69036101d15761017861021c565b506101816101e7565b7350157cffd6bbfa2dece204a89ec419c23ef5755d815273e3a9105a3a932253a70f126eb1e3b589c643dd24602082015273901f8942346f7ab3a01f6d7613119bca447bb030604082015261003e565b6373cac13b60e01b60005260046000fd5b600080fd5b60405190606082016001600160401b0381118382101761020657604052565b634e487b7160e01b600052604160045260246000fd5b6102246101e7565b9060008252600060208301526000604083015256fe6080604052600436101561001257600080fd5b6000803560e01c8063015a4ead146111c057806301d34c651461116657806327fc241414610ed85780633459704c14610eaf57806334d1bf2914610e555780633665aba114610df45780633899927d14610b1b5780635fe226b414610afd578063718ce2bc14610ac3578063764d64ff14610a775780638927b03014610a545780638da5cb5b14610a2d5780638ebb26c5146109f057806393e43bbe146108f257806394e183af1461089557806398ef65a514610839578063a34b368c146107ed578063a5b1f44d146105a0578063c2db5c3914610567578063c66a7ca71461043d578063dff72dec1461038d578063f2fde38b146102fa5763faa5fd031461011a57600080fd5b346102f75760203660031901126102f757600435808252600260205260ff600660408420015460401c16156102e857808252600860209081526040808420336000908152925290205460ff166102d95780825260026020526102296040832082845260076020526040842060018060a01b03331660005260205260ff60406000205416610259575b610221600660058301926101bf84546101b961147c565b906116b4565b845585875260086020526040872060018060a01b0333166000526020526040600020600160ff198254161790550161020063ffffffff825460201c16611415565b67ffffffff0000000082549160201b169067ffffffff000000001916179055565b54309061176c565b604051908282527fa7e4c5082f867ea22a45a95c2043209b9ce83d70ca31ccb947e67592ea14c4b160203393a380f35b61027d60048201610273815461026d61147c565b9061155d565b809155309061176c565b82845260076020908152604080862033600090815292529020805460ff1916905560068101805463ffffffff16806102b7575b50506101a2565b6102c563ffffffff916113ec565b1663ffffffff1982541617905538806102b0565b6316d7e35760e31b8252600482fd5b6392d921ed60e01b8252600482fd5b80fd5b50346102f75760203660031901126102f757610314611354565b81546001600160a01b038116913383900361037e576001600160a01b031691821561036f5782907f8934ce4adea8d9ce0d714d2c22b86790e41b7731c84b926fbbdc1d40ff6533c98580a36001600160a01b03191617815580f35b6349e27cff60e01b8452600484fd5b6330cd747160e01b8452600484fd5b50346102f75760203660031901126102f757604061014091600435815260026020522060ff60018060a01b0382541691600181015490600281015461ffff6003830154600484015492600660058601549501549560405198895260208901526040880152610400606088018783166113df565b60081c16608086015260a085015260c084015263ffffffff811660e084015263ffffffff8160201c1661010084015260401c161515610120820152f35b50346102f75760203660031901126102f75760043560095480821161055f575b9061046781611464565b90610475604051928361142c565b80825261048181611464565b602083019390601f1901368537600019810190808211865b8481106104e457878688604051928392602084019060208552518091526040840192915b8181106104cb575050500390f35b82518452859450602093840193909201916001016104bd565b8161054b578083036000190184811161053757610500906113ae565b90549060031b1c865182101561052357600582901b870160200152600101610499565b634e487b7160e01b89526032600452602489fd5b634e487b7160e01b89526011600452602489fd5b634e487b7160e01b88526011600452602488fd5b90508061045d565b50346102f75760203660031901126102f7576020906040906001600160a01b0361058f611354565b168152600383522054604051908152f35b50346102f75760203660031901126102f757600435808252600260205260ff600660408420015460401c16156102e857808252600760209081526040808420336000908152925290205460ff166107de5780825260026020908152604080842083855260088352818520336000908152935291205483929060ff16610779575b6106866004830161063481546101b961147c565b815582855260076020908152604080872033600090815292529020805460ff1916600117905560068401805463ffffffff90610671908216611415565b1663ffffffff1982541617905554309061176c565b60405190600182527fa7e4c5082f867ea22a45a95c2043209b9ce83d70ca31ccb947e67592ea14c4b160203393a36001546001600160a01b031690816106ca575050f35b546001600160a01b0316813b1561077557829160c48392604051948593849263973dde9160e01b8452600484015260806024840152600e60848401526d10d3d39511539517d49155d0549160921b60a4840152600560448401527f3c2519c4487d47714872f92cf90a50c25f5deaec2789dc2a497b1272df611db660648401525af1801561076a576107595750f35b816107639161142c565b6102f75780f35b6040513d84823e3d90fd5b5050fd5b61078d60058301610273815461026d61147c565b80835260086020908152604080852033600090815290835220805460ff1916905560068301805490911c63ffffffff1690816107cb575b5050610620565b6102006107d7926113ec565b38806107c4565b63291c946f60e11b8252600482fd5b50346102f75760403660031901126102f757604061080961136f565b9160043581526008602052209060018060a01b0316600052602052602060ff604060002054166040519015158152f35b50346102f75760203660031901126102f757600435808252600260205260ff600660408420015460401c16156102e857600560408383829552600260205260048282200154938152600260205220015482519182526020820152f35b50346102f75760203660031901126102f7576108af611354565b81546001600160a01b031633036108e35760018060a01b03166bffffffffffffffffffffffff60a01b600154161760015580f35b6330cd747160e01b8252600482fd5b50346102f75760203660031901126102f75760043590818152600260205260ff600660408320015460401c16156109e157816101009282526002602052604082209063ffffffff60018060a01b03835416936109c060018501549460028101546040600660ff60038501541693015494878152600760205281812060018060a01b03331660005260205260ff82600020541697815260086020522060018060a01b03331660005260205260ff60406000205416966040519889526020890152604088015260608701906113df565b818116608086015260201c1660a0840152151560c0830152151560e0820152f35b6392d921ed60e01b8152600490fd5b50346102f75760203660031901126102f7576020906001906040906001600160a01b03610a1b611354565b16815260038452200154604051908152f35b50346102f757806003193601126102f757546040516001600160a01b039091168152602090f35b50346102f757806003193601126102f7576020610a6f61173b565b604051908152f35b50346102f75760403660031901126102f7576040610a9361136f565b9160043581526007602052209060018060a01b0316600052602052602060ff604060002054166040519015158152f35b50346102f75760203660031901126102f757600435906009548210156102f7576020610aee836113ae565b90549060031b1c604051908152f35b50346102f757806003193601126102f7576020600954604051908152f35b50346102f75760603660031901126102f75760043567ffffffffffffffff8111610db65736602382011215610db65780600401359067ffffffffffffffff8211610df0573660248383010111610df057602435906004821015610dec576044359261ffff84168403610de85784602060405192610ba182601f19601f840116018561142c565b808452806024838601960186378301015251902060405160208101903360601b825282603482015242605482015260548152610bde60748261142c565b51902092838552600260205260ff600660408720015460401c16610dd95790610c969184865260026020526040862091336bffffffffffffffffffffffff60a01b8454161783556001830155426002830155600382019062ffff0082549160081b169060ff86169062ffffff191617179055610c8e610c5b611508565b600483019081556006610c6c611508565b600585019081559301805460ff60401b1916600160401b17905554309061176c565b30905461176c565b600954600160401b811015610dc557806001610cb592016009556113ae565b81549060031b9084821b91600019901b1916179055610cd760405180926113df565b426020820152817fb7a9dfbdcb8da40d78defd6a268dd0f6ab926ce5fac21ca7ae54ede0e1aa5ee760403393a36001546001600160a01b031680610d21575b602082604051908152f35b8083913b15610db657819060c46040518094819363973dde9160e01b835233600484015260806024840152600b60848401526a504f53545f43524541544560a81b60a4840152601460448401527f88c66d6c4841eda37d335c6bacda17221b192eb491233cf4b983d8b4d79ff7f960648401525af18015610dba5715610d1657610dac83809261142c565b610db65781610d16565b5080fd5b6040513d85823e3d90fd5b634e487b7160e01b84526041600452602484fd5b630113e0f160e11b8552600485fd5b8480fd5b8380fd5b8280fd5b50346102f75760403660031901126102f7576040610e10611354565b91610e1961136f565b9260018060a01b031681526004602052209060018060a01b0316600052602052610e5160ff6040600020541660405191829182611385565b0390f35b50346102f75760403660031901126102f7576040610e71611354565b91610e7a61136f565b9260018060a01b031681526005602052209060018060a01b0316600052602052602060ff604060002054166040519015158152f35b50346102f757806003193601126102f7576001546040516001600160a01b039091168152602090f35b50346102f75760403660031901126102f757610ef2611354565b6024356003811015610df0576001600160a01b038216918215801561115d575b61114e5733845260056020526040842083855260205260ff60408520541661113f5780610f41611056926115e4565b610f4a336115e4565b838552600360205261104e604086209133875260036020526040872092610f7481546101b961147c565b8155610fc460026001860195610f8d87546101b961147c565b875581840163ffffffff610fa381835416611415565b1663ffffffff198254161790550161020063ffffffff825460201c16611415565b33885260056020526040882087895260205260408820600160ff1982541617905586885260066020526040882060018060a01b033316895260205260408820600160ff198254161790553388526004602052604088208789526020526040882060ff1981541660ff881617905561103d8154309061176c565b61104830855461176c565b5461176c565b33905461176c565b7f3f724849b292d2223c81c8933ab2de14a98a01148e2e0fc997280c5e1844ea1c60405180611086339482611385565b0390a360015481906001600160a01b03168061109f5750f35b803b1561113c5781809160c46040518095819363973dde9160e01b835233600484015260806024840152600d60848401526c534f4349414c5f454e4741474560981b60a4840152600560448401527f88c66d6c4841eda37d335c6bacda17221b192eb491233cf4b983d8b4d79ff7f960648401525af1801561112f57611123579050f35b61112c9161142c565b80f35b50604051903d90823e3d90fd5b50fd5b63118c13c960e21b8452600484fd5b63416aebb560e11b8452600484fd5b50338314610f12565b50346102f75760203660031901126102f75760409063ffffffff6002836001600160a01b03611193611354565b169384815260036020528383838320015416948152600360205220015460201c1682519182526020820152f35b50346102f75760203660031901126102f7576111da611354565b3382526005602090815260408084206001600160a01b038416855290915282205460ff1615611345576112e860018060a01b03821691828452600360205261104e60408520913386526003602052604086209261123a815461026d61147c565b815560026001850194611250865461026d61147c565b865581830163ffffffff81541680611323575b50500163ffffffff815460201c169081611310575b50503387526005602052604087208688526020526040872060ff19815416905585875260066020526040872060018060a01b03331688526020526040872060ff1981541690553387526004602052604087208688526020526040872060ff19815416905561103d8154309061176c565b337f25b48012798806863072289354ed0b3849b73152482d9c6694e5cbb35f38d5e38380a380f35b61020061131c926113ec565b3880611278565b61133163ffffffff916113ec565b1663ffffffff198254161790553880611263565b6322d9eef360e21b8252600482fd5b600435906001600160a01b038216820361136a57565b600080fd5b602435906001600160a01b038216820361136a57565b9190602083019260038210156113985752565b634e487b7160e01b600052602160045260246000fd5b6009548110156113c957600960005260206000200190600090565b634e487b7160e01b600052603260045260246000fd5b9060048210156113985752565b63ffffffff1680156113ff576000190190565b634e487b7160e01b600052601160045260246000fd5b63ffffffff1663ffffffff81146113ff5760010190565b90601f8019910116810190811067ffffffffffffffff82111761144e57604052565b634e487b7160e01b600052604160045260246000fd5b67ffffffffffffffff811161144e5760051b60200190565b6000602060018060a01b036000805160206117ec8339815191525416604460405180948193639cd07acb60e01b835260016004840152600460248401525af19081156114fc576000916114cd575090565b90506020813d6020116114f4575b816114e86020938361142c565b8101031261136a575190565b3d91506114db565b6040513d6000823e3d90fd5b6000805160206117ec83398151915254604051639cd07acb60e01b81526000600480830182905260248301529091602091839160449183916001600160a01b03165af19081156114fc576000916114cd575090565b9081156115d4575b80156115c2575b602090606460018060a01b036000805160206117ec833981519152541693600060405195869485936303056db360e31b8552600485015260248401528160448401525af19081156114fc576000916114cd575090565b5060206115cd611508565b905061156c565b90506115de611508565b90611565565b60018060a01b0381169081600052600360205260ff60026040600020015460401c161561160f575050565b6116b29161161b611508565b816000526003602052604060002055611632611508565b6000828152600360205260409020600181019190915560028101805460ff60401b1916600160401b1790555461166990309061176c565b8060005260036020526116843060016040600020015461176c565b80600052600360205261169c8260406000205461176c565b600052600360205260016040600020015461176c565b565b90811561172b575b8015611719575b602090606460018060a01b036000805160206117ec8339815191525416936000604051958694859363022f65e760e31b8552600485015260248401528160448401525af19081156114fc576000916114cd575090565b506020611724611508565b90506116c3565b9050611735611508565b906116bc565b4660010361174857600190565b4662aa36a7036117585761271190565b617a69461461176657600090565b60001990565b7f9e7b61f58c47dc699ac88507c4f5bb9f121c03808c5676a8078fe583e4649700546000926001600160a01b0390911691823b15610dec579060448492836040519586948593635ca4b5b160e11b8552600485015260018060a01b031660248401525af1801561076a576117de575050565b816117e89161142c565b5056fe9e7b61f58c47dc699ac88507c4f5bb9f121c03808c5676a8078fe583e4649701a2646970667358221220f51fbf5be9a667c2fd1c2a8c47123d8017f4227c9ebef20f9aea7c08e6a3cf6d64736f6c634300081b0033",
  "linkReferences": {},
  "deployedLinkReferences": {}
}