{
  "_format": "hh-sol-artifact-1",
  "contractName": "ZappsRegistry",
  "sourceName": "contracts/ZappsRegistry.sol",
  "abi": [
    {
      "inputs": [],
      "stateMutability": "nonpayable",
      "type": "constructor"
    },
    {
      "inputs": [],
      "name": "ContractAlreadyExists",
      "type": "error"
    },
    {
      "inputs": [],
      "name": "ContractInactive",
      "type": "error"
    },
    {
      "inputs": [],
      "name": "ContractNotFound",
      "type": "error"
    },
    {
      "inputs": [],
      "name": "InvalidAddress",
      "type": "error"
    },
    {
      "inputs": [],
      "name": "NotAuthorized",
      "type": "error"
    },
    {
      "inputs": [],
      "name": "NotOwner",
      "type": "error"
    },
    {
      "anonymous": false,
      "inputs": [
        {
          "indexed": true,
          "internalType": "bytes32",
          "name": "key",
          "type": "bytes32"
        }
      ],
      "name": "ContractDeactivated",
      "type": "event"
    },
    {
      "anonymous": false,
      "inputs": [
        {
          "indexed": true,
          "internalType": "bytes32",
          "name": "key",
          "type": "bytes32"
        }
      ],
      "name": "ContractReactivated",
      "type": "event"
    },
    {
      "anonymous": false,
      "inputs": [
        {
          "indexed": true,
          "internalType": "bytes32",
          "name": "key",
          "type": "bytes32"
        },
        {
          "indexed": true,
          "internalType": "address",
          "name": "contractAddress",
          "type": "address"
        },
        {
          "indexed": false,
          "internalType": "string",
          "name": "name",
          "type": "string"
        }
      ],
      "name": "ContractRegistered",
      "type": "event"
    },
    {
      "anonymous": false,
      "inputs": [
        {
          "indexed": true,
          "internalType": "bytes32",
          "name": "key",
          "type": "bytes32"
        },
        {
          "indexed": true,
          "internalType": "address",
          "name": "oldAddress",
          "type": "address"
        },
        {
          "indexed": true,
          "internalType": "address",
          "name": "newAddress",
          "type": "address"
        }
      ],
      "name": "ContractUpdated",
      "type": "event"
    },
    {
      "anonymous": false,
      "inputs": [
        {
          "indexed": true,
          "internalType": "address",
          "name": "deployer",
          "type": "address"
        },
        {
          "indexed": false,
          "internalType": "bool",
          "name": "status",
          "type": "bool"
        }
      ],
      "name": "DeployerAuthorized",
      "type": "event"
    },
    {
      "anonymous": false,
      "inputs": [
        {
          "indexed": true,
          "internalType": "address",
          "name": "oldOwner",
          "type": "address"
        },
        {
          "indexed": true,
          "internalType": "address",
          "name": "newOwner",
          "type": "address"
        }
      ],
      "name": "OwnerTransferred",
      "type": "event"
    },
    {
      "inputs": [],
      "name": "ACCESS_CONTROLLER",
      "outputs": [
        {
          "internalType": "bytes32",
          "name": "",
          "type": "bytes32"
        }
      ],
      "stateMutability": "view",
      "type": "function"
    },
    {
      "inputs": [],
      "name": "AUCTION",
      "outputs": [
        {
          "internalType": "bytes32",
          "name": "",
          "type": "bytes32"
        }
      ],
      "stateMutability": "view",
      "type": "function"
    },
    {
      "inputs": [],
      "name": "DISCUSSION",
      "outputs": [
        {
          "internalType": "bytes32",
          "name": "",
          "type": "bytes32"
        }
      ],
      "stateMutability": "view",
      "type": "function"
    },
    {
      "inputs": [],
      "name": "GOVERNANCE",
      "outputs": [
        {
          "internalType": "bytes32",
          "name": "",
          "type": "bytes32"
        }
      ],
      "stateMutability": "view",
      "type": "function"
    },
    {
      "inputs": [],
      "name": "REPUTATION",
      "outputs": [
        {
          "internalType": "bytes32",
          "name": "",
          "type": "bytes32"
        }
      ],
      "stateMutability": "view",
      "type": "function"
    },
    {
      "inputs": [],
      "name": "REWARDS",
      "outputs": [
        {
          "internalType": "bytes32",
          "name": "",
          "type": "bytes32"
        }
      ],
      "stateMutability": "view",
      "type": "function"
    },
    {
      "inputs": [],
      "name": "SOCIAL",
      "outputs": [
        {
          "internalType": "bytes32",
          "name": "",
          "type": "bytes32"
        }
      ],
      "stateMutability": "view",
      "type": "function"
    },
    {
      "inputs": [],
      "name": "TOKEN",
      "outputs": [
        {
          "internalType": "bytes32",
          "name": "",
          "type": "bytes32"
        }
      ],
      "stateMutability": "view",
      "type": "function"
    },
    {
      "inputs": [],
      "name": "VOTING",
      "outputs": [
        {
          "internalType": "bytes32",
          "name": "",
          "type": "bytes32"
        }
      ],
      "stateMutability": "view",
      "type": "function"
    },
    {
      "inputs": [
        {
          "internalType": "address",
          "name": "deployer",
          "type": "address"
        },
        {
          "internalType": "bool",
          "name": "status",
          "type": "bool"
        }
      ],
      "name": "authorizeDeployer",
      "outputs": [],
      "stateMutability": "nonpayable",
      "type": "function"
    },
    {
      "inputs": [
        {
          "internalType": "address",
          "name": "",
          "type": "address"
        }
      ],
      "name": "authorizedDeployers",
      "outputs": [
        {
          "internalType": "bool",
          "name": "",
          "type": "bool"
        }
      ],
      "stateMutability": "view",
      "type": "function"
    },
    {
      "inputs": [
        {
          "internalType": "uint256",
          "name": "",
          "type": "uint256"
        }
      ],
      "name": "contractKeys",
      "outputs": [
        {
          "internalType": "bytes32",
          "name": "",
          "type": "bytes32"
        }
      ],
      "stateMutability": "view",
      "type": "function"
    },
    {
      "inputs": [
        {
          "internalType": "bytes32",
          "name": "",
          "type": "bytes32"
        }
      ],
      "name": "contracts",
      "outputs": [
        {
          "internalType": "address",
          "name": "contractAddress",
          "type": "address"
        },
        {
          "internalType": "string",
          "name": "name",
          "type": "string"
        },
        {
          "internalType": "string",
          "name": "version",
          "type": "string"
        },
        {
          "internalType": "bool",
          "name": "isActive",
          "type": "bool"
        },
        {
          "internalType": "uint256",
          "name": "deployedAt",
          "type": "uint256"
        },
        {
          "internalType": "uint256",
          "name": "updatedAt",
          "type": "uint256"
        }
      ],
      "stateMutability": "view",
      "type": "function"
    },
    {
      "inputs": [
        {
          "internalType": "bytes32",
          "name": "key",
          "type": "bytes32"
        }
      ],
      "name": "deactivateContract",
      "outputs": [],
      "stateMutability": "nonpayable",
      "type": "function"
    },
    {
      "inputs": [],
      "name": "getAccessControllerAddress",
      "outputs": [
        {
          "internalType": "address",
          "name": "",
          "type": "address"
        }
      ],
      "stateMutability": "view",
      "type": "function"
    },
    {
      "inputs": [
        {
          "internalType": "bytes32",
          "name": "key",
          "type": "bytes32"
        }
      ],
      "name": "getActiveContractAddress",
      "outputs": [
        {
          "internalType": "address",
          "name": "",
          "type": "address"
        }
      ],
      "stateMutability": "view",
      "type": "function"
    },
    {
      "inputs": [],
      "name": "getActiveContracts",
      "outputs": [
        {
          "internalType": "bytes32[]",
          "name": "keys",
          "type": "bytes32[]"
        },
        {
          "internalType": "address[]",
          "name": "addresses",
          "type": "address[]"
        },
        {
          "internalType": "string[]",
          "name": "names",
          "type": "string[]"
        }
      ],
      "stateMutability": "view",
      "type": "function"
    },
    {
      "inputs": [],
      "name": "getAllContractKeys",
      "outputs": [
        {
          "internalType": "bytes32[]",
          "name": "",
          "type": "bytes32[]"
        }
      ],
      "stateMutability": "view",
      "type": "function"
    },
    {
      "inputs": [],
      "name": "getAuctionAddress",
      "outputs": [
        {
          "internalType": "address",
          "name": "",
          "type": "address"
        }
      ],
      "stateMutability": "view",
      "type": "function"
    },
    {
      "inputs": [
        {
          "internalType": "bytes32",
          "name": "key",
          "type": "bytes32"
        }
      ],
      "name": "getContract",
      "outputs": [
        {
          "internalType": "address",
          "name": "contractAddress",
          "type": "address"
        },
        {
          "internalType": "string",
          "name": "name",
          "type": "string"
        },
        {
          "internalType": "string",
          "name": "version",
          "type": "string"
        },
        {
          "internalType": "bool",
          "name": "isActive",
          "type": "bool"
        },
        {
          "internalType": "uint256",
          "name": "deployedAt",
          "type": "uint256"
        },
        {
          "internalType": "uint256",
          "name": "updatedAt",
          "type": "uint256"
        }
      ],
      "stateMutability": "view",
      "type": "function"
    },
    {
      "inputs": [
        {
          "internalType": "bytes32",
          "name": "key",
          "type": "bytes32"
        }
      ],
      "name": "getContractAddress",
      "outputs": [
        {
          "internalType": "address",
          "name": "",
          "type": "address"
        }
      ],
      "stateMutability": "view",
      "type": "function"
    },
    {
      "inputs": [],
      "name": "getDiscussionAddress",
      "outputs": [
        {
          "internalType": "address",
          "name": "",
          "type": "address"
        }
      ],
      "stateMutability": "view",
      "type": "function"
    },
    {
      "inputs": [],
      "name": "getGovernanceAddress",
      "outputs": [
        {
          "internalType": "address",
          "name": "",
          "type": "address"
        }
      ],
      "stateMutability": "view",
      "type": "function"
    },
    {
      "inputs": [],
      "name": "getReputationAddress",
      "outputs": [
        {
          "internalType": "address",
          "name": "",
          "type": "address"
        }
      ],
      "stateMutability": "view",
      "type": "function"
    },
    {
      "inputs": [],
      "name": "getRewardsAddress",
      "outputs": [
        {
          "internalType": "address",
          "name": "",
          "type": "address"
        }
      ],
      "stateMutability": "view",
      "type": "function"
    },
    {
      "inputs": [],
      "name": "getSocialAddress",
      "outputs": [
        {
          "internalType": "address",
          "name": "",
          "type": "address"
        }
      ],
      "stateMutability": "view",
      "type": "function"
    },
    {
      "inputs": [],
      "name": "getTokenAddress",
      "outputs": [
        {
          "internalType": "address",
          "name": "",
          "type": "address"
        }
      ],
      "stateMutability": "view",
      "type": "function"
    },
    {
      "inputs": [],
      "name": "getVotingAddress",
      "outputs": [
        {
          "internalType": "address",
          "name": "",
          "type": "address"
        }
      ],
      "stateMutability": "view",
      "type": "function"
    },
    {
      "inputs": [
        {
          "internalType": "bytes32",
          "name": "key",
          "type": "bytes32"
        }
      ],
      "name": "isContractActive",
      "outputs": [
        {
          "internalType": "bool",
          "name": "",
          "type": "bool"
        }
      ],
      "stateMutability": "view",
      "type": "function"
    },
    {
      "inputs": [],
      "name": "owner",
      "outputs": [
        {
          "internalType": "address",
          "name": "",
          "type": "address"
        }
      ],
      "stateMutability": "view",
      "type": "function"
    },
    {
      "inputs": [
        {
          "internalType": "bytes32",
          "name": "key",
          "type": "bytes32"
        }
      ],
      "name": "reactivateContract",
      "outputs": [],
      "stateMutability": "nonpayable",
      "type": "function"
    },
    {
      "inputs": [
        {
          "internalType": "bytes32",
          "name": "key",
          "type": "bytes32"
        },
        {
          "internalType": "address",
          "name": "contractAddress",
          "type": "address"
        },
        {
          "internalType": "string",
          "name": "name",
          "type": "string"
        },
        {
          "internalType": "string",
          "name": "version",
          "type": "string"
        }
      ],
      "name": "registerContract",
      "outputs": [],
      "stateMutability": "nonpayable",
      "type": "function"
    },
    {
      "inputs": [],
      "name": "totalContracts",
      "outputs": [
        {
          "internalType": "uint256",
          "name": "",
          "type": "uint256"
        }
      ],
      "stateMutability": "view",
      "type": "function"
    },
    {
      "inputs": [
        {
          "internalType": "address",
          "name": "newOwner",
          "type": "address"
        }
      ],
      "name": "transferOwnership",
      "outputs": [],
      "stateMutability": "nonpayable",
      "type": "function"
    },
    {
      "inputs": [
        {
          "internalType": "bytes32",
          "name": "key",
          "type": "bytes32"
        },
        {
          "internalType": "address",
          "name": "newAddress",
          "type": "address"
        },
        {
          "internalType": "string",
          "name": "newVersion",
          "type": "string"
        }
      ],
      "name": "updateContract",
      "outputs": [],
      "stateMutability": "nonpayable",
      "type": "function"
    }
  ],
  "bytecode": "0x60808060405234603f57600080546001600160a01b0319163390811782558152600360205260409020805460ff1916600117905561189c90816100458239f35b600080fdfe6080604052600436101561001257600080fd5b60003560e01c8063022edd351461129c578063048ba0d61461126857806306f980ac146111d75780630d2020dd1461118957806310d9042e146110fe57806310fe9ae81461108e57806314627834146110535780631b8b107314611018578063269e1d1a14610fdd57806341f7ad7814610f6d57806344f7c72f14610da757806363779c7414610d6c57806367d48f6614610d31578063684946bc14610cf657806368c16c6f14610c5d578063694ca8ab14610bed5780636d6913681461081157806373252494146107a15780637ae5ef121461076657806382bfefc81461072b578063865f38ae146106bb5780638b9ca8851461064b5780638da5cb5b146106225780639885a9a0146105c6578063a09037a9146105a8578063c0034e0c1461056d578063c1cc092b146104d1578063d42ab69c14610492578063de6bd6871461045a578063e0e89000146103ea578063e16c7d9814610385578063ec56a3731461031a578063f037ee71146102aa578063f2fde38b146102125763fd30121b1461019d57600080fd5b3461020d57600036600319011261020d577fb272b255af9ebc4e3c4c228fe6e29bf8bdbd956cdedc5428fa50147d4bda2f87600052600160209081527fe7b3d2f3510e89d827a853fd19945c184366a00764871a99e0569252b733e77a546040516001600160a01b039091168152f35b600080fd5b3461020d57602036600319011261020d5761022b6115bf565b6000546001600160a01b0381169133839003610299576001600160a01b03169182156102885782907f8934ce4adea8d9ce0d714d2c22b86790e41b7731c84b926fbbdc1d40ff6533c9600080a36001600160a01b03191617600055005b63e6c4247b60e01b60005260046000fd5b6330cd747160e01b60005260046000fd5b3461020d57600036600319011261020d577f7cbb12e82a6d63ff16fe43977f43e3e2b247ecd4e62c0e340da8800a48c67346600052600160209081527f91537d435ddeb9be99cff65ede8bd2321e24aa5d7c6d73ec5b2aa842f15be4db546040516001600160a01b039091168152f35b3461020d57602036600319011261020d576004356000526001602052604060002060018060a01b03815416610381610354600184016116d8565b92610361600282016116d8565b9060ff600382015416600560048301549201549260405196879687611634565b0390f35b3461020d57602036600319011261020d576004356000526001602052604060002060018060a01b0381541661038160ff60038401541660048401546005850154916103de60026103d7600189016116d8565b97016116d8565b60405196879687611634565b3461020d57600036600319011261020d577f41a998b42530cff8f40cf375b6a586aeb2b2a8285995d3b4fb404116be349d78600052600160209081527f464deb8e3b05aecc7fc42869195692f86d7a787c1e2d431dbf916c3943e001fa546040516001600160a01b039091168152f35b3461020d57602036600319011261020d5760043560025481101561020d57610483602091611603565b90549060031b1c604051908152f35b3461020d57602036600319011261020d576001600160a01b036104b36115bf565b166000526003602052602060ff604060002054166040519015158152f35b3461020d57602036600319011261020d57600054600435906001600160a01b03163303610299576000818152600160205260409020546001600160a01b03161561055c57600081815260016020526040812060038101805460ff19169055426005909101557f1e99bd728137b74b4565b99c2285a496d13cb7f6b10c2432c6c4c51007850b3f9080a2005b633b56498960e21b60005260046000fd5b3461020d57600036600319011261020d5760206040517f41a998b42530cff8f40cf375b6a586aeb2b2a8285995d3b4fb404116be349d788152f35b3461020d57600036600319011261020d576020600254604051908152f35b3461020d57602036600319011261020d57600435600090815260016020526040902080546001600160a01b031690811561055c576003015460ff161561061157602090604051908152f35b631c7f48c960e31b60005260046000fd5b3461020d57600036600319011261020d576000546040516001600160a01b039091168152602090f35b3461020d57600036600319011261020d577f2a86bfecab7c1dc1a00b694d14a5a3c91a3ce748c12f853f875c4c7b4b254eb7600052600160209081527f06b367e69406f22e06eb1a83ffc48df1f157e51140e1f18b3f7ade1d9f9a252a546040516001600160a01b039091168152f35b3461020d57600036600319011261020d577fa7fb5de6bd5647445a6d1a153bdf7cf7a431ae74bc2e7d100614239a4956e725600052600160209081527f286ac0f2350ddca1d660b3f777ce4184d8ff15ca4b4fe9b233f9b4fa600b5c46546040516001600160a01b039091168152f35b3461020d57600036600319011261020d5760206040517f96706879d29c248edfb2a2563a8a9d571c49634c0f82013e6f5a7cde739d35d48152f35b3461020d57600036600319011261020d5760206040517fa7fb5de6bd5647445a6d1a153bdf7cf7a431ae74bc2e7d100614239a4956e7258152f35b3461020d57600036600319011261020d577f35a7846a2a701fff6f9d61a46ebff5da578c5dcee8bdf361c569f9ea4ee64771600052600160209081527fb362ad12718a050f496360835a03255b1ac715ba74ff1c18876652b6e71032ad546040516001600160a01b039091168152f35b3461020d57608036600319011261020d5760043561082d6115a9565b9060443567ffffffffffffffff811161020d5761084e9036906004016115d5565b60643567ffffffffffffffff811161020d5761086e9036906004016115d5565b9460018060a01b036000541633141580610bd4575b610bc3576001600160a01b0316948515610288576000858152600160205260409020546001600160a01b0316610bb2576040519160c083019083821067ffffffffffffffff831117610aaf576108f3916040528784526108e436868861181f565b9260208501938452369161181f565b6040838101918252600160608501818152426080870181815260a0880191825260008b8152602085905294909420965187546001600160a01b0319166001600160a01b0391909116178755945180519394919391928701919067ffffffffffffffff8211610aaf5761096f82610969855461167c565b856117cd565b602090601f8311600114610b4b576109a0929160009183610b40575b50508160011b916000199060031b1c19161790565b90555b518051600286019167ffffffffffffffff8211610aaf576109c882610969855461167c565b602090601f8311600114610ad05782600597969593610a1d9593610a0293600092610ac55750508160011b916000199060031b1c19161790565b90555b511515600386019060ff801983541691151516179055565b5160048401555191015560025468010000000000000000811015610aaf577f4fe772ef114ac9c771a8dec15745a12786f8fe1d41658bee683ce7cd54eca29e92610a6f82600160409401600255611603565b81549060031b9087821b91600019901b191617905582825193849260208452816020850152848401376000828201840152601f01601f19168101030190a3005b634e487b7160e01b600052604160045260246000fd5b015190508e8061098b565b90601f1983169184600052816000209260005b818110610b28575092600192859260059a999896610a1d989610610b0f575b505050811b019055610a05565b015160001960f88460031b161c191690558d8080610b02565b92936020600181928786015181550195019301610ae3565b015190508d8061098b565b90601f1983169184600052816000209260005b818110610b9a5750908460019594939210610b81575b505050811b0190556109a3565b015160001960f88460031b161c191690558c8080610b74565b92936020600181928786015181550195019301610b5e565b63e8dc2ba560e01b60005260046000fd5b63ea8e4eb560e01b60005260046000fd5b5033600052600360205260ff6040600020541615610883565b3461020d57600036600319011261020d577fe213b6c5652cc15217a08c7bcdf4f3f247cfc6ce535765872785dbe8cf055c9a600052600160209081527f5d07c4ae0229947067a03d7eb95ffb9b02d21541e6f029793a38a4be7629f5c5546040516001600160a01b039091168152f35b3461020d57604036600319011261020d57610c766115bf565b602435908115159081830361020d576000546001600160a01b03163303610299576001600160a01b0316918215610288577ffa27fcd166190505684063d08e30b8ccd6e8d6fa57ff7cb8540164a4b65a128e91610ced602092856000526003845260406000209060ff801983541691151516179055565b604051908152a2005b3461020d57600036600319011261020d5760206040517f88c66d6c4841eda37d335c6bacda17221b192eb491233cf4b983d8b4d79ff7f98152f35b3461020d57600036600319011261020d5760206040517fb272b255af9ebc4e3c4c228fe6e29bf8bdbd956cdedc5428fa50147d4bda2f878152f35b3461020d57600036600319011261020d5760206040517f2a86bfecab7c1dc1a00b694d14a5a3c91a3ce748c12f853f875c4c7b4b254eb78152f35b3461020d57606036600319011261020d57600435610dc36115a9565b9060443567ffffffffffffffff811161020d57610de49036906004016115d5565b91909260018060a01b036000541633141580610f54575b610bc3576001600160a01b0316928315610288576000828152600160205260409020546001600160a01b03161561055c57600082815260016020526040902080546001600160a01b03198116861782556001600160a01b03169360029091019167ffffffffffffffff8211610aaf57610e7882610969855461167c565b600090601f8311600114610ef057610ea8929160009183610ee55750508160011b916000199060031b1c19161790565b90555b806000526001602052426005604060002001557ff8a6175bca1ba37d682089187edc5e20a859989727f10ca6bd9a5bc0de8caf94600080a4005b01359050878061098b565b8382526020822091601f198416815b818110610f3c5750908460019594939210610f22575b505050811b019055610eab565b0135600019600384901b60f8161c19169055868080610f15565b91936020600181928787013581550195019201610eff565b5033600052600360205260ff6040600020541615610dfb565b3461020d57600036600319011261020d577f88c66d6c4841eda37d335c6bacda17221b192eb491233cf4b983d8b4d79ff7f9600052600160209081527f7e4ba8567a806973707a245c1fed54ff22c824017a7bfb798529776471e1afb3546040516001600160a01b039091168152f35b3461020d57600036600319011261020d5760206040517f7cbb12e82a6d63ff16fe43977f43e3e2b247ecd4e62c0e340da8800a48c673468152f35b3461020d57600036600319011261020d5760206040517fe213b6c5652cc15217a08c7bcdf4f3f247cfc6ce535765872785dbe8cf055c9a8152f35b3461020d57600036600319011261020d5760206040517f35a7846a2a701fff6f9d61a46ebff5da578c5dcee8bdf361c569f9ea4ee647718152f35b3461020d57600036600319011261020d577f96706879d29c248edfb2a2563a8a9d571c49634c0f82013e6f5a7cde739d35d4600052600160209081527fedf024e625af2826f8f0a775c8aad10ef0de40036ba2027bfc89e3a74f8948aa546040516001600160a01b039091168152f35b3461020d57600036600319011261020d5760405180602060025491828152019060026000527f405787fa12a823e0f2b7631cc41b3ba8828b3321ca811111fa75cd3aa3bb5ace9060005b818110611173576103818561115f818703826116b6565b604051918291602083526020830190611534565b8254845260209093019260019283019201611148565b3461020d57602036600319011261020d5760043580600052600160205260ff6003604060002001541615610611576000526001602052602060018060a01b0360406000205416604051908152f35b3461020d57602036600319011261020d57600054600435906001600160a01b03163303610299576000818152600160205260409020546001600160a01b03161561055c576000818152600160208190526040822060038101805460ff1916909217909155426005909101557f4c019a16f2478939bcab4f4e207ad2bdfdf08ed1e65ac2d858dec7aafbb8ae449080a2005b3461020d57602036600319011261020d576004356000526001602052602060ff600360406000200154166040519015158152f35b3461020d57600036600319011261020d576002546000805b8281106114ef57506112c5816117a1565b916112d360405193846116b6565b818352601f196112e2836117a1565b013660208501376112f2826117a1565b6112ff60405191826116b6565b82815261130b836117a1565b602082019290601f1901368437611321846117a1565b9361132f60405195866116b6565b80855261133e601f19916117a1565b0160005b8181106114de5750506000805b82811061141357611373878787876020604051958695606087526060870190611534565b9185830382870152519182815201919060005b8181106113f1575050508281036040840152815180825260208201916020808360051b8301019401926000915b8383106113c05786860387f35b9193955091936020806113df600193601f198682030187528951611568565b970193019301909286959492936113b3565b82516001600160a01b0316845286955060209384019390920191600101611386565b61141c81611603565b90549060031b1c600052600160205260ff60036040600020015416611444575b60010161134f565b906114d660019161145484611603565b90549060031b1c611465828b6117b9565b5261146f84611603565b90549060031b1c60005282602052828060a01b036040600020541661149482886117b9565b5261149e84611603565b90549060031b1c600052826020526114bb836040600020016116d8565b6114c5828a6117b9565b526114d081896117b9565b5061177c565b91905061143c565b806060602080938901015201611342565b6114f881611603565b90549060031b1c600052600160205260ff60036040600020015416611520575b6001016112b4565b9061152c60019161177c565b919050611518565b906020808351928381520192019060005b8181106115525750505090565b8251845260209384019390920191600101611545565b919082519283825260005b848110611594575050826000602080949584010152601f8019910116010190565b80602080928401015182828601015201611573565b602435906001600160a01b038216820361020d57565b600435906001600160a01b038216820361020d57565b9181601f8401121561020d5782359167ffffffffffffffff831161020d576020838186019501011161020d57565b60025481101561161e57600260005260206000200190600090565b634e487b7160e01b600052603260045260246000fd5b9261165d60a0959897969361166b93600180891b0316865260c0602087015260c0860190611568565b908482036040860152611568565b951515606083015260808201520152565b90600182811c921680156116ac575b602083101461169657565b634e487b7160e01b600052602260045260246000fd5b91607f169161168b565b90601f8019910116810190811067ffffffffffffffff821117610aaf57604052565b90604051918260008254926116ec8461167c565b808452936001811690811561175a5750600114611713575b50611711925003836116b6565b565b90506000929192526020600020906000915b81831061173e5750509060206117119282010138611704565b6020919350806001915483858901015201910190918492611725565b90506020925061171194915060ff191682840152151560051b82010138611704565b600019811461178b5760010190565b634e487b7160e01b600052601160045260246000fd5b67ffffffffffffffff8111610aaf5760051b60200190565b805182101561161e5760209160051b010190565b601f82116117da57505050565b6000526020600020906020601f840160051c83019310611815575b601f0160051c01905b818110611809575050565b600081556001016117fe565b90915081906117f5565b92919267ffffffffffffffff8211610aaf5760405191611849601f8201601f1916602001846116b6565b82948184528183011161020d57828160209384600096013701015256fea26469706673582212206778aea45def857ae5398ff070c5890faec5c24601b9affc4bd34232fb4fbd3464736f6c634300081b0033",
  "linkReferences": {},
  "deployedLinkReferences": {}
}