{
  "_format": "hh-sol-artifact-1",
  "contractName": "ZappsAuction",
  "sourceName": "contracts/ZappsAuction.sol",
  "abi": [
    {
      "inputs": [
        {
          "internalType": "address",
          "name": "_zappsToken",
          "type": "address"
        }
      ],
      "stateMutability": "nonpayable",
      "type": "constructor"
    },
    {
      "inputs": [],
      "name": "AlreadyBid",
      "type": "error"
    },
    {
      "inputs": [],
      "name": "AlreadyRefunded",
      "type": "error"
    },
    {
      "inputs": [],
      "name": "AuctionCancelled_",
      "type": "error"
    },
    {
      "inputs": [],
      "name": "AuctionEnded_",
      "type": "error"
    },
    {
      "inputs": [],
      "name": "AuctionFinalized_",
      "type": "error"
    },
    {
      "inputs": [],
      "name": "AuctionNotActive",
      "type": "error"
    },
    {
      "inputs": [],
      "name": "AuctionNotFound",
      "type": "error"
    },
    {
      "inputs": [],
      "name": "AuctionStillActive",
      "type": "error"
    },
    {
      "inputs": [],
      "name": "FeeTooHigh",
      "type": "error"
    },
    {
      "inputs": [],
      "name": "InvalidDuration",
      "type": "error"
    },
    {
      "inputs": [],
      "name": "InvalidKMSSignatures",
      "type": "error"
    },
    {
      "inputs": [],
      "name": "InvalidOwner",
      "type": "error"
    },
    {
      "inputs": [],
      "name": "InvalidPrice",
      "type": "error"
    },
    {
      "inputs": [],
      "name": "InvalidProof",
      "type": "error"
    },
    {
      "inputs": [],
      "name": "InvalidToken",
      "type": "error"
    },
    {
      "inputs": [],
      "name": "NoBidsToRefund",
      "type": "error"
    },
    {
      "inputs": [],
      "name": "NotOwner",
      "type": "error"
    },
    {
      "inputs": [],
      "name": "NotSeller",
      "type": "error"
    },
    {
      "inputs": [],
      "name": "ResultsNotRevealed",
      "type": "error"
    },
    {
      "inputs": [],
      "name": "TransferFailed",
      "type": "error"
    },
    {
      "inputs": [],
      "name": "ZamaProtocolUnsupported",
      "type": "error"
    },
    {
      "anonymous": false,
      "inputs": [
        {
          "indexed": true,
          "internalType": "uint256",
          "name": "auctionId",
          "type": "uint256"
        }
      ],
      "name": "AuctionCancelled",
      "type": "event"
    },
    {
      "anonymous": false,
      "inputs": [
        {
          "indexed": true,
          "internalType": "uint256",
          "name": "auctionId",
          "type": "uint256"
        },
        {
          "indexed": true,
          "internalType": "address",
          "name": "seller",
          "type": "address"
        },
        {
          "indexed": false,
          "internalType": "string",
          "name": "itemName",
          "type": "string"
        },
        {
          "indexed": false,
          "internalType": "uint256",
          "name": "startTime",
          "type": "uint256"
        },
        {
          "indexed": false,
          "internalType": "uint256",
          "name": "endTime",
          "type": "uint256"
        }
      ],
      "name": "AuctionCreated",
      "type": "event"
    },
    {
      "anonymous": false,
      "inputs": [
        {
          "indexed": true,
          "internalType": "uint256",
          "name": "auctionId",
          "type": "uint256"
        }
      ],
      "name": "AuctionEnded",
      "type": "event"
    },
    {
      "anonymous": false,
      "inputs": [
        {
          "indexed": true,
          "internalType": "uint256",
          "name": "auctionId",
          "type": "uint256"
        },
        {
          "indexed": true,
          "internalType": "address",
          "name": "winner",
          "type": "address"
        },
        {
          "indexed": false,
          "internalType": "uint64",
          "name": "winningBid",
          "type": "uint64"
        }
      ],
      "name": "AuctionFinalized",
      "type": "event"
    },
    {
      "anonymous": false,
      "inputs": [
        {
          "indexed": true,
          "internalType": "uint256",
          "name": "auctionId",
          "type": "uint256"
        },
        {
          "indexed": true,
          "internalType": "address",
          "name": "bidder",
          "type": "address"
        },
        {
          "indexed": false,
          "internalType": "uint256",
          "name": "timestamp",
          "type": "uint256"
        }
      ],
      "name": "BidPlaced",
      "type": "event"
    },
    {
      "anonymous": false,
      "inputs": [
        {
          "indexed": true,
          "internalType": "uint256",
          "name": "auctionId",
          "type": "uint256"
        },
        {
          "indexed": true,
          "internalType": "address",
          "name": "bidder",
          "type": "address"
        }
      ],
      "name": "BidRefunded",
      "type": "event"
    },
    {
      "anonymous": false,
      "inputs": [
        {
          "indexed": true,
          "internalType": "uint256",
          "name": "auctionId",
          "type": "uint256"
        },
        {
          "indexed": false,
          "internalType": "euint64",
          "name": "encHighestBid",
          "type": "bytes32"
        }
      ],
      "name": "DecryptionDataReady",
      "type": "event"
    },
    {
      "anonymous": false,
      "inputs": [
        {
          "indexed": false,
          "internalType": "bytes32[]",
          "name": "handlesList",
          "type": "bytes32[]"
        },
        {
          "indexed": false,
          "internalType": "bytes",
          "name": "abiEncodedCleartexts",
          "type": "bytes"
        }
      ],
      "name": "PublicDecryptionVerified",
      "type": "event"
    },
    {
      "inputs": [],
      "name": "MAX_AUCTION_DURATION",
      "outputs": [
        {
          "internalType": "uint256",
          "name": "",
          "type": "uint256"
        }
      ],
      "stateMutability": "view",
      "type": "function"
    },
    {
      "inputs": [],
      "name": "MIN_AUCTION_DURATION",
      "outputs": [
        {
          "internalType": "uint256",
          "name": "",
          "type": "uint256"
        }
      ],
      "stateMutability": "view",
      "type": "function"
    },
    {
      "inputs": [],
      "name": "auctionCount",
      "outputs": [
        {
          "internalType": "uint256",
          "name": "",
          "type": "uint256"
        }
      ],
      "stateMutability": "view",
      "type": "function"
    },
    {
      "inputs": [
        {
          "internalType": "uint256",
          "name": "",
          "type": "uint256"
        }
      ],
      "name": "auctions",
      "outputs": [
        {
          "internalType": "uint256",
          "name": "id",
          "type": "uint256"
        },
        {
          "internalType": "address",
          "name": "seller",
          "type": "address"
        },
        {
          "internalType": "string",
          "name": "itemName",
          "type": "string"
        },
        {
          "internalType": "string",
          "name": "itemDescription",
          "type": "string"
        },
        {
          "internalType": "bytes32",
          "name": "itemHash",
          "type": "bytes32"
        },
        {
          "internalType": "uint64",
          "name": "startingPrice",
          "type": "uint64"
        },
        {
          "internalType": "uint64",
          "name": "reservePrice",
          "type": "uint64"
        },
        {
          "internalType": "uint256",
          "name": "startTime",
          "type": "uint256"
        },
        {
          "internalType": "uint256",
          "name": "endTime",
          "type": "uint256"
        },
        {
          "internalType": "euint64",
          "name": "encHighestBid",
          "type": "bytes32"
        },
        {
          "internalType": "address",
          "name": "highestBidder",
          "type": "address"
        },
        {
          "internalType": "uint64",
          "name": "decHighestBid",
          "type": "uint64"
        },
        {
          "internalType": "uint32",
          "name": "bidCount",
          "type": "uint32"
        },
        {
          "internalType": "bool",
          "name": "finalized",
          "type": "bool"
        },
        {
          "internalType": "bool",
          "name": "cancelled",
          "type": "bool"
        },
        {
          "internalType": "bool",
          "name": "resultsRevealed",
          "type": "bool"
        }
      ],
      "stateMutability": "view",
      "type": "function"
    },
    {
      "inputs": [
        {
          "internalType": "uint256",
          "name": "auctionId",
          "type": "uint256"
        }
      ],
      "name": "cancelAuction",
      "outputs": [],
      "stateMutability": "nonpayable",
      "type": "function"
    },
    {
      "inputs": [],
      "name": "confidentialProtocolId",
      "outputs": [
        {
          "internalType": "uint256",
          "name": "",
          "type": "uint256"
        }
      ],
      "stateMutability": "view",
      "type": "function"
    },
    {
      "inputs": [
        {
          "internalType": "string",
          "name": "itemName",
          "type": "string"
        },
        {
          "internalType": "string",
          "name": "itemDescription",
          "type": "string"
        },
        {
          "internalType": "uint64",
          "name": "startingPrice",
          "type": "uint64"
        },
        {
          "internalType": "uint64",
          "name": "reservePrice",
          "type": "uint64"
        },
        {
          "internalType": "uint256",
          "name": "duration",
          "type": "uint256"
        }
      ],
      "name": "createAuction",
      "outputs": [
        {
          "internalType": "uint256",
          "name": "auctionId",
          "type": "uint256"
        }
      ],
      "stateMutability": "nonpayable",
      "type": "function"
    },
    {
      "inputs": [],
      "name": "feeRecipient",
      "outputs": [
        {
          "internalType": "address",
          "name": "",
          "type": "address"
        }
      ],
      "stateMutability": "view",
      "type": "function"
    },
    {
      "inputs": [
        {
          "internalType": "uint256",
          "name": "auctionId",
          "type": "uint256"
        },
        {
          "internalType": "address",
          "name": "winner",
          "type": "address"
        },
        {
          "internalType": "bytes",
          "name": "abiEncodedHighestBid",
          "type": "bytes"
        },
        {
          "internalType": "bytes",
          "name": "decryptionProof",
          "type": "bytes"
        }
      ],
      "name": "finalizeAuction",
      "outputs": [],
      "stateMutability": "nonpayable",
      "type": "function"
    },
    {
      "inputs": [],
      "name": "getActiveAuctions",
      "outputs": [
        {
          "internalType": "uint256[]",
          "name": "",
          "type": "uint256[]"
        }
      ],
      "stateMutability": "view",
      "type": "function"
    },
    {
      "inputs": [
        {
          "internalType": "uint256",
          "name": "auctionId",
          "type": "uint256"
        }
      ],
      "name": "getAuction",
      "outputs": [
        {
          "internalType": "address",
          "name": "seller",
          "type": "address"
        },
        {
          "internalType": "string",
          "name": "itemName",
          "type": "string"
        },
        {
          "internalType": "uint64",
          "name": "startingPrice",
          "type": "uint64"
        },
        {
          "internalType": "uint256",
          "name": "startTime",
          "type": "uint256"
        },
        {
          "internalType": "uint256",
          "name": "endTime",
          "type": "uint256"
        },
        {
          "internalType": "uint32",
          "name": "bidCount",
          "type": "uint32"
        },
        {
          "internalType": "bool",
          "name": "finalized",
          "type": "bool"
        },
        {
          "internalType": "bool",
          "name": "cancelled",
          "type": "bool"
        },
        {
          "internalType": "address",
          "name": "winner",
          "type": "address"
        },
        {
          "internalType": "uint64",
          "name": "winningBid",
          "type": "uint64"
        }
      ],
      "stateMutability": "view",
      "type": "function"
    },
    {
      "inputs": [
        {
          "internalType": "uint256",
          "name": "auctionId",
          "type": "uint256"
        }
      ],
      "name": "getAuctionState",
      "outputs": [
        {
          "internalType": "enum ZappsAuction.AuctionState",
          "name": "",
          "type": "uint8"
        }
      ],
      "stateMutability": "view",
      "type": "function"
    },
    {
      "inputs": [
        {
          "internalType": "uint256",
          "name": "auctionId",
          "type": "uint256"
        }
      ],
      "name": "getBidCount",
      "outputs": [
        {
          "internalType": "uint256",
          "name": "",
          "type": "uint256"
        }
      ],
      "stateMutability": "view",
      "type": "function"
    },
    {
      "inputs": [
        {
          "internalType": "uint256",
          "name": "auctionId",
          "type": "uint256"
        }
      ],
      "name": "getEncryptedHighestBid",
      "outputs": [
        {
          "internalType": "euint64",
          "name": "",
          "type": "bytes32"
        }
      ],
      "stateMutability": "view",
      "type": "function"
    },
    {
      "inputs": [
        {
          "internalType": "address",
          "name": "user",
          "type": "address"
        }
      ],
      "name": "getUserAuctions",
      "outputs": [
        {
          "internalType": "uint256[]",
          "name": "",
          "type": "uint256[]"
        }
      ],
      "stateMutability": "view",
      "type": "function"
    },
    {
      "inputs": [
        {
          "internalType": "address",
          "name": "user",
          "type": "address"
        }
      ],
      "name": "getUserBidAuctions",
      "outputs": [
        {
          "internalType": "uint256[]",
          "name": "",
          "type": "uint256[]"
        }
      ],
      "stateMutability": "view",
      "type": "function"
    },
    {
      "inputs": [
        {
          "internalType": "uint256",
          "name": "auctionId",
          "type": "uint256"
        },
        {
          "internalType": "address",
          "name": "bidder",
          "type": "address"
        }
      ],
      "name": "getUserEncryptedBid",
      "outputs": [
        {
          "internalType": "euint64",
          "name": "",
          "type": "bytes32"
        }
      ],
      "stateMutability": "view",
      "type": "function"
    },
    {
      "inputs": [
        {
          "internalType": "uint256",
          "name": "auctionId",
          "type": "uint256"
        },
        {
          "internalType": "address",
          "name": "bidder",
          "type": "address"
        }
      ],
      "name": "hasBidOnAuction",
      "outputs": [
        {
          "internalType": "bool",
          "name": "",
          "type": "bool"
        }
      ],
      "stateMutability": "view",
      "type": "function"
    },
    {
      "inputs": [],
      "name": "owner",
      "outputs": [
        {
          "internalType": "address",
          "name": "",
          "type": "address"
        }
      ],
      "stateMutability": "view",
      "type": "function"
    },
    {
      "inputs": [
        {
          "internalType": "uint256",
          "name": "auctionId",
          "type": "uint256"
        },
        {
          "internalType": "externalEuint64",
          "name": "encBidAmount",
          "type": "bytes32"
        },
        {
          "internalType": "bytes",
          "name": "inputProof",
          "type": "bytes"
        }
      ],
      "name": "placeBid",
      "outputs": [],
      "stateMutability": "nonpayable",
      "type": "function"
    },
    {
      "inputs": [],
      "name": "platformFeeBps",
      "outputs": [
        {
          "internalType": "uint256",
          "name": "",
          "type": "uint256"
        }
      ],
      "stateMutability": "view",
      "type": "function"
    },
    {
      "inputs": [
        {
          "internalType": "uint256",
          "name": "auctionId",
          "type": "uint256"
        }
      ],
      "name": "requestWinnerDecryption",
      "outputs": [],
      "stateMutability": "nonpayable",
      "type": "function"
    },
    {
      "inputs": [
        {
          "internalType": "address",
          "name": "_feeRecipient",
          "type": "address"
        }
      ],
      "name": "setFeeRecipient",
      "outputs": [],
      "stateMutability": "nonpayable",
      "type": "function"
    },
    {
      "inputs": [
        {
          "internalType": "uint256",
          "name": "feeBps",
          "type": "uint256"
        }
      ],
      "name": "setPlatformFee",
      "outputs": [],
      "stateMutability": "nonpayable",
      "type": "function"
    },
    {
      "inputs": [
        {
          "internalType": "address",
          "name": "_reputation",
          "type": "address"
        }
      ],
      "name": "setZappsReputation",
      "outputs": [],
      "stateMutability": "nonpayable",
      "type": "function"
    },
    {
      "inputs": [
        {
          "internalType": "address",
          "name": "newOwner",
          "type": "address"
        }
      ],
      "name": "transferOwnership",
      "outputs": [],
      "stateMutability": "nonpayable",
      "type": "function"
    },
    {
      "inputs": [],
      "name": "zappsReputation",
      "outputs": [
        {
          "internalType": "address",
          "name": "",
          "type": "address"
        }
      ],
      "stateMutability": "view",
      "type": "function"
    },
    {
      "inputs": [],
      "name": "zappsToken",
      "outputs": [
        {
          "internalType": "address",
          "name": "",
          "type": "address"
        }
      ],
      "stateMutability": "view",
      "type": "function"
    }
  ],
  "bytecode": "0x60806040523461026e57604051601f6125bc38819003918201601f19168301916001600160401b038311848410176102735780849260209460405283398101031261026e57516001600160a01b0381169081900361026e5761005f6102a8565b5046600103610188576100706102a8565b50610079610289565b6000815260006020820152600060408201525b80517f9e7b61f58c47dc699ac88507c4f5bb9f121c03808c5676a8078fe583e464970080546001600160a01b03199081166001600160a01b039384161790915560208301517f9e7b61f58c47dc699ac88507c4f5bb9f121c03808c5676a8078fe583e4649701805483169184169190911790556040909201517f9e7b61f58c47dc699ac88507c4f5bb9f121c03808c5676a8078fe583e46497028054909316911617905560fa60035580156101775760008054336001600160a01b0319918216811790925560018054821693909317909255600480549092161790556040516122f690816102c68239f35b63c1ab6dc160e01b60005260046000fd5b4662aa36a7036101f35761019a6102a8565b506101a3610289565b73f0ffdc93b7e186bc2f8cb3daa75d86d1930a433d81527392c920834ec8941d2c77d188936e1f7a6f49c127602082015273be0e383937d564d7ff0bc3b46c51f0bf8d5c311a604082015261008c565b46617a690361025d576102046102a8565b5061020d610289565b7350157cffd6bbfa2dece204a89ec419c23ef5755d815273e3a9105a3a932253a70f126eb1e3b589c643dd24602082015273901f8942346f7ab3a01f6d7613119bca447bb030604082015261008c565b6373cac13b60e01b60005260046000fd5b600080fd5b634e487b7160e01b600052604160045260246000fd5b60405190606082016001600160401b0381118382101761027357604052565b6102b0610289565b9060008252600060208301526000604083015256fe6080604052600436101561001257600080fd5b6000803560e01c80630988100714611d6257806312e8e2c314611d1d578063193b90bd14611cf057806322dcd13e14611cd25780632ad7157314611cb45780633459704c14611c8b5780633afb9e8514611a515780633ec04a7d146111ff5780633fb35178146111e157806346904840146111b85780634bbab83f14611171578063571a26a01461103a5780635ec2881014611011578063744d341114610fe757806378bd793514610f155780638927b03014610ef25780638da5cb5b14610ecb57806394e183af14610e7d57806396b5a75514610da0578063aa8c58941461092e578063c2f50a7a14610911578063cf44b5d5146107de578063d94f2bfd14610371578063e11efdf814610325578063e74b981b146102b2578063f279f9ad14610240578063f2fde38b146101d55763ff3ad0b41461015157600080fd5b346101d25760203660031901126101d2576001600160a01b03610172611dd7565b168152600a60205260408120604051918260208354918281520192825260208220915b8181106101bc576101b8856101ac81870382611e27565b60405191829182611f43565b0390f35b8254845260209093019260019283019201610195565b80fd5b50346101d25760203660031901126101d2576101ef611dd7565b8154906001600160a01b0382163303610231576001600160a01b0316908115610222576001600160a01b03191617815580f35b6349e27cff60e01b8352600483fd5b6330cd747160e01b8352600483fd5b50346101d25760203660031901126101d2576001600160a01b03610262611dd7565b168152600b60205260408120604051918260208354918281520192825260208220915b81811061029c576101b8856101ac81870382611e27565b8254845260209093019260019283019201610285565b50346101d25760203660031901126101d2576102cc611dd7565b81546001600160a01b03163303610316576001600160a01b03168015610307576bffffffffffffffffffffffff60a01b600454161760045580f35b6349e27cff60e01b8252600482fd5b6330cd747160e01b8252600482fd5b50346101d25760403660031901126101d2576040610341611dc1565b9160043581526009602052209060018060a01b0316600052602052602060ff604060002054166040519015158152f35b50346101d25760803660031901126101d2576004359061038f611dc1565b6044356001600160401b0381116107da576103ae903690600401611fc3565b6064356001600160401b0381116107d6576103cd903690600401611fc3565b93808452600660205260408420928354156107c75760078401544211156107b857600a840191825460ff81166107a95760081c60ff1661079a57604093845197610417868a611e27565b60018952601f1986013660208b013760088701546104348a6120e9565b5260206104a260018060a01b037f9e7b61f58c47dc699ac88507c4f5bb9f121c03808c5676a8078fe583e464970254166104908b8d6104b48c51978896879586946378542ead60e01b8652606060048701526064860190612127565b8481036003190160248601528b611f02565b83810360031901604485015290611f02565b03925af1908115610790578891610755575b5015610746577fc6366bab028b8d033cb362cfd1f2f3457ef4e92fc738b6788b90d5a7846367a0610506889961051488519283928a84528a840190612127565b828103602084015285611f02565b0390a160208180518101031261074257602001516001600160401b0381169283820361073e576009870180546001600160e01b03191660a09390931b67ffffffffffffffff60a01b16929092176001600160a01b0391909116908117909155835462ff00ff19166201000117909355835191825282917f33eec26f015353e2d6990d3a1913fff3fe1b9aae3e08d8223eda87e30e7db7fc90602090a36002546001600160a01b031690816105c6578480f35b80610695575b5050600254600192909201546001600160a01b039283169216823b1561069057839260c484928451958693849263973dde9160e01b8452600484015260806024840152601060848401526f41554354494f4e5f434f4d504c45544560801b60a4840152601e60448401527f5b577a23637c13751ced46fd085304741466978bcfbb8d8caed77b00e4d78c2c60648401525af19081156106875750610672575b8080808480f35b8161067c91611e27565b6101d257803861066b565b513d84823e3d90fd5b505050fd5b813b1561073a57849160c483928551948593849263973dde9160e01b8452600484015260806024840152600b60848401526a20aaa1aa24a7a72faba4a760a91b60a4840152603260448401527f5b577a23637c13751ced46fd085304741466978bcfbb8d8caed77b00e4d78c2c60648401525af1801561073057908491156105cc578161072191611e27565b61072c5782386105cc565b5050fd5b82513d86823e3d90fd5b8480fd5b8780fd5b8680fd5b63cf6c44e960e01b8752600487fd5b90506020813d602011610788575b8161077060209383611e27565b8101031261073e5751801515810361073e57386104c6565b3d9150610763565b86513d8a823e3d90fd5b63ecd7d3c360e01b8652600486fd5b6359cf906d60e11b8752600487fd5b630ca00c6160e01b8552600485fd5b6307145c5f60e11b8552600485fd5b8380fd5b8280fd5b50346101d257806003193601126101d257806001600554905b818111156108c05750610809826120d2565b916108176040519384611e27565b808352610826601f19916120d2565b013660208401378260015b8281111561084757604051806101b88682611f43565b61085081611fe1565b60058110156108ac5760011461086f575b61086a906120ad565b610831565b938351811015610898576108908186602061086a9460051b880101526120ad565b949050610861565b634e487b7160e01b82526032600452602482fd5b634e487b7160e01b83526021600452602483fd5b6108c981611fe1565b60058110156108fd576001146108e8575b6108e3906120ad565b6107f7565b916108f56108e3916120ad565b9290506108da565b634e487b7160e01b85526021600452602485fd5b50346101d257806003193601126101d2576020604051610e108152f35b50346101d25760a03660031901126101d2576004356001600160401b038111610d9c5761095f903690600401611d94565b6024356001600160401b0381116107d65761097e903690600401611d94565b84939193506044356001600160401b038116809103610d9857606435906001600160401b03821682036107425760843591610e1083108015610d8c575b610d7d578115610d6f576109d06005546120ad565b60058190558089526006602052604089208181556001810180546001600160a01b0319163317905590979094600286016001600160401b038911610ca957610a188154611ded565b601f8111610d2a575b50888b601f8211600114610cc8578c91610cbd575b508960011b906000198b60031b1c19161790555b600386016001600160401b038211610ca95787929181610a6b8b9354611ded565b601f8111610c50575b508c8d601f8411600114610be0579183610ad395949260209491610bd5575b508260011b906000198460031b1c19161790555b8d81604051968588968688019a8b378601928584019081523701018c815203601f198101835282611e27565b519020600485015560058401916fffffffffffffffff000000000000000083549260401b16916fffffffffffffffffffffffffffffffff1916171790556006820190428255420191824211610bc157957f5db69880ecd741cb72927505845a9c757184babea65c98a27788100ff8fbd18692869492610b6b60088a600760209c01948555610b5f6121f3565b9182910155309061217e565b338352600a8952610b7f8660408520612084565b549054918660405194606086528160608701526080860137608087850101528783015260408201526080813395601f80199101168101030190a3604051908152f35b634e487b7160e01b87526011600452602487fd5b905086013538610a93565b90601f19841683835260208320925b818110610c325750916020939185610ad397969410610c18575b5050600182811b019055610aa7565b870135600019600385901b60f8161c191690553880610c09565b8288013584558d98508e965060019093019260209283019201610bef565b919394508092508c5260208c20601f840160051c81019160208510610c9f575b918b9391601f8c9796940160051c01905b818110610c8e5750610a74565b8e81558b96508c9450600101610c81565b9091508190610c70565b634e487b7160e01b8b52604160045260248bfd5b905088013538610a36565b828d5260208d2091601f1981168e5b8c828210610d1057505010610cf6575b5050600189811b019055610a4a565b89013560001960038c901b60f8161c191690553880610ce7565b84013585556001909401936020938401938e935001610cd7565b818c5260208c20601f8b0160051c81019160208c10610d65575b601f0160051c01905b818110610d5a5750610a21565b8c8155600101610d4d565b9091508190610d44565b62bfc92160e01b8852600488fd5b637616640160e01b8852600488fd5b5062278d0083116109bb565b8580fd5b5080fd5b50346101d25760203660031901126101d257600435808252600660205260408220805415610e6e5760018101546001600160a01b031633141580610e5a575b610e4b57600a01805460ff8116610e3c5760ff8160081c16610e2d5761ff0019166101001790557f2809c7e17bf978fbc7194c0a694b638c4215e9140cacc6c38ca36010b45697df8280a280f35b63ecd7d3c360e01b8452600484fd5b6359cf906d60e11b8452600484fd5b635ec8235160e01b8352600483fd5b5082546001600160a01b0316331415610ddf565b6307145c5f60e11b8352600483fd5b50346101d25760203660031901126101d257610e97611dd7565b81546001600160a01b031633036103165760018060a01b03166bffffffffffffffffffffffff60a01b600254161760025580f35b50346101d257806003193601126101d257546040516001600160a01b039091168152602090f35b50346101d257806003193601126101d2576020610f0d6120f6565b604051908152f35b50346101d25760203660031901126101d257604090600435815260066020522060018060a01b036001820154166001600160401b036005830154166001600160401b0360068401549360ff600782015491600981015492610f7d6002600a8401549301611e5e565b97610f9c604051998a998a5261014060208b01526101408a0190611f02565b966040890152606088015260808701528260e01c60a0870152818116151560c087015260081c16151560e085015260018060a01b03811661010085015260a01c166101208301520390f35b50346101d25760203660031901126101d25760406020916004358152600783522054604051908152f35b50346101d257806003193601126101d2576001546040516001600160a01b039091168152602090f35b50346101d25760203660031901126101d2576004358152600660205260409020805460018201546001600160a01b03169161107760028201611e5e565b61108360038301611e5e565b9160048101549260058201546006830154600784015491600885015493600986015495600a0154966040519a8b9a8b5260208b015260408a0161020090526102008a016110cf91611f02565b89810360608b01526110e091611f02565b9660808901526001600160401b03811660a089015260401c6001600160401b031660c088015260e0870152610100860152610120850152600160a01b6001900381166101408501528060a01c6001600160401b031661016085015260e01c61018084015260ff811615156101a08401528060081c60ff1615156101c084015260101c60ff1615156101e08301520390f35b50346101d25760403660031901126101d257604061118d611dc1565b9160043581526008602052209060018060a01b03166000526020526020604060002054604051908152f35b50346101d257806003193601126101d2576004546040516001600160a01b039091168152602090f35b50346101d257806003193601126101d257602060405162278d008152f35b50346101d25760603660031901126101d2576004356044356001600160401b0381116107da57611233903690600401611d94565b90828452600660205260408420918254156107c75760078301544211611a425760ff600a84015460081c16611a335760018301546001600160a01b03163314611a24576112d761128886936020933691611f7d565b6000805160206122818339815191525460405163045fc19560e11b81526024803560048301523390820152608060448201529485936001600160a01b0390921692849283916084830190611f02565b6005606483015203925af1908115611a195784916119e7575b506000805160206122a18339815191525484906001600160a01b0316803b15610d9c57604051630f8e573b60e21b8152600481018490523360248201529082908290604490829084905af1801561170d576119d2575b50839052600960209081526040808620336000908152925290205460ff161561192c57828452600860209081526040808620336000908152925290205481811561191c575b821561190a575b602090606460018060a01b0360008051602061228183398151915254169388604051958694859363022f65e760e31b8552600485015260248401528160448401525af19081156118ff5785916118cd575b5083855260086020818152604080882033600081815291845282822095909555878952928252808820938352929052205461141f90309061217e565b828452600860209081526040808620336000818152919093522054611444919061217e565b8284526008602081815260408087203360009081529252902054908301805482156118bd575b80156118ab575b602090606460018060a01b036000805160206122818339815191525416948960405196879485936385362ee760e01b8552600485015260248401528160448401525af19182156117a6578692611877575b5084865260086020908152604080882033600090815292529020548154928181156117da575b156117ca575b83156117b1575b9060646020928960018060a01b0360008051602061228183398151915254166040519788958694637702dcff60e01b86526004860152602485015260448401525af19182156117a657869261176b575b5090806115549255309061217e565b8284526007602052604084209060405190608082018281106001600160401b03821117611757576040523382526020820190815260408201904282526060830193878552805490600160401b82101561174357906115b791600182018155612052565b93909361172f575183546001600160a01b039091166001600160a01b031990911617835551600183015551600282015590516003909101805460ff191691151560ff16919091179055600901805460e081901c63ffffffff811461171b576001600160e01b0390911660019190910160e01b6001600160e01b0319161790556040514281523391907f0e54eff26401bf69b81b26f60bd85ef47f5d85275c1d268d84f68d6897431c4790602090a360025481906001600160a01b03168061167b5750f35b803b156117185781809160c46040518094819363973dde9160e01b835233600484015260806024840152600b60848401526a105550d51253d397d0925160aa1b60a4840152600a60448401527f5b577a23637c13751ced46fd085304741466978bcfbb8d8caed77b00e4d78c2c60648401525af1801561170d576116fc5750f35b8161170691611e27565b6101d25780f35b6040513d84823e3d90fd5b50fd5b634e487b7160e01b85526011600452602485fd5b634e487b7160e01b88526004889052602488fd5b634e487b7160e01b89526041600452602489fd5b634e487b7160e01b87526041600452602487fd5b91506020823d60201161179e575b8161178660209383611e27565b8101031261179957611554915191611545565b600080fd5b3d9150611779565b6040513d88823e3d90fd5b925060209060646117c06121f3565b94919250506114f5565b90506117d46121f3565b906114ee565b60008051602061228183398151915254604051639cd07acb60e01b8152600481018b9052919250602090829060449082908d906001600160a01b0316611823602484018361215b565b5af190811561186c57899161183a575b50906114e8565b90506020813d602011611864575b8161185560209383611e27565b81010312611799575138611833565b3d9150611848565b6040513d8b823e3d90fd5b9091506020813d6020116118a3575b8161189360209383611e27565b81010312611799575190386114c2565b3d9150611886565b5060206118b66121f3565b9050611471565b91506118c76121f3565b9161146a565b90506020813d6020116118f7575b816118e860209383611e27565b810103126117995751386113e3565b3d91506118db565b6040513d87823e3d90fd5b5060206119156121f3565b9050611392565b90506119266121f3565b9061138b565b8284526008602081815260408087203360008181529184528282208690558789529383528188209381529290915290205461196890309061217e565b82845260086020908152604080862033600081815291909352205461198d919061217e565b82845260096020526040842060018060a01b0333166000526020526040600020600160ff19825416179055338452600b6020526119cd8360408620612084565b611444565b816119dc91611e27565b6107d6578338611346565b90506020813d602011611a11575b81611a0260209383611e27565b810103126117995751386112f0565b3d91506119f5565b6040513d86823e3d90fd5b635ec8235160e01b8552600485fd5b63ecd7d3c360e01b8552600485fd5b6335502ad360e21b8552600485fd5b50346101d25760203660031901126101d257600435808252600660205260408220805415610e6e576007810154421115611c7c5760ff600a82015460081c16611c6d57600801908154604091848351611aaa8582611e27565b60018152601f1985019384366020840137611ac4826120e9565b526000805160206122a1833981519152546001600160a01b031690813b156107da578291611b0f918751948580948193637d6e912360e11b8352602060048401526024830190612127565b03925af18015611c6357611c4b575b5090849291835b818552600760205283852054811015611c1a57818552600760205283611b4d82828820612052565b5054838752600860209081528288206001600160a01b0390921660009081529190522054845190611b7e8683611e27565b6001825284366020840137611b92826120e9565b526000805160206122a1833981519152546001600160a01b0316803b15610742578551637d6e912360e11b8152602060048201529187918391829084908290611bdf906024830190612127565b03925af18015611c1057908691611bfb575b5050600101611b25565b81611c0591611e27565b61073a578438611bf1565b85513d88823e3d90fd5b84827f11f73f81dd50e48baf199697ad447689d7ad2442b56abab94ce971b55c091c566020878a549051908152a280f35b85611c5a919692949396611e27565b93909138611b1e565b84513d88823e3d90fd5b63ecd7d3c360e01b8352600483fd5b630ca00c6160e01b8352600483fd5b50346101d257806003193601126101d2576002546040516001600160a01b039091168152602090f35b50346101d257806003193601126101d2576020600554604051908152f35b50346101d257806003193601126101d2576020600354604051908152f35b50346101d25760203660031901126101d25760086040602092600435815260068452200154604051908152f35b50346101d25760203660031901126101d2578054600435906001600160a01b03163303610316576103e88111611d535760035580f35b63cd4e616760e01b8252600482fd5b50346101d25760203660031901126101d257611d7f600435611fe1565b6040519060058110156108ac57602092508152f35b9181601f84011215611799578235916001600160401b038311611799576020838186019501011161179957565b602435906001600160a01b038216820361179957565b600435906001600160a01b038216820361179957565b90600182811c92168015611e1d575b6020831014611e0757565b634e487b7160e01b600052602260045260246000fd5b91607f1691611dfc565b90601f801991011681019081106001600160401b03821117611e4857604052565b634e487b7160e01b600052604160045260246000fd5b9060405191826000825492611e7284611ded565b8084529360018116908115611ee05750600114611e99575b50611e9792500383611e27565b565b90506000929192526020600020906000915b818310611ec4575050906020611e979282010138611e8a565b6020919350806001915483858901015201910190918492611eab565b905060209250611e9794915060ff191682840152151560051b82010138611e8a565b919082519283825260005b848110611f2e575050826000602080949584010152601f8019910116010190565b80602080928401015182828601015201611f0d565b602060408183019282815284518094520192019060005b818110611f675750505090565b8251845260209384019390920191600101611f5a565b9291926001600160401b038211611e485760405191611fa6601f8201601f191660200184611e27565b829481845281830111611799578281602093846000960137010152565b9080601f8301121561179957816020611fde93359101611f7d565b90565b6000526006602052604060002080541561204157600a8101549060ff8260081c1661203a5760ff8216612033576007015442111561202d5760101c60ff1661202857600290565b600290565b50600190565b5050600390565b5050600490565b6307145c5f60e11b60005260046000fd5b805482101561206e5760005260206000209060021b0190600090565b634e487b7160e01b600052603260045260246000fd5b805490600160401b821015611e48576001820180825582101561206e5760005260206000200155565b60001981146120bc5760010190565b634e487b7160e01b600052601160045260246000fd5b6001600160401b038111611e485760051b60200190565b80511561206e5760200190565b4660010361210357600190565b4662aa36a7036121135761271190565b617a69461461212157600090565b60001990565b906020808351928381520192019060005b8181106121455750505090565b8251845260209384019390920191600101612138565b9060548210156121685752565b634e487b7160e01b600052602160045260246000fd5b6000805160206122a183398151915254600092916001600160a01b0390911690813b156107d657604051635ca4b5b160e11b815260048101919091526001600160a01b0392909216602483015282908290604490829084905af1801561170d576121e6575050565b816121f091611e27565b50565b60008051602061228183398151915254604051639cd07acb60e01b815260006004820152906001600160a01b0316816044816000602094600560248401525af190811561227457600091612245575090565b90506020813d60201161226c575b8161226060209383611e27565b81010312611799575190565b3d9150612253565b6040513d6000823e3d90fdfe9e7b61f58c47dc699ac88507c4f5bb9f121c03808c5676a8078fe583e46497019e7b61f58c47dc699ac88507c4f5bb9f121c03808c5676a8078fe583e4649700a264697066735822122008605dd1a2925dc9295f67a64f6a40d37ac5be718cb44223f64891a781d755c564736f6c634300081b0033",
  "linkReferences": {},
  "deployedLinkReferences": {}
}