{
  "_format": "hh-sol-artifact-1",
  "contractName": "ZappsReputation",
  "sourceName": "contracts/ZappsReputation.sol",
  "abi": [
    {
      "inputs": [],
      "stateMutability": "nonpayable",
      "type": "constructor"
    },
    {
      "inputs": [],
      "name": "InvalidUser",
      "type": "error"
    },
    {
      "inputs": [],
      "name": "MultiplierTooHigh",
      "type": "error"
    },
    {
      "inputs": [],
      "name": "NotAuthorized",
      "type": "error"
    },
    {
      "inputs": [
        {
          "internalType": "address",
          "name": "owner",
          "type": "address"
        }
      ],
      "name": "OwnableInvalidOwner",
      "type": "error"
    },
    {
      "inputs": [
        {
          "internalType": "address",
          "name": "account",
          "type": "address"
        }
      ],
      "name": "OwnableUnauthorizedAccount",
      "type": "error"
    },
    {
      "inputs": [],
      "name": "ZamaProtocolUnsupported",
      "type": "error"
    },
    {
      "anonymous": false,
      "inputs": [
        {
          "indexed": true,
          "internalType": "address",
          "name": "module",
          "type": "address"
        },
        {
          "indexed": false,
          "internalType": "bool",
          "name": "status",
          "type": "bool"
        }
      ],
      "name": "ModuleAuthorized",
      "type": "event"
    },
    {
      "anonymous": false,
      "inputs": [
        {
          "indexed": true,
          "internalType": "address",
          "name": "previousOwner",
          "type": "address"
        },
        {
          "indexed": true,
          "internalType": "address",
          "name": "newOwner",
          "type": "address"
        }
      ],
      "name": "OwnershipTransferred",
      "type": "event"
    },
    {
      "anonymous": false,
      "inputs": [
        {
          "indexed": true,
          "internalType": "address",
          "name": "user",
          "type": "address"
        }
      ],
      "name": "ReputationDecayed",
      "type": "event"
    },
    {
      "anonymous": false,
      "inputs": [
        {
          "indexed": true,
          "internalType": "address",
          "name": "user",
          "type": "address"
        },
        {
          "indexed": false,
          "internalType": "uint16",
          "name": "points",
          "type": "uint16"
        },
        {
          "indexed": false,
          "internalType": "string",
          "name": "reason",
          "type": "string"
        }
      ],
      "name": "ReputationUpdated",
      "type": "event"
    },
    {
      "inputs": [],
      "name": "DECAY_PERIOD",
      "outputs": [
        {
          "internalType": "uint256",
          "name": "",
          "type": "uint256"
        }
      ],
      "stateMutability": "view",
      "type": "function"
    },
    {
      "inputs": [],
      "name": "DECAY_RATE",
      "outputs": [
        {
          "internalType": "uint16",
          "name": "",
          "type": "uint16"
        }
      ],
      "stateMutability": "view",
      "type": "function"
    },
    {
      "inputs": [],
      "name": "MAX_REPUTATION",
      "outputs": [
        {
          "internalType": "uint16",
          "name": "",
          "type": "uint16"
        }
      ],
      "stateMutability": "view",
      "type": "function"
    },
    {
      "inputs": [],
      "name": "MIN_REPUTATION",
      "outputs": [
        {
          "internalType": "uint16",
          "name": "",
          "type": "uint16"
        }
      ],
      "stateMutability": "view",
      "type": "function"
    },
    {
      "inputs": [
        {
          "internalType": "bytes32",
          "name": "",
          "type": "bytes32"
        }
      ],
      "name": "activityMultipliers",
      "outputs": [
        {
          "internalType": "uint256",
          "name": "",
          "type": "uint256"
        }
      ],
      "stateMutability": "view",
      "type": "function"
    },
    {
      "inputs": [
        {
          "internalType": "address",
          "name": "user",
          "type": "address"
        },
        {
          "internalType": "string",
          "name": "activityType",
          "type": "string"
        },
        {
          "internalType": "uint16",
          "name": "basePoints",
          "type": "uint16"
        },
        {
          "internalType": "bytes32",
          "name": "category",
          "type": "bytes32"
        }
      ],
      "name": "addReputation",
      "outputs": [],
      "stateMutability": "nonpayable",
      "type": "function"
    },
    {
      "inputs": [
        {
          "internalType": "address",
          "name": "module",
          "type": "address"
        },
        {
          "internalType": "bool",
          "name": "status",
          "type": "bool"
        }
      ],
      "name": "authorizeModule",
      "outputs": [],
      "stateMutability": "nonpayable",
      "type": "function"
    },
    {
      "inputs": [
        {
          "internalType": "address",
          "name": "",
          "type": "address"
        }
      ],
      "name": "authorizedModules",
      "outputs": [
        {
          "internalType": "bool",
          "name": "",
          "type": "bool"
        }
      ],
      "stateMutability": "view",
      "type": "function"
    },
    {
      "inputs": [
        {
          "internalType": "address",
          "name": "user",
          "type": "address"
        },
        {
          "internalType": "uint16",
          "name": "minRequired",
          "type": "uint16"
        }
      ],
      "name": "checkMinimumReputation",
      "outputs": [
        {
          "internalType": "ebool",
          "name": "",
          "type": "bytes32"
        }
      ],
      "stateMutability": "nonpayable",
      "type": "function"
    },
    {
      "inputs": [],
      "name": "confidentialProtocolId",
      "outputs": [
        {
          "internalType": "uint256",
          "name": "",
          "type": "uint256"
        }
      ],
      "stateMutability": "view",
      "type": "function"
    },
    {
      "inputs": [
        {
          "internalType": "string",
          "name": "activityType",
          "type": "string"
        }
      ],
      "name": "getActivityMultiplier",
      "outputs": [
        {
          "internalType": "uint256",
          "name": "",
          "type": "uint256"
        }
      ],
      "stateMutability": "view",
      "type": "function"
    },
    {
      "inputs": [
        {
          "internalType": "address",
          "name": "user",
          "type": "address"
        }
      ],
      "name": "getEncryptedReputation",
      "outputs": [
        {
          "internalType": "euint16",
          "name": "",
          "type": "bytes32"
        }
      ],
      "stateMutability": "view",
      "type": "function"
    },
    {
      "inputs": [
        {
          "internalType": "address",
          "name": "user",
          "type": "address"
        }
      ],
      "name": "getReputationBreakdown",
      "outputs": [
        {
          "internalType": "euint16",
          "name": "voting",
          "type": "bytes32"
        },
        {
          "internalType": "euint16",
          "name": "social",
          "type": "bytes32"
        },
        {
          "internalType": "euint16",
          "name": "community",
          "type": "bytes32"
        },
        {
          "internalType": "euint16",
          "name": "governance",
          "type": "bytes32"
        },
        {
          "internalType": "euint16",
          "name": "creator",
          "type": "bytes32"
        }
      ],
      "stateMutability": "view",
      "type": "function"
    },
    {
      "inputs": [],
      "name": "getReputationLevels",
      "outputs": [
        {
          "components": [
            {
              "internalType": "string",
              "name": "name",
              "type": "string"
            },
            {
              "internalType": "uint16",
              "name": "minScore",
              "type": "uint16"
            },
            {
              "internalType": "uint16",
              "name": "maxScore",
              "type": "uint16"
            }
          ],
          "internalType": "struct ZappsReputation.ReputationLevel[]",
          "name": "",
          "type": "tuple[]"
        }
      ],
      "stateMutability": "view",
      "type": "function"
    },
    {
      "inputs": [
        {
          "internalType": "address",
          "name": "user",
          "type": "address"
        }
      ],
      "name": "getUserInfo",
      "outputs": [
        {
          "internalType": "uint256",
          "name": "lastUpdate",
          "type": "uint256"
        },
        {
          "internalType": "uint256",
          "name": "lastDecayTime",
          "type": "uint256"
        },
        {
          "internalType": "bool",
          "name": "initialized",
          "type": "bool"
        }
      ],
      "stateMutability": "view",
      "type": "function"
    },
    {
      "inputs": [
        {
          "internalType": "address",
          "name": "user",
          "type": "address"
        }
      ],
      "name": "makeReputationPubliclyDecryptable",
      "outputs": [],
      "stateMutability": "nonpayable",
      "type": "function"
    },
    {
      "inputs": [],
      "name": "owner",
      "outputs": [
        {
          "internalType": "address",
          "name": "",
          "type": "address"
        }
      ],
      "stateMutability": "view",
      "type": "function"
    },
    {
      "inputs": [],
      "name": "renounceOwnership",
      "outputs": [],
      "stateMutability": "nonpayable",
      "type": "function"
    },
    {
      "inputs": [
        {
          "internalType": "uint256",
          "name": "",
          "type": "uint256"
        }
      ],
      "name": "reputationLevels",
      "outputs": [
        {
          "internalType": "string",
          "name": "name",
          "type": "string"
        },
        {
          "internalType": "uint16",
          "name": "minScore",
          "type": "uint16"
        },
        {
          "internalType": "uint16",
          "name": "maxScore",
          "type": "uint16"
        }
      ],
      "stateMutability": "view",
      "type": "function"
    },
    {
      "inputs": [
        {
          "internalType": "string",
          "name": "activityType",
          "type": "string"
        },
        {
          "internalType": "uint256",
          "name": "multiplier",
          "type": "uint256"
        }
      ],
      "name": "setActivityMultiplier",
      "outputs": [],
      "stateMutability": "nonpayable",
      "type": "function"
    },
    {
      "inputs": [
        {
          "internalType": "address",
          "name": "user",
          "type": "address"
        },
        {
          "internalType": "uint16",
          "name": "points",
          "type": "uint16"
        },
        {
          "internalType": "string",
          "name": "reason",
          "type": "string"
        }
      ],
      "name": "slashReputation",
      "outputs": [],
      "stateMutability": "nonpayable",
      "type": "function"
    },
    {
      "inputs": [],
      "name": "totalUsers",
      "outputs": [
        {
          "internalType": "uint256",
          "name": "",
          "type": "uint256"
        }
      ],
      "stateMutability": "view",
      "type": "function"
    },
    {
      "inputs": [
        {
          "internalType": "address",
          "name": "newOwner",
          "type": "address"
        }
      ],
      "name": "transferOwnership",
      "outputs": [],
      "stateMutability": "nonpayable",
      "type": "function"
    },
    {
      "inputs": [
        {
          "internalType": "address",
          "name": "user",
          "type": "address"
        }
      ],
      "name": "triggerDecay",
      "outputs": [],
      "stateMutability": "nonpayable",
      "type": "function"
    },
    {
      "inputs": [
        {
          "internalType": "address",
          "name": "",
          "type": "address"
        }
      ],
      "name": "userReputation",
      "outputs": [
        {
          "internalType": "euint16",
          "name": "encScore",
          "type": "bytes32"
        },
        {
          "internalType": "uint256",
          "name": "lastUpdate",
          "type": "uint256"
        },
        {
          "internalType": "uint256",
          "name": "lastDecayTime",
          "type": "uint256"
        },
        {
          "internalType": "euint16",
          "name": "encVotingRep",
          "type": "bytes32"
        },
        {
          "internalType": "euint16",
          "name": "encSocialRep",
          "type": "bytes32"
        },
        {
          "internalType": "euint16",
          "name": "encCommunityRep",
          "type": "bytes32"
        },
        {
          "internalType": "euint16",
          "name": "encGovernanceRep",
          "type": "bytes32"
        },
        {
          "internalType": "euint16",
          "name": "encCreatorRep",
          "type": "bytes32"
        },
        {
          "internalType": "bool",
          "name": "initialized",
          "type": "bool"
        }
      ],
      "stateMutability": "view",
      "type": "function"
    }
  ],
  "bytecode": "0x60806040523461062a5761001161085b565b50466001036105445761002261085b565b5061002b61062f565b6000815260006020820152600060408201525b80517f9e7b61f58c47dc699ac88507c4f5bb9f121c03808c5676a8078fe583e464970080546001600160a01b03199081166001600160a01b039384161790915560208301517f9e7b61f58c47dc699ac88507c4f5bb9f121c03808c5676a8078fe583e4649701805483169184169190911790556040909201517f9e7b61f58c47dc699ac88507c4f5bb9f121c03808c5676a8078fe583e464970280549093169116179055331561052e5760008054336001600160a01b0319821681178355916001600160a01b03909116907f8be0079c531659141344cd1fd0a4f28419497f9722a3daafe3b4186f6b6457e09080a361016c61013861062f565b6101426040610664565b60088152672732bbb1b7b6b2b960c11b602082015281526000602082015260636040820152610689565b6101af61017761062f565b6101816040610664565b600b81526a21b7b73a3934b13aba37b960a91b602082015281526064602082015261012b6040820152610689565b6101f56101ba61062f565b6101c46040610664565b600d81526c20b1ba34bb329026b2b6b132b960991b6020820152815261012c60208201526101f36040820152610689565b61023561020061062f565b61020a6040610664565b6007815266151c9d5cdd195960ca1b602082015281526101f460208201526102bb6040820152610689565b61027561024061062f565b61024a6040610664565b60078152662b32ba32b930b760c91b602082015281526102bc60208201526103516040820152610689565b6102b461028061062f565b61028a6040610664565b6006815265131959d95b9960d21b6020820152815261035260208201526103b56040820152610689565b6102f36102bf61062f565b6102c96040610664565b60068152654d797468696360d01b602082015281526103b660208201526103e86040820152610689565b600460205260647f07537d38d4325d38b5cce91c9aecc0b950df0d31b3f561cd4540a6d03fc1af0781905560967f866db78ff75724050a8b0deac48d205044bed453081ddf47a0a16529b23eb4455560787f457f6f10ffd893be11041dcf9ef2acc8ce8bb51b7bc6d1ab963d5b35f122be705560c87feff6a5dad01e9fa7e9bedf7dfbfa032686ea73778ee40e8c9ef3f1146641894381905560327fa5515ab3d20b1c7687f1b25e1459a1662449f418c7a9c24f234dfdf9d945a0458190557fd64c53845f9c45e203bc7ef27953ab2f532560b6cb760363687cb119ac94530f83905561012c7f7a4736bc608ecc947f4832dacc505d0f6a90df4b034626fc59ee552108afc159556101f47fb9a4eb8cca78e8e99827cafa7a0e30f57f28411ac466b7f7b608ba6162cafc7581905560fa7f5d626f84e5e1d00d3f1f6d842555eec0f15bfe98532e19e41541fe9b1eefa5f2557f7e9306a9ec117765507ff5d984c0f90aa42873c6381d25b9f8178a5f3b4ab7eb929092557f609a637abf69578ee7c8b35ed2917470d4a62b3d11f8b70c445fc95f835539959290925560507f98045981d6428b0ac2e5d6097d3e272d0d12bb28e5eb1232e2e8dcbf474f74a4557fc2b62ce0b1adfcb6cd1e5b1e1622dc63ebe99b20a802078dac9c45191140d273919091557fd2d538b3fad09b3e4da9da27464b24c7e6eff12e487ce82a3f4027ffd62e08c06000527f7acabfb653161b77deef6e1fdfa93cd1b66f400626d894a5c3b40df1e652cc3d55604051611a8490816108798239f35b631e4fbdf760e01b600052600060045260246000fd5b4662aa36a7036105af5761055661085b565b5061055f61062f565b73f0ffdc93b7e186bc2f8cb3daa75d86d1930a433d81527392c920834ec8941d2c77d188936e1f7a6f49c127602082015273be0e383937d564d7ff0bc3b46c51f0bf8d5c311a604082015261003e565b46617a6903610619576105c061085b565b506105c961062f565b7350157cffd6bbfa2dece204a89ec419c23ef5755d815273e3a9105a3a932253a70f126eb1e3b589c643dd24602082015273901f8942346f7ab3a01f6d7613119bca447bb030604082015261003e565b6373cac13b60e01b60005260046000fd5b600080fd5b60405190606082016001600160401b0381118382101761064e57604052565b634e487b7160e01b600052604160045260246000fd5b6040519190601f01601f191682016001600160401b0381118382101761064e57604052565b906003546801000000000000000081101561064e5760018101806003558110156108455760036000528251805190939160011b7fc2575a0e9e593c00f959f8c92f12db2869c3395a3b0502d05e2516446f71f85b01906001600160401b03811161064e578154600181811c9116801561083b575b602082101461082557601f81116107dd575b506020601f82116001146107745781906001949596600092610769575b5050600019600383901b1c191690831b1781555b019061ffff60208201511663ffff00006040845493015160101b169163ffffffff191617179055565b01519050388061072c565b601f1982169583600052816000209660005b8181106107c557509160019596979184879594106107ac575b505050811b018155610740565b015160001960f88460031b161c1916905538808061079f565b83830151895560019098019760209384019301610786565b826000526020600020601f830160051c8101916020841061081b575b601f0160051c01905b81811061080f575061070f565b60008155600101610802565b90915081906107f9565b634e487b7160e01b600052602260045260246000fd5b90607f16906106fd565b634e487b7160e01b600052603260045260246000fd5b61086361062f565b9060008252600060208301526000604083015256fe608080604052600436101561001357600080fd5b600090813560e01c90816317f6fe5b14611060575080631de40e49146110445780631e9d4904146110265780632a7e052314610f075780632f05ccbc14610e7b5780636386c1c714610e22578063697c604514610e06578063715018a614610dac5780638927b03014610d895780638da5cb5b14610d6257806391522b7914610d38578063942b23da14610c91578063973dde91146107545780639b7ebc5b146106eb5780639decbd2b146106b2578063a8967b301461065b578063bab49b49146104e6578063bf69f5b1146104c4578063bff1f9e1146104a6578063c82a108914610423578063cb14fd04146102ed578063d213c0f2146102d0578063d8c2277814610253578063e503bb05146101bc5763f2fde38b1461013457600080fd5b346101b95760203660031901126101b95761014d61109c565b6101556115d1565b6001600160a01b031680156101a55781546001600160a01b03198116821783556001600160a01b03167f8be0079c531659141344cd1fd0a4f28419497f9722a3daafe3b4186f6b6457e08380a380f35b631e4fbdf760e01b82526004829052602482fd5b80fd5b50346101b95760203660031901126101b957610120906040906001600160a01b036101e561109c565b16815260016020522080549060018101549060028101546003820154600483015460058401549160068501549360ff600860078801549701541696604051988952602089015260408801526060870152608086015260a085015260c084015260e08301521515610100820152f35b50346101b95760403660031901126101b95760043567ffffffffffffffff81116102cc576102859036906004016110c8565b90602435916102926115d1565b61271083116102bd57906102a791369161131a565b6020815191012082526004602052604082205580f35b638f651fb760e01b8452600484fd5b5080fd5b50346101b957806003193601126101b95760206040516103e88152f35b50346101b95760203660031901126101b9576001600160a01b0361030f61109c565b16815260016020526040812060ff60088201541661032b575080f35b54604080519161033b82846110f6565b600183526020830190601f19830136833783511561040f5781527f9e7b61f58c47dc699ac88507c4f5bb9f121c03808c5676a8078fe583e4649700546001600160a01b031690813b1561040b578251637d6e912360e11b8152602060048201529351602485018190526044850193869390928692855b8181106103ef57505050818481819796959603925af19081156103e457506103d857505080f35b6103e1916110f6565b80f35b51913d9150823e3d90fd5b825188526020978801978a9750899550909201916001016103b1565b8480fd5b634e487b7160e01b85526032600452602485fd5b50346101b95760403660031901126101b95761043d61109c565b602435908115158092036104a25760207f7bfed9e73cc01c459d482800942a9eef9046d01f68c4881d389495df294d10ca916104776115d1565b6001600160a01b0316808552600282526040808620805460ff191660ff87161790555193845292a280f35b8280fd5b50346101b957806003193601126101b9576020600554604051908152f35b50346101b95760203660031901126101b9576103e16104e161109c565b61162b565b50346101b957806003193601126101b95760035467ffffffffffffffff81116106475760208160051b0161051d60405191826110f6565b818152602081018092600385527fc2575a0e9e593c00f959f8c92f12db2869c3395a3b0502d05e2516446f71f85b85925b8284106105dd57868587604051928392602084019060208552518091526040840160408260051b8601019392905b82821061058b57505050500390f35b919360019193955060208091603f19898203018552875190604061ffff816105bc85516060865260608601906111fe565b9482878201511687860152015116910152960192019201859493919261057c565b6040516060810181811067ffffffffffffffff8211176106335760019260029260209260405261060c8661112e565b815261ffff858701548181168584015260101c16604082015281520192019301929061054e565b634e487b7160e01b89526041600452602489fd5b634e487b7160e01b82526041600452602482fd5b50346101b95760203660031901126101b95760043567ffffffffffffffff81116102cc5760209161069c61069560409336906004016110c8565b369161131a565b8381519101208152600483522054604051908152f35b50346101b95760203660031901126101b9576020906040906001600160a01b036106da61109c565b168152600183522054604051908152f35b50346101b95760203660031901126101b95760a0906040906001600160a01b0361071361109c565b168152600160205220600381015490600481015490600581015460076006830154920154926040519485526020850152604084015260608301526080820152f35b50346101b95760803660031901126101b95761076e61109c565b9060243567ffffffffffffffff81116102cc5761078f9036906004016110c8565b929060443561ffff8116809103610c8d5760643594338552600260205260ff6040862054161580610c79575b610c6a576001600160a01b038416938415610c5b578486526001602052604086206008810160ff81541615610bc0575b50506107f68161162b565b61080136838661131a565b60208151910120865260046020526040862054968715610bb7575b87840297841594890414841715610ba35761ffff612710889998979804169384159081610b9a575b50610b91575b8686526001602052604086209061086461ffff8616611903565b9061087082845461187c565b600080516020611a2f83398151915254604051639cd07acb60e01b81526103e860048201526003602482015290602090829060449082908e906001600160a01b03165af1908115610b86578a91610b50575b50602081838415610b42575b8315610b2e575b60649060018060a01b03600080516020611a2f83398151915254169d6040519e8f9485936385362ee760e01b8552600485015260248401528160448401525af1998a15610b23578c9a610ada575b50946109be949261095c8295936109ca99987f566a46acc4d72477a0809103760bbffe65781480ede2c4a6d4421924946789939d6114aa565b84557f7cbb12e82a6d63ff16fe43977f43e3e2b247ecd4e62c0e340da8800a48c6734681036109d057506109ac916109a661099c6003860192835461187c565b80835530906119af565b546119af565b4260018201556109a6815430906119af565b6040519384938461123f565b0390a280f35b7f88c66d6c4841eda37d335c6bacda17221b192eb491233cf4b983d8b4d79ff7f98103610a135750610a0e916109a661099c6004860192835461187c565b6109ac565b7fe94d78b6d8fb99b2c21131eb4552924a60f564d8515a3cc90ef300fc9735c0748103610a515750610a0e916109a661099c6005860192835461187c565b7f35a7846a2a701fff6f9d61a46ebff5da578c5dcee8bdf361c569f9ea4ee647718103610a8f5750610a0e916109a661099c6006860192835461187c565b7f3c2519c4487d47714872f92cf90a50c25f5deaec2789dc2a497b1272df611db614610abd575b50506109ac565b610ad3916109a661099c6007860192835461187c565b3882610ab6565b96959391949299508b8760203d602011610b1c575b602092610afc82846110f6565b5081010312610b185795519894959294919390926109be610923565b8b80fd5b503d610aef565b6040513d8e823e3d90fd5b90506064610b3a611959565b9190506108d5565b50610b4b611959565b6108ce565b90506020813d602011610b7e575b81610b6b602093836110f6565b81010312610b7a5751386108c2565b8980fd5b3d9150610b5e565b6040513d8c823e3d90fd5b6001935061084a565b90501538610844565b634e487b7160e01b87526011600452602487fd5b6064975061081c565b610bc8611959565b8255610bd2611959565b6003830155610bdf611959565b6004830155610bec611959565b6005830155610bf9611959565b6006830155610c06611959565b6007830155426002830155805460ff191660011790556005546000198114610c4757610c409160018492016005556109a6815430906119af565b38806107eb565b634e487b7160e01b88526011600452602488fd5b63fd684c3b60e01b8652600486fd5b63ea8e4eb560e01b8552600485fd5b5084546001600160a01b03163314156107bb565b8380fd5b50346101b95760203660031901126101b9576004356003548110156102cc57600382610d2293505260011b7fc2575a0e9e593c00f959f8c92f12db2869c3395a3b0502d05e2516446f71f85c610d08827fc2575a0e9e593c00f959f8c92f12db2869c3395a3b0502d05e2516446f71f85b0161112e565b91015461ffff6040519384936060855260608501906111fe565b91818116602085015260101c1660408301520390f35b50346101b95760203660031901126101b95760406020916004358152600483522054604051908152f35b50346101b957806003193601126101b957546040516001600160a01b039091168152602090f35b50346101b957806003193601126101b9576020610da46115fa565b604051908152f35b50346101b957806003193601126101b957610dc56115d1565b80546001600160a01b03198116825581906001600160a01b03167f8be0079c531659141344cd1fd0a4f28419497f9722a3daafe3b4186f6b6457e08280a380f35b50346101b957806003193601126101b957602090604051908152f35b50346101b95760203660031901126101b9576060906040906001600160a01b03610e4a61109c565b16815260016020522060018101549060ff600860028301549201541690604051928352602083015215156040820152f35b50346101b95760603660031901126101b957610e9561109c565b90610e9e6110b7565b60443567ffffffffffffffff81116104a257610ebe9036906004016110c8565b91338452600260205260ff6040852054161580610ef3575b610ee4576103e19394611271565b63ea8e4eb560e01b8452600484fd5b5083546001600160a01b0316331415610ed6565b50346101b95760403660031901126101b957610f2161109c565b610f3561ffff610f2f6110b7565b16611903565b6001600160a01b0390911682526001602052604082205490808215611016575b15611004575b602090606460018060a01b03600080516020611a2f833981519152541693856040519586948593631391547f60e01b8552600485015260248401528160448401525af1908115610ff9578291610fc3575b602082610fb930826119af565b610da433826119af565b90506020813d602011610ff1575b81610fde602093836110f6565b810103126102cc57602091505138610fac565b3d9150610fd1565b6040513d84823e3d90fd5b50602061100f611959565b9050610f5b565b9150611020611959565b91610f55565b50346101b957806003193601126101b957602060405162278d008152f35b50346101b957806003193601126101b957602060405160018152f35b9050346102cc5760203660031901126102cc5760209160ff906040906001600160a01b0361108c61109c565b1681526002855220541615158152f35b600435906001600160a01b03821682036110b257565b600080fd5b6024359061ffff821682036110b257565b9181601f840112156110b25782359167ffffffffffffffff83116110b257602083818601950101116110b257565b90601f8019910116810190811067ffffffffffffffff82111761111857604052565b634e487b7160e01b600052604160045260246000fd5b906040519160008154918260011c926001811680156111f4575b6020851081146111e0578487528693929181156111be5750600114611177575b50611175925003836110f6565b565b90506000929192526020600020906000915b8183106111a25750509060206111759282010138611168565b6020919350806001915483858901015201910190918492611189565b90506020925061117594915060ff191682840152151560051b82010138611168565b634e487b7160e01b84526022600452602484fd5b93607f1693611148565b919082519283825260005b84811061122a575050826000602080949584010152601f8019910116010190565b80602080928401015182828601015201611209565b919260609361ffff829316845260406020850152816040850152848401376000828201840152601f01601f1916010190565b6001600160a01b038116600081815260016020526040902060088101549195909493929160ff1615611312576109be61130d927f566a46acc4d72477a0809103760bbffe65781480ede2c4a6d442192494678993966109a66112fd6112d961ffff8916611903565b6112e1611959565b6112f76112ef838754611361565b928654611423565b916114aa565b80835542600184015530906119af565b0390a2565b505050505050565b92919267ffffffffffffffff82116111185760405191611344601f8201601f1916602001846110f6565b8294818452818301116110b2578281602093846000960137010152565b908115611413575b8015611401575b602090606460018060a01b03600080516020611a2f83398151915254169360006040519586948593637210768160e01b8552600485015260248401528160448401525af19081156113f5576000916113c6575090565b90506020813d6020116113ed575b816113e1602093836110f6565b810103126110b2575190565b3d91506113d4565b6040513d6000823e3d90fd5b50602061140c611959565b9050611370565b905061141d611959565b90611369565b90811561149a575b8015611488575b602090606460018060a01b03600080516020611a2f833981519152541693600060405195869485936303056db360e31b8552600485015260248401528160448401525af19081156113f5576000916113c6575090565b506020611493611959565b9050611432565b90506114a4611959565b9061142b565b9190821561153a575b801561152c575b8115611516575b606460209293600060018060a01b03600080516020611a2f83398151915254166040519687958694637702dcff60e01b86526004860152602485015260448401525af19081156113f5576000916113c6575090565b602091506064611524611959565b9250506114c1565b50611535611959565b6114ba565b9150600080602060018060a01b03600080516020611a2f8339815191525416604460405180948193639cd07acb60e01b83528160048401528160248401525af19182156115c5578092611590575b5050916114b3565b9091506020823d6020116115bd575b816115ac602093836110f6565b810103126101b95750513880611588565b3d915061159f565b604051903d90823e3d90fd5b6000546001600160a01b031633036115e557565b63118cdaa760e01b6000523360045260246000fd5b4660010361160757600190565b4662aa36a7036116175761271190565b617a69461461162557600090565b60001990565b6001600160a01b038116600081815260016020526040812060088101549293919260ff16158015611870575b611864576002810192835442034281116118505762278d0090048061167e57505050505050565b61ffff16905060648111611848575b61ffff61169a9116611903565b815490808215611838575b15611826575b602090606460018060a01b03600080516020611a2f83398151915254169360006040519586948593630afe14ad60e31b8552600485015260248401528160448401525af19081156113f5576000916117f4575b5080156117df575b600080516020611a2f83398151915254604051635a53accb60e01b81526004810192909252606460248301819052600160f81b604484015260209183919082906000906001600160a01b03165af19081156113f5576000916117ab575b50906109a661099c61177894936112e1611959565b4290557f718b2ec3f0a77e61e4aa8b6a1f44dd7875e2ee49a3b072d14fd82de70b4fb411600080a2388080808080611312565b906020823d6020116117d7575b816117c5602093836110f6565b810103126101b95750516109a6611763565b3d91506117b8565b50600060206117ec611959565b915050611706565b906020823d60201161181e575b8161180e602093836110f6565b810103126101b9575051386116fe565b3d9150611801565b506020611831611959565b90506116ab565b9150611842611959565b916116a5565b50606461168d565b634e487b7160e01b82526011600452602482fd5b92505050600242910155565b50600281015415611657565b9081156118f3575b80156118e1575b602090606460018060a01b03600080516020611a2f8339815191525416936000604051958694859363022f65e760e31b8552600485015260248401528160448401525af19081156113f5576000916113c6575090565b5060206118ec611959565b905061188b565b90506118fd611959565b90611884565b600080516020611a2f83398151915254604051639cd07acb60e01b8152600481019290925260036024830152602090829060449082906000906001600160a01b03165af19081156113f5576000916113c6575090565b600080516020611a2f83398151915254604051639cd07acb60e01b8152600060048201819052600360248301529091602091839160449183916001600160a01b03165af19081156113f5576000916113c6575090565b7f9e7b61f58c47dc699ac88507c4f5bb9f121c03808c5676a8078fe583e4649700546000926001600160a01b0390911691823b15610c8d579060448492836040519586948593635ca4b5b160e11b8552600485015260018060a01b031660248401525af18015610ff957611a21575050565b81611a2b916110f6565b5056fe9e7b61f58c47dc699ac88507c4f5bb9f121c03808c5676a8078fe583e4649701a26469706673582212201ba32d879bb205cca44a327c0767d30369957687feadd1c13c1ee10de24357a864736f6c634300081b0033",
  "linkReferences": {},
  "deployedLinkReferences": {}
}