{
  "_format": "hh-sol-artifact-1",
  "contractName": "ZappsAccessController",
  "sourceName": "contracts/ZappsAccessController.sol",
  "abi": [
    {
      "inputs": [],
      "stateMutability": "nonpayable",
      "type": "constructor"
    },
    {
      "inputs": [],
      "name": "AlreadyHasRole",
      "type": "error"
    },
    {
      "inputs": [],
      "name": "DoesNotHaveRole",
      "type": "error"
    },
    {
      "inputs": [],
      "name": "GloballyPaused",
      "type": "error"
    },
    {
      "inputs": [],
      "name": "InvalidAccount",
      "type": "error"
    },
    {
      "inputs": [],
      "name": "InvalidAddresses",
      "type": "error"
    },
    {
      "inputs": [],
      "name": "InvalidContract",
      "type": "error"
    },
    {
      "inputs": [],
      "name": "InvalidModule",
      "type": "error"
    },
    {
      "inputs": [],
      "name": "InvalidOwner",
      "type": "error"
    },
    {
      "inputs": [],
      "name": "LengthMismatch",
      "type": "error"
    },
    {
      "inputs": [],
      "name": "MissingRole",
      "type": "error"
    },
    {
      "inputs": [],
      "name": "NotOwner",
      "type": "error"
    },
    {
      "anonymous": false,
      "inputs": [
        {
          "indexed": true,
          "internalType": "address",
          "name": "contractAddr",
          "type": "address"
        },
        {
          "indexed": false,
          "internalType": "bool",
          "name": "paused",
          "type": "bool"
        }
      ],
      "name": "ContractPauseToggled",
      "type": "event"
    },
    {
      "anonymous": false,
      "inputs": [
        {
          "indexed": false,
          "internalType": "bool",
          "name": "paused",
          "type": "bool"
        }
      ],
      "name": "GlobalPauseToggled",
      "type": "event"
    },
    {
      "anonymous": false,
      "inputs": [
        {
          "indexed": true,
          "internalType": "address",
          "name": "module",
          "type": "address"
        },
        {
          "indexed": false,
          "internalType": "bool",
          "name": "status",
          "type": "bool"
        }
      ],
      "name": "ModuleAuthorized",
      "type": "event"
    },
    {
      "anonymous": false,
      "inputs": [
        {
          "indexed": true,
          "internalType": "address",
          "name": "caller",
          "type": "address"
        },
        {
          "indexed": true,
          "internalType": "address",
          "name": "target",
          "type": "address"
        },
        {
          "indexed": false,
          "internalType": "bool",
          "name": "allowed",
          "type": "bool"
        }
      ],
      "name": "ModulePermissionSet",
      "type": "event"
    },
    {
      "anonymous": false,
      "inputs": [
        {
          "indexed": true,
          "internalType": "address",
          "name": "oldOwner",
          "type": "address"
        },
        {
          "indexed": true,
          "internalType": "address",
          "name": "newOwner",
          "type": "address"
        }
      ],
      "name": "OwnerTransferred",
      "type": "event"
    },
    {
      "anonymous": false,
      "inputs": [
        {
          "indexed": true,
          "internalType": "bytes32",
          "name": "role",
          "type": "bytes32"
        },
        {
          "indexed": true,
          "internalType": "address",
          "name": "account",
          "type": "address"
        },
        {
          "indexed": true,
          "internalType": "address",
          "name": "sender",
          "type": "address"
        }
      ],
      "name": "RoleGranted",
      "type": "event"
    },
    {
      "anonymous": false,
      "inputs": [
        {
          "indexed": true,
          "internalType": "bytes32",
          "name": "role",
          "type": "bytes32"
        },
        {
          "indexed": true,
          "internalType": "address",
          "name": "account",
          "type": "address"
        },
        {
          "indexed": true,
          "internalType": "address",
          "name": "sender",
          "type": "address"
        }
      ],
      "name": "RoleRevoked",
      "type": "event"
    },
    {
      "inputs": [],
      "name": "ADMIN_ROLE",
      "outputs": [
        {
          "internalType": "bytes32",
          "name": "",
          "type": "bytes32"
        }
      ],
      "stateMutability": "view",
      "type": "function"
    },
    {
      "inputs": [],
      "name": "BURNER_ROLE",
      "outputs": [
        {
          "internalType": "bytes32",
          "name": "",
          "type": "bytes32"
        }
      ],
      "stateMutability": "view",
      "type": "function"
    },
    {
      "inputs": [],
      "name": "MINTER_ROLE",
      "outputs": [
        {
          "internalType": "bytes32",
          "name": "",
          "type": "bytes32"
        }
      ],
      "stateMutability": "view",
      "type": "function"
    },
    {
      "inputs": [],
      "name": "MODERATOR_ROLE",
      "outputs": [
        {
          "internalType": "bytes32",
          "name": "",
          "type": "bytes32"
        }
      ],
      "stateMutability": "view",
      "type": "function"
    },
    {
      "inputs": [],
      "name": "OWNER_ROLE",
      "outputs": [
        {
          "internalType": "bytes32",
          "name": "",
          "type": "bytes32"
        }
      ],
      "stateMutability": "view",
      "type": "function"
    },
    {
      "inputs": [],
      "name": "QUEST_MANAGER_ROLE",
      "outputs": [
        {
          "internalType": "bytes32",
          "name": "",
          "type": "bytes32"
        }
      ],
      "stateMutability": "view",
      "type": "function"
    },
    {
      "inputs": [],
      "name": "REPUTATION_MANAGER_ROLE",
      "outputs": [
        {
          "internalType": "bytes32",
          "name": "",
          "type": "bytes32"
        }
      ],
      "stateMutability": "view",
      "type": "function"
    },
    {
      "inputs": [],
      "name": "REWARD_DISTRIBUTOR_ROLE",
      "outputs": [
        {
          "internalType": "bytes32",
          "name": "",
          "type": "bytes32"
        }
      ],
      "stateMutability": "view",
      "type": "function"
    },
    {
      "inputs": [
        {
          "internalType": "address",
          "name": "module",
          "type": "address"
        },
        {
          "internalType": "bool",
          "name": "status",
          "type": "bool"
        }
      ],
      "name": "authorizeModule",
      "outputs": [],
      "stateMutability": "nonpayable",
      "type": "function"
    },
    {
      "inputs": [
        {
          "internalType": "address",
          "name": "",
          "type": "address"
        }
      ],
      "name": "authorizedModules",
      "outputs": [
        {
          "internalType": "bool",
          "name": "",
          "type": "bool"
        }
      ],
      "stateMutability": "view",
      "type": "function"
    },
    {
      "inputs": [
        {
          "internalType": "bytes32[]",
          "name": "roleList",
          "type": "bytes32[]"
        },
        {
          "internalType": "address[]",
          "name": "accounts",
          "type": "address[]"
        }
      ],
      "name": "batchGrantRoles",
      "outputs": [],
      "stateMutability": "nonpayable",
      "type": "function"
    },
    {
      "inputs": [
        {
          "internalType": "bytes32[]",
          "name": "roleList",
          "type": "bytes32[]"
        },
        {
          "internalType": "address[]",
          "name": "accounts",
          "type": "address[]"
        }
      ],
      "name": "batchRevokeRoles",
      "outputs": [],
      "stateMutability": "nonpayable",
      "type": "function"
    },
    {
      "inputs": [
        {
          "internalType": "address",
          "name": "caller",
          "type": "address"
        },
        {
          "internalType": "address",
          "name": "target",
          "type": "address"
        }
      ],
      "name": "canModuleCall",
      "outputs": [
        {
          "internalType": "bool",
          "name": "",
          "type": "bool"
        }
      ],
      "stateMutability": "view",
      "type": "function"
    },
    {
      "inputs": [
        {
          "internalType": "address",
          "name": "account",
          "type": "address"
        },
        {
          "internalType": "bytes32[]",
          "name": "roleList",
          "type": "bytes32[]"
        }
      ],
      "name": "checkMultipleRoles",
      "outputs": [
        {
          "internalType": "bool[]",
          "name": "",
          "type": "bool[]"
        }
      ],
      "stateMutability": "view",
      "type": "function"
    },
    {
      "inputs": [
        {
          "internalType": "address",
          "name": "account",
          "type": "address"
        },
        {
          "internalType": "bytes32",
          "name": "role",
          "type": "bytes32"
        }
      ],
      "name": "checkPermission",
      "outputs": [
        {
          "internalType": "bool",
          "name": "",
          "type": "bool"
        }
      ],
      "stateMutability": "view",
      "type": "function"
    },
    {
      "inputs": [
        {
          "internalType": "address",
          "name": "",
          "type": "address"
        }
      ],
      "name": "contractPaused",
      "outputs": [
        {
          "internalType": "bool",
          "name": "",
          "type": "bool"
        }
      ],
      "stateMutability": "view",
      "type": "function"
    },
    {
      "inputs": [],
      "name": "getRoleAdmin",
      "outputs": [
        {
          "internalType": "bytes32",
          "name": "",
          "type": "bytes32"
        }
      ],
      "stateMutability": "pure",
      "type": "function"
    },
    {
      "inputs": [],
      "name": "globalPaused",
      "outputs": [
        {
          "internalType": "bool",
          "name": "",
          "type": "bool"
        }
      ],
      "stateMutability": "view",
      "type": "function"
    },
    {
      "inputs": [
        {
          "internalType": "bytes32",
          "name": "role",
          "type": "bytes32"
        },
        {
          "internalType": "address",
          "name": "account",
          "type": "address"
        }
      ],
      "name": "grantRole",
      "outputs": [],
      "stateMutability": "nonpayable",
      "type": "function"
    },
    {
      "inputs": [
        {
          "internalType": "bytes32",
          "name": "role",
          "type": "bytes32"
        },
        {
          "internalType": "address",
          "name": "account",
          "type": "address"
        }
      ],
      "name": "hasRole",
      "outputs": [
        {
          "internalType": "bool",
          "name": "",
          "type": "bool"
        }
      ],
      "stateMutability": "view",
      "type": "function"
    },
    {
      "inputs": [
        {
          "internalType": "address",
          "name": "contractAddr",
          "type": "address"
        }
      ],
      "name": "isContractPaused",
      "outputs": [
        {
          "internalType": "bool",
          "name": "",
          "type": "bool"
        }
      ],
      "stateMutability": "view",
      "type": "function"
    },
    {
      "inputs": [
        {
          "internalType": "address",
          "name": "module",
          "type": "address"
        }
      ],
      "name": "isModuleAuthorized",
      "outputs": [
        {
          "internalType": "bool",
          "name": "",
          "type": "bool"
        }
      ],
      "stateMutability": "view",
      "type": "function"
    },
    {
      "inputs": [
        {
          "internalType": "address",
          "name": "",
          "type": "address"
        },
        {
          "internalType": "address",
          "name": "",
          "type": "address"
        }
      ],
      "name": "modulePermissions",
      "outputs": [
        {
          "internalType": "bool",
          "name": "",
          "type": "bool"
        }
      ],
      "stateMutability": "view",
      "type": "function"
    },
    {
      "inputs": [],
      "name": "owner",
      "outputs": [
        {
          "internalType": "address",
          "name": "",
          "type": "address"
        }
      ],
      "stateMutability": "view",
      "type": "function"
    },
    {
      "inputs": [
        {
          "internalType": "bytes32",
          "name": "role",
          "type": "bytes32"
        },
        {
          "internalType": "address",
          "name": "account",
          "type": "address"
        }
      ],
      "name": "revokeRole",
      "outputs": [],
      "stateMutability": "nonpayable",
      "type": "function"
    },
    {
      "inputs": [
        {
          "internalType": "address",
          "name": "contractAddr",
          "type": "address"
        },
        {
          "internalType": "bool",
          "name": "paused",
          "type": "bool"
        }
      ],
      "name": "setContractPause",
      "outputs": [],
      "stateMutability": "nonpayable",
      "type": "function"
    },
    {
      "inputs": [
        {
          "internalType": "bool",
          "name": "paused",
          "type": "bool"
        }
      ],
      "name": "setGlobalPause",
      "outputs": [],
      "stateMutability": "nonpayable",
      "type": "function"
    },
    {
      "inputs": [
        {
          "internalType": "address",
          "name": "caller",
          "type": "address"
        },
        {
          "internalType": "address",
          "name": "target",
          "type": "address"
        },
        {
          "internalType": "bool",
          "name": "allowed",
          "type": "bool"
        }
      ],
      "name": "setModulePermission",
      "outputs": [],
      "stateMutability": "nonpayable",
      "type": "function"
    },
    {
      "inputs": [
        {
          "internalType": "bytes4",
          "name": "interfaceId",
          "type": "bytes4"
        }
      ],
      "name": "supportsInterface",
      "outputs": [
        {
          "internalType": "bool",
          "name": "",
          "type": "bool"
        }
      ],
      "stateMutability": "pure",
      "type": "function"
    },
    {
      "inputs": [
        {
          "internalType": "address",
          "name": "newOwner",
          "type": "address"
        }
      ],
      "name": "transferOwnership",
      "outputs": [],
      "stateMutability": "nonpayable",
      "type": "function"
    }
  ],
  "bytecode": "0x60806040523461010557600080546001600160a01b0319163390811782558082527f8366cf3d1f22e016a4383cd787a38848a0ff8b01fc3232d3decffd5218429fd060209081526040808420805460ff1990811660019081179092557fd52cfefb3f6fd7766669e08a03d2ceb3243383019e3a5fed2a519df30ee55b92909352818520805490931617909155519181907f6270edb7c868f86fda4adedba75108201087268ea345934db8bad688e1feb91b906000805160206111b38339815191529080a433337fdf8b4c520ffe197c5343c6f5aec59570151ef9a492f2c624fd45ddde6135ec426000805160206111b3833981519152600080a46110a8908161010b8239f35b600080fdfe608080604052600436101561001357600080fd5b60003560e01c90816301ffc9a714610f22575080630be1345014610e285780630cf134a414610cd457806317f6fe5b146107c7578063282c51f314610c995780632f2ff15d14610bb75780632fb1c86a14610b7857806332e4bb0a14610b3d5780634df70d2b14610a8d578063616454bc14610a3257806361a552dc14610a0f5780636200354a146108e857806366f75687146108ad57806369a6b3db1461084157806375b238fc14610716578063797669c91461080657806385d2589d146107c75780638da5cb5b1461079e57806391d1485414610751578063a9c9fdb514610716578063b0f008eb146106c2578063c0fded2414610588578063c26d807014610507578063c82a10891461044c578063d539139314610411578063d547741f14610328578063d6392057146102d5578063e58378bb1461029a578063eb0fd86a1461025f5763f2fde38b1461016957600080fd5b3461025a57602036600319011261025a57610182610f58565b6000546001600160a01b03169033829003610249576001600160a01b0316908115610238576001600160a01b0390811660009081527f8366cf3d1f22e016a4383cd787a38848a0ff8b01fc3232d3decffd5218429fd06020526040808220805460ff19908116909155848352908220805490911660011790558054918391908316907f8934ce4adea8d9ce0d714d2c22b86790e41b7731c84b926fbbdc1d40ff6533c99080a36001600160a01b03191617600055005b6349e27cff60e01b60005260046000fd5b6330cd747160e01b60005260046000fd5b600080fd5b3461025a57600036600319011261025a5760206040517fab015d81e608316c709d7fa591ef4cf867bbfaf1d44d0bc97362fea3f8354f1b8152f35b3461025a57600036600319011261025a5760206040517f6270edb7c868f86fda4adedba75108201087268ea345934db8bad688e1feb91b8152f35b3461025a57604036600319011261025a57602061031e6102f3610f58565b602435600052600160205260406000209060018060a01b031660005260205260ff6040600020541690565b6040519015158152f35b3461025a57604036600319011261025a57600435610344610f6e565b336000908152600080516020611053833981519152602052604090205490919060ff161561040057806000526001602052604060002060018060a01b03831660005260205260ff60406000205416156103ef5760008181526001602090815260408083206001600160a01b0395909516808452949091528120805460ff19169055339291907ff6391f5c32d9c69d2a47ea670b442974b53935d1edc7fd64eb21e047a839171b9080a4005b638907dbfd60e01b60005260046000fd5b634a11ac9160e11b60005260046000fd5b3461025a57600036600319011261025a5760206040517ff0887ba65ee2024ea881d91b74c2450ef19e1557f03bed3ea9f16b037cbe2dc98152f35b3461025a57604036600319011261025a57610465610f58565b61046d610f84565b336000908152600080516020611053833981519152602052604090205490919060ff1615610400576001600160a01b03169081156104f65760207f7bfed9e73cc01c459d482800942a9eef9046d01f68c4881d389495df294d10ca9183600052600282526104eb8160406000209060ff801983541691151516179055565b6040519015158152a2005b631bb2296560e31b60005260046000fd5b3461025a57604036600319011261025a57610520610f58565b610528610f6e565b6001600160a01b0390911660008181526002602052604090205460ff169081610559575b6020826040519015158152f35b9050600052600360205260406000209060018060a01b0316600052602052602060ff604060002054168261054c565b3461025a5761059636610fc4565b336000908152600080516020611053833981519152602052604090205492939290919060ff1615610400578184036106b15760005b8481106105d457005b806105e2600192878761102e565b356000528160205260ff60408060002061060561060085898961102e565b61103e565b90600091868060a01b03168252602052205416610623575b016105cb565b61062e81878761102e565b356000528160205260408060002061064a61060084888861102e565b90600091858060a01b031682526020522060ff19815416905561066e81878761102e565b353390838060a01b0361068561060085898961102e565b16907ff6391f5c32d9c69d2a47ea670b442974b53935d1edc7fd64eb21e047a839171b600080a461061d565b631fec674760e31b60005260046000fd5b3461025a57602036600319011261025a576106db610f58565b60ff6004541680156106f5575b6020906040519015158152f35b5060018060a01b03166000526005602052602060ff604060002054166106e8565b3461025a57600036600319011261025a5760206040517fdf8b4c520ffe197c5343c6f5aec59570151ef9a492f2c624fd45ddde6135ec428152f35b3461025a57604036600319011261025a5761076a610f6e565b600435600052600160205260406000209060018060a01b0316600052602052602060ff604060002054166040519015158152f35b3461025a57600036600319011261025a576000546040516001600160a01b039091168152602090f35b3461025a57602036600319011261025a576001600160a01b036107e8610f58565b166000526002602052602060ff604060002054166040519015158152f35b3461025a57600036600319011261025a5760206040517f58c8e11deab7910e89bf18a1168c6e6ef28748f00fd3094549459f01cec5e0aa8152f35b3461025a57602036600319011261025a5760043580151580910361025a576000546001600160a01b031633036102495760207f515193bc76407443aafeeb548aba74ca6cc1a82412427f2b4d30f29ac1e1482f9160ff196004541660ff821617600455604051908152a1005b3461025a57600036600319011261025a5760206040517f144e8590daa9d81a043f272b7c8d84928590af1d17d5a1a0cbb186f0f04ff7228152f35b3461025a576108f636610fc4565b336000908152600080516020611053833981519152602052604090205492939290919060ff1615610400578184036106b15760005b84811061093457005b80610942600192878761102e565b356000528160205260ff60408060002061096061060085898961102e565b90600091868060a01b031682526020522054161561097f575b0161092b565b61098a81878761102e565b35600052816020526040806000206109a661060084888861102e565b90600091858060a01b03168252602052208260ff198254161790556109cc81878761102e565b353390838060a01b036109e361060085898961102e565b16907f2f8788117e7eff1d82e926ec794901d17c78024a50270940304540a733656f0d600080a4610979565b3461025a57600036600319011261025a57602060ff600454166040519015158152f35b3461025a57604036600319011261025a57610a4b610f58565b610a53610f6e565b9060018060a01b0316600052600360205260406000209060018060a01b0316600052602052602060ff604060002054166040519015158152f35b3461025a57604036600319011261025a57610aa6610f58565b610aae610f84565b336000908152600080516020611053833981519152602052604090205490919060ff1615610400576001600160a01b0316908115610b2c5760207f6e3d71ed6a4858ef8d7b5cca3a32c4e783897ad0afd0ba1005aea2d7e08adac09183600052600582526104eb8160406000209060ff801983541691151516179055565b6303777f6960e51b60005260046000fd5b3461025a57600036600319011261025a5760206040517f9fdd4208644662869ace48b3082cadc57733575893a2062f0fe410f2bbb541078152f35b3461025a57602036600319011261025a576001600160a01b03610b99610f58565b166000526005602052602060ff604060002054166040519015158152f35b3461025a57604036600319011261025a57600435610bd3610f6e565b336000908152600080516020611053833981519152602052604090205460ff1615610400576001600160a01b03168015610c885781600052600160205260406000208160005260205260ff60406000205416610c77578160005260016020526040600020816000526020526040600020600160ff1982541617905533917f2f8788117e7eff1d82e926ec794901d17c78024a50270940304540a733656f0d600080a4005b6314571ee960e31b60005260046000fd5b630da30f6560e31b60005260046000fd5b3461025a57600036600319011261025a5760206040517f9667e80708b6eeeb0053fa0cca44e028ff548e2a9f029edfeac87c118b08b7c88152f35b3461025a57604036600319011261025a57610ced610f58565b60243567ffffffffffffffff811161025a57610d0d903690600401610f93565b90610d1782611016565b6040519390601f01601f1916840167ffffffffffffffff811185821017610e1257604052828452610d4783611016565b602085019390601f190136853760005b818110610da55784866040519182916020830190602084525180915260408301919060005b818110610d8a575050500390f35b82511515845285945060209384019390920191600101610d7c565b610ddd83610db483858861102e565b35600052600160205260406000209060018060a01b031660005260205260ff6040600020541690565b908651811015610dfc57600191151560208260051b8901015201610d57565b634e487b7160e01b600052603260045260246000fd5b634e487b7160e01b600052604160045260246000fd5b3461025a57606036600319011261025a57610e41610f58565b610e49610f6e565b604435908115159283830361025a57336000908152600080516020611053833981519152602052604090205460ff1615610400576001600160a01b03169182158015610f11575b610f00577f856030c4b3048d24335bd3648cda2f5b2c65584e03357b3d97a97dfe784da75a91610eed6020928560005260038452604060002060018060a01b038416600052845260406000209060ff801983541691151516179055565b6040519485526001600160a01b031693a3005b63ca07b5fb60e01b60005260046000fd5b506001600160a01b03821615610e90565b3461025a57602036600319011261025a576004359063ffffffff60e01b821680920361025a5760209163db49c5fd60e01b148152f35b600435906001600160a01b038216820361025a57565b602435906001600160a01b038216820361025a57565b60243590811515820361025a57565b9181601f8401121561025a5782359167ffffffffffffffff831161025a576020808501948460051b01011161025a57565b604060031982011261025a5760043567ffffffffffffffff811161025a5781610fef91600401610f93565b929092916024359067ffffffffffffffff821161025a5761101291600401610f93565b9091565b67ffffffffffffffff8111610e125760051b60200190565b9190811015610dfc5760051b0190565b356001600160a01b038116810361025a579056fed52cfefb3f6fd7766669e08a03d2ceb3243383019e3a5fed2a519df30ee55b92a26469706673582212205baaa49a02d6856f77ba4f8657aec6fc6ed6347031c9336b67fe43aa319d085364736f6c634300081b00332f8788117e7eff1d82e926ec794901d17c78024a50270940304540a733656f0d",
  "linkReferences": {},
  "deployedLinkReferences": {}
}