{
  "_format": "hh-sol-artifact-1",
  "contractName": "ZappsDiscussion",
  "sourceName": "contracts/ZappsDiscussion.sol",
  "abi": [
    {
      "inputs": [],
      "stateMutability": "nonpayable",
      "type": "constructor"
    },
    {
      "inputs": [],
      "name": "AlreadyBanned",
      "type": "error"
    },
    {
      "inputs": [],
      "name": "AlreadyDownvoted",
      "type": "error"
    },
    {
      "inputs": [],
      "name": "AlreadyModerator",
      "type": "error"
    },
    {
      "inputs": [],
      "name": "AlreadyUpvoted",
      "type": "error"
    },
    {
      "inputs": [],
      "name": "CannotBanOwner",
      "type": "error"
    },
    {
      "inputs": [],
      "name": "CooldownActive",
      "type": "error"
    },
    {
      "inputs": [],
      "name": "CooldownTooLong",
      "type": "error"
    },
    {
      "inputs": [],
      "name": "InsufficientReputation",
      "type": "error"
    },
    {
      "inputs": [],
      "name": "InvalidContentLength",
      "type": "error"
    },
    {
      "inputs": [],
      "name": "InvalidModerator",
      "type": "error"
    },
    {
      "inputs": [],
      "name": "InvalidOwner",
      "type": "error"
    },
    {
      "inputs": [],
      "name": "MessageDeleted_",
      "type": "error"
    },
    {
      "inputs": [],
      "name": "MessageExists",
      "type": "error"
    },
    {
      "inputs": [],
      "name": "MessageNotFound",
      "type": "error"
    },
    {
      "inputs": [],
      "name": "NotBanned",
      "type": "error"
    },
    {
      "inputs": [],
      "name": "NotModerator",
      "type": "error"
    },
    {
      "inputs": [],
      "name": "NotModeratorError",
      "type": "error"
    },
    {
      "inputs": [],
      "name": "NotOwner",
      "type": "error"
    },
    {
      "inputs": [],
      "name": "NotRoomOwner",
      "type": "error"
    },
    {
      "inputs": [],
      "name": "ParentNotFound",
      "type": "error"
    },
    {
      "inputs": [],
      "name": "RoomAlreadyExists",
      "type": "error"
    },
    {
      "inputs": [],
      "name": "RoomFull",
      "type": "error"
    },
    {
      "inputs": [],
      "name": "RoomNotActive",
      "type": "error"
    },
    {
      "inputs": [],
      "name": "UserIsBanned",
      "type": "error"
    },
    {
      "inputs": [],
      "name": "ZamaProtocolUnsupported",
      "type": "error"
    },
    {
      "anonymous": false,
      "inputs": [
        {
          "indexed": true,
          "internalType": "bytes32",
          "name": "messageHash",
          "type": "bytes32"
        },
        {
          "indexed": true,
          "internalType": "address",
          "name": "moderator",
          "type": "address"
        },
        {
          "indexed": false,
          "internalType": "uint256",
          "name": "timestamp",
          "type": "uint256"
        }
      ],
      "name": "MessageDeleted",
      "type": "event"
    },
    {
      "anonymous": false,
      "inputs": [
        {
          "indexed": true,
          "internalType": "uint256",
          "name": "projectId",
          "type": "uint256"
        },
        {
          "indexed": true,
          "internalType": "bytes32",
          "name": "messageHash",
          "type": "bytes32"
        },
        {
          "indexed": true,
          "internalType": "address",
          "name": "author",
          "type": "address"
        },
        {
          "indexed": false,
          "internalType": "bytes32",
          "name": "parentHash",
          "type": "bytes32"
        },
        {
          "indexed": false,
          "internalType": "bool",
          "name": "isEncrypted",
          "type": "bool"
        },
        {
          "indexed": false,
          "internalType": "uint256",
          "name": "timestamp",
          "type": "uint256"
        }
      ],
      "name": "MessagePosted",
      "type": "event"
    },
    {
      "anonymous": false,
      "inputs": [
        {
          "indexed": true,
          "internalType": "bytes32",
          "name": "messageHash",
          "type": "bytes32"
        },
        {
          "indexed": true,
          "internalType": "address",
          "name": "voter",
          "type": "address"
        },
        {
          "indexed": false,
          "internalType": "bool",
          "name": "isUpvote",
          "type": "bool"
        }
      ],
      "name": "MessageVoted",
      "type": "event"
    },
    {
      "anonymous": false,
      "inputs": [
        {
          "indexed": true,
          "internalType": "uint256",
          "name": "projectId",
          "type": "uint256"
        },
        {
          "indexed": true,
          "internalType": "address",
          "name": "moderator",
          "type": "address"
        }
      ],
      "name": "ModeratorAdded",
      "type": "event"
    },
    {
      "anonymous": false,
      "inputs": [
        {
          "indexed": true,
          "internalType": "uint256",
          "name": "projectId",
          "type": "uint256"
        },
        {
          "indexed": true,
          "internalType": "address",
          "name": "moderator",
          "type": "address"
        }
      ],
      "name": "ModeratorRemoved",
      "type": "event"
    },
    {
      "anonymous": false,
      "inputs": [
        {
          "indexed": true,
          "internalType": "uint256",
          "name": "projectId",
          "type": "uint256"
        },
        {
          "indexed": true,
          "internalType": "address",
          "name": "owner_",
          "type": "address"
        },
        {
          "indexed": false,
          "internalType": "bool",
          "name": "isPublic",
          "type": "bool"
        },
        {
          "indexed": false,
          "internalType": "uint256",
          "name": "timestamp",
          "type": "uint256"
        }
      ],
      "name": "RoomCreated",
      "type": "event"
    },
    {
      "anonymous": false,
      "inputs": [
        {
          "indexed": true,
          "internalType": "uint256",
          "name": "projectId",
          "type": "uint256"
        }
      ],
      "name": "RoomSettingsUpdated",
      "type": "event"
    },
    {
      "anonymous": false,
      "inputs": [
        {
          "indexed": true,
          "internalType": "uint256",
          "name": "projectId",
          "type": "uint256"
        },
        {
          "indexed": true,
          "internalType": "address",
          "name": "user",
          "type": "address"
        }
      ],
      "name": "UserBanned",
      "type": "event"
    },
    {
      "anonymous": false,
      "inputs": [
        {
          "indexed": true,
          "internalType": "uint256",
          "name": "projectId",
          "type": "uint256"
        },
        {
          "indexed": true,
          "internalType": "address",
          "name": "user",
          "type": "address"
        }
      ],
      "name": "UserUnbanned",
      "type": "event"
    },
    {
      "inputs": [],
      "name": "DEFAULT_COOLDOWN",
      "outputs": [
        {
          "internalType": "uint256",
          "name": "",
          "type": "uint256"
        }
      ],
      "stateMutability": "view",
      "type": "function"
    },
    {
      "inputs": [],
      "name": "MAX_MESSAGES_PER_ROOM",
      "outputs": [
        {
          "internalType": "uint256",
          "name": "",
          "type": "uint256"
        }
      ],
      "stateMutability": "view",
      "type": "function"
    },
    {
      "inputs": [],
      "name": "MAX_MESSAGE_LENGTH",
      "outputs": [
        {
          "internalType": "uint256",
          "name": "",
          "type": "uint256"
        }
      ],
      "stateMutability": "view",
      "type": "function"
    },
    {
      "inputs": [],
      "name": "accessController",
      "outputs": [
        {
          "internalType": "address",
          "name": "",
          "type": "address"
        }
      ],
      "stateMutability": "view",
      "type": "function"
    },
    {
      "inputs": [
        {
          "internalType": "uint256",
          "name": "projectId",
          "type": "uint256"
        },
        {
          "internalType": "address",
          "name": "moderator",
          "type": "address"
        }
      ],
      "name": "addModerator",
      "outputs": [],
      "stateMutability": "nonpayable",
      "type": "function"
    },
    {
      "inputs": [
        {
          "internalType": "uint256",
          "name": "projectId",
          "type": "uint256"
        },
        {
          "internalType": "address",
          "name": "user",
          "type": "address"
        }
      ],
      "name": "banUser",
      "outputs": [],
      "stateMutability": "nonpayable",
      "type": "function"
    },
    {
      "inputs": [],
      "name": "confidentialProtocolId",
      "outputs": [
        {
          "internalType": "uint256",
          "name": "",
          "type": "uint256"
        }
      ],
      "stateMutability": "view",
      "type": "function"
    },
    {
      "inputs": [
        {
          "internalType": "uint256",
          "name": "projectId",
          "type": "uint256"
        },
        {
          "internalType": "bool",
          "name": "isPublic",
          "type": "bool"
        },
        {
          "internalType": "bool",
          "name": "requiresReputation",
          "type": "bool"
        },
        {
          "internalType": "uint16",
          "name": "minReputationToPost",
          "type": "uint16"
        }
      ],
      "name": "createRoom",
      "outputs": [
        {
          "internalType": "bool",
          "name": "",
          "type": "bool"
        }
      ],
      "stateMutability": "nonpayable",
      "type": "function"
    },
    {
      "inputs": [
        {
          "internalType": "uint256",
          "name": "projectId",
          "type": "uint256"
        },
        {
          "internalType": "bytes32",
          "name": "messageHash",
          "type": "bytes32"
        }
      ],
      "name": "deleteMessage",
      "outputs": [],
      "stateMutability": "nonpayable",
      "type": "function"
    },
    {
      "inputs": [
        {
          "internalType": "bytes32",
          "name": "messageHash",
          "type": "bytes32"
        }
      ],
      "name": "downvoteMessage",
      "outputs": [],
      "stateMutability": "nonpayable",
      "type": "function"
    },
    {
      "inputs": [
        {
          "internalType": "uint256",
          "name": "projectId",
          "type": "uint256"
        }
      ],
      "name": "getEncryptedParticipantCount",
      "outputs": [
        {
          "internalType": "euint32",
          "name": "",
          "type": "bytes32"
        }
      ],
      "stateMutability": "view",
      "type": "function"
    },
    {
      "inputs": [
        {
          "internalType": "bytes32",
          "name": "messageHash",
          "type": "bytes32"
        }
      ],
      "name": "getEncryptedVoteCounts",
      "outputs": [
        {
          "internalType": "euint32",
          "name": "",
          "type": "bytes32"
        },
        {
          "internalType": "euint32",
          "name": "",
          "type": "bytes32"
        }
      ],
      "stateMutability": "view",
      "type": "function"
    },
    {
      "inputs": [
        {
          "internalType": "bytes32",
          "name": "messageHash",
          "type": "bytes32"
        }
      ],
      "name": "getMessage",
      "outputs": [
        {
          "internalType": "address",
          "name": "author",
          "type": "address"
        },
        {
          "internalType": "bytes32",
          "name": "contentHash",
          "type": "bytes32"
        },
        {
          "internalType": "uint256",
          "name": "timestamp",
          "type": "uint256"
        },
        {
          "internalType": "bytes32",
          "name": "parentHash",
          "type": "bytes32"
        },
        {
          "internalType": "bool",
          "name": "isEncrypted",
          "type": "bool"
        },
        {
          "internalType": "bool",
          "name": "isDeleted_",
          "type": "bool"
        },
        {
          "internalType": "uint32",
          "name": "upvotes",
          "type": "uint32"
        },
        {
          "internalType": "uint32",
          "name": "downvotes",
          "type": "uint32"
        }
      ],
      "stateMutability": "view",
      "type": "function"
    },
    {
      "inputs": [
        {
          "internalType": "uint256",
          "name": "projectId",
          "type": "uint256"
        },
        {
          "internalType": "uint256",
          "name": "count",
          "type": "uint256"
        }
      ],
      "name": "getRecentMessages",
      "outputs": [
        {
          "internalType": "bytes32[]",
          "name": "",
          "type": "bytes32[]"
        }
      ],
      "stateMutability": "view",
      "type": "function"
    },
    {
      "inputs": [
        {
          "internalType": "uint256",
          "name": "projectId",
          "type": "uint256"
        }
      ],
      "name": "getRoomInfo",
      "outputs": [
        {
          "internalType": "address",
          "name": "roomOwner",
          "type": "address"
        },
        {
          "internalType": "bool",
          "name": "isPublic",
          "type": "bool"
        },
        {
          "internalType": "bool",
          "name": "requiresReputation",
          "type": "bool"
        },
        {
          "internalType": "uint16",
          "name": "minReputationToPost",
          "type": "uint16"
        },
        {
          "internalType": "uint256",
          "name": "messageCount",
          "type": "uint256"
        },
        {
          "internalType": "uint32",
          "name": "participantCount",
          "type": "uint32"
        },
        {
          "internalType": "uint256",
          "name": "createdAt",
          "type": "uint256"
        },
        {
          "internalType": "bool",
          "name": "isActive",
          "type": "bool"
        }
      ],
      "stateMutability": "view",
      "type": "function"
    },
    {
      "inputs": [
        {
          "internalType": "uint256",
          "name": "projectId",
          "type": "uint256"
        },
        {
          "internalType": "address",
          "name": "user",
          "type": "address"
        }
      ],
      "name": "getUserStats",
      "outputs": [
        {
          "internalType": "uint256",
          "name": "messageCount",
          "type": "uint256"
        },
        {
          "internalType": "uint256",
          "name": "lastMessageTimestamp",
          "type": "uint256"
        },
        {
          "internalType": "bool",
          "name": "banned",
          "type": "bool"
        },
        {
          "internalType": "bool",
          "name": "moderator",
          "type": "bool"
        },
        {
          "internalType": "bool",
          "name": "participated",
          "type": "bool"
        }
      ],
      "stateMutability": "view",
      "type": "function"
    },
    {
      "inputs": [
        {
          "internalType": "bytes32",
          "name": "",
          "type": "bytes32"
        },
        {
          "internalType": "address",
          "name": "",
          "type": "address"
        }
      ],
      "name": "hasDownvoted",
      "outputs": [
        {
          "internalType": "bool",
          "name": "",
          "type": "bool"
        }
      ],
      "stateMutability": "view",
      "type": "function"
    },
    {
      "inputs": [
        {
          "internalType": "address",
          "name": "",
          "type": "address"
        },
        {
          "internalType": "uint256",
          "name": "",
          "type": "uint256"
        }
      ],
      "name": "hasParticipated",
      "outputs": [
        {
          "internalType": "bool",
          "name": "",
          "type": "bool"
        }
      ],
      "stateMutability": "view",
      "type": "function"
    },
    {
      "inputs": [
        {
          "internalType": "bytes32",
          "name": "",
          "type": "bytes32"
        },
        {
          "internalType": "address",
          "name": "",
          "type": "address"
        }
      ],
      "name": "hasUpvoted",
      "outputs": [
        {
          "internalType": "bool",
          "name": "",
          "type": "bool"
        }
      ],
      "stateMutability": "view",
      "type": "function"
    },
    {
      "inputs": [
        {
          "internalType": "uint256",
          "name": "",
          "type": "uint256"
        },
        {
          "internalType": "address",
          "name": "",
          "type": "address"
        }
      ],
      "name": "isBanned",
      "outputs": [
        {
          "internalType": "bool",
          "name": "",
          "type": "bool"
        }
      ],
      "stateMutability": "view",
      "type": "function"
    },
    {
      "inputs": [
        {
          "internalType": "uint256",
          "name": "",
          "type": "uint256"
        },
        {
          "internalType": "address",
          "name": "",
          "type": "address"
        }
      ],
      "name": "isModerator",
      "outputs": [
        {
          "internalType": "bool",
          "name": "",
          "type": "bool"
        }
      ],
      "stateMutability": "view",
      "type": "function"
    },
    {
      "inputs": [
        {
          "internalType": "address",
          "name": "",
          "type": "address"
        },
        {
          "internalType": "uint256",
          "name": "",
          "type": "uint256"
        }
      ],
      "name": "lastMessageTime",
      "outputs": [
        {
          "internalType": "uint256",
          "name": "",
          "type": "uint256"
        }
      ],
      "stateMutability": "view",
      "type": "function"
    },
    {
      "inputs": [
        {
          "internalType": "bytes32",
          "name": "",
          "type": "bytes32"
        }
      ],
      "name": "messages",
      "outputs": [
        {
          "internalType": "address",
          "name": "author",
          "type": "address"
        },
        {
          "internalType": "bytes32",
          "name": "contentHash",
          "type": "bytes32"
        },
        {
          "internalType": "uint256",
          "name": "timestamp",
          "type": "uint256"
        },
        {
          "internalType": "bytes32",
          "name": "parentHash",
          "type": "bytes32"
        },
        {
          "internalType": "bool",
          "name": "isEncrypted",
          "type": "bool"
        },
        {
          "internalType": "bool",
          "name": "isDeleted",
          "type": "bool"
        },
        {
          "internalType": "euint32",
          "name": "encUpvotes",
          "type": "bytes32"
        },
        {
          "internalType": "euint32",
          "name": "encDownvotes",
          "type": "bytes32"
        },
        {
          "internalType": "uint32",
          "name": "pubUpvotes",
          "type": "uint32"
        },
        {
          "internalType": "uint32",
          "name": "pubDownvotes",
          "type": "uint32"
        }
      ],
      "stateMutability": "view",
      "type": "function"
    },
    {
      "inputs": [],
      "name": "owner",
      "outputs": [
        {
          "internalType": "address",
          "name": "",
          "type": "address"
        }
      ],
      "stateMutability": "view",
      "type": "function"
    },
    {
      "inputs": [
        {
          "internalType": "uint256",
          "name": "projectId",
          "type": "uint256"
        },
        {
          "internalType": "string",
          "name": "content",
          "type": "string"
        },
        {
          "internalType": "bytes32",
          "name": "parentHash",
          "type": "bytes32"
        },
        {
          "internalType": "bool",
          "name": "encrypt",
          "type": "bool"
        }
      ],
      "name": "postMessage",
      "outputs": [
        {
          "internalType": "bytes32",
          "name": "messageHash",
          "type": "bytes32"
        }
      ],
      "stateMutability": "nonpayable",
      "type": "function"
    },
    {
      "inputs": [
        {
          "internalType": "uint256",
          "name": "projectId",
          "type": "uint256"
        },
        {
          "internalType": "address",
          "name": "moderator",
          "type": "address"
        }
      ],
      "name": "removeModerator",
      "outputs": [],
      "stateMutability": "nonpayable",
      "type": "function"
    },
    {
      "inputs": [
        {
          "internalType": "uint256",
          "name": "",
          "type": "uint256"
        }
      ],
      "name": "rooms",
      "outputs": [
        {
          "internalType": "uint256",
          "name": "projectId",
          "type": "uint256"
        },
        {
          "internalType": "address",
          "name": "roomOwner",
          "type": "address"
        },
        {
          "internalType": "bool",
          "name": "isPublic",
          "type": "bool"
        },
        {
          "internalType": "bool",
          "name": "requiresReputation",
          "type": "bool"
        },
        {
          "internalType": "uint16",
          "name": "minReputationToPost",
          "type": "uint16"
        },
        {
          "internalType": "uint256",
          "name": "messageCooldown",
          "type": "uint256"
        },
        {
          "internalType": "bool",
          "name": "isActive",
          "type": "bool"
        },
        {
          "internalType": "uint256",
          "name": "createdAt",
          "type": "uint256"
        },
        {
          "internalType": "euint32",
          "name": "encParticipantCount",
          "type": "bytes32"
        },
        {
          "internalType": "uint32",
          "name": "pubParticipantCount",
          "type": "uint32"
        }
      ],
      "stateMutability": "view",
      "type": "function"
    },
    {
      "inputs": [
        {
          "internalType": "address",
          "name": "_accessController",
          "type": "address"
        }
      ],
      "name": "setAccessController",
      "outputs": [],
      "stateMutability": "nonpayable",
      "type": "function"
    },
    {
      "inputs": [
        {
          "internalType": "address",
          "name": "_reputation",
          "type": "address"
        }
      ],
      "name": "setZappsReputation",
      "outputs": [],
      "stateMutability": "nonpayable",
      "type": "function"
    },
    {
      "inputs": [],
      "name": "totalRooms",
      "outputs": [
        {
          "internalType": "uint256",
          "name": "",
          "type": "uint256"
        }
      ],
      "stateMutability": "view",
      "type": "function"
    },
    {
      "inputs": [
        {
          "internalType": "address",
          "name": "newOwner",
          "type": "address"
        }
      ],
      "name": "transferOwnership",
      "outputs": [],
      "stateMutability": "nonpayable",
      "type": "function"
    },
    {
      "inputs": [
        {
          "internalType": "uint256",
          "name": "projectId",
          "type": "uint256"
        },
        {
          "internalType": "address",
          "name": "user",
          "type": "address"
        }
      ],
      "name": "unbanUser",
      "outputs": [],
      "stateMutability": "nonpayable",
      "type": "function"
    },
    {
      "inputs": [
        {
          "internalType": "uint256",
          "name": "projectId",
          "type": "uint256"
        },
        {
          "internalType": "bool",
          "name": "isPublic",
          "type": "bool"
        },
        {
          "internalType": "bool",
          "name": "requiresReputation",
          "type": "bool"
        },
        {
          "internalType": "uint16",
          "name": "minReputationToPost",
          "type": "uint16"
        },
        {
          "internalType": "uint256",
          "name": "messageCooldown",
          "type": "uint256"
        }
      ],
      "name": "updateRoomSettings",
      "outputs": [],
      "stateMutability": "nonpayable",
      "type": "function"
    },
    {
      "inputs": [
        {
          "internalType": "bytes32",
          "name": "messageHash",
          "type": "bytes32"
        }
      ],
      "name": "upvoteMessage",
      "outputs": [],
      "stateMutability": "nonpayable",
      "type": "function"
    },
    {
      "inputs": [
        {
          "internalType": "address",
          "name": "",
          "type": "address"
        },
        {
          "internalType": "uint256",
          "name": "",
          "type": "uint256"
        }
      ],
      "name": "userMessageCount",
      "outputs": [
        {
          "internalType": "uint256",
          "name": "",
          "type": "uint256"
        }
      ],
      "stateMutability": "view",
      "type": "function"
    },
    {
      "inputs": [],
      "name": "zappsReputation",
      "outputs": [
        {
          "internalType": "address",
          "name": "",
          "type": "address"
        }
      ],
      "stateMutability": "view",
      "type": "function"
    }
  ],
  "bytecode": "0x6080604052346101e25761001161021c565b50466001036100fc5761002261021c565b5061002b6101e7565b6000815260006020820152600060408201525b80517f9e7b61f58c47dc699ac88507c4f5bb9f121c03808c5676a8078fe583e464970080546001600160a01b03199081166001600160a01b039384161790915560208301517f9e7b61f58c47dc699ac88507c4f5bb9f121c03808c5676a8078fe583e4649701805483169184169190911790556040928301517f9e7b61f58c47dc699ac88507c4f5bb9f121c03808c5676a8078fe583e4649702805483169190931617909155600080549091163317905551611fb0908161023a8239f35b4662aa36a7036101675761010e61021c565b506101176101e7565b73f0ffdc93b7e186bc2f8cb3daa75d86d1930a433d81527392c920834ec8941d2c77d188936e1f7a6f49c127602082015273be0e383937d564d7ff0bc3b46c51f0bf8d5c311a604082015261003e565b46617a69036101d15761017861021c565b506101816101e7565b7350157cffd6bbfa2dece204a89ec419c23ef5755d815273e3a9105a3a932253a70f126eb1e3b589c643dd24602082015273901f8942346f7ab3a01f6d7613119bca447bb030604082015261003e565b6373cac13b60e01b60005260046000fd5b600080fd5b60405190606082016001600160401b0381118382101761020657604052565b634e487b7160e01b600052604160045260246000fd5b6102246101e7565b9060008252600060208301526000604083015256fe608080604052600436101561001357600080fd5b600090813560e01c9081630139a22114611ae55750806303fe3edc14611aa257806306b561951461184c5780630c59a222146113aa578063144c93c61461137d5780631bae0ac8146112d25780631d4417f01461117b5780632a02721114610f155780632bbd59ca146110d65780632f9a6f9a14610fcf5780633459704c14610fa6578063359211b414610f5d57806341bb890314610f1a57806354087a1914610f1557806355707e1a14610d345780636790d2b514610c8557806369e8a04814610b5b5780637192c82f14610a94578063764d64ff14610a4857806378044e7b1461092b578063827059ff1461090f5780638462217a146107735780638927b030146107505780638da5cb5b146107295780638ed57881146106dd57806394e183af1461068f57806398ef65a51461064f578063a34b368c14610603578063af5537fa146105e5578063bc43cbaf146105bc578063bdb7b4c4146104b0578063c6ff330614610464578063d864a0b914610378578063ee7b893a14610277578063f08391d81461021a5763f2fde38b146101ad57600080fd5b34610217576020366003190112610217576101c6611b6f565b8154906001600160a01b0382163303610208576001600160a01b03169081156101f9576001600160a01b03191617815580f35b6349e27cff60e01b8352600483fd5b6330cd747160e01b8352600483fd5b80fd5b503461021757602036600319011261021757610234611b6f565b81546001600160a01b031633036102685760018060a01b03166bffffffffffffffffffffffff60a01b600254161760025580f35b6330cd747160e01b8252600482fd5b503461021757604036600319011261021757600435610294611b8a565b818352600360205260408320600101546001600160a01b0316330361036957818352600360205260ff6003604085200154161561035a5781835260046020526040832060018060a01b03821660005260205260ff604060002054161561034b578183526004602090815260408085206001600160a01b0393909316600081815293909252909120805460ff19169055907f8e34892af71c6abec20e2d40694c8154c3b15b917eb6534feca50b044fb9887f8380a380f35b6351da328560e11b8352600483fd5b63ba586cfd60e01b8352600483fd5b630d6b03bb60e41b8352600483fd5b503461021757604036600319011261021757600435610395611b8a565b818352600360205260408320600101546001600160a01b0316330361036957818352600360205260ff6003604085200154161561035a576001600160a01b0316908115610455578083526004602052604083208260005260205260ff6040600020541661044657808352600460205260408320826000526020526040600020600160ff198254161790557f9447229bc29eb544accf34567a6f7da234115d7c869706a6d56990c752c3be4f8380a380f35b63979119d560e01b8352600483fd5b637c43e4a360e11b8352600483fd5b5034610217576040366003190112610217576040610480611b8a565b9160043581526004602052209060018060a01b0316600052602052602060ff604060002054166040519015158152f35b50346102175760403660031901126102175760043560243590808352600360205260018060a01b036001604085200154163314159081610598575b5061058957808252600660205260026040832001541561057a57808252600660205260ff600460408420015460081c1661056b5780825260066020526004604083200161010061ff0019825416179055604051904282527f4b6c32fbe9ea71054af5a07badca423f4f0edaf08f70d52a3bf9d1d4e152710b60203393a380f35b639ce51cd360e01b8252600482fd5b6328915ac760e01b8252600482fd5b6375522eb560e11b8252600482fd5b835250600460209081526040808420336000908152925290205460ff1615386104eb565b50346102175780600319360112610217576002546040516001600160a01b039091168152602090f35b50346102175780600319360112610217576020600c54604051908152f35b503461021757604036600319011261021757604061061f611b8a565b916004358152600b602052209060018060a01b0316600052602052602060ff604060002054166040519015158152f35b5034610217576020366003190112610217576040906006826004359283815282602052600582822001549381528260205220015482519182526020820152f35b5034610217576020366003190112610217576106a9611b6f565b81546001600160a01b031633036102685760018060a01b03166bffffffffffffffffffffffff60a01b600154161760015580f35b50346102175760403660031901126102175760406106f9611b8a565b9160043581526005602052209060018060a01b0316600052602052602060ff604060002054166040519015158152f35b5034610217578060031936011261021757546040516001600160a01b039091168152602090f35b5034610217578060031936011261021757602061076b611f29565b604051908152f35b503461021757608036600319011261021757600435610790611ba0565b91610799611baf565b926107a2611bdb565b838352600360205260ff60036040852001541661090157838352600360209081526040842085815560018101805460ff60a01b1933166001600160a81b03199091161785151560a01b60ff60a01b16178155919661086d9360069361083f92610820905b825460ff60a81b191690151560a81b60ff60a81b16178255565b805461ffff60b01b191660b09290921b61ffff60b01b16919091179055565b601e600282015560038101805460ff19166001179055426004820155610863611d45565b9182910155611e21565b5082825260048452604080832033600090815290865220805460ff19166001179055600c5461089b90611c92565b600c5560405190151581524284820152827f5e1235827f168c76008fd360cac0a08b087fddd394a9339e55783ad73e9bf88d60403393a3604051917f9447229bc29eb544accf34567a6f7da234115d7c869706a6d56990c752c3be4f339280a360018152f35b622b179760e31b8352600483fd5b50346102175780600319360112610217576020604051601e8152f35b503461021757604036600319011261021757600435610948611b8a565b818352600360205260408320600101546001600160a01b031633141580610a24575b610a1557818352600360205260ff6003604085200154161561035a5781835260056020526040832060018060a01b03821660005260205260ff6040600020541615610a06578183526005602090815260408085206001600160a01b0393909316600081815293909252909120805460ff19169055907f5e5b6f662ba26195b3153e3b120ad8ebf10ac4cd220771b343a17d95e09b64f28380a380f35b635be69e4b60e11b8352600483fd5b6375522eb560e11b8352600483fd5b50818352600460209081526040808520336000908152925290205460ff161561096a565b5034610217576040366003190112610217576040610a64611b8a565b916004358152600a602052209060018060a01b0316600052602052602060ff604060002054166040519015158152f35b50346102175760403660031901126102175760a090600435906001600160a01b03610abd611b8a565b1680825260076020526040822083835260205260408220549281835260086020526040832081845260205260ff604080852054948381526005602052818120856000526020528282600020541693808252600460205282822086600052602052838360002054169582526009602052828220908252602052205416926040519485526020850152151560408401521515606083015215156080820152f35b503461021757604036600319011261021757600435610b78611b8a565b90808352600360205260018060a01b0360016040852001541633141580610c61575b610a1557808352600360205260ff6003604085200154161561035a57808352600360205260408320600101546001600160a01b0392831692168214610c52578083526005602052604083208260005260205260ff60406000205416610c4357808352600560205260408320826000526020526040600020600160ff198254161790557f91e551a6352e4036885d9632cea4b1e359dc2c63119f6fb717c48fd253481d9c8380a380f35b633bd7dc9760e01b8352600483fd5b63bbcfb77160e01b8352600483fd5b50808352600460209081526040808520336000908152925290205460ff1615610b9a565b50346102175760203660031901126102175761010090600435815260036020526040812060018101549060ff8260a01c169283600014610d29575063ffffffff806007830154165b600583015461ffff60ff6003600487015496015416956040519760018060a01b03821689521515602089015260ff8160a81c161515604089015260b01c16606087015260808601521660a084015260c0830152151560e0820152f35b63ffffffff90610ccd565b503461021757602036600319011261021757600435808252600660205260026040832001541561057a57808252600660205260ff600460408420015460081c1661056b57808252600b60209081526040808420336000908152925290205460ff16610f06578082526006602052610e5660408320828452600a6020526040842060018060a01b03331660005260205260ff60406000205416610e87575b610e5060076006830192610dee8454610de8611cb9565b90611ea2565b8455858752600b6020526040872060018060a01b0333166000526020526040600020600160ff1982541617905501610e2f63ffffffff825460201c16611c15565b67ffffffff0000000082549160201b169067ffffffff000000001916179055565b54611e21565b50604051908282527fc9077ed2c77a64dd7f23ebf2bbc44b73a17fc5dacc03125fae2ba939b384899b60203393a380f35b610ea960058201610ea18154610e9b611cb9565b90611d9a565b809155611e21565b50828452600a6020908152604080862033600090815292529020805460ff1916905560078101805463ffffffff1680610ee4575b5050610dd1565b610ef263ffffffff91611bec565b1663ffffffff198254161790553880610edd565b6316d7e35760e31b8252600482fd5b611bbe565b5034610217576040366003190112610217576020906040906001600160a01b03610f42611b6f565b16815260078352818120602435825283522054604051908152f35b50346102175760403660031901126102175760209060ff906040906001600160a01b03610f88611b6f565b16815260098452818120602435825284522054166040519015158152f35b50346102175780600319360112610217576001546040516001600160a01b039091168152602090f35b50346102175760a036600319011261021757600435610fec611ba0565b610ff4611baf565b610ffc611bdb565b8385526003602052604085206001015460843593906001600160a01b031633036110c757848652600360205260ff600360408820015416156110b857610e1084116110a95784865260036020526040862060018101805460ff60a01b191692151560a01b60ff60a01b16929092178255600293909261108092909161082090610806565b01557ff4bbf57536b518d803183c969de7f515a221ef248780372852f220328bb9fe4e8280a280f35b63f31366db60e01b8652600486fd5b63ba586cfd60e01b8652600486fd5b630d6b03bb60e41b8652600486fd5b503461021757602036600319011261021757604061014091600435815260066020522063ffffffff60018060a01b0382541691600181015490600281015460ff60038301546004840154906005850154936007600687015496015496604051998a5260208a0152604089015260608801528181161515608088015260081c16151560a086015260c085015260e084015281811661010084015260201c16610120820152f35b50346102175760403660031901126102175760043560243590808352600360205260ff6003604085200154161561035a57819083526003602052600560408420019182548091116112ca575b906111d181611ca1565b916111df6040519384611c2c565b8183526111eb82611ca1565b602084019490601f1901368637600019820191808311875b85811061124e57888789604051928392602084019060208552518091526040840192915b818110611235575050500390f35b8251845285945060209384019390920191600101611227565b816112b657808303600019018581116112a25761126b9085611c64565b90549060031b1c875182101561128e57600582901b880160200152600101611203565b634e487b7160e01b8a52603260045260248afd5b634e487b7160e01b8a52601160045260248afd5b634e487b7160e01b89526011600452602489fd5b9050806111c7565b5034610217576020366003190112610217576040610140916004358152600360205220805490600181015490600281015460ff60038301541660048301549161ffff63ffffffff60076006870154960154169560405197885260018060a01b038116602089015260ff8160a01c161515604089015260ff8160a81c161515606089015260b01c16608087015260a0860152151560c085015260e0840152610100830152610120820152f35b50346102175760203660031901126102175760066040602092600435815260038452200154604051908152f35b50346102175760803660031901126102175760043560243567ffffffffffffffff811161184857366023820112156118485780600401359167ffffffffffffffff831161184457366024848401011161184457604435916064359081151580920361184057828652600360205260ff600360408820015416156110b8578286526003602052604086209083875260056020526040872060018060a01b03331660005260205260ff604060002054166118315733875260086020526040872084885260205260408720546002830154810180911161181d57421061180e576005820195612710875410156117ff57876020604051926114b182601f19601f8401160185611c2c565b8084528060248386019601863783010152805180159081156117f3575b506117e457856117c1575b5190209460405160208101908582523360601b60408201528760548201524260748201526074815261150c609482611c2c565b51902095868852600660205260026040892001546117b2578688526006602052604088208054336001600160a01b031990911617815560018101919091554260028201556003810186905560048101805460ff191660ff861617905561159a90611593611577611d45565b600583019081556006611588611d45565b930192835554611e21565b5054611e21565b508054906801000000000000000082101561179e57816115c39160018997969594018155611c64565b81549060031b9086821b91600019901b1916179055338752600760205260408720838852602052604087206115f88154611c92565b905533875260086020526040872083885260205242604088205533875260096020526040872083885260205260ff60408820541615611731575b5060405193845260208401524260408401527f77cd595e56725cca065ff01a6d259e82f104028ccd9538f65e1133a848bfe5d160603394a46001546001600160a01b031680611687575b602082604051908152f35b8083913b1561172257819060c46040518094819363973dde9160e01b835233600484015260806024840152601160848401527044495343555353494f4e5f41435449564560781b60a4840152600560448401527fe94d78b6d8fb99b2c21131eb4552924a60f564d8515a3cc90ef300fc9735c07460648401525af18015611726571561167c57611718838092611c2c565b611722578161167c565b5080fd5b6040513d85823e3d90fd5b33875260096020526040872083885260205260408720600160ff1982541617905561176660068201610ea18154610de8611cb9565b5060ff600182015460a01c16156116325760070163ffffffff61178b81835416611c15565b1663ffffffff1982541617905538611632565b634e487b7160e01b88526041600452602488fd5b630dfcb10560e21b8852600488fd5b858852600660205260026040892001546114d957632749f57360e21b8852600488fd5b63f769918360e01b8852600488fd5b612710915011386114ce565b63bc42480360e01b8852600488fd5b63aa9a98df60e01b8752600487fd5b634e487b7160e01b88526011600452602488fd5b63119be7db60e31b8752600487fd5b8580fd5b8380fd5b8280fd5b503461021757602036600319011261021757600435808252600660205260026040832001541561057a57808252600660205260ff600460408420015460081c1661056b57808252600a6020908152604080842033855290915282205460ff16611a9357808252600660209081526040808420838552600b835281852033865290925283205483929060ff16611a30575b61193e600583016118f08154610de8611cb9565b8155828552600a602090815260408087203388529091528520805460ff1916600117905560078401805463ffffffff9061192b908216611c15565b1663ffffffff1982541617905554611e21565b5060405190600182527fc9077ed2c77a64dd7f23ebf2bbc44b73a17fc5dacc03125fae2ba939b384899b60203393a36001546001600160a01b03169081611983575050f35b546001600160a01b0316813b15611a2c57829160c48392604051958693849263973dde9160e01b8452600484015260806024840152600e60848401526d10d3d39511539517d49155d0549160921b60a4840152600260448401527f3c2519c4487d47714872f92cf90a50c25f5deaec2789dc2a497b1272df611db660648401525af18015611a1f57611a13579050f35b611a1c91611c2c565b80f35b50604051903d90823e3d90fd5b5050fd5b611a4460068301610ea18154610e9b611cb9565b50808352600b6020908152604080852033865282528420805460ff1916905560078301805490911c63ffffffff169081611a80575b50506118dc565b610e2f611a8c92611bec565b3880611a79565b63291c946f60e11b8252600482fd5b5034610217576040366003190112610217576020906040906001600160a01b03611aca611b6f565b16815260088352818120602435825283522054604051908152f35b9050346117225760203660031901126117225763ffffffff604061010093600435815260066020522060ff60018060a01b038254169160018101546002820154600383015491600760048501549401549588526020880152604087015260608601528181161515608086015260081c16151560a084015281811660c084015260201c1660e0820152f35b600435906001600160a01b0382168203611b8557565b600080fd5b602435906001600160a01b0382168203611b8557565b602435908115158203611b8557565b604435908115158203611b8557565b34611b85576000366003190112611b855760206040516127108152f35b6064359061ffff82168203611b8557565b63ffffffff168015611bff576000190190565b634e487b7160e01b600052601160045260246000fd5b63ffffffff1663ffffffff8114611bff5760010190565b90601f8019910116810190811067ffffffffffffffff821117611c4e57604052565b634e487b7160e01b600052604160045260246000fd5b8054821015611c7c5760005260206000200190600090565b634e487b7160e01b600052603260045260246000fd5b6000198114611bff5760010190565b67ffffffffffffffff8111611c4e5760051b60200190565b6000602060018060a01b03600080516020611f5b8339815191525416604460405180948193639cd07acb60e01b835260016004840152600460248401525af1908115611d3957600091611d0a575090565b90506020813d602011611d31575b81611d2560209383611c2c565b81010312611b85575190565b3d9150611d18565b6040513d6000823e3d90fd5b600080516020611f5b83398151915254604051639cd07acb60e01b81526000600480830182905260248301529091602091839160449183916001600160a01b03165af1908115611d3957600091611d0a575090565b908115611e11575b8015611dff575b602090606460018060a01b03600080516020611f5b833981519152541693600060405195869485936303056db360e31b8552600485015260248401528160448401525af1908115611d3957600091611d0a575090565b506020611e0a611d45565b9050611da9565b9050611e1b611d45565b90611da2565b7f9e7b61f58c47dc699ac88507c4f5bb9f121c03808c5676a8078fe583e4649700546000906001600160a01b0316803b1561172257818091604460405180948193635ca4b5b160e11b83528860048401523060248401525af18015611e9757611e8957505090565b81611e9391611c2c565b5090565b6040513d84823e3d90fd5b908115611f19575b8015611f07575b602090606460018060a01b03600080516020611f5b8339815191525416936000604051958694859363022f65e760e31b8552600485015260248401528160448401525af1908115611d3957600091611d0a575090565b506020611f12611d45565b9050611eb1565b9050611f23611d45565b90611eaa565b46600103611f3657600190565b4662aa36a703611f465761271190565b617a694614611f5457600090565b6000199056fe9e7b61f58c47dc699ac88507c4f5bb9f121c03808c5676a8078fe583e4649701a264697066735822122087563bc2401ad2f5e9b0aeb5b1a6fdbb18d48fb86170dbd15adf0dc14ef5165064736f6c634300081b0033",
  "linkReferences": {},
  "deployedLinkReferences": {}
}